{
  "contractName": "Exchange",
  "abi": [
    {
      "inputs": [
        {
          "internalType": "address",
          "name": "_marketManager",
          "type": "address"
        },
        {
          "internalType": "address",
          "name": "_orderBookManager",
          "type": "address"
        },
        {
          "internalType": "address",
          "name": "_tokenManager",
          "type": "address"
        }
      ],
      "stateMutability": "nonpayable",
      "type": "constructor"
    },
    {
      "anonymous": false,
      "inputs": [
        {
          "indexed": true,
          "internalType": "address",
          "name": "user",
          "type": "address"
        },
        {
          "indexed": false,
          "internalType": "uint8",
          "name": "tokenId",
          "type": "uint8"
        },
        {
          "indexed": false,
          "internalType": "uint256",
          "name": "amount",
          "type": "uint256"
        },
        {
          "indexed": false,
          "internalType": "uint256",
          "name": "timestamp",
          "type": "uint256"
        }
      ],
      "name": "DepositReceived",
      "type": "event"
    },
    {
      "anonymous": false,
      "inputs": [
        {
          "indexed": true,
          "internalType": "bytes32",
          "name": "marketId",
          "type": "bytes32"
        },
        {
          "indexed": false,
          "internalType": "uint256",
          "name": "orderId",
          "type": "uint256"
        },
        {
          "indexed": false,
          "internalType": "address",
          "name": "userAddress",
          "type": "address"
        },
        {
          "indexed": false,
          "internalType": "enum OrderLibrary.OrderType",
          "name": "orderType",
          "type": "uint8"
        },
        {
          "indexed": false,
          "internalType": "uint256",
          "name": "timestamp",
          "type": "uint256"
        }
      ],
      "name": "OrderCancelled",
      "type": "event"
    },
    {
      "anonymous": false,
      "inputs": [
        {
          "indexed": true,
          "internalType": "bytes32",
          "name": "marketId",
          "type": "bytes32"
        },
        {
          "indexed": true,
          "internalType": "uint256",
          "name": "buyOrderId",
          "type": "uint256"
        },
        {
          "indexed": true,
          "internalType": "uint256",
          "name": "sellOrderId",
          "type": "uint256"
        },
        {
          "indexed": false,
          "internalType": "uint256",
          "name": "matchedAmount",
          "type": "uint256"
        },
        {
          "indexed": false,
          "internalType": "uint256",
          "name": "executionPrice",
          "type": "uint256"
        },
        {
          "indexed": false,
          "internalType": "uint256",
          "name": "timestamp",
          "type": "uint256"
        }
      ],
      "name": "OrderMatched",
      "type": "event"
    },
    {
      "anonymous": false,
      "inputs": [
        {
          "indexed": true,
          "internalType": "bytes32",
          "name": "marketId",
          "type": "bytes32"
        },
        {
          "indexed": false,
          "internalType": "address[]",
          "name": "toBePaid",
          "type": "address[]"
        },
        {
          "indexed": false,
          "internalType": "address[]",
          "name": "toReceive",
          "type": "address[]"
        },
        {
          "indexed": false,
          "internalType": "uint256[]",
          "name": "tokenAmount",
          "type": "uint256[]"
        },
        {
          "indexed": false,
          "internalType": "int256[]",
          "name": "currencyAmount",
          "type": "int256[]"
        },
        {
          "indexed": false,
          "internalType": "uint256",
          "name": "timestamp",
          "type": "uint256"
        }
      ],
      "name": "SettlementCompleted",
      "type": "event"
    },
    {
      "anonymous": false,
      "inputs": [
        {
          "indexed": true,
          "internalType": "address",
          "name": "from",
          "type": "address"
        },
        {
          "indexed": true,
          "internalType": "address",
          "name": "to",
          "type": "address"
        },
        {
          "indexed": false,
          "internalType": "uint256",
          "name": "tokenAmount",
          "type": "uint256"
        },
        {
          "indexed": false,
          "internalType": "int256",
          "name": "currencyAmount",
          "type": "int256"
        },
        {
          "indexed": false,
          "internalType": "uint256",
          "name": "timestamp",
          "type": "uint256"
        }
      ],
      "name": "TransferProcessed",
      "type": "event"
    },
    {
      "anonymous": false,
      "inputs": [
        {
          "indexed": true,
          "internalType": "address",
          "name": "user",
          "type": "address"
        },
        {
          "indexed": false,
          "internalType": "uint8",
          "name": "tokenId",
          "type": "uint8"
        },
        {
          "indexed": false,
          "internalType": "uint256",
          "name": "amount",
          "type": "uint256"
        },
        {
          "indexed": false,
          "internalType": "uint256",
          "name": "timestamp",
          "type": "uint256"
        }
      ],
      "name": "WithdrawalProcessed",
      "type": "event"
    },
    {
      "inputs": [],
      "name": "marketManager",
      "outputs": [
        {
          "internalType": "contract MarketManager",
          "name": "",
          "type": "address"
        }
      ],
      "stateMutability": "view",
      "type": "function",
      "constant": true
    },
    {
      "inputs": [],
      "name": "orderBookManager",
      "outputs": [
        {
          "internalType": "contract OrderBookManager",
          "name": "",
          "type": "address"
        }
      ],
      "stateMutability": "view",
      "type": "function",
      "constant": true
    },
    {
      "inputs": [],
      "name": "tokenManager",
      "outputs": [
        {
          "internalType": "contract TokenManager",
          "name": "",
          "type": "address"
        }
      ],
      "stateMutability": "view",
      "type": "function",
      "constant": true
    },
    {
      "inputs": [
        {
          "internalType": "string",
          "name": "symbol",
          "type": "string"
        },
        {
          "internalType": "uint256",
          "name": "amount",
          "type": "uint256"
        }
      ],
      "name": "depositTokens",
      "outputs": [],
      "stateMutability": "nonpayable",
      "type": "function"
    },
    {
      "inputs": [
        {
          "internalType": "string",
          "name": "symbol",
          "type": "string"
        },
        {
          "internalType": "uint256",
          "name": "amount",
          "type": "uint256"
        }
      ],
      "name": "withdrawTokens",
      "outputs": [],
      "stateMutability": "nonpayable",
      "type": "function"
    },
    {
      "inputs": [
        {
          "internalType": "string",
          "name": "token1",
          "type": "string"
        },
        {
          "internalType": "string",
          "name": "token2",
          "type": "string"
        },
        {
          "internalType": "uint256",
          "name": "amount",
          "type": "uint256"
        },
        {
          "internalType": "enum OrderLibrary.OrderType",
          "name": "orderType",
          "type": "uint8"
        }
      ],
      "name": "placeMarketOrder",
      "outputs": [
        {
          "internalType": "uint256",
          "name": "",
          "type": "uint256"
        }
      ],
      "stateMutability": "nonpayable",
      "type": "function"
    },
    {
      "inputs": [
        {
          "internalType": "string",
          "name": "token1",
          "type": "string"
        },
        {
          "internalType": "string",
          "name": "token2",
          "type": "string"
        },
        {
          "internalType": "int256",
          "name": "price",
          "type": "int256"
        },
        {
          "internalType": "uint256",
          "name": "amount",
          "type": "uint256"
        },
        {
          "internalType": "enum OrderLibrary.OrderType",
          "name": "orderType",
          "type": "uint8"
        }
      ],
      "name": "placeLimitOrder",
      "outputs": [
        {
          "internalType": "uint256",
          "name": "",
          "type": "uint256"
        }
      ],
      "stateMutability": "nonpayable",
      "type": "function"
    },
    {
      "inputs": [
        {
          "internalType": "uint8",
          "name": "tokenId1",
          "type": "uint8"
        },
        {
          "internalType": "uint8",
          "name": "tokenId2",
          "type": "uint8"
        },
        {
          "internalType": "uint256",
          "name": "orderId",
          "type": "uint256"
        },
        {
          "internalType": "enum OrderLibrary.OrderType",
          "name": "orderType",
          "type": "uint8"
        },
        {
          "internalType": "enum OrderLibrary.OrderNature",
          "name": "orderNature",
          "type": "uint8"
        }
      ],
      "name": "cancelOrder",
      "outputs": [],
      "stateMutability": "nonpayable",
      "type": "function"
    },
    {
      "inputs": [
        {
          "internalType": "address",
          "name": "_userAddr",
          "type": "address"
        },
        {
          "internalType": "string",
          "name": "_symbol",
          "type": "string"
        }
      ],
      "name": "getUserTokenBalance",
      "outputs": [
        {
          "internalType": "uint256",
          "name": "",
          "type": "uint256"
        }
      ],
      "stateMutability": "view",
      "type": "function",
      "constant": true
    },
    {
      "inputs": [],
      "name": "getAllAvailableTokens",
      "outputs": [
        {
          "internalType": "string[]",
          "name": "",
          "type": "string[]"
        },
        {
          "internalType": "string[]",
          "name": "",
          "type": "string[]"
        }
      ],
      "stateMutability": "view",
      "type": "function",
      "constant": true
    },
    {
      "inputs": [
        {
          "internalType": "address",
          "name": "_userAddr",
          "type": "address"
        }
      ],
      "name": "getAllUserTokenBalance",
      "outputs": [
        {
          "internalType": "uint256[]",
          "name": "userTokenBalances",
          "type": "uint256[]"
        },
        {
          "internalType": "string[]",
          "name": "tokenNames",
          "type": "string[]"
        }
      ],
      "stateMutability": "view",
      "type": "function",
      "constant": true
    },
    {
      "inputs": [
        {
          "internalType": "string",
          "name": "_token1",
          "type": "string"
        },
        {
          "internalType": "string",
          "name": "_token2",
          "type": "string"
        }
      ],
      "name": "getAllActiveOrdersForAMarket",
      "outputs": [
        {
          "internalType": "uint256[]",
          "name": "amount",
          "type": "uint256[]"
        },
        {
          "internalType": "int256[]",
          "name": "price",
          "type": "int256[]"
        },
        {
          "internalType": "uint256[]",
          "name": "orderIds",
          "type": "uint256[]"
        },
        {
          "internalType": "enum OrderLibrary.OrderType[]",
          "name": "orderType",
          "type": "uint8[]"
        },
        {
          "internalType": "enum OrderLibrary.OrderNature[]",
          "name": "nature",
          "type": "uint8[]"
        },
        {
          "internalType": "int256[][]",
          "name": "fillsPrice",
          "type": "int256[][]"
        },
        {
          "internalType": "uint256[][]",
          "name": "fillsAmount",
          "type": "uint256[][]"
        },
        {
          "internalType": "uint256[][]",
          "name": "fillsTimestamp",
          "type": "uint256[][]"
        }
      ],
      "stateMutability": "view",
      "type": "function",
      "constant": true
    },
    {
      "inputs": [
        {
          "internalType": "string",
          "name": "_token1",
          "type": "string"
        },
        {
          "internalType": "string",
          "name": "_token2",
          "type": "string"
        }
      ],
      "name": "getAllFulfilledOrdersOfAMarket",
      "outputs": [
        {
          "internalType": "uint256[]",
          "name": "amount",
          "type": "uint256[]"
        },
        {
          "internalType": "int256[]",
          "name": "price",
          "type": "int256[]"
        },
        {
          "internalType": "uint256[]",
          "name": "orderIds",
          "type": "uint256[]"
        },
        {
          "internalType": "enum OrderLibrary.OrderType[]",
          "name": "orderType",
          "type": "uint8[]"
        },
        {
          "internalType": "enum OrderLibrary.OrderNature[]",
          "name": "nature",
          "type": "uint8[]"
        },
        {
          "internalType": "int256[][]",
          "name": "fillsPrice",
          "type": "int256[][]"
        },
        {
          "internalType": "uint256[][]",
          "name": "fillsAmount",
          "type": "uint256[][]"
        },
        {
          "internalType": "uint256[][]",
          "name": "fillsTimestamp",
          "type": "uint256[][]"
        }
      ],
      "stateMutability": "view",
      "type": "function",
      "constant": true
    },
    {
      "inputs": [
        {
          "internalType": "string",
          "name": "_token1",
          "type": "string"
        },
        {
          "internalType": "string",
          "name": "_token2",
          "type": "string"
        },
        {
          "internalType": "address",
          "name": "_userAddress",
          "type": "address"
        }
      ],
      "name": "getAllActiveUserOrdersForAMarket",
      "outputs": [
        {
          "internalType": "uint256[]",
          "name": "amount",
          "type": "uint256[]"
        },
        {
          "internalType": "int256[]",
          "name": "price",
          "type": "int256[]"
        },
        {
          "internalType": "uint256[]",
          "name": "orderIds",
          "type": "uint256[]"
        },
        {
          "internalType": "enum OrderLibrary.OrderType[]",
          "name": "orderType",
          "type": "uint8[]"
        },
        {
          "internalType": "enum OrderLibrary.OrderNature[]",
          "name": "nature",
          "type": "uint8[]"
        },
        {
          "internalType": "int256[][]",
          "name": "fillsPrice",
          "type": "int256[][]"
        },
        {
          "internalType": "uint256[][]",
          "name": "fillsAmount",
          "type": "uint256[][]"
        },
        {
          "internalType": "uint256[][]",
          "name": "fillsTimestamp",
          "type": "uint256[][]"
        }
      ],
      "stateMutability": "view",
      "type": "function",
      "constant": true
    },
    {
      "inputs": [
        {
          "internalType": "string",
          "name": "_token1",
          "type": "string"
        },
        {
          "internalType": "string",
          "name": "_token2",
          "type": "string"
        },
        {
          "internalType": "address",
          "name": "_userAddress",
          "type": "address"
        }
      ],
      "name": "getAllFulfilledUserOrdersForAMarket",
      "outputs": [
        {
          "internalType": "uint256[]",
          "name": "amount",
          "type": "uint256[]"
        },
        {
          "internalType": "int256[]",
          "name": "price",
          "type": "int256[]"
        },
        {
          "internalType": "uint256[]",
          "name": "orderIds",
          "type": "uint256[]"
        },
        {
          "internalType": "enum OrderLibrary.OrderType[]",
          "name": "orderType",
          "type": "uint8[]"
        },
        {
          "internalType": "enum OrderLibrary.OrderNature[]",
          "name": "nature",
          "type": "uint8[]"
        },
        {
          "internalType": "int256[][]",
          "name": "fillsPrice",
          "type": "int256[][]"
        },
        {
          "internalType": "uint256[][]",
          "name": "fillsAmount",
          "type": "uint256[][]"
        },
        {
          "internalType": "uint256[][]",
          "name": "fillsTimestamp",
          "type": "uint256[][]"
        }
      ],
      "stateMutability": "view",
      "type": "function",
      "constant": true
    },
    {
      "inputs": [
        {
          "internalType": "string",
          "name": "_token1",
          "type": "string"
        },
        {
          "internalType": "string",
          "name": "_token2",
          "type": "string"
        },
        {
          "internalType": "address",
          "name": "_userAddress",
          "type": "address"
        }
      ],
      "name": "getAllCancelledUserOrdersForAMarket",
      "outputs": [
        {
          "internalType": "uint256[]",
          "name": "amount",
          "type": "uint256[]"
        },
        {
          "internalType": "int256[]",
          "name": "price",
          "type": "int256[]"
        },
        {
          "internalType": "uint256[]",
          "name": "orderIds",
          "type": "uint256[]"
        },
        {
          "internalType": "enum OrderLibrary.OrderType[]",
          "name": "orderType",
          "type": "uint8[]"
        },
        {
          "internalType": "enum OrderLibrary.OrderNature[]",
          "name": "nature",
          "type": "uint8[]"
        },
        {
          "internalType": "int256[][]",
          "name": "fillsPrice",
          "type": "int256[][]"
        },
        {
          "internalType": "uint256[][]",
          "name": "fillsAmount",
          "type": "uint256[][]"
        },
        {
          "internalType": "uint256[][]",
          "name": "fillsTimestamp",
          "type": "uint256[][]"
        }
      ],
      "stateMutability": "view",
      "type": "function",
      "constant": true
    },
    {
      "inputs": [],
      "name": "getAllMarkets",
      "outputs": [
        {
          "internalType": "bytes32[]",
          "name": "",
          "type": "bytes32[]"
        },
        {
          "internalType": "uint8[]",
          "name": "",
          "type": "uint8[]"
        },
        {
          "internalType": "uint8[]",
          "name": "",
          "type": "uint8[]"
        }
      ],
      "stateMutability": "view",
      "type": "function",
      "constant": true
    },
    {
      "inputs": [
        {
          "internalType": "enum OrderLibrary.OrderType",
          "name": "_orderType",
          "type": "uint8"
        },
        {
          "internalType": "string",
          "name": "_token1",
          "type": "string"
        },
        {
          "internalType": "string",
          "name": "_token2",
          "type": "string"
        }
      ],
      "name": "getBestPriceInMarket",
      "outputs": [
        {
          "internalType": "int256",
          "name": "",
          "type": "int256"
        }
      ],
      "stateMutability": "view",
      "type": "function",
      "constant": true
    }
  ],
  "bytecode": "0x60e034620001be57601f6200404738819003918201601f19168301916001600160401b03831184841017620001c357808492606094604052833981010312620001be5780620000526200008992620001d9565b906200006f60406200006760208401620001d9565b9201620001d9565b6001600160a01b0392831660805290821660a0521660c052565b604051613e589081620001ef8239608051818181610389015281816108d801528181610b2801528181610d7a01528181611133015281816113e4015281816116240152818161181801528181611a2201528181611cf1015281816122ce015281816125eb015281816129d60152818161356d0152613792015260a0518181816109520152818161186a0152818161197301528181612d9501528181612f97015281816130d601526131f4015260c0518181816102660152818161083801528181610ae201528181610baf01528181610ce101528181610f920152818161134c0152818161158401528181611762015281816119e701528181611b5d01528181611ecb0152818161201101528181612254015281816124940152818161293b015281816135b7015281816137db0152613d110152f35b600080fd5b634e487b7160e01b600052604160045260246000fd5b51906001600160a01b0382168203620001be5756fe60806040526004361015610013575b600080fd5b60003560e01c806312ea5c7e1461017b5780631abf946e1461017257806321c3a844146101695780632344e1de146101605780632a709b141461015757806341ed2c121461014e57806355d5d85514610145578063743ab3f61461013c57806375744fe614610133578063776bd6dc1461012a578063824620b21461012157806385ae475d146101185780639861d8021461010f578063aff2382514610106578063b0772d0b146100fd578063d531bc71146100f4578063e9935773146100eb5763f86485e0146100e357600080fd5b61000e61204c565b5061000e611fc3565b5061000e611e7d565b5061000e611b34565b5061000e6119a2565b5061000e61195c565b5061000e6116ef565b5061000e611541565b5061000e611314565b5061000e610ef4565b5061000e610cab565b5061000e610b7c565b5061000e610b11565b5061000e610acb565b5061000e610a7a565b5061000e6107f3565b5061000e61031a565b5061000e61023a565b918091926000905b8282106101a457501161019d575050565b6000910152565b9150806020918301518186015201829161018c565b906020916101d281518092818552858086019101610184565b601f01601f1916010190565b908082519081815260208091019281808460051b8301019501936000915b84831061020c5750505050505090565b909192939495848061022a600193601f198682030187528a516101b9565b98019301930191949392906101fc565b503461000e576000806003193601126103025760405163152e3c9560e11b81526102ba919081816004817f00000000000000000000000000000000000000000000000000000000000000006001600160a01b03165afa9081156102f5575b8280926102cc575b50506102c8906040519384936040855260408501906101de565b9083820360208501526101de565b0390f35b6102c893506102ed92503d8091833e6102e5818361052a565b8101906139ce565b9091386102a0565b6102fd612108565b610298565b80fd5b60ff81160361000e57565b6002111561000e57565b503461000e5760a036600319011261000e5760043561033881610305565b6024359061034582610305565b60443560643561035481610310565b6084359361036185610310565b6040516332e8105b60e11b815260ff9485166004820152931660248401526001600160a01b037f000000000000000000000000000000000000000000000000000000000000000016936020908185604481895afa9485156104de575b600095610483575b509061043191818487987f8b2736d64c84a7dcfa75c365001ce1301e7d9048a01f966d2cb2dc2ef51ab24898600089610416604051978896879586946312c3eaa560e31b8652339160048701613856565b03925af1918215610476575b600092610449575b5050613897565b61044460405192839242913390856138e3565b0390a2005b6104689250803d1061046f575b610460818361052a565b8101906133fc565b388061042a565b503d610456565b61047e612108565b610422565b7f8b2736d64c84a7dcfa75c365001ce1301e7d9048a01f966d2cb2dc2ef51ab24895509082846104cc8294610431963d85116104d7575b6104c4818361052a565b8101906120cc565b9750505090916103c5565b503d6104ba565b6104e6612108565b6103bd565b50634e487b7160e01b600052604160045260246000fd5b606081019081106001600160401b0382111761051d57604052565b6105256104eb565b604052565b90601f801991011681019081106001600160401b0382111761051d57604052565b6040519061055882610502565b565b6020906001600160401b038111610577575b601f01601f19160190565b61057f6104eb565b61056c565b81601f8201121561000e5780359061059b8261055a565b926105a9604051948561052a565b8284526020838301011161000e57816000926020809301838601378301015290565b6001600160a01b0381160361000e57565b90606060031983011261000e576001600160401b0360043581811161000e578361060891600401610584565b9260243591821161000e5761061f91600401610584565b9060443561062c816105cb565b90565b90815180825260208080930193019160005b82811061064f575050505090565b835185529381019392810192600101610641565b50634e487b7160e01b600052602160045260246000fd5b6002111561068457565b610558610663565b90815180825260208080930193019160005b8281106106ac575050505090565b90919293828060019287516106c08161067a565b81520195019392910161069e565b908082519081815260208091019281808460051b8301019501936000915b8483106106fc5750505050505090565b909192939495848061071a600193601f198682030187528a5161062f565b98019301930191949392906106ec565b96949261075961074a610767939b9a98969b610100808c528b019061062f565b6020948a8203868c015261062f565b9088820360408a015261062f565b868103606088015281808a51928381520199019160005b8281106107d157505050506107c392916107a7886107b5938861062c9a9b0360808a015261068c565b9086820360a08801526106ce565b9084820360c08601526106ce565b9160e08184039101526106ce565b9091929982806001928d516107e58161067a565b8152019b019392910161077e565b503461000e5761094e6000610807366105dc565b6040805163079d98ef60e21b8082529195946020946001600160a01b03946108d394909387936108969391928592917f00000000000000000000000000000000000000000000000000000000000000008a16919084908690819061086e906004830161212a565b0381855afa948515610a6d575b8c95610a4e575b508c5180968194829383526004830161212a565b03915afa918215610a41575b8892610a12575b5088516332e8105b60e11b815260ff91821660048201529116602482015292839081906044820190565b0381867f0000000000000000000000000000000000000000000000000000000000000000165afa918215610a05575b85926109e2575b5061092d9061091661054b565b60028152945b6001600160a01b0390911690850152565b6001838601528451809681948293636baf21b560e01b845260048401613c67565b03917f0000000000000000000000000000000000000000000000000000000000000000165afa80156109d5575b60009081928283849085928694879661099e575b51985088976102c8978961072a565b97505050505050506102c8926109c5913d8091833e6109bd818361052a565b810190613b8f565b959850889790949193919061098f565b6109dd612108565b61097b565b61092d9192506109fe90853d87116104d7576104c4818361052a565b9190610909565b610a0d612108565b610902565b610a33919250833d8511610a3a575b610a2b818361052a565b810190612115565b90386108a9565b503d610a21565b610a49612108565b6108a2565b610a66919550843d8611610a3a57610a2b818361052a565b9338610882565b610a75612108565b61087b565b503461000e57604036600319011261000e57600435610a98816105cb565b6024356001600160401b03811161000e57602091610abd610ac3923690600401610584565b90613cf8565b604051908152f35b503461000e57600036600319011261000e576040517f00000000000000000000000000000000000000000000000000000000000000006001600160a01b03168152602090f35b503461000e57600036600319011261000e576040517f00000000000000000000000000000000000000000000000000000000000000006001600160a01b03168152602090f35b9091610b6e61062c9360408452604084019061062f565b9160208184039101526101de565b503461000e57602036600319011261000e57600435610b9a816105cb565b60405163152e3c9560e11b81526000816004817f00000000000000000000000000000000000000000000000000000000000000006001600160a01b03165afa8015610c5b575b6000918291610c40575b50610bf58151613a11565b9060005b8151811015610c2f5780610c1a610c13610c2a9385612cb0565b5187613cf8565b610c248286612cb0565b52612c67565b610bf9565b50506102c860405192839283610b57565b9050610c55913d8091833e6102e5818361052a565b38610bea565b610c63612108565b610be0565b90604060031983011261000e576001600160401b0360043581811161000e5783610c9491600401610584565b9260243591821161000e5761062c91600401610584565b503461000e5761094e6000610cbf36610c68565b6040805163079d98ef60e21b8082529194936020936001600160a01b039385927f000000000000000000000000000000000000000000000000000000000000000086169190849086908190610d17906004830161212a565b0381855afa948515610ee7575b8895610ebe575b50918391610d46938a5180958194829383526004830161212a565b03915afa908115610eb1575b8691610e94575b5086516332e8105b60e11b815260ff848116600483015282166024820152927f00000000000000000000000000000000000000000000000000000000000000008516908385604481855afa948515610e87575b8895610e5a575b508851634792bf4f60e11b815260ff918216600482015292166024830152610df8929082908180604481015b03915afa908115610e4d575b8691610e30575b50613a43565b610e10610e0361054b565b8581523394810194909452565b83858401528451809681948293636baf21b560e01b845260048401613c67565b610e479150853d871161046f57610460818361052a565b38610df2565b610e55612108565b610deb565b610ddf9391955091610e7c8593610df8963d86116104d7576104c4818361052a565b959193509193610db3565b610e8f612108565b610dac565b610eab9150823d8411610a3a57610a2b818361052a565b38610d59565b610eb9612108565b610d52565b610d469391955091610edd8593843d8611610a3a57610a2b818361052a565b9591935091610d2b565b610eef612108565b610d24565b503461000e5760a036600319011261000e576001600160401b036004803582811161000e57610f269036908301610584565b60243592831161000e57610f406102c89336908401610584565b60443560643591608435610f5381610310565b610f5c8161067a565b600090610f805750610f709450339361246a565b6040519081529081906020820190565b91610fd49186959460018060a01b03807f0000000000000000000000000000000000000000000000000000000000000000168860409485519963079d98ef60e21b90818c528b8060209b8c9387830161212a565b0381875afa9a8b15611307575b8a9b6112d0575b50918989889795938197956110089b9a519b8c928392835286830161212a565b0381865afa9889156112c3575b8199611290575b50886110ed936110c5938a6110a18a958a8d5193633e72a46960e01b948581528981806110648c338c840190929160ff602091604084019560018060a01b0316845216910152565b03818b5afa938415611283575b9361125a575b506110939161108591612152565b670de0b6b3a7640000900490565b9061109c612876565b612818565b8a519081523391810191825260ff9093166020820152919384928391829160400190565b03915afa90811561124d575b8a91611230575b506110e66110858589612152565b11156128ba565b83516304a9627960e21b815260ff8a81169b82019b8c52871660208c015260408b019590955260608a01919091523360808a0152600160a08a0181905260c08a015292977f0000000000000000000000000000000000000000000000000000000000000000909316928890819060e001038188865af1968715611223575b85976111ef575b50516332e8105b60e11b815260ff808716988201988952909216602088015294956111c0958794939182918491829081906040015b03915afa9283156111e2575b926111c5575b5050613093565b610f70565b6111db9250803d106104d7576104c4818361052a565b38806111b9565b6111ea612108565b6111b3565b6111c09750928492876112146111a796869599983d87116104d7576104c4818361052a565b99505092509294909394611172565b61122b612108565b61116b565b6112479150853d87116104d7576104c4818361052a565b386110d8565b611255612108565b6110d1565b6110859193509161127a611093938b3d8d116104d7576104c4818361052a565b93915091611077565b61128b612108565b611071565b6110a19950906110ed936110c5938a6112b68a95863d8811610a3a57610a2b818361052a565b9c5050935093509061101c565b6112cb612108565b611015565b89809694929c5061100899989795936112f68d93833d8511610a3a57610a2b818361052a565b9d9395975093959798995050610fe8565b61130f612108565b610fe1565b503461000e5761094e6000611328366105dc565b6040805163079d98ef60e21b8082529195946020946001600160a01b0394918691907f0000000000000000000000000000000000000000000000000000000000000000871690839086908190611381906004830161212a565b0381845afa948515611534575b8995611513575b506113ae94958a5180968194829383526004830161212a565b03915afa918215611506575b86926114e7575b5086516332e8105b60e11b815260ff8481166004830152831660248201529185907f000000000000000000000000000000000000000000000000000000000000000086168285604481845afa9485156114da575b89956114ab575b508951634792bf4f60e11b815260ff9687166004820152959091166024860152929361092d93611468929082908180604481015b03915afa90811561149e575b88916114875750613a43565b61147061054b565b8681526001600160a01b0390911694810194909452565b610e479150873d891161046f57610460818361052a565b6114a6612108565b61145c565b61092d95509183916114cf61145094611468963d86116104d7576104c4818361052a565b96509193509161141c565b6114e2612108565b611415565b6114ff919250853d8711610a3a57610a2b818361052a565b90386113c1565b61150e612108565b6113ba565b6113ae955061152e90843d8611610a3a57610a2b818361052a565b94611395565b61153c612108565b61138e565b503461000e5761094e600061155536610c68565b6040805163079d98ef60e21b8082529194936020936001600160a01b039361161f9386936115e29391928592917f0000000000000000000000000000000000000000000000000000000000000000891691908490869081906115ba906004830161212a565b0381855afa9485156116e2575b8b956116c3575b508b5180968194829383526004830161212a565b03915afa9182156116b6575b8792611697575b5087516332e8105b60e11b815260ff91821660048201529116602482015291829081906044820190565b0381857f0000000000000000000000000000000000000000000000000000000000000000165afa90811561168a575b849161166d575b50610e1061166161054b565b60028152933390850152565b6116849150833d85116104d7576104c4818361052a565b38611655565b611692612108565b61164e565b6116af919250833d8511610a3a57610a2b818361052a565b90386115f5565b6116be612108565b6115ee565b6116db919550843d8611610a3a57610a2b818361052a565b93386115ce565b6116ea612108565b6115c7565b503461000e57606036600319011261000e576004803561170e81610310565b6001600160401b039160243583811161000e5761172e9036908301610584565b9160443593841161000e57611813611866926117506102c89636908301610584565b9260018060a01b03916117a96117d2847f000000000000000000000000000000000000000000000000000000000000000016604051998a98899263079d98ef60e21b808552602085819f829e99839a978c85990161212a565b0381855afa94851561194f575b600095611930575b5060405180968194829383528a830161212a565b03915afa918215611923575b600092611904575b50604080516332e8105b60e11b815260ff9283168682019081529290931660208301529196879283920190565b0381867f0000000000000000000000000000000000000000000000000000000000000000165afa9384156118f7575b6000946118d8575b506040516383f5163f60e01b8152958694859384938401613cde565b03917f0000000000000000000000000000000000000000000000000000000000000000165afa9182156118cb575b6000926118ae575b50506040519081529081906020820190565b6118c49250803d106104d7576104c4818361052a565b388061189c565b6118d3612108565b611894565b6118f0919450853d87116104d7576104c4818361052a565b923861184a565b6118ff612108565b611842565b61191c919250833d8511610a3a57610a2b818361052a565b90386117e6565b61192b612108565b6117de565b611948919550843d8611610a3a57610a2b818361052a565b93386117be565b611957612108565b6117b6565b503461000e57600036600319011261000e576040517f00000000000000000000000000000000000000000000000000000000000000006001600160a01b03168152602090f35b503461000e5761094e60006119b6366105dc565b6040805163079d98ef60e21b8082529195946020946001600160a01b0394611a1d94909387936108969391928592917f00000000000000000000000000000000000000000000000000000000000000008a16919084908690819061086e906004830161212a565b0381867f0000000000000000000000000000000000000000000000000000000000000000165afa918215611a8d575b8592611a6a575b5061092d90611a6061054b565b600381529461091c565b61092d919250611a8690853d87116104d7576104c4818361052a565b9190611a53565b611a95612108565b611a4c565b90815180825260208080930193019160005b828110611aba575050505090565b835160ff1685529381019392810192600101611aac565b91939290936060830194606084528051809652608084019560208092019060005b818110611b205750505094611b129161062c959685830390860152611a9a565b916040818403910152611a9a565b825189529783019791830191600101611af2565b503461000e57600036600319011261000e5760405163152e3c9560e11b81526001600160a01b037f000000000000000000000000000000000000000000000000000000000000000081169190600082600481865afa918215611e3f575b600092611e20575b50600090611bc2611bbd611bb78551611bb181613cb1565b90612152565b60011c90565b613a11565b611bd6611bbd611bb78651611bb181613cb1565b90611beb611bbd611bb78751611bb181613cb1565b956000955b611bfa8151613cb1565b871015611e0e5790816020611c1489611c2f979695612cb0565b516040518097819263079d98ef60e21b83526004830161212a565b0381855afa948515611e01575b600095611de0575b50611c4e88613cce565b965b898251891015611dc95781611d4189611c99611d4c95611d46958c8f8c60208f92611c7c8f918f612cb0565b519060405180809a819463079d98ef60e21b83526004830161212a565b03915afa958615611dbc575b600096611d82575b506040516332e8105b60e11b815260ff8085166004830152871660248201529596611d3496611d3c94938893889391929091849060209083908180604481015b03917f0000000000000000000000000000000000000000000000000000000000000000165afa918215611d75575b600092611d52575b50611d2e9192612cb0565b52612cb0565b9060ff169052565b612cb0565b612c67565b97612c67565b96611c50565b611d2e9250611d6f9060203d6020116104d7576104c4818361052a565b91611d23565b611d7d612108565b611d1b565b611d349650611d3c9392611d3492611ced886020611dad8296823d8411610a3a57610a2b818361052a565b9b505050509250929350611cad565b611dc4612108565b611ca5565b50965096611dda9192939450612c67565b95611bf0565b611dfa91955060203d602011610a3a57610a2b818361052a565b9338611c44565b611e09612108565b611c3c565b50506102c88660405193849384611ad1565b611e369192503d806000833e6102e5818361052a565b90509038611b99565b611e47612108565b611b91565b604060031982011261000e57600435906001600160401b03821161000e57611e7691600401610584565b9060243590565b503461000e576104447f4caf74467ddced26f7e6a63279b0e7573ecee0c0add1110094ec7db6786f0dda611eb036611e4c565b604051637804e70760e01b8152909391602091611f359183917f00000000000000000000000000000000000000000000000000000000000000006001600160a01b031690838180611f06338d88600485016120db565b03816000865af18015611fb6575b611f99575b50604051808095819463079d98ef60e21b83526004830161212a565b03915afa918215611f8c575b600092611f6f575b5050604051918291339542918460409194939260ff606083019616825260208201520152565b611f859250803d10610a3a57610a2b818361052a565b3880611f49565b611f94612108565b611f41565b611faf90843d86116104d7576104c4818361052a565b5038611f19565b611fbe612108565b611f14565b503461000e576104447f8d2f1853d919ed1cfa6a6570c6e9ac54d803e6598d6f4551b287bf48e1cd6cd9611ff636611e4c565b604051631ac632dd60e31b8152909391602091611f359183917f00000000000000000000000000000000000000000000000000000000000000006001600160a01b031690838180611f06338d88600485016120db565b503461000e57608036600319011261000e576001600160401b0360043581811161000e5761207e903690600401610584565b60243591821161000e576120996102c8923690600401610584565b906044356064356120a981610310565b6120b28161067a565b6120c157610f7092339261222b565b6111c0923392612912565b9081602091031261000e575190565b9193926120f26040926060855260608501906101b9565b60208401959095526001600160a01b0316910152565b506040513d6000823e3d90fd5b9081602091031261000e575161062c81610305565b90602061062c9281815201906101b9565b50634e487b7160e01b600052601160045260246000fd5b8060001904821181151516612165570290565b61216d61213b565b0290565b811561217b570490565b634e487b7160e01b600052601260045260246000fd5b6040519061219e82610502565b60218252600160fd1b6040837f436865636b696e672062616c616e636520666f7220627579206f72646572202d60208201520152565b156121db57565b60405162461bcd60e51b815260206004820152602260248201527f496e73756666696369656e742062616c616e636520666f7220627579206f726460448201526132b960f11b6064820152608490fd5b60405163079d98ef60e21b8082529394612343946122b4946020946001600160a01b03928692917f00000000000000000000000000000000000000000000000000000000000000008516919084908890819061228a906004830161212a565b0381855afa96871561245d575b60009761243e575b5060405180998194829383526004830161212a565b03915afa948515612431575b60009561240e575b509083917f0000000000000000000000000000000000000000000000000000000000000000169660405196879283926304a9627960e21b845288876004860190949360009360ff60c0948160e0860199168552166020840152846040840152606083015260018060a01b031660808201528260a08201520152565b03816000895af1938415612401575b6000946123d3575b506040516332e8105b60e11b815260ff91821660048201529083166024820152929361062c93859291829082908180604481015b03915afa9182156123c6575b6000926123a9575b5050612d53565b6123bf9250803d106104d7576104c4818361052a565b38806123a2565b6123ce612108565b61239a565b61062c945082846123f561238e938395963d85116104d7576104c4818361052a565b9650505091909161235a565b612409612108565b612352565b849291955061242990833d8511610a3a57610a2b818361052a565b9490916122c8565b612439612108565b6122c0565b612456919750843d8611610a3a57610a2b818361052a565b953861229f565b612465612108565b612297565b6040805163079d98ef60e21b808252600497919690956020959094899392916001600160a01b03917f00000000000000000000000000000000000000000000000000000000000000008316919089908c9081906124c9908a830161212a565b0381855afa998a159b6124f89c61280b575b60009b6127e8575b5090899188519c8d928392835289830161212a565b0381845afa998a156127db575b60009a61278c575b50838386936125e98d8c858f99978d9c849f9e9c8f8e869f61256761265d9e6125c0948a8c612593955180958192633e72a46960e01b9b8c84528d840190929160ff602091604084019560018060a01b0316845216910152565b03818c5afa92831561277f575b600093612756575b5061258a9161108591612152565b9061109c612191565b519182526001600160a01b0390941691810191825260ff9095166020820152849283918291604090910190565b03915afa908115612749575b60009161272c575b506125e2611085858d612152565b11156121d4565b7f0000000000000000000000000000000000000000000000000000000000000000169787519c8d9687966304a9627960e21b88528701919360c09360ff600196989793988160e087019a16865216602085015260408401526060830152838060a01b03166080820152600060a08201520152565b03816000865af195861561271f575b6000966126ee575b50516332e8105b60e11b815260ff8086169782019788529092166020870152939461062c948693929183918391829081906040015b03915afa9182156126e1575b6000926126c4575b5050612f55565b6126da9250803d106104d7576104c4818361052a565b38806126bd565b6126e9612108565b6126b5565b61062c9650926126a9928661271287968795983d87116104d7576104c4818361052a565b9850509250929390612674565b612727612108565b61266c565b6127439150893d8b116104d7576104c4818361052a565b386125d4565b612751612108565b6125cc565b6110859193509161277661258a938d803d106104d7576104c4818361052a565b9391509161257c565b612787612108565b612574565b859a5093838796938b958a8c85809d9c97829b833d85116127d4575b6127b2818361052a565b81016127bd91612115565b9f509750505050509350935093979994959661250d565b503d6127a8565b6127e3612108565b612505565b8a92919b5061280390833d8511610a3a57610a2b818361052a565b9a90916124e3565b612813612108565b6124db565b60009291612863849360405192839161284a602084019663ca47c4eb60e01b88526060602486015260848501906101b9565b916044840152606483015203601f19810183528261052a565b51906a636f6e736f6c652e6c6f675afa50565b6040519061288382610502565b6022825261016960f51b6040837f436865636b696e672062616c616e636520666f722073656c6c206f726465722060208201520152565b156128c157565b60405162461bcd60e51b815260206004820152602360248201527f496e73756666696369656e742062616c616e636520666f722073656c6c206f726044820152623232b960e91b6064820152608490fd5b60405163079d98ef60e21b8082529394612a0794612971946020946001600160a01b03928692917f00000000000000000000000000000000000000000000000000000000000000008516919084908890819061228a906004830161212a565b03915afa948515612af5575b600095612ad2575b506040516304a9627960e21b815260ff80851660048301528616602482015260006044820181905260648201989098526001600160a01b039092166084830152600160a483015260c48201969096527f0000000000000000000000000000000000000000000000000000000000000000909516949382908590819060e4820190565b03816000895af1938415612ac5575b600094612a97575b506040516332e8105b60e11b815260ff91821660048201529083166024820152929361062c93859291829082908180604481015b03915afa918215612a8a575b600092612a6d575b50506131b1565b612a839250803d106104d7576104c4818361052a565b3880612a66565b612a92612108565b612a5e565b61062c94508284612ab9612a52938395963d85116104d7576104c4818361052a565b96505050919091612a1e565b612acd612108565b612a16565b8492919550612aed90833d8511610a3a57610a2b818361052a565b949091612985565b612afd612108565b61297d565b6020906001600160401b038111612b1b575b60051b0190565b612b236104eb565b612b14565b81601f8201121561000e57805191612b3f83612b02565b92612b4d604051948561052a565b808452602092838086019260051b82010192831161000e578301905b828210612b77575050505090565b8380918351612b85816105cb565b815201910190612b69565b81601f8201121561000e57805191612ba783612b02565b92612bb5604051948561052a565b808452602092838086019260051b82010192831161000e578301905b828210612bdf575050505090565b81518152908301908301612bd1565b9060a08282031261000e578151926020830151906001600160401b039182811161000e5783612c1e918601612b28565b93604081015183811161000e5784612c37918301612b28565b93606082015184811161000e5781612c50918401612b90565b93608083015190811161000e5761062c9201612b90565b6001906000198114612c77570190565b612c7f61213b565b0190565b50634e487b7160e01b600052603260045260246000fd5b602090805115612ca8570190565b612c7f612c83565b6020918151811015612cc5575b60051b010190565b612ccd612c83565b612cbd565b90815180825260208080930193019160005b828110612cf2575050505090565b83516001600160a01b031685529381019392810192600101612ce4565b95949390608093610759612d4e94612d32612d409460a08c5260a08c0190612cd2565b908a820360208c0152612cd2565b90868203606088015261062f565b930152565b60408051631a9d34fd60e11b8152600481018390526024810184905260ff85166044820152600060648201819052919594918082608481836001600160a01b037f0000000000000000000000000000000000000000000000000000000000000000165af1928315612f48575b818280948196612f17575b505b8151811015612ea357808089898d8a612de8612e94978c612cb0565b5115612e9957600080516020613e0383398151915291612e48612e2c8d612e2589612e1e81612e178186612cb0565b5198612cb0565b5192612cb0565b5190612171565b9151928352602083019190915242604083015281906060820190565b0390a4611d41612e68612e5b8386612cb0565b516001600160a01b031690565b612e75612e5b8489612cb0565b612e7f848a612cb0565b5190612e8b858c612cb0565b5192888d6134d8565b612dcc565b5050505050612c67565b50919395505095909294958351151580612f05575b612ec5575b505050505050565b7fe2cbbcff391a6ca49566aa2960983380614c1af0e5acddac9c4dce04d10ee15d94612ef79251948594429386612d0f565b0390a2388080808080612ebd565b50612f0f84612c9a565b511515612eb8565b929450945050612f3991503d8085833e612f31818361052a565b810190612bee565b94929093509092939438612dca565b612f50612108565b612dbf565b60408051631a9d34fd60e11b8152600481018390526024810184905260ff85166044820152600060648201819052919594918082608481836001600160a01b037f0000000000000000000000000000000000000000000000000000000000000000165af1928315613086575b81828094819661305d575b505b8151811015612ea357808089898d8a612fea613058978c612cb0565b5115612e9957600080516020613e0383398151915291613019612e2c8d612e2589612e1e81612e178186612cb0565b0390a4611d4161302c612e5b8386612cb0565b613039612e5b8489612cb0565b613043848a612cb0565b519061304f858c612cb0565b5192888d613702565b612fce565b92945094505061307791503d8085833e612f31818361052a565b94929093509092939438612fcc565b61308e612108565b612fc1565b60408051631a9d34fd60e11b8152600481018390526024810184905260ff8516604482015260016064820152929493909260008082608481836001600160a01b037f0000000000000000000000000000000000000000000000000000000000000000165af19283156131a4575b81828094819661317b575b505b815181101561315c57806131246131579287612cb0565b5115611d41578a8189600080516020613e038339815191528a8d612e48612e2c8d612e2588612e1e81612e178186612cb0565b61310d565b509193959294969750508351151580612f0557612ec557505050505050565b92945094505061319591503d8085833e612f31818361052a565b9492909350909293943861310b565b6131ac612108565b613100565b60408051631a9d34fd60e11b8152600481018390526024810184905260ff8516604482015260016064820152929493909260008082608481836001600160a01b037f0000000000000000000000000000000000000000000000000000000000000000165af19283156132a3575b81828094819661327a575b505b815181101561315c57806132426132759287612cb0565b5115611d41578a8189600080516020613e038339815191528a8d613019612e2c8d612e2588612e1e81612e178186612cb0565b61322b565b92945094505061329491503d8085833e612f31818361052a565b94929093509092939438613229565b6132ab612108565b61321e565b156132b757565b60405162461bcd60e51b815260206004820152601860248201527f496e76616c696420746f426550616964206164647265737300000000000000006044820152606490fd5b1561330357565b60405162461bcd60e51b815260206004820152601960248201527f496e76616c696420746f526563656976652061646472657373000000000000006044820152606490fd5b1561334f57565b60405162461bcd60e51b8152602060048201526014602482015273125b9d985b1a59081d1bdad95b88185b5bdd5b9d60621b6044820152606490fd5b1561339257565b60405162461bcd60e51b815260206004820152601760248201527f496e76616c69642063757272656e637920616d6f756e740000000000000000006044820152606490fd5b919082604091031261000e57602082516133f081610305565b92015161062c81610305565b9081602091031261000e5751801515810361000e5790565b6001600160a01b0391821681529116602082015260ff9091166040820152606081019190915260800190565b1561344757565b60405162461bcd60e51b815260206004820152601a60248201527f4261736520746f6b656e207472616e73666572206661696c65640000000000006044820152606490fd5b1561349357565b60405162461bcd60e51b815260206004820152601b60248201527f51756f746520746f6b656e207472616e73666572206661696c656400000000006044820152606490fd5b613534956001600160a01b03808516967fb4851ffccd326954c6e29f35eaf35fe493c424a1e8d40c557a1ace506761ab5796909592946136649493613649936135fd9189916135288d15156132b0565b8086169d8e15156132fc565b61353f831515613348565b60009561354d878c1361338b565b6040805163a309ed5960e01b8152600481019a909a529887908a816024817f000000000000000000000000000000000000000000000000000000000000000088165afa9081156136f5575b829083926136c5575b5060ff891660ff8216146000146136bd5750925b7f000000000000000000000000000000000000000000000000000000000000000016926136188b51630903133960e01b92838252818060209b8c9b8c948a8d60048601613414565b0381878a5af19081156136b0575b8491613693575b50613440565b6136308d8c51998a9788968795865260048601613414565b03925af1928315613686575b92613669575b505061348c565b51928352602083019190915242604083015281906060820190565b0390a3565b61367f9250803d1061046f57610460818361052a565b3880613642565b61368e612108565b61363c565b6136aa9150883d8a1161046f57610460818361052a565b38613612565b6136b8612108565b61360b565b9050926135b5565b90506136e791508b3d8d116136ee575b6136df818361052a565b8101906133d7565b90386135a1565b503d6136d5565b6136fd612108565b613598565b613664906136497fb4851ffccd326954c6e29f35eaf35fe493c424a1e8d40c557a1ace506761ab5795613759989497956135fd8760018060a01b03928381169b61374d8d15156132b0565b8486169d8e15156132fc565b613764831515613348565b600095613772878c1361338b565b6040805163a309ed5960e01b8152600481019a909a529887908a816024817f00000000000000000000000000000000000000000000000000000000000000008c165afa908115613849575b82908392613829575b5060ff851660ff8216146000146138215750967f000000000000000000000000000000000000000000000000000000000000000016926136188b51630903133960e01b92838252818060209b8c9b8c948a8d60048601613414565b9050966135b5565b905061384291508b3d8d116136ee576136df818361052a565b90386137c6565b613851612108565b6137bd565b90815260208101919091526001600160a01b03909116604082015260a08101939291608091906138858161067a565b60608201526138938361067a565b0152565b1561389e57565b60405162461bcd60e51b815260206004820152601c60248201527f4f7264657220636f756c64206e6f742062652063616e63656c6c6564000000006044820152606490fd5b9081526001600160a01b039091166020820152608081019392916060919061390a8161067a565b60408201520152565b9080601f8301121561000e5781519161392b83612b02565b9260409061393b8251958661052a565b808552602093848087019260051b8501019381851161000e57858101925b85841061396a575050505050505090565b83516001600160401b03811161000e5782019083603f8301121561000e5787820151906139968261055a565b6139a28851918261052a565b8281528588848601011161000e576139c38a949385948a8685019101610184565b815201930192613959565b91909160408184031261000e578051926001600160401b039384811161000e57816139fa918401613913565b93602083015190811161000e5761062c9201613913565b90613a1b82612b02565b613a28604051918261052a565b8281528092613a39601f1991612b02565b0190602036910137565b15613a4a57565b60405162461bcd60e51b815260206004820152602f60248201527f4d61726b657420646f6573206e6f7420657869737420666f722074686573652060448201526e7061697273206f6620746f6b656e7360881b6064820152608490fd5b81601f8201121561000e57805191613abe83612b02565b92613acc604051948561052a565b808452602092838086019260051b82010192831161000e578301905b828210613af6575050505090565b8380918351613b0481610310565b815201910190613ae8565b9080601f8301121561000e57815190613b2782612b02565b92613b35604051948561052a565b828452602092838086019160051b8301019280841161000e57848301915b848310613b635750505050505090565b82516001600160401b03811161000e578691613b8484848094890101612b90565b815201920191613b53565b916101008383031261000e578251906001600160401b039182811161000e5783613bba918601612b90565b93602081015183811161000e5784613bd3918301612b90565b93604082015184811161000e5781613bec918401612b90565b93606083015181811161000e5782613c05918501613aa7565b93608084015182811161000e5783613c1e918601613aa7565b9360a081015183811161000e5784613c37918301613b0f565b9360c082015184811161000e5781613c50918401613b0f565b9360e083015190811161000e5761062c9201613b0f565b90929160406060916080840195845280516004811015613ca4575b6020858101919091528101516001600160a01b03168285015201511515910152565b613cac610663565b613c82565b60018110613cc1575b6000190190565b613cc961213b565b613cba565b6001906001198111612c77570190565b6040810193929160209190613cf28161067a565b81520152565b60405163079d98ef60e21b8152602092613d9b928492917f00000000000000000000000000000000000000000000000000000000000000006001600160a01b03169190849084908190613d4e906004830161212a565b0381855afa928315613df5575b600093613dd6575b50604051633e72a46960e01b81526001600160a01b03909116600482015260ff90921660248301529092839190829081906044820190565b03915afa918215613dc9575b600092613db357505090565b61062c9250803d106104d7576104c4818361052a565b613dd1612108565b613da7565b613dee919350843d8611610a3a57610a2b818361052a565b9138613d63565b613dfd612108565b613d5b56fe4ab2dfc23ad6eadfd841a12408fae5a96194ce57f99774b548ca7b845996017ea264697066735822122041747d739cc988068bb42f16f2b53797ca04eea2b2e36a00bc1f10b075041c5464736f6c634300080d0033",
  "immutableReferences": {
    "8927": [
      {
        "length": 32,
        "start": 905
      },
      {
        "length": 32,
        "start": 2264
      },
      {
        "length": 32,
        "start": 2856
      },
      {
        "length": 32,
        "start": 3450
      },
      {
        "length": 32,
        "start": 4403
      },
      {
        "length": 32,
        "start": 5092
      },
      {
        "length": 32,
        "start": 5668
      },
      {
        "length": 32,
        "start": 6168
      },
      {
        "length": 32,
        "start": 6690
      },
      {
        "length": 32,
        "start": 7409
      },
      {
        "length": 32,
        "start": 8910
      },
      {
        "length": 32,
        "start": 9707
      },
      {
        "length": 32,
        "start": 10710
      },
      {
        "length": 32,
        "start": 13677
      },
      {
        "length": 32,
        "start": 14226
      }
    ],
    "8930": [
      {
        "length": 32,
        "start": 2386
      },
      {
        "length": 32,
        "start": 6250
      },
      {
        "length": 32,
        "start": 6515
      },
      {
        "length": 32,
        "start": 11669
      },
      {
        "length": 32,
        "start": 12183
      },
      {
        "length": 32,
        "start": 12502
      },
      {
        "length": 32,
        "start": 12788
      }
    ],
    "8933": [
      {
        "length": 32,
        "start": 614
      },
      {
        "length": 32,
        "start": 2104
      },
      {
        "length": 32,
        "start": 2786
      },
      {
        "length": 32,
        "start": 2991
      },
      {
        "length": 32,
        "start": 3297
      },
      {
        "length": 32,
        "start": 3986
      },
      {
        "length": 32,
        "start": 4940
      },
      {
        "length": 32,
        "start": 5508
      },
      {
        "length": 32,
        "start": 5986
      },
      {
        "length": 32,
        "start": 6631
      },
      {
        "length": 32,
        "start": 7005
      },
      {
        "length": 32,
        "start": 7883
      },
      {
        "length": 32,
        "start": 8209
      },
      {
        "length": 32,
        "start": 8788
      },
      {
        "length": 32,
        "start": 9364
      },
      {
        "length": 32,
        "start": 10555
      },
      {
        "length": 32,
        "start": 13751
      },
      {
        "length": 32,
        "start": 14299
      },
      {
        "length": 32,
        "start": 15633
      }
    ]
  },
  "source": "// SPDX-License-Identifier: UNLICENSED\npragma solidity ^0.8.0;\nimport \"./OrderLibrary.sol\";\nimport \"./MarketManager.sol\";\nimport \"./OrderBookManager.sol\";\nimport \"./TokenManager.sol\";\n\nimport \"hardhat/console.sol\";\n\ncontract Exchange {\n    MarketManager public immutable marketManager;\n    OrderBookManager public immutable orderBookManager;\n    TokenManager public immutable tokenManager;\n\n    // Events for tracking order lifecycle\n    event OrderMatched(\n        bytes32 indexed marketId,\n        uint256 indexed buyOrderId,\n        uint256 indexed sellOrderId,\n        uint256 matchedAmount,\n        uint256 executionPrice,\n        uint256 timestamp\n    );\n\n    event SettlementCompleted(\n        bytes32 indexed marketId,\n        address[] toBePaid,\n        address[] toReceive,\n        uint256[] tokenAmount,\n        int256[] currencyAmount,\n        uint256 timestamp\n    );\n\n    event TransferProcessed(\n        address indexed from,\n        address indexed to,\n        uint256 tokenAmount,\n        int256 currencyAmount,\n        uint256 timestamp\n    );\n\n    event DepositReceived(\n        address indexed user,\n        uint8 tokenId,\n        uint256 amount,\n        uint256 timestamp\n    );\n\n    event WithdrawalProcessed(\n        address indexed user,\n        uint8 tokenId,\n        uint256 amount,\n        uint256 timestamp\n    );\n\n    event OrderCancelled(\n        bytes32 indexed marketId,\n        uint256 orderId,\n        address userAddress,\n        OrderLibrary.OrderType orderType,\n        uint256 timestamp\n    );\n\n    constructor(\n        address _marketManager,\n        address _orderBookManager,\n        address _tokenManager\n    ) {\n        marketManager = MarketManager(_marketManager);\n        orderBookManager = OrderBookManager(_orderBookManager);\n        tokenManager = TokenManager(_tokenManager);\n    }\n\n    // Function to deposit tokens before trading\n    function depositTokens(string memory symbol, uint256 amount) external {\n        // First, user must have approved this contract to spend their tokens\n        // This is done outside the contract using the token's approve() function\n\n        // Perform the deposit\n        uint256 newBalance = tokenManager.deposit(symbol, amount, msg.sender);\n\n        emit DepositReceived(\n            msg.sender,\n            tokenManager.getTokenId(symbol),\n            amount,\n            block.timestamp\n        );\n    }\n\n    // Function to withdraw tokens after trading\n    function withdrawTokens(string memory symbol, uint256 amount) external {\n        uint256 remainingBalance = tokenManager.withdraw(\n            symbol,\n            amount,\n            msg.sender\n        );\n\n        emit WithdrawalProcessed(\n            msg.sender,\n            tokenManager.getTokenId(symbol),\n            amount,\n            block.timestamp\n        );\n    }\n\n    // FIXME: Check if the order of tokens being passed is correct?\n    function placeMarketOrder(\n        string memory token1,\n        string memory token2,\n        uint256 amount,\n        OrderLibrary.OrderType orderType\n    ) external returns (uint256) {\n        return\n            orderType == OrderLibrary.OrderType.Buy\n                ? placeBuyOrder(\n                    token1,\n                    token2,\n                    0,\n                    amount,\n                    OrderLibrary.OrderNature.Market,\n                    msg.sender\n                )\n                : placeSellOrder(\n                    token1,\n                    token2,\n                    0,\n                    amount,\n                    OrderLibrary.OrderNature.Market,\n                    msg.sender\n                );\n    }\n\n    function placeLimitOrder(\n        string memory token1,\n        string memory token2,\n        int256 price,\n        uint256 amount,\n        OrderLibrary.OrderType orderType\n    ) external returns (uint256) {\n        return\n            orderType == OrderLibrary.OrderType.Buy\n                ? placeBuyOrder(\n                    token1,\n                    token2,\n                    price,\n                    amount,\n                    OrderLibrary.OrderNature.Limit,\n                    msg.sender\n                )\n                : placeSellOrder(\n                    token1,\n                    token2,\n                    price,\n                    amount,\n                    OrderLibrary.OrderNature.Limit,\n                    msg.sender\n                );\n    }\n\n    function placeBuyOrder(\n        string memory token1, // want\n        string memory token2, // give\n        int256 price,\n        uint256 amount,\n        OrderLibrary.OrderNature orderNature,\n        address _userAddress\n    ) private returns (uint256) {\n        uint8 tokenId1 = tokenManager.getTokenId(token1);\n        uint8 tokenId2 = tokenManager.getTokenId(token2);\n\n        // Check if buyer has sufficient quote token (currency) balance for a limit order\n        if (orderNature == OrderLibrary.OrderNature.Limit) {\n            console.log(\n                \"Checking balance for buy order - \",\n                tokenManager.getBalance(_userAddress, tokenId2),\n                ((uint256(price) * amount) / 1 ether)\n            );\n            require(\n                tokenManager.getBalance(_userAddress, tokenId2) >=\n                    (uint256(price) * amount) / 1 ether,\n                \"Insufficient balance for buy order\"\n            );\n        }\n\n        // Place the order through market manager\n        uint256 orderId = marketManager.placeOrder(\n            tokenId1,\n            tokenId2,\n            price,\n            amount,\n            _userAddress,\n            OrderLibrary.OrderType.Buy,\n            orderNature\n        );\n\n        uint8 exchangeTokenId = orderNature == OrderLibrary.OrderNature.Market\n            ? tokenId2\n            : tokenId1;\n\n        // Try to match the order immediately\n        _matchAndSettleOrder(\n            marketManager.getMarketId(tokenId1, tokenId2),\n            orderId,\n            exchangeTokenId,\n            OrderLibrary.OrderType.Buy,\n            orderNature\n        );\n\n        return orderId;\n    }\n\n    function placeSellOrder(\n        string memory token1, // want\n        string memory token2, // give`\n        int256 price,\n        uint256 amount,\n        OrderLibrary.OrderNature orderNature,\n        address _userAddress\n    ) private returns (uint256) {\n        uint8 tokenId1 = tokenManager.getTokenId(token1);\n        uint8 tokenId2 = tokenManager.getTokenId(token2);\n\n        // Check if seller has sufficient base token balance for a limit order\n        if (orderNature == OrderLibrary.OrderNature.Limit) {\n            console.log(\n                \"Checking balance for sell order - \",\n                tokenManager.getBalance(_userAddress, tokenId2),\n                ((uint256(price) * amount) / 1 ether)\n            );\n            require(\n                tokenManager.getBalance(_userAddress, tokenId2) >=\n                    ((uint256(price) * amount) / 1 ether),\n                \"Insufficient balance for sell order\"\n            );\n        }\n\n        // Place the order through market manager\n        uint256 orderId = marketManager.placeOrder(\n            tokenId1,\n            tokenId2,\n            price,\n            amount,\n            _userAddress,\n            OrderLibrary.OrderType.Sell,\n            orderNature\n        );\n\n        uint8 exchangeTokenId = orderNature == OrderLibrary.OrderNature.Market\n            ? tokenId2\n            : tokenId1;\n\n        // Try to match the order immediately\n        _matchAndSettleOrder(\n            marketManager.getMarketId(tokenId1, tokenId2),\n            orderId,\n            exchangeTokenId,\n            OrderLibrary.OrderType.Sell,\n            orderNature\n        );\n\n        return orderId;\n    }\n\n    function _matchAndSettleOrder(\n        bytes32 marketId,\n        uint256 orderId,\n        uint8 _exchangeTokenId,\n        OrderLibrary.OrderType _orderType,\n        OrderLibrary.OrderNature _orderNature\n    ) internal {\n        // Get matching results from OrderBookManager\n        (\n            uint256 remainingAmount,\n            address[] memory toBePaid,\n            address[] memory toReceive,\n            uint256[] memory tokenAmount,\n            int256[] memory currencyAmount\n        ) = orderBookManager.matchOrder(\n                marketId,\n                orderId,\n                _exchangeTokenId,\n                _orderType\n            );\n\n        // Process settlements\n        for (uint256 i = 0; i < toBePaid.length; i++) {\n            if (tokenAmount[i] == 0) continue; // Skips empty matches\n\n            emit OrderMatched(\n                marketId,\n                _orderType == OrderLibrary.OrderType.Buy ? orderId : i,\n                _orderType == OrderLibrary.OrderType.Sell ? orderId : i,\n                tokenAmount[i],\n                uint256(currencyAmount[i]) / tokenAmount[i], // Price per token\n                block.timestamp\n            );\n\n            // Token transfers handling\n            _settleTransaction(\n                marketId,\n                _exchangeTokenId,\n                toBePaid[i],\n                toReceive[i],\n                tokenAmount[i],\n                currencyAmount[i],\n                _orderType,\n                _orderNature\n            );\n        }\n\n        if (tokenAmount.length > 0 && tokenAmount[0] != 0) {\n            emit SettlementCompleted(\n                marketId,\n                toBePaid,\n                toReceive,\n                tokenAmount,\n                currencyAmount,\n                block.timestamp\n            );\n        }\n    }\n\n    function _settleTransaction(\n        bytes32 marketId,\n        uint8 exchangeTokenId,\n        address toBePaid,\n        address toReceive,\n        uint256 tokenAmount,\n        int256 currencyAmount,\n        OrderLibrary.OrderType orderType,\n        OrderLibrary.OrderNature orderNature\n    ) internal {\n        require(toBePaid != address(0), \"Invalid toBePaid address\");\n        require(toReceive != address(0), \"Invalid toReceive address\");\n        require(tokenAmount > 0, \"Invalid token amount\");\n        require(currencyAmount > 0, \"Invalid currency amount\");\n\n        (uint8 token1Id, uint8 token2Id) = marketManager.getMarketTokens(\n            marketId\n        );\n\n        uint8 baseTokenId;\n        uint8 quoteTokenId;\n\n        if (orderNature == OrderLibrary.OrderNature.Market) {\n            // For market orders, exchangeTokenId is the token being given\n            if (orderType == OrderLibrary.OrderType.Buy) {\n                // Market Buy: exchangeTokenId is quote token (what buyer pays with)\n                quoteTokenId = exchangeTokenId;\n                baseTokenId = (token1Id == exchangeTokenId)\n                    ? token2Id\n                    : token1Id;\n            } else {\n                // Market Sell: exchangeTokenId is base token (what seller gives)\n                baseTokenId = exchangeTokenId;\n                quoteTokenId = (token1Id == exchangeTokenId)\n                    ? token2Id\n                    : token1Id;\n            }\n        } else {\n            // For limit orders, exchangeTokenId is the token being wanted\n            if (orderType == OrderLibrary.OrderType.Buy) {\n                // Limit Buy: exchangeTokenId is base token (what buyer wants)\n                baseTokenId = exchangeTokenId;\n                quoteTokenId = (token1Id == exchangeTokenId)\n                    ? token2Id\n                    : token1Id;\n            } else {\n                // Limit Sell: exchangeTokenId is quote token (what seller wants)\n                quoteTokenId = exchangeTokenId;\n                baseTokenId = (token1Id == exchangeTokenId)\n                    ? token2Id\n                    : token1Id;\n            }\n        }\n\n        // Transfer base token from seller to buyer\n        bool baseTokenTransferred = tokenManager.transferFrom(\n            toBePaid, // seller\n            toReceive, // buyer\n            baseTokenId,\n            tokenAmount\n        );\n        require(baseTokenTransferred, \"Base token transfer failed\");\n\n        // Transfer quote token (currency) from buyer to seller\n        bool quoteTokenTransferred = tokenManager.transferFrom(\n            toReceive, // buyer\n            toBePaid, // seller\n            quoteTokenId,\n            uint256(currencyAmount)\n        );\n        require(quoteTokenTransferred, \"Quote token transfer failed\");\n\n        // Emit transfer processed event\n        emit TransferProcessed(\n            toBePaid,\n            toReceive,\n            tokenAmount,\n            currencyAmount,\n            block.timestamp\n        );\n    }\n\n    function cancelOrder(\n        uint8 tokenId1,\n        uint8 tokenId2,\n        uint256 orderId,\n        OrderLibrary.OrderType orderType,\n        OrderLibrary.OrderNature orderNature\n    ) external {\n        // Get Market Id\n        bytes32 marketId = marketManager.getMarketId(tokenId1, tokenId2);\n\n        // Cancel Order\n        bool success = marketManager.cancelOrder(\n            marketId,\n            orderId,\n            msg.sender,\n            orderType,\n            orderNature\n        );\n\n        require(success, \"Order could not be cancelled\");\n\n        // Emit successful cancellation event\n        emit OrderCancelled(\n            marketId,\n            orderId,\n            msg.sender,\n            orderType,\n            block.timestamp\n        );\n    }\n\n    function getUserTokenBalance(\n        address _userAddr,\n        string memory _symbol\n    ) external view returns (uint256) {\n        return getTokenBalance(_userAddr, _symbol);\n    }\n\n    function getAllAvailableTokens()\n        external\n        view\n        returns (string[] memory, string[] memory)\n    {\n        return tokenManager.getAllTokens();\n    }\n\n    function getAllUserTokenBalance(\n        address _userAddr\n    )\n        external\n        view\n        returns (uint256[] memory userTokenBalances, string[] memory tokenNames)\n    {\n        // Retrieve all token names and symbols from the token manager\n        string[] memory tokenSymbols;\n        (tokenNames, tokenSymbols) = tokenManager.getAllTokens();\n\n        // Initialize the userTokenBalances array with the correct length\n        userTokenBalances = new uint256[](tokenSymbols.length);\n\n        // Loop through each token and get the balance for the user\n        for (uint256 i = 0; i < tokenSymbols.length; i++) {\n            uint256 tokenBalance = getTokenBalance(_userAddr, tokenSymbols[i]);\n            userTokenBalances[i] = tokenBalance;\n        }\n\n        return (userTokenBalances, tokenNames);\n    }\n\n    function getAllActiveOrdersForAMarket(\n        string memory _token1,\n        string memory _token2\n    )\n        external\n        view\n        returns (\n            uint256[] memory amount,\n            int256[] memory price,\n            uint256[] memory orderIds,\n            OrderLibrary.OrderType[] memory orderType,\n            OrderLibrary.OrderNature[] memory nature,\n            int256[][] memory fillsPrice,\n            uint256[][] memory fillsAmount,\n            uint256[][] memory fillsTimestamp\n        )\n    {\n        uint8 tokenId1 = tokenManager.getTokenId(_token1);\n        uint8 tokenId2 = tokenManager.getTokenId(_token2);\n        bytes32 marketId = marketManager.getMarketId(tokenId1, tokenId2);\n\n        require(\n            marketManager.isMarketInitialized(tokenId1, tokenId2),\n            \"Market does not exist for these pairs of tokens\"\n        );\n\n        return\n            orderBookManager.getAllOrdersForAMarket(\n                marketId,\n                OrderLibrary.AllOrdersQueryParams({\n                    status: OrderLibrary.OrderStatus.Active,\n                    userAddress: msg.sender,\n                    filterByUser: false\n                })\n            );\n    }\n\n    function getAllFulfilledOrdersOfAMarket(\n        string memory _token1,\n        string memory _token2\n    )\n        external\n        view\n        returns (\n            uint256[] memory amount,\n            int256[] memory price,\n            uint256[] memory orderIds,\n            OrderLibrary.OrderType[] memory orderType,\n            OrderLibrary.OrderNature[] memory nature,\n            int256[][] memory fillsPrice,\n            uint256[][] memory fillsAmount,\n            uint256[][] memory fillsTimestamp\n        )\n    {\n        uint8 tokenId1 = tokenManager.getTokenId(_token1);\n        uint8 tokenId2 = tokenManager.getTokenId(_token2);\n        bytes32 marketId = marketManager.getMarketId(tokenId1, tokenId2);\n        return\n            orderBookManager.getAllOrdersForAMarket(\n                marketId,\n                OrderLibrary.AllOrdersQueryParams({\n                    status: OrderLibrary.OrderStatus.Filled,\n                    userAddress: msg.sender,\n                    filterByUser: false\n                })\n            );\n    }\n\n    function getAllActiveUserOrdersForAMarket(\n        string memory _token1,\n        string memory _token2,\n        address _userAddress\n    )\n        external\n        view\n        returns (\n            uint256[] memory amount,\n            int256[] memory price,\n            uint256[] memory orderIds,\n            OrderLibrary.OrderType[] memory orderType,\n            OrderLibrary.OrderNature[] memory nature,\n            int256[][] memory fillsPrice,\n            uint256[][] memory fillsAmount,\n            uint256[][] memory fillsTimestamp\n        )\n    {\n        uint8 tokenId1 = tokenManager.getTokenId(_token1);\n        uint8 tokenId2 = tokenManager.getTokenId(_token2);\n        bytes32 marketId = marketManager.getMarketId(tokenId1, tokenId2);\n\n        require(\n            marketManager.isMarketInitialized(tokenId1, tokenId2),\n            \"Market does not exist for these pairs of tokens\"\n        );\n\n        return\n            orderBookManager.getAllOrdersForAMarket(\n                marketId,\n                OrderLibrary.AllOrdersQueryParams({\n                    status: OrderLibrary.OrderStatus.Active,\n                    userAddress: _userAddress,\n                    filterByUser: true\n                })\n            );\n    }\n\n    function getAllFulfilledUserOrdersForAMarket(\n        string memory _token1,\n        string memory _token2,\n        address _userAddress\n    )\n        external\n        view\n        returns (\n            uint256[] memory amount,\n            int256[] memory price,\n            uint256[] memory orderIds,\n            OrderLibrary.OrderType[] memory orderType,\n            OrderLibrary.OrderNature[] memory nature,\n            int256[][] memory fillsPrice,\n            uint256[][] memory fillsAmount,\n            uint256[][] memory fillsTimestamp\n        )\n    {\n        uint8 tokenId1 = tokenManager.getTokenId(_token1);\n        uint8 tokenId2 = tokenManager.getTokenId(_token2);\n        bytes32 marketId = marketManager.getMarketId(tokenId1, tokenId2);\n        return\n            orderBookManager.getAllOrdersForAMarket(\n                marketId,\n                OrderLibrary.AllOrdersQueryParams({\n                    status: OrderLibrary.OrderStatus.Filled,\n                    userAddress: _userAddress,\n                    filterByUser: true\n                })\n            );\n    }\n\n    function getAllCancelledUserOrdersForAMarket(\n        string memory _token1,\n        string memory _token2,\n        address _userAddress\n    )\n        external\n        view\n        returns (\n            uint256[] memory amount,\n            int256[] memory price,\n            uint256[] memory orderIds,\n            OrderLibrary.OrderType[] memory orderType,\n            OrderLibrary.OrderNature[] memory nature,\n            int256[][] memory fillsPrice,\n            uint256[][] memory fillsAmount,\n            uint256[][] memory fillsTimestamp\n        )\n    {\n        uint8 tokenId1 = tokenManager.getTokenId(_token1);\n        uint8 tokenId2 = tokenManager.getTokenId(_token2);\n        bytes32 marketId = marketManager.getMarketId(tokenId1, tokenId2);\n        return\n            orderBookManager.getAllOrdersForAMarket(\n                marketId,\n                OrderLibrary.AllOrdersQueryParams({\n                    status: OrderLibrary.OrderStatus.Cancelled,\n                    userAddress: _userAddress,\n                    filterByUser: true\n                })\n            );\n    }\n\n    function getAllMarkets()\n        external\n        view\n        returns (bytes32[] memory, uint8[] memory, uint8[] memory)\n    {\n        (\n            string[] memory tokenNames,\n            string[] memory tokenSymbols\n        ) = tokenManager.getAllTokens();\n        uint count = 0;\n        bytes32[] memory marketIds = new bytes32[](\n            (tokenSymbols.length * (tokenSymbols.length - 1)) / 2\n        );\n        uint8[] memory token1Ids = new uint8[](\n            (tokenSymbols.length * (tokenSymbols.length - 1)) / 2\n        );\n        uint8[] memory token2Ids = new uint8[](\n            (tokenSymbols.length * (tokenSymbols.length - 1)) / 2\n        );\n        for (uint i = 0; i < tokenSymbols.length - 1; i++) {\n            uint8 tokenId1 = tokenManager.getTokenId(tokenSymbols[i]);\n            for (uint j = i + 1; j < tokenSymbols.length; j++) {\n                uint8 tokenId2 = tokenManager.getTokenId(tokenSymbols[j]);\n                bytes32 marketId = marketManager.getMarketId(\n                    tokenId1,\n                    tokenId2\n                );\n                marketIds[count] = marketId;\n                token1Ids[count] = tokenId1;\n                token2Ids[count] = tokenId2;\n                count++;\n            }\n        }\n        return (marketIds, token1Ids, token2Ids);\n    }\n\n    function getBestPriceInMarket(\n        OrderLibrary.OrderType _orderType,\n        string memory _token1,\n        string memory _token2\n    ) external view returns (int256) {\n        uint8 token1Id = tokenManager.getTokenId(_token1);\n        uint8 token2Id = tokenManager.getTokenId(_token2);\n        bytes32 marketId = marketManager.getMarketId(token1Id, token2Id);\n        return orderBookManager.getBestPriceInMarket(_orderType, marketId);\n    }\n\n    // Helper functions\n    function getTokenBalance(\n        address _userAddr,\n        string memory _symbol\n    ) private view returns (uint256) {\n        uint8 tokenId = tokenManager.getTokenId(_symbol);\n        return tokenManager.getBalance(_userAddr, tokenId);\n    }\n}\n",
  "sourcePath": "C:\\Users\\kaise\\OneDrive\\Desktop\\Codebase\\NTU\\sc4053-blockchain-technology\\contracts\\Exchange.sol",
  "compiler": {
    "name": "solc",
    "version": "0.8.13+commit.abaa5c0e.Emscripten.clang"
  },
  "schemaVersion": "3.4.16",
  "updatedAt": "2024-11-09T09:27:03.597Z",
  "networkType": "ethereum",
  "devdoc": {
    "kind": "dev",
    "methods": {},
    "version": 1
  },
  "userdoc": {
    "kind": "user",
    "methods": {},
    "version": 1
  }
}