{
  "contractName": "Exchange",
  "abi": [
    {
      "inputs": [
        {
          "internalType": "address",
          "name": "_marketManager",
          "type": "address"
        },
        {
          "internalType": "address",
          "name": "_orderBookManager",
          "type": "address"
        },
        {
          "internalType": "address",
          "name": "_tokenManager",
          "type": "address"
        }
      ],
      "stateMutability": "nonpayable",
      "type": "constructor"
    },
    {
      "anonymous": false,
      "inputs": [
        {
          "indexed": true,
          "internalType": "address",
          "name": "user",
          "type": "address"
        },
        {
          "indexed": false,
          "internalType": "uint8",
          "name": "tokenId",
          "type": "uint8"
        },
        {
          "indexed": false,
          "internalType": "uint256",
          "name": "amount",
          "type": "uint256"
        },
        {
          "indexed": false,
          "internalType": "uint256",
          "name": "timestamp",
          "type": "uint256"
        }
      ],
      "name": "DepositReceived",
      "type": "event"
    },
    {
      "anonymous": false,
      "inputs": [
        {
          "indexed": true,
          "internalType": "bytes32",
          "name": "marketId",
          "type": "bytes32"
        },
        {
          "indexed": false,
          "internalType": "uint256",
          "name": "orderId",
          "type": "uint256"
        },
        {
          "indexed": false,
          "internalType": "address",
          "name": "userAddress",
          "type": "address"
        },
        {
          "indexed": false,
          "internalType": "enum OrderLibrary.OrderType",
          "name": "orderType",
          "type": "uint8"
        },
        {
          "indexed": false,
          "internalType": "uint256",
          "name": "timestamp",
          "type": "uint256"
        }
      ],
      "name": "OrderCancelled",
      "type": "event"
    },
    {
      "anonymous": false,
      "inputs": [
        {
          "indexed": true,
          "internalType": "bytes32",
          "name": "marketId",
          "type": "bytes32"
        },
        {
          "indexed": true,
          "internalType": "uint256",
          "name": "buyOrderId",
          "type": "uint256"
        },
        {
          "indexed": true,
          "internalType": "uint256",
          "name": "sellOrderId",
          "type": "uint256"
        },
        {
          "indexed": false,
          "internalType": "uint256",
          "name": "matchedAmount",
          "type": "uint256"
        },
        {
          "indexed": false,
          "internalType": "uint256",
          "name": "executionPrice",
          "type": "uint256"
        },
        {
          "indexed": false,
          "internalType": "uint256",
          "name": "timestamp",
          "type": "uint256"
        }
      ],
      "name": "OrderMatched",
      "type": "event"
    },
    {
      "anonymous": false,
      "inputs": [
        {
          "indexed": true,
          "internalType": "bytes32",
          "name": "marketId",
          "type": "bytes32"
        },
        {
          "indexed": false,
          "internalType": "address[]",
          "name": "toBePaid",
          "type": "address[]"
        },
        {
          "indexed": false,
          "internalType": "address[]",
          "name": "toReceive",
          "type": "address[]"
        },
        {
          "indexed": false,
          "internalType": "uint256[]",
          "name": "tokenAmount",
          "type": "uint256[]"
        },
        {
          "indexed": false,
          "internalType": "uint256[]",
          "name": "currencyAmount",
          "type": "uint256[]"
        },
        {
          "indexed": false,
          "internalType": "uint256",
          "name": "timestamp",
          "type": "uint256"
        }
      ],
      "name": "SettlementCompleted",
      "type": "event"
    },
    {
      "anonymous": false,
      "inputs": [
        {
          "indexed": true,
          "internalType": "address",
          "name": "from",
          "type": "address"
        },
        {
          "indexed": true,
          "internalType": "address",
          "name": "to",
          "type": "address"
        },
        {
          "indexed": false,
          "internalType": "uint256",
          "name": "tokenAmount",
          "type": "uint256"
        },
        {
          "indexed": false,
          "internalType": "uint256",
          "name": "currencyAmount",
          "type": "uint256"
        },
        {
          "indexed": false,
          "internalType": "uint256",
          "name": "timestamp",
          "type": "uint256"
        }
      ],
      "name": "TransferProcessed",
      "type": "event"
    },
    {
      "anonymous": false,
      "inputs": [
        {
          "indexed": true,
          "internalType": "address",
          "name": "user",
          "type": "address"
        },
        {
          "indexed": false,
          "internalType": "uint8",
          "name": "tokenId",
          "type": "uint8"
        },
        {
          "indexed": false,
          "internalType": "uint256",
          "name": "amount",
          "type": "uint256"
        },
        {
          "indexed": false,
          "internalType": "uint256",
          "name": "timestamp",
          "type": "uint256"
        }
      ],
      "name": "WithdrawalProcessed",
      "type": "event"
    },
    {
      "inputs": [],
      "name": "DECIMALS",
      "outputs": [
        {
          "internalType": "uint256",
          "name": "",
          "type": "uint256"
        }
      ],
      "stateMutability": "view",
      "type": "function",
      "constant": true
    },
    {
      "inputs": [],
      "name": "marketManager",
      "outputs": [
        {
          "internalType": "contract MarketManager",
          "name": "",
          "type": "address"
        }
      ],
      "stateMutability": "view",
      "type": "function",
      "constant": true
    },
    {
      "inputs": [],
      "name": "orderBookManager",
      "outputs": [
        {
          "internalType": "contract OrderBookManager",
          "name": "",
          "type": "address"
        }
      ],
      "stateMutability": "view",
      "type": "function",
      "constant": true
    },
    {
      "inputs": [],
      "name": "tokenManager",
      "outputs": [
        {
          "internalType": "contract TokenManager",
          "name": "",
          "type": "address"
        }
      ],
      "stateMutability": "view",
      "type": "function",
      "constant": true
    },
    {
      "inputs": [
        {
          "internalType": "string",
          "name": "symbol",
          "type": "string"
        },
        {
          "internalType": "uint256",
          "name": "amount",
          "type": "uint256"
        }
      ],
      "name": "depositTokens",
      "outputs": [],
      "stateMutability": "nonpayable",
      "type": "function"
    },
    {
      "inputs": [
        {
          "internalType": "string",
          "name": "symbol",
          "type": "string"
        },
        {
          "internalType": "uint256",
          "name": "amount",
          "type": "uint256"
        }
      ],
      "name": "withdrawTokens",
      "outputs": [],
      "stateMutability": "nonpayable",
      "type": "function"
    },
    {
      "inputs": [
        {
          "internalType": "uint8",
          "name": "tokenId1",
          "type": "uint8"
        },
        {
          "internalType": "uint8",
          "name": "tokenId2",
          "type": "uint8"
        },
        {
          "internalType": "uint256",
          "name": "price",
          "type": "uint256"
        },
        {
          "internalType": "uint256",
          "name": "amount",
          "type": "uint256"
        },
        {
          "internalType": "enum OrderLibrary.OrderNature",
          "name": "orderNature",
          "type": "uint8"
        }
      ],
      "name": "placeBuyOrder",
      "outputs": [
        {
          "internalType": "uint256",
          "name": "",
          "type": "uint256"
        }
      ],
      "stateMutability": "nonpayable",
      "type": "function"
    },
    {
      "inputs": [
        {
          "internalType": "uint8",
          "name": "tokenId1",
          "type": "uint8"
        },
        {
          "internalType": "uint8",
          "name": "tokenId2",
          "type": "uint8"
        },
        {
          "internalType": "uint256",
          "name": "price",
          "type": "uint256"
        },
        {
          "internalType": "uint256",
          "name": "amount",
          "type": "uint256"
        },
        {
          "internalType": "enum OrderLibrary.OrderNature",
          "name": "orderNature",
          "type": "uint8"
        }
      ],
      "name": "placeSellOrder",
      "outputs": [
        {
          "internalType": "uint256",
          "name": "",
          "type": "uint256"
        }
      ],
      "stateMutability": "nonpayable",
      "type": "function"
    },
    {
      "inputs": [
        {
          "internalType": "uint8",
          "name": "tokenId1",
          "type": "uint8"
        },
        {
          "internalType": "uint8",
          "name": "tokenId2",
          "type": "uint8"
        },
        {
          "internalType": "uint256",
          "name": "orderId",
          "type": "uint256"
        },
        {
          "internalType": "enum OrderLibrary.OrderType",
          "name": "orderType",
          "type": "uint8"
        }
      ],
      "name": "cancelOrder",
      "outputs": [],
      "stateMutability": "nonpayable",
      "type": "function"
    },
    {
      "inputs": [
        {
          "internalType": "address",
          "name": "_userAddr",
          "type": "address"
        },
        {
          "internalType": "string",
          "name": "_symbol",
          "type": "string"
        }
      ],
      "name": "getUserTokenBalance",
      "outputs": [
        {
          "internalType": "uint256",
          "name": "",
          "type": "uint256"
        }
      ],
      "stateMutability": "view",
      "type": "function",
      "constant": true
    },
    {
      "inputs": [],
      "name": "getAllAvailableTokens",
      "outputs": [
        {
          "internalType": "string[]",
          "name": "",
          "type": "string[]"
        },
        {
          "internalType": "string[]",
          "name": "",
          "type": "string[]"
        }
      ],
      "stateMutability": "view",
      "type": "function",
      "constant": true
    },
    {
      "inputs": [
        {
          "internalType": "address",
          "name": "_userAddr",
          "type": "address"
        }
      ],
      "name": "getAllUserTokenBalance",
      "outputs": [
        {
          "internalType": "uint256[]",
          "name": "userTokenBalances",
          "type": "uint256[]"
        },
        {
          "internalType": "string[]",
          "name": "tokenNames",
          "type": "string[]"
        }
      ],
      "stateMutability": "view",
      "type": "function",
      "constant": true
    },
    {
      "inputs": [
        {
          "internalType": "string",
          "name": "_token1",
          "type": "string"
        },
        {
          "internalType": "string",
          "name": "_token2",
          "type": "string"
        }
      ],
      "name": "getAllActiveOrdersForAMarket",
      "outputs": [
        {
          "internalType": "uint256[]",
          "name": "amount",
          "type": "uint256[]"
        },
        {
          "internalType": "uint256[]",
          "name": "price",
          "type": "uint256[]"
        },
        {
          "internalType": "enum OrderLibrary.OrderType[]",
          "name": "orderType",
          "type": "uint8[]"
        },
        {
          "internalType": "enum OrderLibrary.OrderNature[]",
          "name": "nature",
          "type": "uint8[]"
        },
        {
          "internalType": "uint256[][]",
          "name": "fillsPrice",
          "type": "uint256[][]"
        },
        {
          "internalType": "uint256[][]",
          "name": "fillsAmount",
          "type": "uint256[][]"
        },
        {
          "internalType": "uint256[][]",
          "name": "fillsTimestamp",
          "type": "uint256[][]"
        }
      ],
      "stateMutability": "view",
      "type": "function",
      "constant": true
    },
    {
      "inputs": [
        {
          "internalType": "string",
          "name": "_token1",
          "type": "string"
        },
        {
          "internalType": "string",
          "name": "_token2",
          "type": "string"
        }
      ],
      "name": "getAllFulfilledOrdersOfAMarket",
      "outputs": [
        {
          "internalType": "uint256[]",
          "name": "amount",
          "type": "uint256[]"
        },
        {
          "internalType": "uint256[]",
          "name": "price",
          "type": "uint256[]"
        },
        {
          "internalType": "enum OrderLibrary.OrderType[]",
          "name": "orderType",
          "type": "uint8[]"
        },
        {
          "internalType": "enum OrderLibrary.OrderNature[]",
          "name": "nature",
          "type": "uint8[]"
        },
        {
          "internalType": "uint256[][]",
          "name": "fillsPrice",
          "type": "uint256[][]"
        },
        {
          "internalType": "uint256[][]",
          "name": "fillsAmount",
          "type": "uint256[][]"
        },
        {
          "internalType": "uint256[][]",
          "name": "fillsTimestamp",
          "type": "uint256[][]"
        }
      ],
      "stateMutability": "view",
      "type": "function",
      "constant": true
    },
    {
      "inputs": [
        {
          "internalType": "string",
          "name": "_token1",
          "type": "string"
        },
        {
          "internalType": "string",
          "name": "_token2",
          "type": "string"
        },
        {
          "internalType": "address",
          "name": "_userAddress",
          "type": "address"
        }
      ],
      "name": "getAllActiveUserOrdersForAMarket",
      "outputs": [
        {
          "internalType": "uint256[]",
          "name": "amount",
          "type": "uint256[]"
        },
        {
          "internalType": "uint256[]",
          "name": "price",
          "type": "uint256[]"
        },
        {
          "internalType": "enum OrderLibrary.OrderType[]",
          "name": "orderType",
          "type": "uint8[]"
        },
        {
          "internalType": "enum OrderLibrary.OrderNature[]",
          "name": "nature",
          "type": "uint8[]"
        },
        {
          "internalType": "uint256[][]",
          "name": "fillsPrice",
          "type": "uint256[][]"
        },
        {
          "internalType": "uint256[][]",
          "name": "fillsAmount",
          "type": "uint256[][]"
        },
        {
          "internalType": "uint256[][]",
          "name": "fillsTimestamp",
          "type": "uint256[][]"
        }
      ],
      "stateMutability": "view",
      "type": "function",
      "constant": true
    },
    {
      "inputs": [
        {
          "internalType": "string",
          "name": "_token1",
          "type": "string"
        },
        {
          "internalType": "string",
          "name": "_token2",
          "type": "string"
        },
        {
          "internalType": "address",
          "name": "_userAddress",
          "type": "address"
        }
      ],
      "name": "getAllFulfilledUserOrdersForAMarket",
      "outputs": [
        {
          "internalType": "uint256[]",
          "name": "amount",
          "type": "uint256[]"
        },
        {
          "internalType": "uint256[]",
          "name": "price",
          "type": "uint256[]"
        },
        {
          "internalType": "enum OrderLibrary.OrderType[]",
          "name": "orderType",
          "type": "uint8[]"
        },
        {
          "internalType": "enum OrderLibrary.OrderNature[]",
          "name": "nature",
          "type": "uint8[]"
        },
        {
          "internalType": "uint256[][]",
          "name": "fillsPrice",
          "type": "uint256[][]"
        },
        {
          "internalType": "uint256[][]",
          "name": "fillsAmount",
          "type": "uint256[][]"
        },
        {
          "internalType": "uint256[][]",
          "name": "fillsTimestamp",
          "type": "uint256[][]"
        }
      ],
      "stateMutability": "view",
      "type": "function",
      "constant": true
    }
  ],
  "bytecode": "0x60e0346200015557601f62002a8238819003918201601f19168301916001600160401b038311848410176200015a5780849260609460405283398101031262000155578062000052620000899262000170565b906200006f6040620000676020840162000170565b920162000170565b6001600160a01b0392831660805290821660a0521660c052565b6040516128fc90816200018682396080518181816101d5015281816108a501528181610b1501528181610d7b01528181610f37015281816111650152818161135d0152818161151401526121c4015260a05181818161091e0152818161159e01528181611c5b0152611e3c015260c0518181816104020152818161080501528181610aab01528181610b9c01528181610cdb01528181610e9f0152818161112801528181611320015281816114d90152818161164c015281816117910152818161223601526127d50152f35b600080fd5b634e487b7160e01b600052604160045260246000fd5b51906001600160a01b0382168203620001555756fe60806040526004361015610013575b600080fd5b60003560e01c80630609eecf1461015357806312ea5c7e1461014a57806321c3a844146101415780632344e1de146101385780632a709b141461012f5780632e0f26251461012657806341ed2c121461011d57806355d5d85514610114578063743ab3f61461010b578063776bd6dc1461010257806379cc326a146100f95780637dc85e71146100f0578063824620b2146100e75780639861d802146100de578063d531bc71146100d55763e9935773146100cd57600080fd5b61000e611743565b5061000e6115fe565b5061000e611587565b5061000e611496565b5061000e6112bb565b5061000e6110d5565b5061000e610e67565b5061000e610c98565b5061000e610b69565b5061000e610afe565b5061000e610ada565b5061000e610a94565b5061000e610a43565b5061000e6107c0565b5061000e6103d6565b5061000e610171565b60ff81160361000e57565b6002111561000e57565b503461000e57608036600319011261000e5760043561018f8161015c565b60243561019b8161015c565b604435606435916101ab83610167565b6040516332e8105b60e11b815260ff94851660048201529316602484015260206001600160a01b037f0000000000000000000000000000000000000000000000000000000000000000168185604481845afa948515610313575b6000956102de575b5060405163627cb1e560e11b8152610253929182908290816000816102388b338c8f60048601612392565b03925af19182156102d1575b6000926102a4575b50506123bb565b60405191837f8b2736d64c84a7dcfa75c365001ce1301e7d9048a01f966d2cb2dc2ef51ab2488481956102894286338985612407565b0390a261029f6040519283924291339085612407565b0390a2005b6102c39250803d106102ca575b6102bb81836104b8565b81019061207e565b388061024c565b503d6102b1565b6102d96117f6565b610244565b8291955061030490610253933d841161030c575b6102fc81836104b8565b8101906117cb565b94909161020d565b503d6102f2565b61031b6117f6565b610205565b918091926000905b828210610340575011610339575050565b6000910152565b91508060209183015181860152018291610328565b9060209161036e81518092818552858086019101610320565b601f01601f1916010190565b908082519081815260208091019281808460051b8301019501936000915b8483106103a85750505050505090565b90919293949584806103c6600193601f198682030187528a51610355565b9801930193019194939290610398565b503461000e5760008060031936011261049e5760405163152e3c9560e11b8152610456919081816004817f00000000000000000000000000000000000000000000000000000000000000006001600160a01b03165afa908115610491575b828092610468575b50506104649060405193849360408552604085019061037a565b90838203602085015261037a565b0390f35b610464935061048992503d8091833e61048181836104b8565b8101906124f2565b90913861043c565b6104996117f6565b610434565b80fd5b50634e487b7160e01b600052604160045260246000fd5b90601f801991011681019081106001600160401b038211176104d957604052565b6104e16104a1565b604052565b60405190606082018281106001600160401b038211176104d957604052565b6020906001600160401b038111610522575b601f01601f19160190565b61052a6104a1565b610517565b81601f8201121561000e5780359061054682610505565b9261055460405194856104b8565b8284526020838301011161000e57816000926020809301838601378301015290565b6001600160a01b0381160361000e57565b90606060031983011261000e576001600160401b0360043581811161000e57836105b39160040161052f565b9260243591821161000e576105ca9160040161052f565b906044356105d781610576565b90565b90815180825260208080930193019160005b8281106105fa575050505090565b8351855293810193928101926001016105ec565b50634e487b7160e01b600052602160045260246000fd5b6002111561062f57565b61063761060e565b565b90815180825260208080930193019160005b828110610659575050505090565b909192938280600192875161066d81610625565b81520195019392910161064b565b90808183519182825260208080809401958560051b0101950193600080925b8584106106ab575050505050505090565b9091929380959697601f1983820301855288519082808351928381520192019085905b8082106106ee57505050908060019299019401940192959493919061069a565b91938060019294865181520194019201889392916106ce565b9593919061072561073491999896949960e0895260e08901906105da565b602092888203848a01526105da565b868103604088015281808a51928381520199019160005b82811061079e575050505061079092916107748861078293886105d79a9b0360608a0152610639565b90868203608088015261067b565b9084820360a086015261067b565b9160c081840391015261067b565b9091929982806001928d516107b281610625565b8152019b019392910161074b565b503461000e5761091a60006107d436610587565b6040805163079d98ef60e21b8082529195946020946001600160a01b03946108a094909387936108639391928592917f00000000000000000000000000000000000000000000000000000000000000008a16919084908690819061083b9060048301611818565b0381855afa948515610a36575b8c95610a17575b508c51809681948293835260048301611818565b03915afa918215610a0a575b88926109db575b5088516332e8105b60e11b815260ff91821660048201529116602482015292839081906044820190565b0381867f0000000000000000000000000000000000000000000000000000000000000000165afa9182156109ce575b85926109ab575b506108f9906108e36104e6565b60028152946001600160a01b0390911690850152565b6001838601528451809681948293636baf21b560e01b84526004840161270e565b03917f0000000000000000000000000000000000000000000000000000000000000000165afa801561099e575b60009081928283849185938695610968575b51975087966104649688610707565b965050505050506104649261098e913d8091833e61098681836104b8565b81019061264f565b9497508796909391929190610959565b6109a66117f6565b610947565b6108f99192506109c790853d871161030c576102fc81836104b8565b91906108d6565b6109d66117f6565b6108cf565b6109fc919250833d8511610a03575b6109f481836104b8565b810190611803565b9038610876565b503d6109ea565b610a126117f6565b61086f565b610a2f919550843d8611610a03576109f481836104b8565b933861084f565b610a3e6117f6565b610848565b503461000e57604036600319011261000e57600435610a6181610576565b6024356001600160401b03811161000e57602091610a86610a8c92369060040161052f565b906127bc565b604051908152f35b503461000e57600036600319011261000e576040517f00000000000000000000000000000000000000000000000000000000000000006001600160a01b03168152602090f35b503461000e57600036600319011261000e576020604051670de0b6b3a76400008152f35b503461000e57600036600319011261000e576040517f00000000000000000000000000000000000000000000000000000000000000006001600160a01b03168152602090f35b9091610b5b6105d7936040845260408401906105da565b91602081840391015261037a565b503461000e57602036600319011261000e57600435610b8781610576565b60405163152e3c9560e11b81526000816004817f00000000000000000000000000000000000000000000000000000000000000006001600160a01b03165afa8015610c48575b6000918291610c2d575b50610be28151612535565b9060005b8151811015610c1c5780610c07610c00610c179385611b79565b51876127bc565b610c118286611b79565b52611b5d565b610be6565b505061046460405192839283610b44565b9050610c42913d8091833e61048181836104b8565b38610bd7565b610c506117f6565b610bcd565b90604060031983011261000e576001600160401b0360043581811161000e5783610c819160040161052f565b9260243591821161000e576105d79160040161052f565b503461000e5761091a6000610cac36610c55565b6040805163079d98ef60e21b8082529194936020936001600160a01b0393610d76938693610d399391928592917f000000000000000000000000000000000000000000000000000000000000000089169190849086908190610d119060048301611818565b0381855afa948515610e5a575b8b95610e3b575b508b51809681948293835260048301611818565b03915afa918215610e2e575b8792610e0f575b5087516332e8105b60e11b815260ff91821660048201529116602482015291829081906044820190565b0381857f0000000000000000000000000000000000000000000000000000000000000000165afa908115610e02575b8491610de5575b50610dc5610db86104e6565b8581523394810194909452565b83858401528451809681948293636baf21b560e01b84526004840161270e565b610dfc9150833d851161030c576102fc81836104b8565b38610dac565b610e0a6117f6565b610da5565b610e27919250833d8511610a03576109f481836104b8565b9038610d4c565b610e366117f6565b610d45565b610e53919550843d8611610a03576109f481836104b8565b9338610d25565b610e626117f6565b610d1e565b503461000e5761091a6000610e7b36610587565b6040805163079d98ef60e21b8082529195946020946001600160a01b0394918691907f0000000000000000000000000000000000000000000000000000000000000000871690839086908190610ed49060048301611818565b0381845afa94851561108e575b899561106d575b50610f0194958a51809681948293835260048301611818565b03915afa918215611060575b8692611041575b5086516332e8105b60e11b815260ff8481166004830152831660248201529185907f000000000000000000000000000000000000000000000000000000000000000086168285604481845afa948515611034575b8995611005575b508951634792bf4f60e11b815260ff968716600482015295909116602486015292936108f993610fbc929082908180604481015b03915afa908115610ff8575b8891610fdb575b50612758565b610fc46104e6565b8681526001600160a01b0390911694810194909452565b610ff29150873d89116102ca576102bb81836104b8565b38610fb6565b6110006117f6565b610faf565b6108f99550918391611029610fa394610fbc963d861161030c576102fc81836104b8565b965091935091610f6f565b61103c6117f6565b610f68565b611059919250853d8711610a03576109f481836104b8565b9038610f14565b6110686117f6565b610f0d565b610f01955061108890843d8611610a03576109f481836104b8565b94610ee8565b6110966117f6565b610ee1565b60a090600319011261000e576004356110b38161015c565b906024356110c08161015c565b9060443590606435906084356105d781610167565b503461000e576104646110e73661109b565b604051633e72a46960e01b815233600482015260ff861660248201529394909384936020939092918491906001600160a01b039061116390839085816044817f000000000000000000000000000000000000000000000000000000000000000088165afa9081156112ae575b600091611291575b50101561195c565b7f000000000000000000000000000000000000000000000000000000000000000016936111b56040519889938493632435a7f960e21b8552670de0b6b3a76400008033930491048d89600488016118d6565b03816000865af1948515611284575b600095611255575b506040516332e8105b60e11b815260ff918216600482015295166024860152929361121b9385929190829082908180604481015b03915afa918215611248575b60009261122b575b5050611c2d565b6040519081529081906020820190565b6112419250803d1061030c576102fc81836104b8565b3880611214565b6112506117f6565b61120c565b61121b9550928092966112786112009395833d851161030c576102fc81836104b8565b965096929391506111cc565b61128c6117f6565b6111c4565b6112a89150863d881161030c576102fc81836104b8565b3861115b565b6112b66117f6565b611153565b503461000e5761046461135b6112d03661109b565b9384939592670de0b6b3a76400008091049204916112ee8382611860565b604051633e72a46960e01b815233600482015260ff891660248201526020958693926001600160a01b039285816044817f000000000000000000000000000000000000000000000000000000000000000088165afa908115611489575b60009161146c575b50101561187f565b7f000000000000000000000000000000000000000000000000000000000000000016936113a06040519889938493632435a7f960e21b855233918d896004880161191b565b03816000865af194851561145f575b600095611430575b506040516332e8105b60e11b815260ff918216600482015295166024860152929361121b9385929190829082908180604481015b03915afa918215611423575b600092611406575b5050611e0f565b61141c9250803d1061030c576102fc81836104b8565b38806113ff565b61142b6117f6565b6113f7565b61121b9550928092966114536113eb9395833d851161030c576102fc81836104b8565b965096929391506113b7565b6114676117f6565b6113af565b6114839150863d881161030c576102fc81836104b8565b38611353565b6114916117f6565b61134b565b503461000e5761091a60006114aa36610c55565b6040805163079d98ef60e21b8082529194936020936001600160a01b039361150f938693610d399391928592917f000000000000000000000000000000000000000000000000000000000000000089169190849086908190610d119060048301611818565b0381857f0000000000000000000000000000000000000000000000000000000000000000165afa90811561157a575b849161155d575b50610dc56115516104e6565b60028152933390850152565b6115749150833d851161030c576102fc81836104b8565b38611545565b6115826117f6565b61153e565b503461000e57600036600319011261000e576040517f00000000000000000000000000000000000000000000000000000000000000006001600160a01b03168152602090f35b604060031982011261000e57600435906001600160401b03821161000e576115f79160040161052f565b9060243590565b503461000e5761029f7f4caf74467ddced26f7e6a63279b0e7573ecee0c0add1110094ec7db6786f0dda611631366115cd565b604051631859cd3160e11b81529093916020916116b59183917f00000000000000000000000000000000000000000000000000000000000000006001600160a01b0316908381806116868c87600484016117da565b03816000865af18015611736575b611719575b50604051808095819463079d98ef60e21b835260048301611818565b03915afa91821561170c575b6000926116ef575b5050604051918291339542918460409194939260ff606083019616825260208201520152565b6117059250803d10610a03576109f481836104b8565b38806116c9565b6117146117f6565b6116c1565b61172f90843d861161030c576102fc81836104b8565b5038611699565b61173e6117f6565b611694565b503461000e5761029f7f8d2f1853d919ed1cfa6a6570c6e9ac54d803e6598d6f4551b287bf48e1cd6cd9611776366115cd565b604051638e27d71960e01b81529093916020916116b59183917f00000000000000000000000000000000000000000000000000000000000000006001600160a01b0316908381806116868c87600484016117da565b9081602091031261000e575190565b9291906117f1602091604086526040860190610355565b930152565b506040513d6000823e3d90fd5b9081602091031261000e57516105d78161015c565b9060206105d7928181520190610355565b50634e487b7160e01b600052601160045260246000fd5b811561184a570490565b634e487b7160e01b600052601260045260246000fd5b8060001904821181151516611873570290565b61187b611829565b0290565b1561188657565b60405162461bcd60e51b815260206004820152602260248201527f496e73756666696369656e742062616c616e636520666f7220627579206f726460448201526132b960f11b6064820152608490fd5b9260ff60c09592989796938160e087019a1686521660208501526040840152606083015260018060a01b03166080820152600160a082015261191783610625565b0152565b9260ff60c09592989796938160e087019a1686521660208501526040840152606083015260018060a01b03166080820152600060a082015261191783610625565b1561196357565b60405162461bcd60e51b815260206004820152602360248201527f496e73756666696369656e742062616c616e636520666f722073656c6c206f726044820152623232b960e91b6064820152608490fd5b6020906001600160401b0381116119cd575b60051b0190565b6119d56104a1565b6119c6565b81601f8201121561000e578051916119f1836119b4565b926119ff60405194856104b8565b808452602092838086019260051b82010192831161000e578301905b828210611a29575050505090565b8380918351611a3781610576565b815201910190611a1b565b81601f8201121561000e57805191611a59836119b4565b92611a6760405194856104b8565b808452602092838086019260051b82010192831161000e578301905b828210611a91575050505090565b81518152908301908301611a83565b9060a08282031261000e578151926020830151906001600160401b039182811161000e5783611ad09186016119da565b93604081015183811161000e5784611ae99183016119da565b93606082015184811161000e5781611b02918401611a42565b93608083015190811161000e576105d79201611a42565b6060919493926080820195825260208201526001604082015261191783610625565b6060919493926080820195825260208201526000604082015261191783610625565b6001906000198114611b6d570190565b611b75611829565b0190565b8051821015611b8d5760209160051b010190565b634e487b7160e01b600052603260045260246000fd5b90815180825260208080930193019160005b828110611bc3575050505090565b83516001600160a01b031685529381019392810192600101611bb5565b95949390608093611c116117f194611c03611c1f9460a08c5260a08c0190611ba3565b908a820360208c0152611ba3565b9088820360408a01526105da565b9086820360608801526105da565b92919092611c56604092835190631a9d34fd60e11b8252818060009485938a8860048501611b19565b0381837f00000000000000000000000000000000000000000000000000000000000000006001600160a01b03165af1918215611e02575b808180938195611dd4575b505b8151811015611d7c5780611cb1611d779286611b79565b5115611d72578981887f4ab2dfc23ad6eadfd841a12408fae5a96194ce57f99774b548ca7b845996017e898c611d27611d0b8c611d0488611cfd81611cf68186611b79565b5198611b79565b5192611b79565b5190611840565b9151928352602083019190915242604083015281906060820190565b0390a4611d72611d47611d3a8386611b79565b516001600160a01b031690565b611d54611d3a8488611b79565b611d5e8489611b79565b5190611d6a858b611b79565b51928b61212e565b611b5d565b611c9a565b5090929491939596508351611d94575b505050505050565b7f7d4ea9ad5ba20f1467c2e729f1cdc6ca87bc1442e84ab1289da4cf9c7e6498ec94611dc69251948594429386611be0565b0390a2388080808080611d8c565b9250935050611df591503d8084833e611ded81836104b8565b810190611aa0565b9350919091929338611c98565b611e0a6117f6565b611c8d565b929192611e37604094855190631a9d34fd60e11b825281806000948593888860048501611b3b565b0381837f00000000000000000000000000000000000000000000000000000000000000006001600160a01b03165af1918215611f25575b808180938195611eff575b505b8151811015611ee757808088888c89611e97611ed8978b611b79565b5115611edd577f4ab2dfc23ad6eadfd841a12408fae5a96194ce57f99774b548ca7b845996017e91611d27611d0b8c611d0489611cfd81611cf68186611b79565b611e7b565b5050505050611b5d565b509092945095909294958351611d9457505050505050565b9250935050611f1891503d8084833e611ded81836104b8565b9350919091929338611e79565b611f2d6117f6565b611e6e565b15611f3957565b60405162461bcd60e51b815260206004820152601860248201527f496e76616c696420746f426550616964206164647265737300000000000000006044820152606490fd5b15611f8557565b60405162461bcd60e51b815260206004820152601960248201527f496e76616c696420746f526563656976652061646472657373000000000000006044820152606490fd5b15611fd157565b60405162461bcd60e51b8152602060048201526014602482015273125b9d985b1a59081d1bdad95b88185b5bdd5b9d60621b6044820152606490fd5b1561201457565b60405162461bcd60e51b815260206004820152601760248201527f496e76616c69642063757272656e637920616d6f756e740000000000000000006044820152606490fd5b919082604091031261000e57602082516120728161015c565b9201516105d78161015c565b9081602091031261000e5751801515810361000e5790565b1561209d57565b60405162461bcd60e51b815260206004820152601a60248201527f4261736520746f6b656e207472616e73666572206661696c65640000000000006044820152606490fd5b156120e957565b60405162461bcd60e51b815260206004820152601b60248201527f51756f746520746f6b656e207472616e73666572206661696c656400000000006044820152606490fd5b936122f8612187956122dd6122707f2dc762b64774944bf202afc1b06bb2ebc1350322e7acb99f5f179c066ddf02099697958660018060a01b03916121bf8382169b61217b8d1515611f32565b8481169d8e1515611f7e565b612192841515611fca565b61219d8a151561200d565b6040809881518094819263a309ed5960e01b8352600483019190602083019252565b0381887f0000000000000000000000000000000000000000000000000000000000000000165afa948515612385575b6000928396612351575b508851630903133960e01b8082526001600160a01b0380871660048401528416602483015260ff9094166044820152606481019590955260209687957f000000000000000000000000000000000000000000000000000000000000000090921693600092909161228b91908890829081906084820190565b0381878a5af1908115612344575b8491612327575b50612096565b89519081526001600160a01b03928316600482015293909116602484015260ff949094166044830152606482018990529092839160849183915af191821561231a575b6000926122fd575b50506120e2565b51928352602083019190915242604083015281906060820190565b0390a3565b6123139250803d106102ca576102bb81836104b8565b38806122d6565b6123226117f6565b6122ce565b61233e9150883d8a116102ca576102bb81836104b8565b38612285565b61234c6117f6565b61227e565b61237691965060009350893d8b1161237e575b61236e81836104b8565b810190612059565b9590926121f8565b503d612364565b61238d6117f6565b6121ee565b9094939260609260808301968352602083015260018060a01b0316604082015261191783610625565b156123c257565b60405162461bcd60e51b815260206004820152601c60248201527f4f7264657220636f756c64206e6f742062652063616e63656c6c6564000000006044820152606490fd5b9081526001600160a01b039091166020820152608081019392916060919061242e81610625565b60408201520152565b9080601f8301121561000e5781519161244f836119b4565b9260409061245f825195866104b8565b808552602093848087019260051b8501019381851161000e57858101925b85841061248e575050505050505090565b83516001600160401b03811161000e5782019083603f8301121561000e5787820151906124ba82610505565b6124c6885191826104b8565b8281528588848601011161000e576124e78a949385948a8685019101610320565b81520193019261247d565b91909160408184031261000e578051926001600160401b039384811161000e578161251e918401612437565b93602083015190811161000e576105d79201612437565b9061253f826119b4565b61254c60405191826104b8565b828152809261255d601f19916119b4565b0190602036910137565b81601f8201121561000e5780519161257e836119b4565b9261258c60405194856104b8565b808452602092838086019260051b82010192831161000e578301905b8282106125b6575050505090565b83809183516125c481610167565b8152019101906125a8565b9080601f8301121561000e578151906125e7826119b4565b926125f560405194856104b8565b828452602092838086019160051b8301019280841161000e57848301915b8483106126235750505050505090565b82516001600160401b03811161000e57869161264484848094890101611a42565b815201920191612613565b909160e08284031261000e578151916001600160401b039283811161000e578461267a918301611a42565b93602082015184811161000e5781612693918401611a42565b93604083015181811161000e57826126ac918501612567565b93606084015182811161000e57836126c5918601612567565b93608081015183811161000e57846126de9183016125cf565b9360a082015184811161000e57816126f79184016125cf565b9360c083015190811161000e576105d792016125cf565b9092916040606091608084019584528051600481101561274b575b6020858101919091528101516001600160a01b03168285015201511515910152565b61275361060e565b612729565b1561275f57565b60405162461bcd60e51b815260206004820152602f60248201527f4d61726b657420646f6573206e6f7420657869737420666f722074686573652060448201526e7061697273206f6620746f6b656e7360881b6064820152608490fd5b60405163079d98ef60e21b815260209261285f928492917f00000000000000000000000000000000000000000000000000000000000000006001600160a01b031691908490849081906128129060048301611818565b0381855afa9283156128b9575b60009361289a575b50604051633e72a46960e01b81526001600160a01b03909116600482015260ff90921660248301529092839190829081906044820190565b03915afa91821561288d575b60009261287757505090565b6105d79250803d1061030c576102fc81836104b8565b6128956117f6565b61286b565b6128b2919350843d8611610a03576109f481836104b8565b9138612827565b6128c16117f6565b61281f56fea264697066735822122052794f13c279be36541e4145599382781f2168ff951598b2e7118e427170dcbc64736f6c634300080d0033",
  "immutableReferences": {
    "844": [
      {
        "length": 32,
        "start": 469
      },
      {
        "length": 32,
        "start": 2213
      },
      {
        "length": 32,
        "start": 2837
      },
      {
        "length": 32,
        "start": 3451
      },
      {
        "length": 32,
        "start": 3895
      },
      {
        "length": 32,
        "start": 4453
      },
      {
        "length": 32,
        "start": 4957
      },
      {
        "length": 32,
        "start": 5396
      },
      {
        "length": 32,
        "start": 8644
      }
    ],
    "847": [
      {
        "length": 32,
        "start": 2334
      },
      {
        "length": 32,
        "start": 5534
      },
      {
        "length": 32,
        "start": 7259
      },
      {
        "length": 32,
        "start": 7740
      }
    ],
    "850": [
      {
        "length": 32,
        "start": 1026
      },
      {
        "length": 32,
        "start": 2053
      },
      {
        "length": 32,
        "start": 2731
      },
      {
        "length": 32,
        "start": 2972
      },
      {
        "length": 32,
        "start": 3291
      },
      {
        "length": 32,
        "start": 3743
      },
      {
        "length": 32,
        "start": 4392
      },
      {
        "length": 32,
        "start": 4896
      },
      {
        "length": 32,
        "start": 5337
      },
      {
        "length": 32,
        "start": 5708
      },
      {
        "length": 32,
        "start": 6033
      },
      {
        "length": 32,
        "start": 8758
      },
      {
        "length": 32,
        "start": 10197
      }
    ]
  },
  "source": "// SPDX-License-Identifier: UNLICENSED\npragma solidity ^0.8.0;\nimport \"./OrderLibrary.sol\";\nimport \"./MarketManager.sol\";\nimport \"./OrderBookManager.sol\";\nimport \"./TokenManager.sol\";\n\n// import \"hardhat/console.sol\";\n\ncontract Exchange {\n    uint256 public constant DECIMALS = 1e18;\n    MarketManager public immutable marketManager;\n    OrderBookManager public immutable orderBookManager;\n    TokenManager public immutable tokenManager;\n\n    // Events for tracking order lifecycle\n    event OrderMatched(\n        bytes32 indexed marketId,\n        uint256 indexed buyOrderId,\n        uint256 indexed sellOrderId,\n        uint256 matchedAmount,\n        uint256 executionPrice,\n        uint256 timestamp\n    );\n\n    event SettlementCompleted(\n        bytes32 indexed marketId,\n        address[] toBePaid,\n        address[] toReceive,\n        uint256[] tokenAmount,\n        uint256[] currencyAmount,\n        uint256 timestamp\n    );\n\n    event TransferProcessed(\n        address indexed from,\n        address indexed to,\n        uint256 tokenAmount,\n        uint256 currencyAmount,\n        uint256 timestamp\n    );\n\n    event DepositReceived(\n        address indexed user,\n        uint8 tokenId,\n        uint256 amount,\n        uint256 timestamp\n    );\n\n    event WithdrawalProcessed(\n        address indexed user,\n        uint8 tokenId,\n        uint256 amount,\n        uint256 timestamp\n    );\n    event OrderCancelled(\n        bytes32 indexed marketId,\n        uint256 orderId,\n        address userAddress,\n        OrderLibrary.OrderType orderType,\n        uint256 timestamp\n    );\n\n    constructor(\n        address _marketManager,\n        address _orderBookManager,\n        address _tokenManager\n    ) {\n        marketManager = MarketManager(_marketManager);\n        orderBookManager = OrderBookManager(_orderBookManager);\n        tokenManager = TokenManager(_tokenManager);\n    }\n\n    // Function to deposit tokens before trading\n    function depositTokens(string memory symbol, uint256 amount) external {\n        // First, user must have approved this contract to spend their tokens\n        // This is done outside the contract using the token's approve() function\n\n        // Perform the deposit\n        uint256 newBalance = tokenManager.deposit(symbol, amount);\n\n        emit DepositReceived(\n            msg.sender,\n            tokenManager.getTokenId(symbol),\n            amount,\n            block.timestamp\n        );\n    }\n\n    // Function to withdraw tokens after trading\n    function withdrawTokens(string memory symbol, uint256 amount) external {\n        uint256 remainingBalance = tokenManager.withdraw(symbol, amount);\n\n        emit WithdrawalProcessed(\n            msg.sender,\n            tokenManager.getTokenId(symbol),\n            amount,\n            block.timestamp\n        );\n    }\n\n    function placeBuyOrder(\n        uint8 tokenId1,\n        uint8 tokenId2,\n        uint256 price,\n        uint256 amount,\n        OrderLibrary.OrderNature orderNature\n    ) external returns (uint256) {\n        // Check if buyer has sufficient quote token (currency) balance\n        price /= DECIMALS;\n        amount /= DECIMALS;\n        uint256 totalCost = price * amount;\n        require(\n            tokenManager.getBalance(msg.sender, tokenId2) >= totalCost,\n            \"Insufficient balance for buy order\"\n        );\n\n        // Place the order through market manager\n        uint256 orderId = marketManager.placeOrder(\n            tokenId1,\n            tokenId2,\n            price,\n            amount,\n            msg.sender,\n            OrderLibrary.OrderType.Buy,\n            orderNature\n        );\n\n        // Try to match the order immediately\n        _matchAndSettleOrder(\n            marketManager.getMarketId(tokenId1, tokenId2),\n            orderId,\n            OrderLibrary.OrderType.Buy,\n            orderNature\n        );\n\n        return orderId;\n    }\n\n    function placeSellOrder(\n        uint8 tokenId1,\n        uint8 tokenId2,\n        uint256 price,\n        uint256 amount,\n        OrderLibrary.OrderNature orderNature\n    ) external returns (uint256) {\n        // Check if seller has sufficient base token balance\n        require(\n            tokenManager.getBalance(msg.sender, tokenId1) >= amount,\n            \"Insufficient balance for sell order\"\n        );\n\n        price /= DECIMALS;\n        amount /= DECIMALS;\n\n        // Place the order through market manager\n        uint256 orderId = marketManager.placeOrder(\n            tokenId1,\n            tokenId2,\n            price,\n            amount,\n            msg.sender,\n            OrderLibrary.OrderType.Sell,\n            orderNature\n        );\n\n        // Try to match the order immediately\n        _matchAndSettleOrder(\n            marketManager.getMarketId(tokenId1, tokenId2),\n            orderId,\n            OrderLibrary.OrderType.Sell,\n            orderNature\n        );\n\n        return orderId;\n    }\n\n    function _matchAndSettleOrder(\n        bytes32 marketId,\n        uint256 orderId,\n        OrderLibrary.OrderType orderType,\n        OrderLibrary.OrderNature orderNature\n    ) internal {\n        // Get matching results from OrderBookManager\n        (\n            uint256 remainingAmount,\n            address[] memory toBePaid,\n            address[] memory toReceive,\n            uint256[] memory tokenAmount,\n            uint256[] memory currencyAmount\n        ) = orderBookManager.matchOrder(\n                marketId,\n                orderId,\n                orderType,\n                orderNature\n            );\n\n        // Process settlements\n        for (uint256 i = 0; i < toBePaid.length; i++) {\n            if (tokenAmount[i] == 0) continue; // Skips empty matches\n\n            emit OrderMatched(\n                marketId,\n                orderType == OrderLibrary.OrderType.Buy ? orderId : i,\n                orderType == OrderLibrary.OrderType.Sell ? orderId : i,\n                tokenAmount[i],\n                currencyAmount[i] / tokenAmount[i], // Price per token\n                block.timestamp\n            );\n\n            // Token transfers handling\n            _settleTransaction(\n                marketId,\n                toBePaid[i],\n                toReceive[i],\n                tokenAmount[i],\n                currencyAmount[i]\n            );\n        }\n\n        if (tokenAmount.length > 0) {\n            emit SettlementCompleted(\n                marketId,\n                toBePaid,\n                toReceive,\n                tokenAmount,\n                currencyAmount,\n                block.timestamp\n            );\n        }\n    }\n\n    function _settleTransaction(\n        bytes32 marketId,\n        address toBePaid,\n        address toReceive,\n        uint256 tokenAmount,\n        uint256 currencyAmount\n    ) internal {\n        require(toBePaid != address(0), \"Invalid toBePaid address\");\n        require(toReceive != address(0), \"Invalid toReceive address\");\n        require(tokenAmount > 0, \"Invalid token amount\");\n        require(currencyAmount > 0, \"Invalid currency amount\");\n\n        // Get the market details from the matched order\n        (uint8 baseTokenId, uint8 quoteTokenId) = marketManager.getMarketTokens(\n            marketId\n        );\n\n        // Transfer base token from seller to buyer\n        bool baseTokenTransferred = tokenManager.transferFrom(\n            toBePaid, // seller\n            toReceive, // buyer\n            baseTokenId,\n            tokenAmount\n        );\n        require(baseTokenTransferred, \"Base token transfer failed\");\n\n        // Transfer quote token (currency) from buyer to seller\n        bool quoteTokenTransferred = tokenManager.transferFrom(\n            toReceive, // buyer\n            toBePaid, // seller\n            quoteTokenId,\n            currencyAmount\n        );\n        require(quoteTokenTransferred, \"Quote token transfer failed\");\n\n        // Emit transfer processed event\n        emit TransferProcessed(\n            toBePaid,\n            toReceive,\n            tokenAmount,\n            currencyAmount,\n            block.timestamp\n        );\n    }\n\n    function cancelOrder(\n        uint8 tokenId1,\n        uint8 tokenId2,\n        uint256 orderId,\n        OrderLibrary.OrderType orderType\n    ) external {\n        //Get Market Id\n        bytes32 marketId = marketManager.getMarketId(tokenId1, tokenId2);\n\n        //Cancel Order\n        bool success = marketManager.cancelOrder(\n            marketId,\n            orderId,\n            msg.sender,\n            orderType\n        );\n\n        require(success, \"Order could not be cancelled\");\n\n        //Emit successful cancellation event\n        emit OrderCancelled(\n            marketId,\n            orderId,\n            msg.sender,\n            orderType,\n            block.timestamp\n        );\n        //Emit successful cancellation event\n        emit OrderCancelled(\n            marketId,\n            orderId,\n            msg.sender,\n            orderType,\n            block.timestamp\n        );\n    }\n\n    function getUserTokenBalance(\n        address _userAddr,\n        string memory _symbol\n    ) external view returns (uint256) {\n        return getTokenBalance(_userAddr, _symbol);\n    }\n\n    function getAllAvailableTokens()\n        external\n        view\n        returns (string[] memory, string[] memory)\n    {\n        return tokenManager.getAllTokens();\n    }\n\n    function getAllUserTokenBalance(\n        address _userAddr\n    )\n        external\n        view\n        returns (uint256[] memory userTokenBalances, string[] memory tokenNames)\n    {\n        // Retrieve all token names and symbols from the token manager\n        string[] memory tokenSymbols;\n        (tokenNames, tokenSymbols) = tokenManager.getAllTokens();\n\n        // Initialize the userTokenBalances array with the correct length\n        userTokenBalances = new uint256[](tokenSymbols.length);\n\n        // Loop through each token and get the balance for the user\n        for (uint256 i = 0; i < tokenSymbols.length; i++) {\n            uint256 tokenBalance = getTokenBalance(_userAddr, tokenSymbols[i]);\n            userTokenBalances[i] = tokenBalance;\n        }\n\n        return (userTokenBalances, tokenNames);\n    }\n\n    function getAllActiveOrdersForAMarket(\n        string memory _token1,\n        string memory _token2\n    )\n        external\n        view\n        returns (\n            uint256[] memory amount,\n            uint256[] memory price,\n            OrderLibrary.OrderType[] memory orderType,\n            OrderLibrary.OrderNature[] memory nature,\n            uint256[][] memory fillsPrice,\n            uint256[][] memory fillsAmount,\n            uint256[][] memory fillsTimestamp\n        )\n    {\n        uint8 tokenId1 = tokenManager.getTokenId(_token1);\n        uint8 tokenId2 = tokenManager.getTokenId(_token2);\n        bytes32 marketId = marketManager.getMarketId(tokenId1, tokenId2);\n        return\n            orderBookManager.getAllOrdersForAMarket(\n                marketId,\n                OrderLibrary.AllOrdersQueryParams({\n                    status: OrderLibrary.OrderStatus.Active,\n                    userAddress: msg.sender,\n                    filterByUser: false\n                })\n            );\n    }\n\n    function getAllFulfilledOrdersOfAMarket(\n        string memory _token1,\n        string memory _token2\n    )\n        external\n        view\n        returns (\n            uint256[] memory amount,\n            uint256[] memory price,\n            OrderLibrary.OrderType[] memory orderType,\n            OrderLibrary.OrderNature[] memory nature,\n            uint256[][] memory fillsPrice,\n            uint256[][] memory fillsAmount,\n            uint256[][] memory fillsTimestamp\n        )\n    {\n        uint8 tokenId1 = tokenManager.getTokenId(_token1);\n        uint8 tokenId2 = tokenManager.getTokenId(_token2);\n        bytes32 marketId = marketManager.getMarketId(tokenId1, tokenId2);\n        return\n            orderBookManager.getAllOrdersForAMarket(\n                marketId,\n                OrderLibrary.AllOrdersQueryParams({\n                    status: OrderLibrary.OrderStatus.Filled,\n                    userAddress: msg.sender,\n                    filterByUser: false\n                })\n            );\n    }\n\n    function getAllActiveUserOrdersForAMarket(\n        string memory _token1,\n        string memory _token2,\n        address _userAddress\n    )\n        external\n        view\n        returns (\n            uint256[] memory amount,\n            uint256[] memory price,\n            OrderLibrary.OrderType[] memory orderType,\n            OrderLibrary.OrderNature[] memory nature,\n            uint256[][] memory fillsPrice,\n            uint256[][] memory fillsAmount,\n            uint256[][] memory fillsTimestamp\n        )\n    {\n        uint8 tokenId1 = tokenManager.getTokenId(_token1);\n        uint8 tokenId2 = tokenManager.getTokenId(_token2);\n        bytes32 marketId = marketManager.getMarketId(tokenId1, tokenId2);\n\n        require(\n            marketManager.isMarketInitialized(tokenId1, tokenId2),\n            \"Market does not exist for these pairs of tokens\"\n        );\n\n        return\n            orderBookManager.getAllOrdersForAMarket(\n                marketId,\n                OrderLibrary.AllOrdersQueryParams({\n                    status: OrderLibrary.OrderStatus.Active,\n                    userAddress: _userAddress,\n                    filterByUser: true\n                })\n            );\n    }\n\n    function getAllFulfilledUserOrdersForAMarket(\n        string memory _token1,\n        string memory _token2,\n        address _userAddress\n    )\n        external\n        view\n        returns (\n            uint256[] memory amount,\n            uint256[] memory price,\n            OrderLibrary.OrderType[] memory orderType,\n            OrderLibrary.OrderNature[] memory nature,\n            uint256[][] memory fillsPrice,\n            uint256[][] memory fillsAmount,\n            uint256[][] memory fillsTimestamp\n        )\n    {\n        uint8 tokenId1 = tokenManager.getTokenId(_token1);\n        uint8 tokenId2 = tokenManager.getTokenId(_token2);\n        bytes32 marketId = marketManager.getMarketId(tokenId1, tokenId2);\n        return\n            orderBookManager.getAllOrdersForAMarket(\n                marketId,\n                OrderLibrary.AllOrdersQueryParams({\n                    status: OrderLibrary.OrderStatus.Filled,\n                    userAddress: _userAddress,\n                    filterByUser: true\n                })\n            );\n    }\n\n    // Helper functions\n    function getTokenBalance(\n        address _userAddr,\n        string memory _symbol\n    ) private view returns (uint256) {\n        uint8 tokenId = tokenManager.getTokenId(_symbol);\n        return tokenManager.getBalance(_userAddr, tokenId);\n    }\n}\n",
  "sourcePath": "C:\\Users\\kaise\\OneDrive\\Desktop\\Codebase\\NTU\\sc4053-blockchain-technology\\contracts\\Exchange.sol",
  "compiler": {
    "name": "solc",
    "version": "0.8.13+commit.abaa5c0e.Emscripten.clang"
  },
  "schemaVersion": "3.4.16",
  "updatedAt": "2024-11-04T13:02:41.342Z",
  "networkType": "ethereum",
  "devdoc": {
    "kind": "dev",
    "methods": {},
    "version": 1
  },
  "userdoc": {
    "kind": "user",
    "methods": {},
    "version": 1
  }
}