{
  "contractName": "Exchange",
  "abi": [
    {
      "inputs": [
        {
          "internalType": "address",
          "name": "_marketManager",
          "type": "address"
        },
        {
          "internalType": "address",
          "name": "_orderBookManager",
          "type": "address"
        },
        {
          "internalType": "address",
          "name": "_tokenManager",
          "type": "address"
        }
      ],
      "stateMutability": "nonpayable",
      "type": "constructor"
    },
    {
      "anonymous": false,
      "inputs": [
        {
          "indexed": true,
          "internalType": "address",
          "name": "user",
          "type": "address"
        },
        {
          "indexed": false,
          "internalType": "uint8",
          "name": "tokenId",
          "type": "uint8"
        },
        {
          "indexed": false,
          "internalType": "uint256",
          "name": "amount",
          "type": "uint256"
        },
        {
          "indexed": false,
          "internalType": "uint256",
          "name": "timestamp",
          "type": "uint256"
        }
      ],
      "name": "DepositReceived",
      "type": "event"
    },
    {
      "anonymous": false,
      "inputs": [
        {
          "indexed": true,
          "internalType": "bytes32",
          "name": "marketId",
          "type": "bytes32"
        },
        {
          "indexed": false,
          "internalType": "uint256",
          "name": "orderId",
          "type": "uint256"
        },
        {
          "indexed": false,
          "internalType": "address",
          "name": "userAddress",
          "type": "address"
        },
        {
          "indexed": false,
          "internalType": "enum OrderLibrary.OrderType",
          "name": "orderType",
          "type": "uint8"
        },
        {
          "indexed": false,
          "internalType": "uint256",
          "name": "timestamp",
          "type": "uint256"
        }
      ],
      "name": "OrderCancelled",
      "type": "event"
    },
    {
      "anonymous": false,
      "inputs": [
        {
          "indexed": true,
          "internalType": "bytes32",
          "name": "marketId",
          "type": "bytes32"
        },
        {
          "indexed": true,
          "internalType": "uint256",
          "name": "buyOrderId",
          "type": "uint256"
        },
        {
          "indexed": true,
          "internalType": "uint256",
          "name": "sellOrderId",
          "type": "uint256"
        },
        {
          "indexed": false,
          "internalType": "uint256",
          "name": "matchedAmount",
          "type": "uint256"
        },
        {
          "indexed": false,
          "internalType": "uint256",
          "name": "executionPrice",
          "type": "uint256"
        },
        {
          "indexed": false,
          "internalType": "uint256",
          "name": "timestamp",
          "type": "uint256"
        }
      ],
      "name": "OrderMatched",
      "type": "event"
    },
    {
      "anonymous": false,
      "inputs": [
        {
          "indexed": true,
          "internalType": "bytes32",
          "name": "marketId",
          "type": "bytes32"
        },
        {
          "indexed": false,
          "internalType": "address[]",
          "name": "toBePaid",
          "type": "address[]"
        },
        {
          "indexed": false,
          "internalType": "address[]",
          "name": "toReceive",
          "type": "address[]"
        },
        {
          "indexed": false,
          "internalType": "uint256[]",
          "name": "tokenAmount",
          "type": "uint256[]"
        },
        {
          "indexed": false,
          "internalType": "uint256[]",
          "name": "currencyAmount",
          "type": "uint256[]"
        },
        {
          "indexed": false,
          "internalType": "uint256",
          "name": "timestamp",
          "type": "uint256"
        }
      ],
      "name": "SettlementCompleted",
      "type": "event"
    },
    {
      "anonymous": false,
      "inputs": [
        {
          "indexed": true,
          "internalType": "address",
          "name": "from",
          "type": "address"
        },
        {
          "indexed": true,
          "internalType": "address",
          "name": "to",
          "type": "address"
        },
        {
          "indexed": false,
          "internalType": "uint256",
          "name": "tokenAmount",
          "type": "uint256"
        },
        {
          "indexed": false,
          "internalType": "uint256",
          "name": "currencyAmount",
          "type": "uint256"
        },
        {
          "indexed": false,
          "internalType": "uint256",
          "name": "timestamp",
          "type": "uint256"
        }
      ],
      "name": "TransferProcessed",
      "type": "event"
    },
    {
      "anonymous": false,
      "inputs": [
        {
          "indexed": true,
          "internalType": "address",
          "name": "user",
          "type": "address"
        },
        {
          "indexed": false,
          "internalType": "uint8",
          "name": "tokenId",
          "type": "uint8"
        },
        {
          "indexed": false,
          "internalType": "uint256",
          "name": "amount",
          "type": "uint256"
        },
        {
          "indexed": false,
          "internalType": "uint256",
          "name": "timestamp",
          "type": "uint256"
        }
      ],
      "name": "WithdrawalProcessed",
      "type": "event"
    },
    {
      "inputs": [],
      "name": "DECIMALS",
      "outputs": [
        {
          "internalType": "uint256",
          "name": "",
          "type": "uint256"
        }
      ],
      "stateMutability": "view",
      "type": "function",
      "constant": true
    },
    {
      "inputs": [],
      "name": "marketManager",
      "outputs": [
        {
          "internalType": "contract MarketManager",
          "name": "",
          "type": "address"
        }
      ],
      "stateMutability": "view",
      "type": "function",
      "constant": true
    },
    {
      "inputs": [],
      "name": "orderBookManager",
      "outputs": [
        {
          "internalType": "contract OrderBookManager",
          "name": "",
          "type": "address"
        }
      ],
      "stateMutability": "view",
      "type": "function",
      "constant": true
    },
    {
      "inputs": [],
      "name": "tokenManager",
      "outputs": [
        {
          "internalType": "contract TokenManager",
          "name": "",
          "type": "address"
        }
      ],
      "stateMutability": "view",
      "type": "function",
      "constant": true
    },
    {
      "inputs": [
        {
          "internalType": "string",
          "name": "symbol",
          "type": "string"
        },
        {
          "internalType": "uint256",
          "name": "amount",
          "type": "uint256"
        }
      ],
      "name": "depositTokens",
      "outputs": [],
      "stateMutability": "nonpayable",
      "type": "function"
    },
    {
      "inputs": [
        {
          "internalType": "string",
          "name": "symbol",
          "type": "string"
        },
        {
          "internalType": "uint256",
          "name": "amount",
          "type": "uint256"
        }
      ],
      "name": "withdrawTokens",
      "outputs": [],
      "stateMutability": "nonpayable",
      "type": "function"
    },
    {
      "inputs": [
        {
          "internalType": "uint8",
          "name": "tokenId1",
          "type": "uint8"
        },
        {
          "internalType": "uint8",
          "name": "tokenId2",
          "type": "uint8"
        },
        {
          "internalType": "uint256",
          "name": "price",
          "type": "uint256"
        },
        {
          "internalType": "uint256",
          "name": "amount",
          "type": "uint256"
        },
        {
          "internalType": "enum OrderLibrary.OrderNature",
          "name": "orderNature",
          "type": "uint8"
        }
      ],
      "name": "placeBuyOrder",
      "outputs": [
        {
          "internalType": "uint256",
          "name": "",
          "type": "uint256"
        }
      ],
      "stateMutability": "nonpayable",
      "type": "function"
    },
    {
      "inputs": [
        {
          "internalType": "uint8",
          "name": "tokenId1",
          "type": "uint8"
        },
        {
          "internalType": "uint8",
          "name": "tokenId2",
          "type": "uint8"
        },
        {
          "internalType": "uint256",
          "name": "price",
          "type": "uint256"
        },
        {
          "internalType": "uint256",
          "name": "amount",
          "type": "uint256"
        },
        {
          "internalType": "enum OrderLibrary.OrderNature",
          "name": "orderNature",
          "type": "uint8"
        }
      ],
      "name": "placeSellOrder",
      "outputs": [
        {
          "internalType": "uint256",
          "name": "",
          "type": "uint256"
        }
      ],
      "stateMutability": "nonpayable",
      "type": "function"
    },
    {
      "inputs": [
        {
          "internalType": "uint8",
          "name": "tokenId1",
          "type": "uint8"
        },
        {
          "internalType": "uint8",
          "name": "tokenId2",
          "type": "uint8"
        },
        {
          "internalType": "uint256",
          "name": "orderId",
          "type": "uint256"
        },
        {
          "internalType": "enum OrderLibrary.OrderType",
          "name": "orderType",
          "type": "uint8"
        }
      ],
      "name": "cancelOrder",
      "outputs": [],
      "stateMutability": "nonpayable",
      "type": "function"
    },
    {
      "inputs": [
        {
          "internalType": "address",
          "name": "_userAddr",
          "type": "address"
        },
        {
          "internalType": "string",
          "name": "_symbol",
          "type": "string"
        }
      ],
      "name": "getUserTokenBalance",
      "outputs": [
        {
          "internalType": "uint256",
          "name": "",
          "type": "uint256"
        }
      ],
      "stateMutability": "view",
      "type": "function",
      "constant": true
    },
    {
      "inputs": [],
      "name": "getAllAvailableTokens",
      "outputs": [
        {
          "internalType": "string[]",
          "name": "",
          "type": "string[]"
        },
        {
          "internalType": "string[]",
          "name": "",
          "type": "string[]"
        }
      ],
      "stateMutability": "view",
      "type": "function",
      "constant": true
    },
    {
      "inputs": [
        {
          "internalType": "address",
          "name": "_userAddr",
          "type": "address"
        }
      ],
      "name": "getAllUserTokenBalance",
      "outputs": [
        {
          "internalType": "uint256[]",
          "name": "userTokenBalances",
          "type": "uint256[]"
        },
        {
          "internalType": "string[]",
          "name": "tokenNames",
          "type": "string[]"
        }
      ],
      "stateMutability": "view",
      "type": "function",
      "constant": true
    },
    {
      "inputs": [
        {
          "internalType": "string",
          "name": "_token1",
          "type": "string"
        },
        {
          "internalType": "string",
          "name": "_token2",
          "type": "string"
        }
      ],
      "name": "getAllActiveOrdersForAMarket",
      "outputs": [
        {
          "internalType": "uint256[]",
          "name": "amount",
          "type": "uint256[]"
        },
        {
          "internalType": "uint256[]",
          "name": "price",
          "type": "uint256[]"
        },
        {
          "internalType": "enum OrderLibrary.OrderType[]",
          "name": "orderType",
          "type": "uint8[]"
        },
        {
          "internalType": "enum OrderLibrary.OrderNature[]",
          "name": "nature",
          "type": "uint8[]"
        },
        {
          "internalType": "uint256[][]",
          "name": "fillsPrice",
          "type": "uint256[][]"
        },
        {
          "internalType": "uint256[][]",
          "name": "fillsAmount",
          "type": "uint256[][]"
        },
        {
          "internalType": "uint256[][]",
          "name": "fillsTimestamp",
          "type": "uint256[][]"
        }
      ],
      "stateMutability": "view",
      "type": "function",
      "constant": true
    },
    {
      "inputs": [
        {
          "internalType": "string",
          "name": "_token1",
          "type": "string"
        },
        {
          "internalType": "string",
          "name": "_token2",
          "type": "string"
        }
      ],
      "name": "getAllFulfilledOrdersOfAMarket",
      "outputs": [
        {
          "internalType": "uint256[]",
          "name": "amount",
          "type": "uint256[]"
        },
        {
          "internalType": "uint256[]",
          "name": "price",
          "type": "uint256[]"
        },
        {
          "internalType": "enum OrderLibrary.OrderType[]",
          "name": "orderType",
          "type": "uint8[]"
        },
        {
          "internalType": "enum OrderLibrary.OrderNature[]",
          "name": "nature",
          "type": "uint8[]"
        },
        {
          "internalType": "uint256[][]",
          "name": "fillsPrice",
          "type": "uint256[][]"
        },
        {
          "internalType": "uint256[][]",
          "name": "fillsAmount",
          "type": "uint256[][]"
        },
        {
          "internalType": "uint256[][]",
          "name": "fillsTimestamp",
          "type": "uint256[][]"
        }
      ],
      "stateMutability": "view",
      "type": "function",
      "constant": true
    },
    {
      "inputs": [
        {
          "internalType": "string",
          "name": "_token1",
          "type": "string"
        },
        {
          "internalType": "string",
          "name": "_token2",
          "type": "string"
        },
        {
          "internalType": "address",
          "name": "_userAddress",
          "type": "address"
        }
      ],
      "name": "getAllActiveUserOrdersForAMarket",
      "outputs": [
        {
          "internalType": "uint256[]",
          "name": "amount",
          "type": "uint256[]"
        },
        {
          "internalType": "uint256[]",
          "name": "price",
          "type": "uint256[]"
        },
        {
          "internalType": "enum OrderLibrary.OrderType[]",
          "name": "orderType",
          "type": "uint8[]"
        },
        {
          "internalType": "enum OrderLibrary.OrderNature[]",
          "name": "nature",
          "type": "uint8[]"
        },
        {
          "internalType": "uint256[][]",
          "name": "fillsPrice",
          "type": "uint256[][]"
        },
        {
          "internalType": "uint256[][]",
          "name": "fillsAmount",
          "type": "uint256[][]"
        },
        {
          "internalType": "uint256[][]",
          "name": "fillsTimestamp",
          "type": "uint256[][]"
        }
      ],
      "stateMutability": "view",
      "type": "function",
      "constant": true
    },
    {
      "inputs": [
        {
          "internalType": "string",
          "name": "_token1",
          "type": "string"
        },
        {
          "internalType": "string",
          "name": "_token2",
          "type": "string"
        },
        {
          "internalType": "address",
          "name": "_userAddress",
          "type": "address"
        }
      ],
      "name": "getAllFulfilledUserOrdersForAMarket",
      "outputs": [
        {
          "internalType": "uint256[]",
          "name": "amount",
          "type": "uint256[]"
        },
        {
          "internalType": "uint256[]",
          "name": "price",
          "type": "uint256[]"
        },
        {
          "internalType": "enum OrderLibrary.OrderType[]",
          "name": "orderType",
          "type": "uint8[]"
        },
        {
          "internalType": "enum OrderLibrary.OrderNature[]",
          "name": "nature",
          "type": "uint8[]"
        },
        {
          "internalType": "uint256[][]",
          "name": "fillsPrice",
          "type": "uint256[][]"
        },
        {
          "internalType": "uint256[][]",
          "name": "fillsAmount",
          "type": "uint256[][]"
        },
        {
          "internalType": "uint256[][]",
          "name": "fillsTimestamp",
          "type": "uint256[][]"
        }
      ],
      "stateMutability": "view",
      "type": "function",
      "constant": true
    }
  ],
  "bytecode": "0x60e0346200015557601f62002bb238819003918201601f19168301916001600160401b038311848410176200015a5780849260609460405283398101031262000155578062000052620000899262000170565b906200006f6040620000676020840162000170565b920162000170565b6001600160a01b0392831660805290821660a0521660c052565b604051612a2c90816200018682396080518181816101d5015281816108a501528181610b1501528181610d6701528181610fb1015281816111d8015281816113d0015281816115ec01526122f4015260a05181818161091e015281816116ce01528181611d8b0152611f6c015260c0518181816104020152818161080501528181610aab01528181610b9c01528181610cce01528181610f190152818161119b015281816113930152818161154c0152818161177c015281816118c10152818161236601526129050152f35b600080fd5b634e487b7160e01b600052604160045260246000fd5b51906001600160a01b0382168203620001555756fe60806040526004361015610013575b600080fd5b60003560e01c80630609eecf1461015357806312ea5c7e1461014a57806321c3a844146101415780632344e1de146101385780632a709b141461012f5780632e0f26251461012657806341ed2c121461011d57806355d5d85514610114578063743ab3f61461010b578063776bd6dc1461010257806379cc326a146100f95780637dc85e71146100f0578063824620b2146100e75780639861d802146100de578063d531bc71146100d55763e9935773146100cd57600080fd5b61000e611873565b5061000e61172e565b5061000e6116b7565b5061000e611509565b5061000e61132e565b5061000e611148565b5061000e610ee1565b5061000e610c98565b5061000e610b69565b5061000e610afe565b5061000e610ada565b5061000e610a94565b5061000e610a43565b5061000e6107c0565b5061000e6103d6565b5061000e610171565b60ff81160361000e57565b6002111561000e57565b503461000e57608036600319011261000e5760043561018f8161015c565b60243561019b8161015c565b604435606435916101ab83610167565b6040516332e8105b60e11b815260ff94851660048201529316602484015260206001600160a01b037f0000000000000000000000000000000000000000000000000000000000000000168185604481845afa948515610313575b6000956102de575b5060405163627cb1e560e11b8152610253929182908290816000816102388b338c8f600486016124c2565b03925af19182156102d1575b6000926102a4575b50506124eb565b60405191837f8b2736d64c84a7dcfa75c365001ce1301e7d9048a01f966d2cb2dc2ef51ab2488481956102894286338985612537565b0390a261029f6040519283924291339085612537565b0390a2005b6102c39250803d106102ca575b6102bb81836104b8565b8101906121ae565b388061024c565b503d6102b1565b6102d9611926565b610244565b8291955061030490610253933d841161030c575b6102fc81836104b8565b8101906118fb565b94909161020d565b503d6102f2565b61031b611926565b610205565b918091926000905b828210610340575011610339575050565b6000910152565b91508060209183015181860152018291610328565b9060209161036e81518092818552858086019101610320565b601f01601f1916010190565b908082519081815260208091019281808460051b8301019501936000915b8483106103a85750505050505090565b90919293949584806103c6600193601f198682030187528a51610355565b9801930193019194939290610398565b503461000e5760008060031936011261049e5760405163152e3c9560e11b8152610456919081816004817f00000000000000000000000000000000000000000000000000000000000000006001600160a01b03165afa908115610491575b828092610468575b50506104649060405193849360408552604085019061037a565b90838203602085015261037a565b0390f35b610464935061048992503d8091833e61048181836104b8565b810190612622565b90913861043c565b610499611926565b610434565b80fd5b50634e487b7160e01b600052604160045260246000fd5b90601f801991011681019081106001600160401b038211176104d957604052565b6104e16104a1565b604052565b60405190606082018281106001600160401b038211176104d957604052565b6020906001600160401b038111610522575b601f01601f19160190565b61052a6104a1565b610517565b81601f8201121561000e5780359061054682610505565b9261055460405194856104b8565b8284526020838301011161000e57816000926020809301838601378301015290565b6001600160a01b0381160361000e57565b90606060031983011261000e576001600160401b0360043581811161000e57836105b39160040161052f565b9260243591821161000e576105ca9160040161052f565b906044356105d781610576565b90565b90815180825260208080930193019160005b8281106105fa575050505090565b8351855293810193928101926001016105ec565b50634e487b7160e01b600052602160045260246000fd5b6002111561062f57565b61063761060e565b565b90815180825260208080930193019160005b828110610659575050505090565b909192938280600192875161066d81610625565b81520195019392910161064b565b908082519081815260208091019281808460051b830101950193600080925b8584106106ab575050505050505090565b9091929380959697601f1983820301855288519082808351928381520192019085905b8082106106ee57505050908060019299019401940192959493919061069a565b91938060019294865181520194019201889392916106ce565b9593919061072561073491999896949960e0895260e08901906105da565b602092888203848a01526105da565b868103604088015281808a51928381520199019160005b82811061079e575050505061079092916107748861078293886105d79a9b0360608a0152610639565b90868203608088015261067b565b9084820360a086015261067b565b9160c081840391015261067b565b9091929982806001928d516107b281610625565b8152019b019392910161074b565b503461000e5761091a60006107d436610587565b6040805163079d98ef60e21b8082529195946020946001600160a01b03946108a094909387936108639391928592917f00000000000000000000000000000000000000000000000000000000000000008a16919084908690819061083b9060048301611948565b0381855afa948515610a36575b8c95610a17575b508c51809681948293835260048301611948565b03915afa918215610a0a575b88926109db575b5088516332e8105b60e11b815260ff91821660048201529116602482015292839081906044820190565b0381867f0000000000000000000000000000000000000000000000000000000000000000165afa9182156109ce575b85926109ab575b506108f9906108e36104e6565b60028152946001600160a01b0390911690850152565b6001838601528451809681948293636baf21b560e01b8452600484016128a2565b03917f0000000000000000000000000000000000000000000000000000000000000000165afa801561099e575b60009081928283849185938695610968575b51975087966104649688610707565b965050505050506104649261098e913d8091833e61098681836104b8565b8101906127e3565b9497508796909391929190610959565b6109a6611926565b610947565b6108f99192506109c790853d871161030c576102fc81836104b8565b91906108d6565b6109d6611926565b6108cf565b6109fc919250833d8511610a03575b6109f481836104b8565b810190611933565b9038610876565b503d6109ea565b610a12611926565b61086f565b610a2f919550843d8611610a03576109f481836104b8565b933861084f565b610a3e611926565b610848565b503461000e57604036600319011261000e57600435610a6181610576565b6024356001600160401b03811161000e57602091610a86610a8c92369060040161052f565b906128ec565b604051908152f35b503461000e57600036600319011261000e576040517f00000000000000000000000000000000000000000000000000000000000000006001600160a01b03168152602090f35b503461000e57600036600319011261000e576020604051670de0b6b3a76400008152f35b503461000e57600036600319011261000e576040517f00000000000000000000000000000000000000000000000000000000000000006001600160a01b03168152602090f35b9091610b5b6105d7936040845260408401906105da565b91602081840391015261037a565b503461000e57602036600319011261000e57600435610b8781610576565b60405163152e3c9560e11b81526000816004817f00000000000000000000000000000000000000000000000000000000000000006001600160a01b03165afa8015610c48575b6000918291610c2d575b50610be28151612665565b9060005b8151811015610c1c5780610c07610c00610c179385611ca9565b51876128ec565b610c118286611ca9565b52611c8d565b610be6565b505061046460405192839283610b44565b9050610c42913d8091833e61048181836104b8565b38610bd7565b610c50611926565b610bcd565b90604060031983011261000e576001600160401b0360043581811161000e5783610c819160040161052f565b9260243591821161000e576105d79160040161052f565b503461000e5761091a6000610cac36610c55565b6040805163079d98ef60e21b8082529194936020936001600160a01b039385927f000000000000000000000000000000000000000000000000000000000000000086169190849086908190610d049060048301611948565b0381855afa948515610ed4575b8895610eab575b50918391610d33938a51809581948293835260048301611948565b03915afa908115610e9e575b8691610e81575b5086516332e8105b60e11b815260ff848116600483015282166024820152927f00000000000000000000000000000000000000000000000000000000000000008516908385604481855afa948515610e74575b8895610e47575b508851634792bf4f60e11b815260ff918216600482015292166024830152610de5929082908180604481015b03915afa908115610e3a575b8691610e1d575b50612697565b610dfd610df06104e6565b8581523394810194909452565b83858401528451809681948293636baf21b560e01b8452600484016128a2565b610e349150853d87116102ca576102bb81836104b8565b38610ddf565b610e42611926565b610dd8565b610dcc9391955091610e698593610de5963d861161030c576102fc81836104b8565b959193509193610da0565b610e7c611926565b610d99565b610e989150823d8411610a03576109f481836104b8565b38610d46565b610ea6611926565b610d3f565b610d339391955091610eca8593843d8611610a03576109f481836104b8565b9591935091610d18565b610edc611926565b610d11565b503461000e5761091a6000610ef536610587565b6040805163079d98ef60e21b8082529195946020946001600160a01b0394918691907f0000000000000000000000000000000000000000000000000000000000000000871690839086908190610f4e9060048301611948565b0381845afa948515611101575b89956110e0575b50610f7b94958a51809681948293835260048301611948565b03915afa9182156110d3575b86926110b4575b5086516332e8105b60e11b815260ff8481166004830152831660248201529185907f000000000000000000000000000000000000000000000000000000000000000086168285604481845afa9485156110a7575b8995611078575b508951634792bf4f60e11b815260ff968716600482015295909116602486015292936108f993611035929082908180604481015b03915afa90811561106b575b88916110545750612697565b61103d6104e6565b8681526001600160a01b0390911694810194909452565b610e349150873d89116102ca576102bb81836104b8565b611073611926565b611029565b6108f9955091839161109c61101d94611035963d861161030c576102fc81836104b8565b965091935091610fe9565b6110af611926565b610fe2565b6110cc919250853d8711610a03576109f481836104b8565b9038610f8e565b6110db611926565b610f87565b610f7b95506110fb90843d8611610a03576109f481836104b8565b94610f62565b611109611926565b610f5b565b60a090600319011261000e576004356111268161015c565b906024356111338161015c565b9060443590606435906084356105d781610167565b503461000e5761046461115a3661110e565b604051633e72a46960e01b815233600482015260ff861660248201529394909384936020939092918491906001600160a01b03906111d690839085816044817f000000000000000000000000000000000000000000000000000000000000000088165afa908115611321575b600091611304575b501015611a8c565b7f000000000000000000000000000000000000000000000000000000000000000016936112286040519889938493632435a7f960e21b8552670de0b6b3a76400008033930491048d8960048801611a06565b03816000865af19485156112f7575b6000956112c8575b506040516332e8105b60e11b815260ff918216600482015295166024860152929361128e9385929190829082908180604481015b03915afa9182156112bb575b60009261129e575b5050611d5d565b6040519081529081906020820190565b6112b49250803d1061030c576102fc81836104b8565b3880611287565b6112c3611926565b61127f565b61128e9550928092966112eb6112739395833d851161030c576102fc81836104b8565b9650969293915061123f565b6112ff611926565b611237565b61131b9150863d881161030c576102fc81836104b8565b386111ce565b611329611926565b6111c6565b503461000e576104646113ce6113433661110e565b9384939592670de0b6b3a76400008091049204916113618382611990565b604051633e72a46960e01b815233600482015260ff891660248201526020958693926001600160a01b039285816044817f000000000000000000000000000000000000000000000000000000000000000088165afa9081156114fc575b6000916114df575b5010156119af565b7f000000000000000000000000000000000000000000000000000000000000000016936114136040519889938493632435a7f960e21b855233918d8960048801611a4b565b03816000865af19485156114d2575b6000956114a3575b506040516332e8105b60e11b815260ff918216600482015295166024860152929361128e9385929190829082908180604481015b03915afa918215611496575b600092611479575b5050611f3f565b61148f9250803d1061030c576102fc81836104b8565b3880611472565b61149e611926565b61146a565b61128e9550928092966114c661145e9395833d851161030c576102fc81836104b8565b9650969293915061142a565b6114da611926565b611422565b6114f69150863d881161030c576102fc81836104b8565b386113c6565b611504611926565b6113be565b503461000e5761091a600061151d36610c55565b6040805163079d98ef60e21b8082529194936020936001600160a01b03936115e79386936115aa9391928592917f0000000000000000000000000000000000000000000000000000000000000000891691908490869081906115829060048301611948565b0381855afa9485156116aa575b8b9561168b575b508b51809681948293835260048301611948565b03915afa91821561167e575b879261165f575b5087516332e8105b60e11b815260ff91821660048201529116602482015291829081906044820190565b0381857f0000000000000000000000000000000000000000000000000000000000000000165afa908115611652575b8491611635575b50610dfd6116296104e6565b60028152933390850152565b61164c9150833d851161030c576102fc81836104b8565b3861161d565b61165a611926565b611616565b611677919250833d8511610a03576109f481836104b8565b90386115bd565b611686611926565b6115b6565b6116a3919550843d8611610a03576109f481836104b8565b9338611596565b6116b2611926565b61158f565b503461000e57600036600319011261000e576040517f00000000000000000000000000000000000000000000000000000000000000006001600160a01b03168152602090f35b604060031982011261000e57600435906001600160401b03821161000e576117279160040161052f565b9060243590565b503461000e5761029f7f4caf74467ddced26f7e6a63279b0e7573ecee0c0add1110094ec7db6786f0dda611761366116fd565b604051631859cd3160e11b81529093916020916117e59183917f00000000000000000000000000000000000000000000000000000000000000006001600160a01b0316908381806117b68c876004840161190a565b03816000865af18015611866575b611849575b50604051808095819463079d98ef60e21b835260048301611948565b03915afa91821561183c575b60009261181f575b5050604051918291339542918460409194939260ff606083019616825260208201520152565b6118359250803d10610a03576109f481836104b8565b38806117f9565b611844611926565b6117f1565b61185f90843d861161030c576102fc81836104b8565b50386117c9565b61186e611926565b6117c4565b503461000e5761029f7f8d2f1853d919ed1cfa6a6570c6e9ac54d803e6598d6f4551b287bf48e1cd6cd96118a6366116fd565b604051638e27d71960e01b81529093916020916117e59183917f00000000000000000000000000000000000000000000000000000000000000006001600160a01b0316908381806117b68c876004840161190a565b9081602091031261000e575190565b929190611921602091604086526040860190610355565b930152565b506040513d6000823e3d90fd5b9081602091031261000e57516105d78161015c565b9060206105d7928181520190610355565b50634e487b7160e01b600052601160045260246000fd5b811561197a570490565b634e487b7160e01b600052601260045260246000fd5b80600019048211811515166119a3570290565b6119ab611959565b0290565b156119b657565b60405162461bcd60e51b815260206004820152602260248201527f496e73756666696369656e742062616c616e636520666f7220627579206f726460448201526132b960f11b6064820152608490fd5b9260ff60c09592989796938160e087019a1686521660208501526040840152606083015260018060a01b03166080820152600160a0820152611a4783610625565b0152565b9260ff60c09592989796938160e087019a1686521660208501526040840152606083015260018060a01b03166080820152600060a0820152611a4783610625565b15611a9357565b60405162461bcd60e51b815260206004820152602360248201527f496e73756666696369656e742062616c616e636520666f722073656c6c206f726044820152623232b960e91b6064820152608490fd5b6020906001600160401b038111611afd575b60051b0190565b611b056104a1565b611af6565b81601f8201121561000e57805191611b2183611ae4565b92611b2f60405194856104b8565b808452602092838086019260051b82010192831161000e578301905b828210611b59575050505090565b8380918351611b6781610576565b815201910190611b4b565b81601f8201121561000e57805191611b8983611ae4565b92611b9760405194856104b8565b808452602092838086019260051b82010192831161000e578301905b828210611bc1575050505090565b81518152908301908301611bb3565b9060a08282031261000e578151926020830151906001600160401b039182811161000e5783611c00918601611b0a565b93604081015183811161000e5784611c19918301611b0a565b93606082015184811161000e5781611c32918401611b72565b93608083015190811161000e576105d79201611b72565b60609194939260808201958252602082015260016040820152611a4783610625565b60609194939260808201958252602082015260006040820152611a4783610625565b6001906000198114611c9d570190565b611ca5611959565b0190565b8051821015611cbd5760209160051b010190565b634e487b7160e01b600052603260045260246000fd5b90815180825260208080930193019160005b828110611cf3575050505090565b83516001600160a01b031685529381019392810192600101611ce5565b95949390608093611d4161192194611d33611d4f9460a08c5260a08c0190611cd3565b908a820360208c0152611cd3565b9088820360408a01526105da565b9086820360608801526105da565b92919092611d86604092835190631a9d34fd60e11b8252818060009485938a8860048501611c49565b0381837f00000000000000000000000000000000000000000000000000000000000000006001600160a01b03165af1918215611f32575b808180938195611f04575b505b8151811015611eac5780611de1611ea79286611ca9565b5115611ea2578981887f4ab2dfc23ad6eadfd841a12408fae5a96194ce57f99774b548ca7b845996017e898c611e57611e3b8c611e3488611e2d81611e268186611ca9565b5198611ca9565b5192611ca9565b5190611970565b9151928352602083019190915242604083015281906060820190565b0390a4611ea2611e77611e6a8386611ca9565b516001600160a01b031690565b611e84611e6a8488611ca9565b611e8e8489611ca9565b5190611e9a858b611ca9565b51928b61225e565b611c8d565b611dca565b5090929491939596508351611ec4575b505050505050565b7f7d4ea9ad5ba20f1467c2e729f1cdc6ca87bc1442e84ab1289da4cf9c7e6498ec94611ef69251948594429386611d10565b0390a2388080808080611ebc565b9250935050611f2591503d8084833e611f1d81836104b8565b810190611bd0565b9350919091929338611dc8565b611f3a611926565b611dbd565b929192611f67604094855190631a9d34fd60e11b825281806000948593888860048501611c6b565b0381837f00000000000000000000000000000000000000000000000000000000000000006001600160a01b03165af1918215612055575b80818093819561202f575b505b815181101561201757808088888c89611fc7612008978b611ca9565b511561200d577f4ab2dfc23ad6eadfd841a12408fae5a96194ce57f99774b548ca7b845996017e91611e57611e3b8c611e3489611e2d81611e268186611ca9565b611fab565b5050505050611c8d565b509092945095909294958351611ec457505050505050565b925093505061204891503d8084833e611f1d81836104b8565b9350919091929338611fa9565b61205d611926565b611f9e565b1561206957565b60405162461bcd60e51b815260206004820152601860248201527f496e76616c696420746f426550616964206164647265737300000000000000006044820152606490fd5b156120b557565b60405162461bcd60e51b815260206004820152601960248201527f496e76616c696420746f526563656976652061646472657373000000000000006044820152606490fd5b1561210157565b60405162461bcd60e51b8152602060048201526014602482015273125b9d985b1a59081d1bdad95b88185b5bdd5b9d60621b6044820152606490fd5b1561214457565b60405162461bcd60e51b815260206004820152601760248201527f496e76616c69642063757272656e637920616d6f756e740000000000000000006044820152606490fd5b919082604091031261000e57602082516121a28161015c565b9201516105d78161015c565b9081602091031261000e5751801515810361000e5790565b156121cd57565b60405162461bcd60e51b815260206004820152601a60248201527f4261736520746f6b656e207472616e73666572206661696c65640000000000006044820152606490fd5b1561221957565b60405162461bcd60e51b815260206004820152601b60248201527f51756f746520746f6b656e207472616e73666572206661696c656400000000006044820152606490fd5b936124286122b79561240d6123a07f2dc762b64774944bf202afc1b06bb2ebc1350322e7acb99f5f179c066ddf02099697958660018060a01b03916122ef8382169b6122ab8d1515612062565b8481169d8e15156120ae565b6122c28415156120fa565b6122cd8a151561213d565b6040809881518094819263a309ed5960e01b8352600483019190602083019252565b0381887f0000000000000000000000000000000000000000000000000000000000000000165afa9485156124b5575b6000928396612481575b508851630903133960e01b8082526001600160a01b0380871660048401528416602483015260ff9094166044820152606481019590955260209687957f00000000000000000000000000000000000000000000000000000000000000009092169360009290916123bb91908890829081906084820190565b0381878a5af1908115612474575b8491612457575b506121c6565b89519081526001600160a01b03928316600482015293909116602484015260ff949094166044830152606482018990529092839160849183915af191821561244a575b60009261242d575b5050612212565b51928352602083019190915242604083015281906060820190565b0390a3565b6124439250803d106102ca576102bb81836104b8565b3880612406565b612452611926565b6123fe565b61246e9150883d8a116102ca576102bb81836104b8565b386123b5565b61247c611926565b6123ae565b6124a691965060009350893d8b116124ae575b61249e81836104b8565b810190612189565b959092612328565b503d612494565b6124bd611926565b61231e565b9094939260609260808301968352602083015260018060a01b03166040820152611a4783610625565b156124f257565b60405162461bcd60e51b815260206004820152601c60248201527f4f7264657220636f756c64206e6f742062652063616e63656c6c6564000000006044820152606490fd5b9081526001600160a01b039091166020820152608081019392916060919061255e81610625565b60408201520152565b9080601f8301121561000e5781519161257f83611ae4565b9260409061258f825195866104b8565b808552602093848087019260051b8501019381851161000e57858101925b8584106125be575050505050505090565b83516001600160401b03811161000e5782019083603f8301121561000e5787820151906125ea82610505565b6125f6885191826104b8565b8281528588848601011161000e576126178a949385948a8685019101610320565b8152019301926125ad565b91909160408184031261000e578051926001600160401b039384811161000e578161264e918401612567565b93602083015190811161000e576105d79201612567565b9061266f82611ae4565b61267c60405191826104b8565b828152809261268d601f1991611ae4565b0190602036910137565b1561269e57565b60405162461bcd60e51b815260206004820152602f60248201527f4d61726b657420646f6573206e6f7420657869737420666f722074686573652060448201526e7061697273206f6620746f6b656e7360881b6064820152608490fd5b81601f8201121561000e5780519161271283611ae4565b9261272060405194856104b8565b808452602092838086019260051b82010192831161000e578301905b82821061274a575050505090565b838091835161275881610167565b81520191019061273c565b9080601f8301121561000e5781519061277b82611ae4565b9261278960405194856104b8565b828452602092838086019160051b8301019280841161000e57848301915b8483106127b75750505050505090565b82516001600160401b03811161000e5786916127d884848094890101611b72565b8152019201916127a7565b909160e08284031261000e578151916001600160401b039283811161000e578461280e918301611b72565b93602082015184811161000e5781612827918401611b72565b93604083015181811161000e57826128409185016126fb565b93606084015182811161000e57836128599186016126fb565b93608081015183811161000e5784612872918301612763565b9360a082015184811161000e578161288b918401612763565b9360c083015190811161000e576105d79201612763565b909291604060609160808401958452805160048110156128df575b6020858101919091528101516001600160a01b03168285015201511515910152565b6128e761060e565b6128bd565b60405163079d98ef60e21b815260209261298f928492917f00000000000000000000000000000000000000000000000000000000000000006001600160a01b031691908490849081906129429060048301611948565b0381855afa9283156129e9575b6000936129ca575b50604051633e72a46960e01b81526001600160a01b03909116600482015260ff90921660248301529092839190829081906044820190565b03915afa9182156129bd575b6000926129a757505090565b6105d79250803d1061030c576102fc81836104b8565b6129c5611926565b61299b565b6129e2919350843d8611610a03576109f481836104b8565b9138612957565b6129f1611926565b61294f56fea26469706673582212207d01c2687e524f488d35e8ceeed8c666b7f5b728a7f61da0815b3a4cf8d237e964736f6c634300080d0033",
  "immutableReferences": {
    "844": [
      {
        "length": 32,
        "start": 469
      },
      {
        "length": 32,
        "start": 2213
      },
      {
        "length": 32,
        "start": 2837
      },
      {
        "length": 32,
        "start": 3431
      },
      {
        "length": 32,
        "start": 4017
      },
      {
        "length": 32,
        "start": 4568
      },
      {
        "length": 32,
        "start": 5072
      },
      {
        "length": 32,
        "start": 5612
      },
      {
        "length": 32,
        "start": 8948
      }
    ],
    "847": [
      {
        "length": 32,
        "start": 2334
      },
      {
        "length": 32,
        "start": 5838
      },
      {
        "length": 32,
        "start": 7563
      },
      {
        "length": 32,
        "start": 8044
      }
    ],
    "850": [
      {
        "length": 32,
        "start": 1026
      },
      {
        "length": 32,
        "start": 2053
      },
      {
        "length": 32,
        "start": 2731
      },
      {
        "length": 32,
        "start": 2972
      },
      {
        "length": 32,
        "start": 3278
      },
      {
        "length": 32,
        "start": 3865
      },
      {
        "length": 32,
        "start": 4507
      },
      {
        "length": 32,
        "start": 5011
      },
      {
        "length": 32,
        "start": 5452
      },
      {
        "length": 32,
        "start": 6012
      },
      {
        "length": 32,
        "start": 6337
      },
      {
        "length": 32,
        "start": 9062
      },
      {
        "length": 32,
        "start": 10501
      }
    ]
  },
  "source": "// SPDX-License-Identifier: UNLICENSED\npragma solidity ^0.8.0;\nimport \"./OrderLibrary.sol\";\nimport \"./MarketManager.sol\";\nimport \"./OrderBookManager.sol\";\nimport \"./TokenManager.sol\";\n\n// import \"hardhat/console.sol\";\n\ncontract Exchange {\n    uint256 public constant DECIMALS = 1e18;\n    MarketManager public immutable marketManager;\n    OrderBookManager public immutable orderBookManager;\n    TokenManager public immutable tokenManager;\n\n    // Events for tracking order lifecycle\n    event OrderMatched(\n        bytes32 indexed marketId,\n        uint256 indexed buyOrderId,\n        uint256 indexed sellOrderId,\n        uint256 matchedAmount,\n        uint256 executionPrice,\n        uint256 timestamp\n    );\n\n    event SettlementCompleted(\n        bytes32 indexed marketId,\n        address[] toBePaid,\n        address[] toReceive,\n        uint256[] tokenAmount,\n        uint256[] currencyAmount,\n        uint256 timestamp\n    );\n\n    event TransferProcessed(\n        address indexed from,\n        address indexed to,\n        uint256 tokenAmount,\n        uint256 currencyAmount,\n        uint256 timestamp\n    );\n\n    event DepositReceived(\n        address indexed user,\n        uint8 tokenId,\n        uint256 amount,\n        uint256 timestamp\n    );\n\n    event WithdrawalProcessed(\n        address indexed user,\n        uint8 tokenId,\n        uint256 amount,\n        uint256 timestamp\n    );\n    event OrderCancelled(\n        bytes32 indexed marketId,\n        uint256 orderId,\n        address userAddress,\n        OrderLibrary.OrderType orderType,\n        uint256 timestamp\n    );\n\n    constructor(\n        address _marketManager,\n        address _orderBookManager,\n        address _tokenManager\n    ) {\n        marketManager = MarketManager(_marketManager);\n        orderBookManager = OrderBookManager(_orderBookManager);\n        tokenManager = TokenManager(_tokenManager);\n    }\n\n    // Function to deposit tokens before trading\n    function depositTokens(string memory symbol, uint256 amount) external {\n        // First, user must have approved this contract to spend their tokens\n        // This is done outside the contract using the token's approve() function\n\n        // Perform the deposit\n        uint256 newBalance = tokenManager.deposit(symbol, amount);\n\n        emit DepositReceived(\n            msg.sender,\n            tokenManager.getTokenId(symbol),\n            amount,\n            block.timestamp\n        );\n    }\n\n    // Function to withdraw tokens after trading\n    function withdrawTokens(string memory symbol, uint256 amount) external {\n        uint256 remainingBalance = tokenManager.withdraw(symbol, amount);\n\n        emit WithdrawalProcessed(\n            msg.sender,\n            tokenManager.getTokenId(symbol),\n            amount,\n            block.timestamp\n        );\n    }\n\n    function placeBuyOrder(\n        uint8 tokenId1,\n        uint8 tokenId2,\n        uint256 price,\n        uint256 amount,\n        OrderLibrary.OrderNature orderNature\n    ) external returns (uint256) {\n        // Check if buyer has sufficient quote token (currency) balance\n        price /= DECIMALS;\n        amount /= DECIMALS;\n        uint256 totalCost = price * amount;\n        require(\n            tokenManager.getBalance(msg.sender, tokenId2) >= totalCost,\n            \"Insufficient balance for buy order\"\n        );\n\n        // Place the order through market manager\n        uint256 orderId = marketManager.placeOrder(\n            tokenId1,\n            tokenId2,\n            price,\n            amount,\n            msg.sender,\n            OrderLibrary.OrderType.Buy,\n            orderNature\n        );\n\n        // Try to match the order immediately\n        _matchAndSettleOrder(\n            marketManager.getMarketId(tokenId1, tokenId2),\n            orderId,\n            OrderLibrary.OrderType.Buy,\n            orderNature\n        );\n\n        return orderId;\n    }\n\n    function placeSellOrder(\n        uint8 tokenId1,\n        uint8 tokenId2,\n        uint256 price,\n        uint256 amount,\n        OrderLibrary.OrderNature orderNature\n    ) external returns (uint256) {\n        // Check if seller has sufficient base token balance\n        require(\n            tokenManager.getBalance(msg.sender, tokenId1) >= amount,\n            \"Insufficient balance for sell order\"\n        );\n\n        price /= DECIMALS;\n        amount /= DECIMALS;\n\n        // Place the order through market manager\n        uint256 orderId = marketManager.placeOrder(\n            tokenId1,\n            tokenId2,\n            price,\n            amount,\n            msg.sender,\n            OrderLibrary.OrderType.Sell,\n            orderNature\n        );\n\n        // Try to match the order immediately\n        _matchAndSettleOrder(\n            marketManager.getMarketId(tokenId1, tokenId2),\n            orderId,\n            OrderLibrary.OrderType.Sell,\n            orderNature\n        );\n\n        return orderId;\n    }\n\n    function _matchAndSettleOrder(\n        bytes32 marketId,\n        uint256 orderId,\n        OrderLibrary.OrderType orderType,\n        OrderLibrary.OrderNature orderNature\n    ) internal {\n        // Get matching results from OrderBookManager\n        (\n            uint256 remainingAmount,\n            address[] memory toBePaid,\n            address[] memory toReceive,\n            uint256[] memory tokenAmount,\n            uint256[] memory currencyAmount\n        ) = orderBookManager.matchOrder(\n                marketId,\n                orderId,\n                orderType,\n                orderNature\n            );\n\n        // Process settlements\n        for (uint256 i = 0; i < toBePaid.length; i++) {\n            if (tokenAmount[i] == 0) continue; // Skips empty matches\n\n            emit OrderMatched(\n                marketId,\n                orderType == OrderLibrary.OrderType.Buy ? orderId : i,\n                orderType == OrderLibrary.OrderType.Sell ? orderId : i,\n                tokenAmount[i],\n                currencyAmount[i] / tokenAmount[i], // Price per token\n                block.timestamp\n            );\n\n            // Token transfers handling\n            _settleTransaction(\n                marketId,\n                toBePaid[i],\n                toReceive[i],\n                tokenAmount[i],\n                currencyAmount[i]\n            );\n        }\n\n        if (tokenAmount.length > 0) {\n            emit SettlementCompleted(\n                marketId,\n                toBePaid,\n                toReceive,\n                tokenAmount,\n                currencyAmount,\n                block.timestamp\n            );\n        }\n    }\n\n    function _settleTransaction(\n        bytes32 marketId,\n        address toBePaid,\n        address toReceive,\n        uint256 tokenAmount,\n        uint256 currencyAmount\n    ) internal {\n        require(toBePaid != address(0), \"Invalid toBePaid address\");\n        require(toReceive != address(0), \"Invalid toReceive address\");\n        require(tokenAmount > 0, \"Invalid token amount\");\n        require(currencyAmount > 0, \"Invalid currency amount\");\n\n        // Get the market details from the matched order\n        (uint8 baseTokenId, uint8 quoteTokenId) = marketManager.getMarketTokens(\n            marketId\n        );\n\n        // Transfer base token from seller to buyer\n        bool baseTokenTransferred = tokenManager.transferFrom(\n            toBePaid, // seller\n            toReceive, // buyer\n            baseTokenId,\n            tokenAmount\n        );\n        require(baseTokenTransferred, \"Base token transfer failed\");\n\n        // Transfer quote token (currency) from buyer to seller\n        bool quoteTokenTransferred = tokenManager.transferFrom(\n            toReceive, // buyer\n            toBePaid, // seller\n            quoteTokenId,\n            currencyAmount\n        );\n        require(quoteTokenTransferred, \"Quote token transfer failed\");\n\n        // Emit transfer processed event\n        emit TransferProcessed(\n            toBePaid,\n            toReceive,\n            tokenAmount,\n            currencyAmount,\n            block.timestamp\n        );\n    }\n\n    function cancelOrder(\n        uint8 tokenId1,\n        uint8 tokenId2,\n        uint256 orderId,\n        OrderLibrary.OrderType orderType\n    ) external {\n        //Get Market Id\n        bytes32 marketId = marketManager.getMarketId(tokenId1, tokenId2);\n\n        //Cancel Order\n        bool success = marketManager.cancelOrder(\n            marketId,\n            orderId,\n            msg.sender,\n            orderType\n        );\n\n        require(success, \"Order could not be cancelled\");\n\n        //Emit successful cancellation event\n        emit OrderCancelled(\n            marketId,\n            orderId,\n            msg.sender,\n            orderType,\n            block.timestamp\n        );\n        //Emit successful cancellation event\n        emit OrderCancelled(\n            marketId,\n            orderId,\n            msg.sender,\n            orderType,\n            block.timestamp\n        );\n    }\n\n    function getUserTokenBalance(\n        address _userAddr,\n        string memory _symbol\n    ) external view returns (uint256) {\n        return getTokenBalance(_userAddr, _symbol);\n    }\n\n    function getAllAvailableTokens()\n        external\n        view\n        returns (string[] memory, string[] memory)\n    {\n        return tokenManager.getAllTokens();\n    }\n\n    function getAllUserTokenBalance(\n        address _userAddr\n    )\n        external\n        view\n        returns (uint256[] memory userTokenBalances, string[] memory tokenNames)\n    {\n        // Retrieve all token names and symbols from the token manager\n        string[] memory tokenSymbols;\n        (tokenNames, tokenSymbols) = tokenManager.getAllTokens();\n\n        // Initialize the userTokenBalances array with the correct length\n        userTokenBalances = new uint256[](tokenSymbols.length);\n\n        // Loop through each token and get the balance for the user\n        for (uint256 i = 0; i < tokenSymbols.length; i++) {\n            uint256 tokenBalance = getTokenBalance(_userAddr, tokenSymbols[i]);\n            userTokenBalances[i] = tokenBalance;\n        }\n\n        return (userTokenBalances, tokenNames);\n    }\n\n    function getAllActiveOrdersForAMarket(\n        string memory _token1,\n        string memory _token2\n    )\n        external\n        view\n        returns (\n            uint256[] memory amount,\n            uint256[] memory price,\n            OrderLibrary.OrderType[] memory orderType,\n            OrderLibrary.OrderNature[] memory nature,\n            uint256[][] memory fillsPrice,\n            uint256[][] memory fillsAmount,\n            uint256[][] memory fillsTimestamp\n        )\n    {\n        uint8 tokenId1 = tokenManager.getTokenId(_token1);\n        uint8 tokenId2 = tokenManager.getTokenId(_token2);\n        bytes32 marketId = marketManager.getMarketId(tokenId1, tokenId2);\n\n        require(\n            marketManager.isMarketInitialized(tokenId1, tokenId2),\n            \"Market does not exist for these pairs of tokens\"\n        );\n\n        return\n            orderBookManager.getAllOrdersForAMarket(\n                marketId,\n                OrderLibrary.AllOrdersQueryParams({\n                    status: OrderLibrary.OrderStatus.Active,\n                    userAddress: msg.sender,\n                    filterByUser: false\n                })\n            );\n    }\n\n    function getAllFulfilledOrdersOfAMarket(\n        string memory _token1,\n        string memory _token2\n    )\n        external\n        view\n        returns (\n            uint256[] memory amount,\n            uint256[] memory price,\n            OrderLibrary.OrderType[] memory orderType,\n            OrderLibrary.OrderNature[] memory nature,\n            uint256[][] memory fillsPrice,\n            uint256[][] memory fillsAmount,\n            uint256[][] memory fillsTimestamp\n        )\n    {\n        uint8 tokenId1 = tokenManager.getTokenId(_token1);\n        uint8 tokenId2 = tokenManager.getTokenId(_token2);\n        bytes32 marketId = marketManager.getMarketId(tokenId1, tokenId2);\n        return\n            orderBookManager.getAllOrdersForAMarket(\n                marketId,\n                OrderLibrary.AllOrdersQueryParams({\n                    status: OrderLibrary.OrderStatus.Filled,\n                    userAddress: msg.sender,\n                    filterByUser: false\n                })\n            );\n    }\n\n    function getAllActiveUserOrdersForAMarket(\n        string memory _token1,\n        string memory _token2,\n        address _userAddress\n    )\n        external\n        view\n        returns (\n            uint256[] memory amount,\n            uint256[] memory price,\n            OrderLibrary.OrderType[] memory orderType,\n            OrderLibrary.OrderNature[] memory nature,\n            uint256[][] memory fillsPrice,\n            uint256[][] memory fillsAmount,\n            uint256[][] memory fillsTimestamp\n        )\n    {\n        uint8 tokenId1 = tokenManager.getTokenId(_token1);\n        uint8 tokenId2 = tokenManager.getTokenId(_token2);\n        bytes32 marketId = marketManager.getMarketId(tokenId1, tokenId2);\n\n        require(\n            marketManager.isMarketInitialized(tokenId1, tokenId2),\n            \"Market does not exist for these pairs of tokens\"\n        );\n\n        return\n            orderBookManager.getAllOrdersForAMarket(\n                marketId,\n                OrderLibrary.AllOrdersQueryParams({\n                    status: OrderLibrary.OrderStatus.Active,\n                    userAddress: _userAddress,\n                    filterByUser: true\n                })\n            );\n    }\n\n    function getAllFulfilledUserOrdersForAMarket(\n        string memory _token1,\n        string memory _token2,\n        address _userAddress\n    )\n        external\n        view\n        returns (\n            uint256[] memory amount,\n            uint256[] memory price,\n            OrderLibrary.OrderType[] memory orderType,\n            OrderLibrary.OrderNature[] memory nature,\n            uint256[][] memory fillsPrice,\n            uint256[][] memory fillsAmount,\n            uint256[][] memory fillsTimestamp\n        )\n    {\n        uint8 tokenId1 = tokenManager.getTokenId(_token1);\n        uint8 tokenId2 = tokenManager.getTokenId(_token2);\n        bytes32 marketId = marketManager.getMarketId(tokenId1, tokenId2);\n        return\n            orderBookManager.getAllOrdersForAMarket(\n                marketId,\n                OrderLibrary.AllOrdersQueryParams({\n                    status: OrderLibrary.OrderStatus.Filled,\n                    userAddress: _userAddress,\n                    filterByUser: true\n                })\n            );\n    }\n\n    // Helper functions\n    function getTokenBalance(\n        address _userAddr,\n        string memory _symbol\n    ) private view returns (uint256) {\n        uint8 tokenId = tokenManager.getTokenId(_symbol);\n        return tokenManager.getBalance(_userAddr, tokenId);\n    }\n}\n",
  "sourcePath": "C:\\Users\\kaise\\OneDrive\\Desktop\\Codebase\\NTU\\sc4053-blockchain-technology\\contracts\\Exchange.sol",
  "compiler": {
    "name": "solc",
    "version": "0.8.13+commit.abaa5c0e.Emscripten.clang"
  },
  "schemaVersion": "3.4.16",
  "updatedAt": "2024-11-04T16:02:28.344Z",
  "networkType": "ethereum",
  "devdoc": {
    "kind": "dev",
    "methods": {},
    "version": 1
  },
  "userdoc": {
    "kind": "user",
    "methods": {},
    "version": 1
  }
}