{
  "contractName": "MarketData",
  "abi": [
    {
      "inputs": [],
      "stateMutability": "nonpayable",
      "type": "constructor"
    },
    {
      "anonymous": false,
      "inputs": [
        {
          "indexed": true,
          "internalType": "bytes32",
          "name": "marketId",
          "type": "bytes32"
        },
        {
          "indexed": false,
          "internalType": "uint8",
          "name": "token1",
          "type": "uint8"
        },
        {
          "indexed": false,
          "internalType": "uint8",
          "name": "token2",
          "type": "uint8"
        },
        {
          "indexed": false,
          "internalType": "uint256",
          "name": "timestamp",
          "type": "uint256"
        }
      ],
      "name": "MarketCreatedEvent",
      "type": "event"
    },
    {
      "inputs": [],
      "name": "marketManager",
      "outputs": [
        {
          "internalType": "address",
          "name": "",
          "type": "address"
        }
      ],
      "stateMutability": "view",
      "type": "function",
      "constant": true
    },
    {
      "inputs": [
        {
          "internalType": "address",
          "name": "_marketManager",
          "type": "address"
        }
      ],
      "name": "initialize",
      "outputs": [],
      "stateMutability": "nonpayable",
      "type": "function"
    },
    {
      "inputs": [
        {
          "internalType": "uint8",
          "name": "_tokenId",
          "type": "uint8"
        }
      ],
      "name": "addMarket",
      "outputs": [],
      "stateMutability": "nonpayable",
      "type": "function"
    },
    {
      "inputs": [
        {
          "internalType": "bytes32",
          "name": "_marketId",
          "type": "bytes32"
        }
      ],
      "name": "getTokensFromMarketId",
      "outputs": [
        {
          "internalType": "uint8",
          "name": "",
          "type": "uint8"
        },
        {
          "internalType": "uint8",
          "name": "",
          "type": "uint8"
        }
      ],
      "stateMutability": "view",
      "type": "function",
      "constant": true
    },
    {
      "inputs": [
        {
          "internalType": "uint8",
          "name": "token1",
          "type": "uint8"
        },
        {
          "internalType": "uint8",
          "name": "token2",
          "type": "uint8"
        }
      ],
      "name": "getMarketId",
      "outputs": [
        {
          "internalType": "bytes32",
          "name": "",
          "type": "bytes32"
        }
      ],
      "stateMutability": "pure",
      "type": "function",
      "constant": true
    },
    {
      "inputs": [
        {
          "internalType": "bytes32",
          "name": "marketId",
          "type": "bytes32"
        }
      ],
      "name": "isMarketPresent",
      "outputs": [
        {
          "internalType": "bool",
          "name": "",
          "type": "bool"
        }
      ],
      "stateMutability": "view",
      "type": "function",
      "constant": true
    }
  ],
  "bytecode": "0x60808060405234610023576001805460ff60a01b1916905561081f90816100298239f35b600080fdfe608080604052600436101561001357600080fd5b6000803560e01c91826341ed2c1214610096575050806365d020b61461008d578063b9ed567a14610084578063c115ec631461007b578063c4d66de8146100725763f79db5a114610065575b38600080fd5b61006d610486565b61005f565b5061006d6103a4565b5061006d6101be565b5061006d610120565b5061006d6100d2565b346100b957816003193601126100b9576001546001600160a01b03168152602090f35b5080fd5b6004359060ff821682036100cd57565b600080fd5b50346100cd5760403660031901126100cd576100ec6100bd565b6024359060ff821682036100cd5760209161010691610729565b604051908152f35b60209060031901126100cd5760043590565b50346100cd5761012f3661010e565b6000526000602052604060002061019b610193604051926060840184811067ffffffffffffffff8211176101b1575b604052549260ff8416815261018c60ff6020830195818160081c16875260101c1615158060408401526106e5565b5160ff1690565b915160ff1690565b6040805160ff9384168152919092166020820152f35b6101b96104b5565b61015e565b50346100cd576020806003193601126100cd576101d96100bd565b600180549091906001600160a01b03163303610361576101f7610526565b907f5b4d61726b6574446174615d20416464696e67206d61726b657420666f722074848301526040936437b5b2b71d60d91b8584015260ff61023c818416809561063e565b84805b61024557005b8181168581101561035f579061035486610359936102638885610729565b61029361028e61028a610280846000526000602052604060002090565b5460101c60ff1690565b1590565b610560565b61030b8c6102b96102a2610517565b60ff891681529160ff8d16838d0152820160019052565b6102cd836000526000602052604060002090565b81518154602084015160409094015162ff000090151560101b1661ff0060089590951b9490941660ff90921662ffffff199091161717919091179055565b8b5160ff86811682528a1660208201524260408201527fe0547082c0fc18bcd60dde0b005d4a57de8e9ef8ef6e43258083a2bb975a7de990606090a261034f6105a4565b61069c565b610539565b8561023f565b005b6064836040519062461bcd60e51b825280600483015260248201527f43616c6c6572206973206e6f7420746865206d61726b6574206d616e616765726044820152fd5b50346100cd5760203660031901126100cd576004356001600160a01b0381168082036100cd5760ff60015460a01c1661044b571561040657600180546001600160a01b03929092166001600160a81b031990921691909117600160a01b179055005b60405162461bcd60e51b815260206004820152601e60248201527f496e76616c6964206d61726b6574206d616e61676572206164647265737300006044820152606490fd5b60405162461bcd60e51b8152602060048201526013602482015272105b1c9958591e481a5b9a5d1a585b1a5e9959606a1b6044820152606490fd5b50346100cd576104953661010e565b6000526000602052602060ff60406000205460101c166040519015158152f35b50634e487b7160e01b600052604160045260246000fd5b6060810190811067ffffffffffffffff8211176104e857604052565b6104f06104b5565b604052565b90601f8019910116810190811067ffffffffffffffff8211176104e857604052565b60405190610524826104cc565b565b60405190610533826104cc565b60258252565b60ff1660ff811461054a5760010190565b634e487b7160e01b600052601160045260246000fd5b1561056757565b60405162461bcd60e51b81526020600482015260156024820152744d61726b657420616c72656164792065786973747360581b6044820152606490fd5b604051906105b1826104cc565b60278252663a37b5b2b7399d60c91b6040837f5b4d61726b6574446174615d204d61726b6574206372656174656420666f722060208201520152565b91908251928382526000905b848210610626575092806020939411610619575b601f01601f1916010190565b600083828401015261060d565b906020908180828501015190828601015201906105f9565b61068161066d9161052493604051938492632d839cb360e21b60208501526040602485015260648401906105ed565b90604483015203601f1981018352826104f5565b600080916020815191016a636f6e736f6c652e6c6f675afa50565b610681906106cc926105249460405194859363ca47c4eb60e01b60208601526060602486015260848501906105ed565b916044840152606483015203601f1981018352826104f5565b156106ec57565b60405162461bcd60e51b815260206004820152601560248201527413585c9ad95d08191bd95cc81b9bdd08195e1a5cdd605a1b6044820152606490fd5b60ff821660ff8216116107e3575b610792604051610746816104cc565b602a81527f5b4d61726b6574446174615d2047657474696e67206d61726b6574204944206660208201526937b9103a37b5b2b7399d60b11b604082015260ff84169060ff84169061069c565b60405190602082019260ff60f81b809260f81b16845260f81b166021820152600281526040810181811067ffffffffffffffff8211176107d6575b60405251902090565b6107de6104b5565b6107cd565b9061073756fea26469706673582212204fa841d29b98a60f0e205d36a326de4cb1cf3a65de04ee7c38de573e26c9915364736f6c634300080d0033",
  "immutableReferences": {},
  "source": "// SPDX-License-Identifier: UNLICENSED\npragma solidity ^0.8.0;\n\nimport \"hardhat/console.sol\";\n\n// Interface for MarketData contract\ninterface IMarketData {\n    struct Market {\n        uint8 token1;\n        uint8 token2;\n        bool exists;\n    }\n\n    event MarketCreatedEvent(\n        bytes32 indexed marketId,\n        uint8 token1,\n        uint8 token2,\n        uint256 timestamp\n    );\n\n    function addMarket(uint8 _tokenId) external;\n\n    function getTokensFromMarketId(\n        bytes32 _marketId\n    ) external view returns (uint8, uint8);\n\n    function isMarketPresent(bytes32 marketId) external view returns (bool);\n\n    function getMarketId(\n        uint8 token1,\n        uint8 token2\n    ) external pure returns (bytes32);\n}\n\n// MarketData contract\ncontract MarketData is IMarketData {\n    // Maps market index to the market\n    mapping(bytes32 => Market) private exchangeMarkets;\n    address public marketManager;\n    bool private initialized;\n\n    modifier onlyMarketManager() {\n        require(\n            msg.sender == marketManager,\n            \"Caller is not the market manager\"\n        );\n        _;\n    }\n\n    constructor() {\n        initialized = false;\n    }\n\n    function initialize(address _marketManager) external {\n        require(!initialized, \"Already initialized\");\n        require(_marketManager != address(0), \"Invalid market manager address\");\n        marketManager = _marketManager;\n        initialized = true;\n    }\n\n    function addMarket(uint8 _tokenId) external override onlyMarketManager {\n        console.log(\"[MarketData] Adding market for token:\", _tokenId);\n        for (uint8 i = 1; i < _tokenId; i++) {\n            bytes32 marketId = getMarketId(i, _tokenId);\n            require(!exchangeMarkets[marketId].exists, \"Market already exists\");\n            exchangeMarkets[marketId] = Market({\n                token1: i,\n                token2: _tokenId,\n                exists: true\n            });\n            emit MarketCreatedEvent(marketId, i, _tokenId, block.timestamp);\n            console.log(\"[MarketData] Market created for tokens:\", i, _tokenId);\n        }\n    }\n\n    function getTokensFromMarketId(\n        bytes32 _marketId\n    ) external view override returns (uint8, uint8) {\n        Market memory market = exchangeMarkets[_marketId];\n        require(market.exists, \"Market does not exist\");\n        return (market.token1, market.token2);\n    }\n\n    function getMarketId(\n        uint8 token1,\n        uint8 token2\n    ) public pure returns (bytes32) {\n        // Ensures consistent ordering\n        if (token1 > token2) {\n            (token1, token2) = (token2, token1);\n        }\n        console.log(\n            \"[MarketData] Getting market ID for tokens:\",\n            token1,\n            token2\n        );\n        return keccak256(abi.encodePacked(token1, token2));\n    }\n\n    function isMarketPresent(bytes32 marketId) external view returns (bool) {\n        return exchangeMarkets[marketId].exists;\n    }\n}\n",
  "sourcePath": "C:\\Users\\kaise\\OneDrive\\Desktop\\Codebase\\NTU\\sc4053-blockchain-technology\\contracts\\MarketData.sol",
  "compiler": {
    "name": "solc",
    "version": "0.8.13+commit.abaa5c0e.Emscripten.clang"
  },
  "schemaVersion": "3.4.16",
  "updatedAt": "2024-11-09T09:27:03.497Z",
  "networkType": "ethereum",
  "devdoc": {
    "kind": "dev",
    "methods": {},
    "version": 1
  },
  "userdoc": {
    "kind": "user",
    "methods": {},
    "version": 1
  }
}