{
  "contractName": "MarketManager",
  "abi": [
    {
      "inputs": [
        {
          "internalType": "address",
          "name": "_orderBookManagerAddr",
          "type": "address"
        }
      ],
      "stateMutability": "nonpayable",
      "type": "constructor"
    },
    {
      "anonymous": false,
      "inputs": [
        {
          "indexed": true,
          "internalType": "bytes32",
          "name": "marketId",
          "type": "bytes32"
        },
        {
          "indexed": false,
          "internalType": "uint8",
          "name": "token1",
          "type": "uint8"
        },
        {
          "indexed": false,
          "internalType": "uint8",
          "name": "token2",
          "type": "uint8"
        }
      ],
      "name": "MarketOrderBooksCreated",
      "type": "event"
    },
    {
      "anonymous": false,
      "inputs": [
        {
          "indexed": true,
          "internalType": "bytes32",
          "name": "marketID",
          "type": "bytes32"
        },
        {
          "indexed": false,
          "internalType": "uint256",
          "name": "orderId",
          "type": "uint256"
        },
        {
          "indexed": false,
          "internalType": "address",
          "name": "userAddress",
          "type": "address"
        },
        {
          "indexed": false,
          "internalType": "enum OrderLibrary.OrderType",
          "name": "orderType",
          "type": "uint8"
        },
        {
          "indexed": false,
          "internalType": "uint256",
          "name": "timestamp",
          "type": "uint256"
        }
      ],
      "name": "OrderCancelledEvent",
      "type": "event"
    },
    {
      "anonymous": false,
      "inputs": [
        {
          "indexed": true,
          "internalType": "bytes32",
          "name": "marketId",
          "type": "bytes32"
        },
        {
          "indexed": false,
          "internalType": "uint256",
          "name": "orderId",
          "type": "uint256"
        },
        {
          "indexed": false,
          "internalType": "enum OrderLibrary.OrderType",
          "name": "orderType",
          "type": "uint8"
        },
        {
          "indexed": false,
          "internalType": "uint256",
          "name": "price",
          "type": "uint256"
        },
        {
          "indexed": false,
          "internalType": "uint256",
          "name": "timestamp",
          "type": "uint256"
        },
        {
          "indexed": false,
          "internalType": "address",
          "name": "userAddress",
          "type": "address"
        },
        {
          "indexed": false,
          "internalType": "enum OrderLibrary.OrderNature",
          "name": "orderNature",
          "type": "uint8"
        }
      ],
      "name": "OrderPlacedEvent",
      "type": "event"
    },
    {
      "inputs": [],
      "name": "marketData",
      "outputs": [
        {
          "internalType": "contract IMarketData",
          "name": "",
          "type": "address"
        }
      ],
      "stateMutability": "view",
      "type": "function",
      "constant": true
    },
    {
      "inputs": [],
      "name": "orderBookManager",
      "outputs": [
        {
          "internalType": "contract OrderBookManager",
          "name": "",
          "type": "address"
        }
      ],
      "stateMutability": "view",
      "type": "function",
      "constant": true
    },
    {
      "inputs": [
        {
          "internalType": "address",
          "name": "_marketDataAddr",
          "type": "address"
        }
      ],
      "name": "initialize",
      "outputs": [],
      "stateMutability": "nonpayable",
      "type": "function"
    },
    {
      "inputs": [
        {
          "internalType": "uint8",
          "name": "_tokenId",
          "type": "uint8"
        }
      ],
      "name": "createMarket",
      "outputs": [],
      "stateMutability": "nonpayable",
      "type": "function"
    },
    {
      "inputs": [
        {
          "internalType": "uint8",
          "name": "tokenId1",
          "type": "uint8"
        },
        {
          "internalType": "uint8",
          "name": "tokenId2",
          "type": "uint8"
        },
        {
          "internalType": "uint256",
          "name": "price",
          "type": "uint256"
        },
        {
          "internalType": "uint256",
          "name": "amount",
          "type": "uint256"
        },
        {
          "internalType": "address",
          "name": "userAddress",
          "type": "address"
        },
        {
          "internalType": "enum OrderLibrary.OrderType",
          "name": "orderType",
          "type": "uint8"
        },
        {
          "internalType": "enum OrderLibrary.OrderNature",
          "name": "orderNature",
          "type": "uint8"
        }
      ],
      "name": "placeOrder",
      "outputs": [
        {
          "internalType": "uint256",
          "name": "orderId",
          "type": "uint256"
        }
      ],
      "stateMutability": "nonpayable",
      "type": "function"
    },
    {
      "inputs": [
        {
          "internalType": "bytes32",
          "name": "marketId",
          "type": "bytes32"
        },
        {
          "internalType": "uint256",
          "name": "orderId",
          "type": "uint256"
        },
        {
          "internalType": "address",
          "name": "userAddress",
          "type": "address"
        },
        {
          "internalType": "enum OrderLibrary.OrderType",
          "name": "orderType",
          "type": "uint8"
        }
      ],
      "name": "cancelOrder",
      "outputs": [
        {
          "internalType": "bool",
          "name": "",
          "type": "bool"
        }
      ],
      "stateMutability": "nonpayable",
      "type": "function"
    },
    {
      "inputs": [
        {
          "internalType": "bytes32",
          "name": "_marketId",
          "type": "bytes32"
        }
      ],
      "name": "getMarketTokens",
      "outputs": [
        {
          "internalType": "uint8",
          "name": "",
          "type": "uint8"
        },
        {
          "internalType": "uint8",
          "name": "",
          "type": "uint8"
        }
      ],
      "stateMutability": "view",
      "type": "function",
      "constant": true
    },
    {
      "inputs": [
        {
          "internalType": "uint8",
          "name": "tokenId1",
          "type": "uint8"
        },
        {
          "internalType": "uint8",
          "name": "tokenId2",
          "type": "uint8"
        }
      ],
      "name": "isMarketInitialized",
      "outputs": [
        {
          "internalType": "bool",
          "name": "",
          "type": "bool"
        }
      ],
      "stateMutability": "view",
      "type": "function",
      "constant": true
    },
    {
      "inputs": [
        {
          "internalType": "uint8",
          "name": "tokenId1",
          "type": "uint8"
        },
        {
          "internalType": "uint8",
          "name": "tokenId2",
          "type": "uint8"
        }
      ],
      "name": "getMarketId",
      "outputs": [
        {
          "internalType": "bytes32",
          "name": "",
          "type": "bytes32"
        }
      ],
      "stateMutability": "view",
      "type": "function",
      "constant": true
    }
  ],
  "bytecode": "0x60a03461009c57601f610e5938819003918201601f19168301916001600160401b038311848410176100a15780849260209460405283398101031261009c57516001600160a01b038116810361009c576001600160a01b03166080526000805460ff60a01b19169055604051610da190816100b882396080518181816101660152818161046b015281816105d8015281816108580152610c600152f35b600080fd5b634e487b7160e01b600052604160045260246000fdfe6040608081526004908136101561001557600080fd5b600090813560e01c92836344fdab11146100d757505050806365d020b6146100ce5780638f257e9e146100c557806390d69fe4146100bc5780639861d802146100b3578063a309ed59146100aa578063b945b527146100a1578063c4d66de8146100985763c4f963ca1461008b575b3880600080fd5b6100936107a8565b610084565b506100936106f7565b506100936106cd565b50610093610607565b506100936105c1565b506100936103c0565b50610093610350565b5061009361032e565b346102f2576020806003193601126102ee5781356100f4816102f6565b84549260ff90610108828660a01c1661098b565b818316610117600182116109c9565b6001600160a01b03958616803b156102ea57888851809263c115ec6360e01b82528183816101518b8a830191909160ff6020820193169052565b03925af180156102dd575b6102ca575b5091947f0000000000000000000000000000000000000000000000000000000000000000169160015b818782161061019857888851f35b6101a28582610ce5565b90885163aeeb6f1f60e01b81528781806101c3868983019190602083019252565b0381895afa9081156102bd575b8b91610290575b50156101ed575b6101e89150610a61565b61018a565b843b1561028c576101e891895163eea862a960e01b81528b8180610218858a83019190602083019252565b0381838b5af1801561027f575b610266575b50895160ff8381168252881660208201527fe1927c8913c4c9aed365925f0f4729a605fe54511896dbe6c8f17bd2cc89b3af90604090a26101de565b8061027361027992610a08565b806105b6565b8b61022a565b610287610a54565b610225565b8980fd5b6102b09150883d8a116102b6575b6102a88183610a32565b810190610a88565b8b6101d7565b503d61029e565b6102c5610a54565b6101d0565b806102736102d792610a08565b88610161565b6102e5610a54565b61015c565b8880fd5b8380fd5b8280fd5b60ff81160361030157565b600080fd5b60409060031901126103015760043561031e816102f6565b9060243561032b816102f6565b90565b503461030157602061034861034236610306565b90610ce5565b604051908152f35b503461030157602061036a61036436610306565b90610bdc565b6040519015158152f35b608435906001600160a01b038216820361030157565b600435906001600160a01b038216820361030157565b604435906001600160a01b038216820361030157565b6002111561030157565b50346103015760e0366003190112610301576004356103de816102f6565b602435906103eb826102f6565b604435916103f7610374565b9160a435610404816103b6565b61043560c43593610414856103b6565b61042560ff60005460a01c1661098b565b61042f8185610ce5565b93610bdc565b156105595760405163bf707a8f60e01b81526104f095909360208580610465848733886064358c60048801610acf565b038160007f00000000000000000000000000000000000000000000000000000000000000006001600160a01b03165af194851561054c575b6000956104f4575b506104dd907f5f0629fb1227f9653f2e8e85d9a8191e9294dc9f2da9da36c3961b6d5c25c9a894959660405194859442918a87610b10565b0390a26040519081529081906020820190565b0390f35b7f5f0629fb1227f9653f2e8e85d9a8191e9294dc9f2da9da36c3961b6d5c25c9a89495509061053c6104dd9260203d8111610545575b6105348183610a32565b810190610aa0565b959450906104a5565b503d61052a565b610554610a54565b61049d565b60405162461bcd60e51b815260206004820152602f60248201527f4d61726b657420646f6573206e6f7420657869737420666f722074686573652060448201526e7061697273206f6620746f6b656e7360881b6064820152608490fd5b600091031261030157565b5034610301576000366003190112610301576040517f00000000000000000000000000000000000000000000000000000000000000006001600160a01b03168152602090f35b50346103015760203660031901126103015760005460408051635cf6ab3d60e11b8152600480359082015290918290829060249082906001600160a01b03165afa9182156106c0575b600091829361066f575b505160ff918216815291166020820152604090f35b919080935082813d83116106b9575b6106888183610a32565b810103126106b657506104f060208251926106a2846102f6565b0151916106ae836102f6565b91929061065a565b80fd5b503d61067e565b6106c8610a54565b610650565b5034610301576000366003190112610301576000546040516001600160a01b039091168152602090f35b50346103015760203660031901126103015761071161038a565b60ff60005460a01c1661076d57610758906001600160a01b031661073681151561093f565b60018060a01b03166bffffffffffffffffffffffff60a01b6000541617600055565b6000805460ff60a01b1916600160a01b179055005b60405162461bcd60e51b8152602060048201526013602482015272105b1c9958591e481a5b9a5d1a585b1a5e9959606a1b6044820152606490fd5b5034610301576080366003190112610301576104f06024356004356107cb6103a0565b916064356107d8816103b6565b6000546107f5906001600160a01b03165b6001600160a01b031690565b60405163f79db5a160e01b8152600481018590526020959161083391908790829060249082905afa908115610932575b600091610915575b50610b4d565b604051637aea80c160e01b815285818061085286888a60048501610b91565b038160007f00000000000000000000000000000000000000000000000000000000000000006001600160a01b03165af1958615610908575b6000966108e9575b5050846108aa575b6040518515158152806020810188565b6108dd7f306fa6cb20a96459621f68542c3811b494938759a15d1b8809ac7f0eb0599e7693604051938493429285610bac565b0390a23880808061089a565b610900929650803d106102b6576102a88183610a32565b933880610892565b610910610a54565b61088a565b61092c9150873d89116102b6576102a88183610a32565b3861082d565b61093a610a54565b610825565b1561094657565b60405162461bcd60e51b815260206004820152601b60248201527f496e76616c6964206d61726b65742064617461206164647265737300000000006044820152606490fd5b1561099257565b60405162461bcd60e51b815260206004820152600f60248201526e139bdd081a5b9a5d1a585b1a5e9959608a1b6044820152606490fd5b156109d057565b60405162461bcd60e51b815260206004820152601060248201526f125b9d985b1a59081d1bdad95b88125160821b6044820152606490fd5b67ffffffffffffffff8111610a1c57604052565b634e487b7160e01b600052604160045260246000fd5b90601f8019910116810190811067ffffffffffffffff821117610a1c57604052565b506040513d6000823e3d90fd5b60ff1660ff8114610a725760010190565b634e487b7160e01b600052601160045260246000fd5b90816020910312610301575180151581036103015790565b90816020910312610301575190565b60021115610ab957565b634e487b7160e01b600052602160045260246000fd5b9260a094919796959260c0850198855260208501526040840152600180851b03166060830152610afe81610aaf565b6080820152610b0c83610aaf565b0152565b9260a094919796959260c08501988552610b2981610aaf565b602085015260408401526060830152600180841b03166080820152610b0c83610aaf565b15610b5457565b60405162461bcd60e51b815260206004820152601560248201527413585c9ad95d08191bd95cc81b9bdd08195e1a5cdd605a1b6044820152606490fd5b604091949392606082019582526020820152610b0c83610aaf565b9081526001600160a01b0390911660208201526080810193929160609190610bd381610aaf565b60408201520152565b90610be691610ce5565b600054610bfb906001600160a01b03166107e9565b60405163f79db5a160e01b815260048101839052916020918290849060249082905afa928315610cd8575b600093610cb9575b5082610c3957505090565b60405163aeeb6f1f60e01b8152600481019190915290915081816024816001600160a01b037f0000000000000000000000000000000000000000000000000000000000000000165afa918215610cac575b600092610c9657505090565b61032b9250803d106102b6576102a88183610a32565b610cb4610a54565b610c8a565b610cd1919350823d84116102b6576102a88183610a32565b9138610c2e565b610ce0610a54565b610c26565b6000546040516332e8105b60e11b815260ff9283166004820152929091166024830152602090829060449082906001600160a01b03165afa908115610d5e575b600091610d30575090565b906020823d8211610d56575b81610d4960209383610a32565b810103126106b657505190565b3d9150610d3c565b610d66610a54565b610d2556fea2646970667358221220cc22cb6c45f462bcc3ebce5bbcc062efffe8c92e71cff5032caa6633d7c0fb6764736f6c634300080d0033",
  "immutableReferences": {
    "2097": [
      {
        "length": 32,
        "start": 358
      },
      {
        "length": 32,
        "start": 1131
      },
      {
        "length": 32,
        "start": 1496
      },
      {
        "length": 32,
        "start": 2136
      },
      {
        "length": 32,
        "start": 3168
      }
    ]
  },
  "source": "// SPDX-License-Identifier: UNLICENSED\npragma solidity ^0.8.0;\n// import \"hardhat/console.sol\";\nimport \"./OrderLibrary.sol\";\nimport \"./MarketData.sol\";\nimport \"./OrderBookManager.sol\";\n\ncontract MarketManager {\n    IMarketData public marketData;\n    OrderBookManager public immutable orderBookManager;\n    bool private initialized;\n\n    event OrderPlacedEvent(\n        bytes32 indexed marketId,\n        uint256 orderId,\n        OrderLibrary.OrderType orderType,\n        uint256 price,\n        uint256 timestamp,\n        address userAddress,\n        OrderLibrary.OrderNature orderNature\n    );\n\n    event OrderCancelledEvent(\n        bytes32 indexed marketID,\n        uint256 orderId,\n        address userAddress,\n        OrderLibrary.OrderType orderType,\n        uint256 timestamp\n    );\n\n    event MarketOrderBooksCreated(\n        bytes32 indexed marketId,\n        uint8 token1,\n        uint8 token2\n    );\n\n    modifier onlyInitialized() {\n        require(initialized, \"Not initialized\");\n        _;\n    }\n\n    constructor(address _orderBookManagerAddr) {\n        orderBookManager = OrderBookManager(_orderBookManagerAddr);\n        initialized = false;\n    }\n\n    function initialize(address _marketDataAddr) external {\n        require(!initialized, \"Already initialized\");\n        require(_marketDataAddr != address(0), \"Invalid market data address\");\n        marketData = IMarketData(_marketDataAddr);\n        initialized = true;\n    }\n\n    function createMarket(uint8 _tokenId) external onlyInitialized {\n        require(_tokenId > 1, \"Invalid token ID\");\n        marketData.addMarket(_tokenId);\n\n        // Create orderbooks for each market pair\n        for (uint8 i = 1; i < _tokenId; i++) {\n            bytes32 marketId = getMarketId(i, _tokenId);\n\n            // Only create orderbooks if they don't exist\n            if (!orderBookManager.orderBookExists(marketId)) {\n                orderBookManager.createMarketOrderBook(marketId);\n                emit MarketOrderBooksCreated(marketId, i, _tokenId);\n            }\n        }\n    }\n\n    function placeOrder(\n        uint8 tokenId1,\n        uint8 tokenId2,\n        uint256 price,\n        uint256 amount,\n        address userAddress,\n        OrderLibrary.OrderType orderType,\n        OrderLibrary.OrderNature orderNature\n    ) external onlyInitialized returns (uint256 orderId) {\n        bytes32 marketId = getMarketId(tokenId1, tokenId2);\n        require(\n            isMarketInitialized(tokenId1, tokenId2),\n            \"Market does not exist for these pairs of tokens\"\n        );\n        orderId = orderBookManager.createOrder(\n            marketId,\n            amount,\n            price,\n            msg.sender,\n            orderType,\n            orderNature\n        );\n        emit OrderPlacedEvent(\n            marketId,\n            orderId,\n            orderType,\n            price,\n            block.timestamp,\n            userAddress,\n            orderNature\n        );\n\n        return orderId;\n    }\n\n    function cancelOrder(\n        bytes32 marketId,\n        uint256 orderId,\n        address userAddress,\n        OrderLibrary.OrderType orderType\n    ) external returns (bool) {\n        require(marketData.isMarketPresent(marketId), \"Market does not exist\");\n\n        // Forward cancellation request to OrderBookManager\n        bool success = orderBookManager.cancelOrder(\n            marketId,\n            orderId,\n            orderType\n        );\n        if (success) {\n            emit OrderCancelledEvent(\n                marketId,\n                orderId,\n                userAddress,\n                orderType,\n                block.timestamp\n            );\n        }\n        return success;\n    }\n\n    function getMarketTokens(\n        bytes32 _marketId\n    ) external view returns (uint8, uint8) {\n        return marketData.getTokensFromMarketId(_marketId);\n    }\n\n    // Helper function to check if a market is fully initialized\n    function isMarketInitialized(\n        uint8 tokenId1,\n        uint8 tokenId2\n    ) public view returns (bool) {\n        bytes32 marketId = getMarketId(tokenId1, tokenId2);\n        return\n            marketData.isMarketPresent(marketId) &&\n            orderBookManager.orderBookExists(marketId);\n    }\n\n    function getMarketId(\n        uint8 tokenId1,\n        uint8 tokenId2\n    ) public view returns (bytes32) {\n        return marketData.getMarketId(tokenId1, tokenId2);\n    }\n}\n",
  "sourcePath": "C:\\Users\\kaise\\OneDrive\\Desktop\\Codebase\\NTU\\sc4053-blockchain-technology\\contracts\\MarketManager.sol",
  "compiler": {
    "name": "solc",
    "version": "0.8.13+commit.abaa5c0e.Emscripten.clang"
  },
  "schemaVersion": "3.4.16",
  "updatedAt": "2024-11-04T16:02:28.318Z",
  "networkType": "ethereum",
  "devdoc": {
    "kind": "dev",
    "methods": {},
    "version": 1
  },
  "userdoc": {
    "kind": "user",
    "methods": {},
    "version": 1
  }
}