{
  "contractName": "MarketManager",
  "abi": [
    {
      "inputs": [],
      "stateMutability": "nonpayable",
      "type": "constructor"
    },
    {
      "anonymous": false,
      "inputs": [
        {
          "indexed": true,
          "internalType": "bytes32",
          "name": "marketId",
          "type": "bytes32"
        },
        {
          "indexed": false,
          "internalType": "uint8",
          "name": "token1",
          "type": "uint8"
        },
        {
          "indexed": false,
          "internalType": "uint8",
          "name": "token2",
          "type": "uint8"
        }
      ],
      "name": "MarketOrderBooksCreatedEvent",
      "type": "event"
    },
    {
      "anonymous": false,
      "inputs": [
        {
          "indexed": true,
          "internalType": "bytes32",
          "name": "marketId",
          "type": "bytes32"
        },
        {
          "indexed": false,
          "internalType": "uint256",
          "name": "orderId",
          "type": "uint256"
        },
        {
          "indexed": false,
          "internalType": "address",
          "name": "userAddress",
          "type": "address"
        },
        {
          "indexed": false,
          "internalType": "enum OrderLibrary.OrderType",
          "name": "orderType",
          "type": "uint8"
        },
        {
          "indexed": false,
          "internalType": "uint256",
          "name": "timestamp",
          "type": "uint256"
        }
      ],
      "name": "OrderCancelledEvent",
      "type": "event"
    },
    {
      "anonymous": false,
      "inputs": [
        {
          "indexed": true,
          "internalType": "bytes32",
          "name": "marketId",
          "type": "bytes32"
        },
        {
          "indexed": false,
          "internalType": "uint256",
          "name": "orderId",
          "type": "uint256"
        },
        {
          "indexed": false,
          "internalType": "enum OrderLibrary.OrderType",
          "name": "orderType",
          "type": "uint8"
        },
        {
          "indexed": false,
          "internalType": "int256",
          "name": "price",
          "type": "int256"
        },
        {
          "indexed": false,
          "internalType": "uint256",
          "name": "timestamp",
          "type": "uint256"
        },
        {
          "indexed": false,
          "internalType": "address",
          "name": "userAddress",
          "type": "address"
        },
        {
          "indexed": false,
          "internalType": "enum OrderLibrary.OrderNature",
          "name": "orderNature",
          "type": "uint8"
        }
      ],
      "name": "OrderPlacedEvent",
      "type": "event"
    },
    {
      "inputs": [],
      "name": "marketData",
      "outputs": [
        {
          "internalType": "contract IMarketData",
          "name": "",
          "type": "address"
        }
      ],
      "stateMutability": "view",
      "type": "function",
      "constant": true
    },
    {
      "inputs": [],
      "name": "orderBookManager",
      "outputs": [
        {
          "internalType": "contract OrderBookManager",
          "name": "",
          "type": "address"
        }
      ],
      "stateMutability": "view",
      "type": "function",
      "constant": true
    },
    {
      "inputs": [
        {
          "internalType": "address",
          "name": "_marketDataAddr",
          "type": "address"
        },
        {
          "internalType": "address",
          "name": "_orderBookManagerAddr",
          "type": "address"
        }
      ],
      "name": "initialize",
      "outputs": [],
      "stateMutability": "nonpayable",
      "type": "function"
    },
    {
      "inputs": [
        {
          "internalType": "uint8",
          "name": "_tokenId",
          "type": "uint8"
        }
      ],
      "name": "createMarket",
      "outputs": [],
      "stateMutability": "nonpayable",
      "type": "function"
    },
    {
      "inputs": [
        {
          "internalType": "uint8",
          "name": "tokenId1",
          "type": "uint8"
        },
        {
          "internalType": "uint8",
          "name": "tokenId2",
          "type": "uint8"
        },
        {
          "internalType": "int256",
          "name": "price",
          "type": "int256"
        },
        {
          "internalType": "uint256",
          "name": "amount",
          "type": "uint256"
        },
        {
          "internalType": "address",
          "name": "userAddress",
          "type": "address"
        },
        {
          "internalType": "enum OrderLibrary.OrderType",
          "name": "orderType",
          "type": "uint8"
        },
        {
          "internalType": "enum OrderLibrary.OrderNature",
          "name": "orderNature",
          "type": "uint8"
        }
      ],
      "name": "placeOrder",
      "outputs": [
        {
          "internalType": "uint256",
          "name": "orderId",
          "type": "uint256"
        }
      ],
      "stateMutability": "nonpayable",
      "type": "function"
    },
    {
      "inputs": [
        {
          "internalType": "bytes32",
          "name": "marketId",
          "type": "bytes32"
        },
        {
          "internalType": "uint256",
          "name": "orderId",
          "type": "uint256"
        },
        {
          "internalType": "address",
          "name": "userAddress",
          "type": "address"
        },
        {
          "internalType": "enum OrderLibrary.OrderType",
          "name": "orderType",
          "type": "uint8"
        },
        {
          "internalType": "enum OrderLibrary.OrderNature",
          "name": "orderNature",
          "type": "uint8"
        }
      ],
      "name": "cancelOrder",
      "outputs": [
        {
          "internalType": "bool",
          "name": "",
          "type": "bool"
        }
      ],
      "stateMutability": "nonpayable",
      "type": "function"
    },
    {
      "inputs": [
        {
          "internalType": "bytes32",
          "name": "_marketId",
          "type": "bytes32"
        }
      ],
      "name": "getMarketTokens",
      "outputs": [
        {
          "internalType": "uint8",
          "name": "",
          "type": "uint8"
        },
        {
          "internalType": "uint8",
          "name": "",
          "type": "uint8"
        }
      ],
      "stateMutability": "view",
      "type": "function",
      "constant": true
    },
    {
      "inputs": [
        {
          "internalType": "uint8",
          "name": "tokenId1",
          "type": "uint8"
        },
        {
          "internalType": "uint8",
          "name": "tokenId2",
          "type": "uint8"
        }
      ],
      "name": "isMarketInitialized",
      "outputs": [
        {
          "internalType": "bool",
          "name": "",
          "type": "bool"
        }
      ],
      "stateMutability": "view",
      "type": "function",
      "constant": true
    },
    {
      "inputs": [
        {
          "internalType": "uint8",
          "name": "tokenId1",
          "type": "uint8"
        },
        {
          "internalType": "uint8",
          "name": "tokenId2",
          "type": "uint8"
        }
      ],
      "name": "getMarketId",
      "outputs": [
        {
          "internalType": "bytes32",
          "name": "",
          "type": "bytes32"
        }
      ],
      "stateMutability": "view",
      "type": "function",
      "constant": true
    }
  ],
  "bytecode": "0x60808060405234610023576001805460ff60a01b1916905561111e90816100298239f35b600080fdfe60806040526004361015610013575b600080fd5b60003560e01c806312a589e4146100c757806344fdab11146100be578063485cc955146100b557806365d020b6146100ac5780638f257e9e146100a3578063961f55281461009a5780639861d80214610091578063a309ed59146100885763b945b5271461008057600080fd5b61000e61081f565b5061000e610748565b5061000e61071e565b5061000e610578565b5061000e610554565b5061000e610532565b5061000e61041a565b5061000e6101a6565b3461000e5760e036600319011261000e576101356101256004356100ea81610139565b6024356100f681610139565b6100fe610144565b60a4359161010b8361019c565b60c435936101188561019c565b6064359160443591610c68565b6040519081529081906020820190565b0390f35b60ff81160361000e57565b608435906001600160a01b038216820361000e57565b600435906001600160a01b038216820361000e57565b602435906001600160a01b038216820361000e57565b604435906001600160a01b038216820361000e57565b6002111561000e57565b503461000e5760208060031936011261000e5760049081356101c781610139565b60ff916001916101dc84845460a01c166108eb565b838116916101eb848411610937565b6000805490969061020c906001600160a01b03165b6001600160a01b031690565b95863b15610416578590604097898951809263c115ec6360e01b82528183816102418c8b830191909160ff6020820193169052565b03925af18015610409575b6103f6575b506102638661025e6109f9565b610bdc565b815b61026e57888851f35b80821691868310156103f05787926102988861028a8985611043565b92610293610a69565b610c1f565b83548b906102ae906001600160a01b0316610200565b918b5163aeeb6f1f60e01b81528881806102cf858c83019190602083019252565b0381875afa9081156103e3575b83916103b6575b50156102fc575b5050506102f690610a42565b91610265565b9092918095503b156103b2578a5163eea862a960e01b81528087018281528b966102f6959183919082908490829060200103925af180156103a5575b61038c575b508a5160ff8381168252891660208201527f35adf284530d6e7eedf60027d7d4f71463550861a6ad36b14dc87da9535b039290604090a261038461037f610ae0565b610b7e565b908a386102ea565b8061039961039f9261098d565b80610713565b3861033d565b6103ad6109ec565b610338565b8280fd5b6103d69150893d8b116103dc575b6103ce81836109ca565b810190610ac8565b386102e3565b503d6103c4565b6103eb6109ec565b6102dc565b50888851f35b806103996104039261098d565b38610251565b6104116109ec565b61024c565b8780fd5b503461000e57604036600319011261000e5761043461015a565b61043c610170565b60ff60015460a01c166104cf576104ba916001600160a01b03908116916104989190610469841515610849565b1691610476831515610895565b60018060a01b03166bffffffffffffffffffffffff60a01b6000541617600055565b60018060a01b03166bffffffffffffffffffffffff60a01b6001541617600155565b6001805460ff60a01b1916600160a01b179055005b60405162461bcd60e51b8152602060048201526013602482015272105b1c9958591e481a5b9a5d1a585b1a5e9959606a1b6044820152606490fd5b604090600319011261000e5760043561052281610139565b9060243561052f81610139565b90565b503461000e57602061054c6105463661050a565b90611043565b604051908152f35b503461000e57602061056e6105683661050a565b90610f2c565b6040519015158152f35b503461000e5760a036600319011261000e576101356004358060243561059c610186565b606435906105a98261019c565b6084356105b58161019c565b61060b836001546105cb60ff8260a01c166108eb565b600054610625906105e4906001600160a01b0316610200565b6040519a8b809263f79db5a160e01b82528160209e8f998a95600483019190602083019252565b03915afa908115610706575b6000916106e9575b50610e8e565b86600089610649604051978896879586946317d6f5b760e31b865260048601610ed2565b03926001600160a01b03165af19586156106dc575b6000966106bd575b50508461067e575b6040518515158152806020810188565b6106b17f306fa6cb20a96459621f68542c3811b494938759a15d1b8809ac7f0eb0599e7693604051938493429285610efc565b0390a23880808061066e565b6106d4929650803d106103dc576103ce81836109ca565b933880610666565b6106e46109ec565b61065e565b6107009150853d87116103dc576103ce81836109ca565b3861061f565b61070e6109ec565b610617565b600091031261000e57565b503461000e57600036600319011261000e576001546040516001600160a01b039091168152602090f35b503461000e57602036600319011261000e5761076b60ff60015460a01c166108eb565b60005460408051635cf6ab3d60e11b8152600480359082015290918290829060249082906001600160a01b03165afa918215610812575b60009182936107c1575b505160ff918216815291166020820152604090f35b919080935082813d831161080b575b6107da81836109ca565b81010312610808575061013560208251926107f484610139565b01519161080083610139565b9192906107ac565b80fd5b503d6107d0565b61081a6109ec565b6107a2565b503461000e57600036600319011261000e576000546040516001600160a01b039091168152602090f35b1561085057565b60405162461bcd60e51b815260206004820152601b60248201527f496e76616c6964206d61726b65742064617461206164647265737300000000006044820152606490fd5b1561089c57565b60405162461bcd60e51b815260206004820152602160248201527f496e76616c6964206f72646572626f6f6b206d616e61676572206164647265736044820152607360f81b6064820152608490fd5b156108f257565b60405162461bcd60e51b815260206004820152601e60248201527f4d61726b6574206d616e61676572206e6f7420696e697469616c697a656400006044820152606490fd5b1561093e57565b60405162461bcd60e51b815260206004820152601060248201526f125b9d985b1a59081d1bdad95b88125160821b6044820152606490fd5b50634e487b7160e01b600052604160045260246000fd5b67ffffffffffffffff81116109a157604052565b6109a9610976565b604052565b6060810190811067ffffffffffffffff8211176109a157604052565b90601f8019910116810190811067ffffffffffffffff8211176109a157604052565b506040513d6000823e3d90fd5b60405190610a06826109ae565b6027825266103a37b5b2b71d60c91b6040837f5b4d61726b65744d616e616765725d204d61726b657420616464656420666f7260208201520152565b60ff1660ff8114610a535760010190565b634e487b7160e01b600052601160045260246000fd5b60405190610a76826109ae565b603782527f6f7264657220626f6f6b7320666f7220746f6b656e733a0000000000000000006040837f5b4d61726b65744d616e616765725d204372656174696e67206d61726b65742060208201520152565b9081602091031261000e5751801515810361000e5790565b60405190610aed826109ae565b602b82526a6b7320637265617465642160a81b6040837f5b4d61726b65744d616e616765725d204d61726b6574206f7264657220626f6f60208201520152565b91908251928382526000905b848210610b66575092806020939411610b59575b601f01601f1916010190565b6000838284010152610b4d565b90602090818082850101519082860101520190610b39565b610bac610bba610bbf9260405192839163104c13eb60e21b6020840152602060248401526044830190610b2d565b03601f1981018352826109ca565b610bc1565b565b600080916020815191016a636f6e736f6c652e6c6f675afa50565b610bba610c0b91610bbf93604051938492632d839cb360e21b6020850152604060248501526064840190610b2d565b90604483015203601f1981018352826109ca565b610bba90610c4f92610bbf9460405194859363ca47c4eb60e01b6020860152606060248601526084850190610b2d565b916044840152606483015203601f1981018352826109ca565b939590949294610c9460015491610c8460ff8460a01c166108eb565b610c8e8188611043565b96610f2c565b15610d8457826020918897600088610cc4878a6040519d8e988997889663bdd1367760e01b885260048801610e10565b03926001600160a01b03165af1948515610d77575b600095610d1f575b50610d19907f1fded4e86caea74336e52a4cad5f9bb0f54ffbe85b1ec527a0581a8bfa925c6194959660405194859442918a87610e51565b0390a290565b7f1fded4e86caea74336e52a4cad5f9bb0f54ffbe85b1ec527a0581a8bfa925c6194955090610d67610d199260203d8111610d70575b610d5f81836109ca565b810190610de1565b95945090610ce1565b503d610d55565b610d7f6109ec565b610cd9565b60405162461bcd60e51b815260206004820152602f60248201527f4d61726b657420646f6573206e6f7420657869737420666f722074686573652060448201526e7061697273206f6620746f6b656e7360881b6064820152608490fd5b9081602091031261000e575190565b60021115610dfa57565b634e487b7160e01b600052602160045260246000fd5b9260a094919796959260c0850198855260208501526040840152600180851b03166060830152610e3f81610df0565b6080820152610e4d83610df0565b0152565b9260a094919796959260c08501988552610e6a81610df0565b602085015260408401526060830152600180841b03166080820152610e4d83610df0565b15610e9557565b60405162461bcd60e51b815260206004820152601560248201527413585c9ad95d08191bd95cc81b9bdd08195e1a5cdd605a1b6044820152606490fd5b90949392606092608083019683526020830152610eee81610df0565b6040820152610e4d83610df0565b9081526001600160a01b0390911660208201526080810193929160609190610f2381610df0565b60408201520152565b90610f499060015492610f4460ff8560a01c166108eb565b611043565b600054610f5e906001600160a01b0316610200565b60405163f79db5a160e01b815260048101839052916020918290849060249082905afa928315611036575b600093611017575b5082610f9f575b5050905090565b610fc692508193604051808095819463aeeb6f1f60e01b8352600483019190602083019252565b03916001600160a01b03165afa91821561100a575b600092610fed575b5050803880610f98565b6110039250803d106103dc576103ce81836109ca565b3880610fe3565b6110126109ec565b610fdb565b61102f919350823d84116103dc576103ce81836109ca565b9138610f91565b61103e6109ec565b610f89565b6110969160209161105b60ff60015460a01c166108eb565b6000546040516332e8105b60e11b815260ff92831660048201529190921660248201529283916001600160a01b031690829081906044820190565b03915afa9081156110db575b6000916110ad575090565b906020823d82116110d3575b816110c6602093836109ca565b8101031261080857505190565b3d91506110b9565b6110e36109ec565b6110a256fea2646970667358221220d4a5ed69e3baa65eda3cd212820ae527874a9d83caeffab56199aa13bf29c88964736f6c634300080d0033",
  "immutableReferences": {},
  "source": "// SPDX-License-Identifier: UNLICENSED\npragma solidity ^0.8.0;\nimport \"./OrderLibrary.sol\";\nimport \"./MarketData.sol\";\nimport \"./OrderBookManager.sol\";\n\nimport \"hardhat/console.sol\";\n\ncontract MarketManager {\n    IMarketData public marketData;\n    OrderBookManager public orderBookManager;\n    bool private initialized;\n\n    event MarketOrderBooksCreatedEvent(\n        bytes32 indexed marketId,\n        uint8 token1,\n        uint8 token2\n    );\n\n    event OrderPlacedEvent(\n        bytes32 indexed marketId,\n        uint256 orderId,\n        OrderLibrary.OrderType orderType,\n        int256 price,\n        uint256 timestamp,\n        address userAddress,\n        OrderLibrary.OrderNature orderNature\n    );\n\n    event OrderCancelledEvent(\n        bytes32 indexed marketId,\n        uint256 orderId,\n        address userAddress,\n        OrderLibrary.OrderType orderType,\n        uint256 timestamp\n    );\n\n    modifier onlyInitialized() {\n        require(initialized, \"Market manager not initialized\");\n        _;\n    }\n\n    constructor() {\n        initialized = false;\n    }\n\n    function initialize(\n        address _marketDataAddr,\n        address _orderBookManagerAddr\n    ) external {\n        require(!initialized, \"Already initialized\");\n        require(_marketDataAddr != address(0), \"Invalid market data address\");\n        require(\n            _orderBookManagerAddr != address(0),\n            \"Invalid orderbook manager address\"\n        );\n\n        marketData = IMarketData(_marketDataAddr);\n        orderBookManager = OrderBookManager(_orderBookManagerAddr);\n        initialized = true;\n    }\n\n    function createMarket(uint8 _tokenId) external onlyInitialized {\n        require(_tokenId > 1, \"Invalid token ID\");\n        marketData.addMarket(_tokenId);\n        console.log(\"[MarketManager] Market added for token:\", _tokenId);\n\n        // Create orderbooks for each market pair\n        for (uint8 i = 1; i < _tokenId; i++) {\n            bytes32 marketId = getMarketId(i, _tokenId);\n            console.log(\n                \"[MarketManager] Creating market order books for tokens:\",\n                i,\n                _tokenId\n            );\n\n            // Only create orderbooks if they don't exist\n            if (!orderBookManager.orderBookExists(marketId)) {\n                orderBookManager.createMarketOrderBook(marketId);\n                emit MarketOrderBooksCreatedEvent(marketId, i, _tokenId);\n                console.log(\"[MarketManager] Market order books created!\");\n            }\n        }\n    }\n\n    function placeOrder(\n        uint8 tokenId1,\n        uint8 tokenId2,\n        int256 price,\n        uint256 amount,\n        address userAddress,\n        OrderLibrary.OrderType orderType,\n        OrderLibrary.OrderNature orderNature\n    ) external onlyInitialized returns (uint256 orderId) {\n        bytes32 marketId = getMarketId(tokenId1, tokenId2);\n        require(\n            isMarketInitialized(tokenId1, tokenId2),\n            \"Market does not exist for these pairs of tokens\"\n        );\n\n        orderId = orderBookManager.createOrder(\n            marketId,\n            amount,\n            price,\n            userAddress,\n            orderType,\n            orderNature\n        );\n        emit OrderPlacedEvent(\n            marketId,\n            orderId,\n            orderType,\n            price,\n            block.timestamp,\n            userAddress,\n            orderNature\n        );\n\n        return orderId;\n    }\n\n    function cancelOrder(\n        bytes32 marketId,\n        uint256 orderId,\n        address userAddress,\n        OrderLibrary.OrderType orderType,\n        OrderLibrary.OrderNature orderNature\n    ) external onlyInitialized returns (bool) {\n        require(marketData.isMarketPresent(marketId), \"Market does not exist\");\n\n        // Forward cancellation request to OrderBookManager\n        bool success = orderBookManager.cancelOrder(\n            marketId,\n            orderId,\n            orderType,\n            orderNature\n        );\n        if (success) {\n            emit OrderCancelledEvent(\n                marketId,\n                orderId,\n                userAddress,\n                orderType,\n                block.timestamp\n            );\n        }\n        return success;\n    }\n\n    function getMarketTokens(\n        bytes32 _marketId\n    ) external view onlyInitialized returns (uint8, uint8) {\n        return marketData.getTokensFromMarketId(_marketId);\n    }\n\n    // Helper function to check if a market is fully initialized\n    function isMarketInitialized(\n        uint8 tokenId1,\n        uint8 tokenId2\n    ) public view onlyInitialized returns (bool) {\n        bytes32 marketId = getMarketId(tokenId1, tokenId2);\n        return\n            marketData.isMarketPresent(marketId) &&\n            orderBookManager.orderBookExists(marketId);\n    }\n\n    function getMarketId(\n        uint8 tokenId1,\n        uint8 tokenId2\n    ) public view onlyInitialized returns (bytes32) {\n        return marketData.getMarketId(tokenId1, tokenId2);\n    }\n}\n",
  "sourcePath": "C:\\Users\\kaise\\OneDrive\\Desktop\\Codebase\\NTU\\sc4053-blockchain-technology\\contracts\\MarketManager.sol",
  "compiler": {
    "name": "solc",
    "version": "0.8.13+commit.abaa5c0e.Emscripten.clang"
  },
  "schemaVersion": "3.4.16",
  "updatedAt": "2024-11-09T05:40:51.105Z",
  "networkType": "ethereum",
  "devdoc": {
    "kind": "dev",
    "methods": {},
    "version": 1
  },
  "userdoc": {
    "kind": "user",
    "methods": {},
    "version": 1
  }
}