{
  "contractName": "MarketData",
  "abi": [
    {
      "inputs": [],
      "stateMutability": "nonpayable",
      "type": "constructor"
    },
    {
      "anonymous": false,
      "inputs": [
        {
          "indexed": true,
          "internalType": "bytes32",
          "name": "marketId",
          "type": "bytes32"
        },
        {
          "indexed": false,
          "internalType": "uint8",
          "name": "token1",
          "type": "uint8"
        },
        {
          "indexed": false,
          "internalType": "uint8",
          "name": "token2",
          "type": "uint8"
        },
        {
          "indexed": false,
          "internalType": "uint256",
          "name": "timestamp",
          "type": "uint256"
        }
      ],
      "name": "MarketCreatedEvent",
      "type": "event"
    },
    {
      "inputs": [],
      "name": "marketManager",
      "outputs": [
        {
          "internalType": "address",
          "name": "",
          "type": "address"
        }
      ],
      "stateMutability": "view",
      "type": "function",
      "constant": true
    },
    {
      "inputs": [
        {
          "internalType": "address",
          "name": "_marketManager",
          "type": "address"
        }
      ],
      "name": "initialize",
      "outputs": [],
      "stateMutability": "nonpayable",
      "type": "function"
    },
    {
      "inputs": [
        {
          "internalType": "uint8",
          "name": "_tokenId",
          "type": "uint8"
        }
      ],
      "name": "addMarket",
      "outputs": [],
      "stateMutability": "nonpayable",
      "type": "function"
    },
    {
      "inputs": [
        {
          "internalType": "bytes32",
          "name": "_marketId",
          "type": "bytes32"
        }
      ],
      "name": "getTokensFromMarketId",
      "outputs": [
        {
          "internalType": "uint8",
          "name": "",
          "type": "uint8"
        },
        {
          "internalType": "uint8",
          "name": "",
          "type": "uint8"
        }
      ],
      "stateMutability": "view",
      "type": "function",
      "constant": true
    },
    {
      "inputs": [
        {
          "internalType": "uint8",
          "name": "token1",
          "type": "uint8"
        },
        {
          "internalType": "uint8",
          "name": "token2",
          "type": "uint8"
        }
      ],
      "name": "getMarketId",
      "outputs": [
        {
          "internalType": "bytes32",
          "name": "",
          "type": "bytes32"
        }
      ],
      "stateMutability": "pure",
      "type": "function",
      "constant": true
    },
    {
      "inputs": [
        {
          "internalType": "bytes32",
          "name": "marketId",
          "type": "bytes32"
        }
      ],
      "name": "isMarketPresent",
      "outputs": [
        {
          "internalType": "bool",
          "name": "",
          "type": "bool"
        }
      ],
      "stateMutability": "view",
      "type": "function",
      "constant": true
    }
  ],
  "bytecode": "0x60808060405234610023576001805460ff60a01b1916905561057190816100298239f35b600080fdfe608080604052600436101561001357600080fd5b6000803560e01c91826341ed2c1214610096575050806365d020b61461008d578063b9ed567a14610084578063c115ec631461007b578063c4d66de8146100725763f79db5a114610065575b38600080fd5b61006d610451565b61005f565b5061006d61036f565b5061006d6101c8565b5061006d610120565b5061006d6100d2565b346100b957816003193601126100b9576001546001600160a01b03168152602090f35b5080fd5b6004359060ff821682036100cd57565b600080fd5b50346100cd5760403660031901126100cd576100ec6100bd565b6024359060ff821682036100cd57602091610106916104e4565b604051908152f35b60209060031901126100cd5760043590565b50346100cd5761012f3661010e565b60005260006020526040600020604051906060820182811067ffffffffffffffff8211176101b25761019c9161019491604052549260ff8416815261018d60ff6020830195818160081c16875260101c1615158060408401526104a0565b5160ff1690565b915160ff1690565b6040805160ff9384168152919092166020820152f35b634e487b7160e01b600052604160045260246000fd5b50346100cd576020806003193601126100cd576101e36100bd565b60018054909291906001600160a01b0316330361032c578260ff92838316915b828582161061020e57005b8061021a8587936104e4565b61024261023e610234836000526000602052604060002090565b5460101c60ff1690565b1590565b6102b5575b7fe0547082c0fc18bcd60dde0b005d4a57de8e9ef8ef6e43258083a2bb975a7de96040518061028e428a878460ff6040929594938160608401971683521660208201520152565b0390a2168481146102a0578501610203565b60246000634e487b7160e01b81526011600452fd5b6103276102c0610480565b60ff8416815260ff881681870152600160408201526102e9836000526000602052604060002090565b81518154602084015160409094015162ff000090151560101b1661ff0060089590951b9490941660ff90921662ffffff199091161717919091179055565b610247565b6064826040519062461bcd60e51b825280600483015260248201527f43616c6c6572206973206e6f7420746865206d61726b6574206d616e616765726044820152fd5b50346100cd5760203660031901126100cd576004356001600160a01b0381168082036100cd5760ff60015460a01c1661041657156103d157600180546001600160a01b03929092166001600160a81b031990921691909117600160a01b179055005b60405162461bcd60e51b815260206004820152601e60248201527f496e76616c6964206d61726b6574206d616e61676572206164647265737300006044820152606490fd5b60405162461bcd60e51b8152602060048201526013602482015272105b1c9958591e481a5b9a5d1a585b1a5e9959606a1b6044820152606490fd5b50346100cd576104603661010e565b6000526000602052602060ff60406000205460101c166040519015158152f35b604051906060820182811067ffffffffffffffff8211176101b257604052565b156104a757565b60405162461bcd60e51b815260206004820152601560248201527413585c9ad95d08191bd95cc81b9bdd08195e1a5cdd605a1b6044820152606490fd5b60ff821660ff821611610535575b60405190602082019260ff60f81b809260f81b16845260f81b166021820152600281526040810181811067ffffffffffffffff8211176101b25760405251902090565b906104f256fea2646970667358221220c9692af17f94eabf8dc567cb8f5c37bc460bee4609362a8dd4dc99f19b3b755f64736f6c634300080d0033",
  "immutableReferences": {},
  "source": "// SPDX-License-Identifier: UNLICENSED\npragma solidity ^0.8.0;\n\n// Interface for MarketData contract\ninterface IMarketData {\n    struct Market {\n        uint8 token1;\n        uint8 token2;\n        bool exists;\n    }\n\n    event MarketCreatedEvent(\n        bytes32 indexed marketId,\n        uint8 token1,\n        uint8 token2,\n        uint256 timestamp\n    );\n\n    function addMarket(uint8 _tokenId) external;\n\n    function getTokensFromMarketId(\n        bytes32 _marketId\n    ) external view returns (uint8, uint8);\n\n    function isMarketPresent(bytes32 marketId) external view returns (bool);\n\n    function getMarketId(\n        uint8 token1,\n        uint8 token2\n    ) external pure returns (bytes32);\n}\n\n// MarketData contract\ncontract MarketData is IMarketData {\n    // Maps market index to the market\n    mapping(bytes32 => Market) private exchangeMarkets;\n    address public marketManager;\n    bool private initialized;\n\n    modifier onlyMarketManager() {\n        require(\n            msg.sender == marketManager,\n            \"Caller is not the market manager\"\n        );\n        _;\n    }\n\n    constructor() {\n        initialized = false;\n    }\n\n    function initialize(address _marketManager) external {\n        require(!initialized, \"Already initialized\");\n        require(_marketManager != address(0), \"Invalid market manager address\");\n        marketManager = _marketManager;\n        initialized = true;\n    }\n\n    function addMarket(uint8 _tokenId) external override onlyMarketManager {\n        for (uint8 i = 1; i < _tokenId; i++) {\n            bytes32 marketId = getMarketId(i, _tokenId);\n            if (!(exchangeMarkets[marketId].exists)) {\n                exchangeMarkets[marketId] = Market({\n                    token1: i,\n                    token2: _tokenId,\n                    exists: true\n                });\n            }\n            emit MarketCreatedEvent(marketId, i, _tokenId, block.timestamp);\n        }\n    }\n\n    function getTokensFromMarketId(\n        bytes32 _marketId\n    ) external view override returns (uint8, uint8) {\n        Market memory market = exchangeMarkets[_marketId];\n        require(market.exists, \"Market does not exist\");\n        return (market.token1, market.token2);\n    }\n\n    function getMarketId(\n        uint8 token1,\n        uint8 token2\n    ) public pure returns (bytes32) {\n        // Ensures consistent ordering\n        if (token1 > token2) {\n            (token1, token2) = (token2, token1);\n        }\n        return keccak256(abi.encodePacked(token1, token2));\n    }\n\n    function isMarketPresent(bytes32 marketId) external view returns (bool) {\n        return exchangeMarkets[marketId].exists;\n    }\n}\n",
  "sourcePath": "C:\\Users\\kaise\\OneDrive\\Desktop\\Codebase\\NTU\\sc4053-blockchain-technology\\contracts\\MarketData.sol",
  "compiler": {
    "name": "solc",
    "version": "0.8.13+commit.abaa5c0e.Emscripten.clang"
  },
  "schemaVersion": "3.4.16",
  "updatedAt": "2024-11-04T16:02:28.293Z",
  "networkType": "ethereum",
  "devdoc": {
    "kind": "dev",
    "methods": {},
    "version": 1
  },
  "userdoc": {
    "kind": "user",
    "methods": {},
    "version": 1
  }
}