{
  "contractName": "OrderBookData",
  "abi": [
    {
      "inputs": [
        {
          "internalType": "address",
          "name": "_orderBookManager",
          "type": "address"
        }
      ],
      "stateMutability": "nonpayable",
      "type": "constructor"
    },
    {
      "anonymous": false,
      "inputs": [
        {
          "indexed": false,
          "internalType": "uint256",
          "name": "orderId",
          "type": "uint256"
        },
        {
          "indexed": false,
          "internalType": "uint256",
          "name": "amount",
          "type": "uint256"
        },
        {
          "indexed": false,
          "internalType": "int256",
          "name": "price",
          "type": "int256"
        },
        {
          "indexed": false,
          "internalType": "address",
          "name": "userAddress",
          "type": "address"
        },
        {
          "indexed": false,
          "internalType": "enum OrderLibrary.OrderType",
          "name": "orderType",
          "type": "uint8"
        },
        {
          "indexed": false,
          "internalType": "enum OrderLibrary.OrderNature",
          "name": "orderNature",
          "type": "uint8"
        }
      ],
      "name": "OrderAddedEvent",
      "type": "event"
    },
    {
      "anonymous": false,
      "inputs": [
        {
          "indexed": false,
          "internalType": "uint256",
          "name": "orderId",
          "type": "uint256"
        },
        {
          "indexed": false,
          "internalType": "enum OrderLibrary.OrderType",
          "name": "orderType",
          "type": "uint8"
        },
        {
          "indexed": false,
          "internalType": "enum OrderLibrary.OrderNature",
          "name": "orderNature",
          "type": "uint8"
        }
      ],
      "name": "OrderRemovedEvent",
      "type": "event"
    },
    {
      "anonymous": false,
      "inputs": [
        {
          "indexed": false,
          "internalType": "uint256",
          "name": "orderId",
          "type": "uint256"
        },
        {
          "indexed": false,
          "internalType": "enum OrderLibrary.OrderStatus",
          "name": "status",
          "type": "uint8"
        }
      ],
      "name": "OrderStatusUpdatedEvent",
      "type": "event"
    },
    {
      "anonymous": false,
      "inputs": [
        {
          "indexed": false,
          "internalType": "uint256",
          "name": "orderId",
          "type": "uint256"
        },
        {
          "indexed": false,
          "internalType": "uint256",
          "name": "remainingAmount",
          "type": "uint256"
        },
        {
          "indexed": false,
          "internalType": "enum OrderLibrary.OrderStatus",
          "name": "status",
          "type": "uint8"
        },
        {
          "indexed": false,
          "internalType": "int256",
          "name": "price",
          "type": "int256"
        },
        {
          "indexed": false,
          "internalType": "uint256",
          "name": "amount",
          "type": "uint256"
        },
        {
          "indexed": false,
          "internalType": "uint256",
          "name": "timestamp",
          "type": "uint256"
        }
      ],
      "name": "OrderUpdatedEvent",
      "type": "event"
    },
    {
      "inputs": [],
      "name": "orderBookManager",
      "outputs": [
        {
          "internalType": "address",
          "name": "",
          "type": "address"
        }
      ],
      "stateMutability": "view",
      "type": "function"
    },
    {
      "inputs": [],
      "name": "initializeOrderBooks",
      "outputs": [],
      "stateMutability": "nonpayable",
      "type": "function"
    },
    {
      "inputs": [
        {
          "internalType": "uint256",
          "name": "_amount",
          "type": "uint256"
        },
        {
          "internalType": "int256",
          "name": "_price",
          "type": "int256"
        },
        {
          "internalType": "address",
          "name": "_userAddress",
          "type": "address"
        },
        {
          "internalType": "enum OrderLibrary.OrderType",
          "name": "_orderType",
          "type": "uint8"
        },
        {
          "internalType": "enum OrderLibrary.OrderNature",
          "name": "_orderNature",
          "type": "uint8"
        }
      ],
      "name": "addOrder",
      "outputs": [
        {
          "internalType": "uint256",
          "name": "orderId",
          "type": "uint256"
        }
      ],
      "stateMutability": "nonpayable",
      "type": "function"
    },
    {
      "inputs": [
        {
          "internalType": "enum OrderLibrary.OrderType",
          "name": "_orderType",
          "type": "uint8"
        },
        {
          "internalType": "uint256",
          "name": "_orderId",
          "type": "uint256"
        },
        {
          "internalType": "uint256",
          "name": "_remainingAmount",
          "type": "uint256"
        },
        {
          "internalType": "enum OrderLibrary.OrderStatus",
          "name": "_status",
          "type": "uint8"
        },
        {
          "components": [
            {
              "internalType": "int256",
              "name": "price",
              "type": "int256"
            },
            {
              "internalType": "uint256",
              "name": "amount",
              "type": "uint256"
            },
            {
              "internalType": "uint256",
              "name": "timestamp",
              "type": "uint256"
            }
          ],
          "internalType": "struct OrderLibrary.Fills",
          "name": "_orderReceipt",
          "type": "tuple"
        }
      ],
      "name": "updateOrder",
      "outputs": [],
      "stateMutability": "nonpayable",
      "type": "function"
    },
    {
      "inputs": [
        {
          "internalType": "enum OrderLibrary.OrderType",
          "name": "_orderType",
          "type": "uint8"
        },
        {
          "internalType": "uint256",
          "name": "_orderId",
          "type": "uint256"
        },
        {
          "internalType": "enum OrderLibrary.OrderStatus",
          "name": "_newOrderStatus",
          "type": "uint8"
        }
      ],
      "name": "updateOrderStatus",
      "outputs": [],
      "stateMutability": "nonpayable",
      "type": "function"
    },
    {
      "inputs": [
        {
          "internalType": "enum OrderLibrary.OrderType",
          "name": "_orderType",
          "type": "uint8"
        },
        {
          "internalType": "enum OrderLibrary.OrderNature",
          "name": "_orderNature",
          "type": "uint8"
        },
        {
          "internalType": "uint256",
          "name": "_orderId",
          "type": "uint256"
        }
      ],
      "name": "removeOrder",
      "outputs": [
        {
          "internalType": "bool",
          "name": "",
          "type": "bool"
        }
      ],
      "stateMutability": "nonpayable",
      "type": "function"
    },
    {
      "inputs": [
        {
          "internalType": "enum OrderLibrary.OrderType",
          "name": "_orderType",
          "type": "uint8"
        }
      ],
      "name": "getBestOrderFromHeap",
      "outputs": [
        {
          "internalType": "uint256",
          "name": "",
          "type": "uint256"
        }
      ],
      "stateMutability": "view",
      "type": "function"
    },
    {
      "inputs": [
        {
          "internalType": "enum OrderLibrary.OrderType",
          "name": "_orderType",
          "type": "uint8"
        }
      ],
      "name": "getAllPendingMarketOrders",
      "outputs": [
        {
          "internalType": "uint256[]",
          "name": "",
          "type": "uint256[]"
        }
      ],
      "stateMutability": "view",
      "type": "function"
    },
    {
      "inputs": [
        {
          "internalType": "enum OrderLibrary.OrderType",
          "name": "_orderType",
          "type": "uint8"
        },
        {
          "internalType": "uint256",
          "name": "_orderId",
          "type": "uint256"
        }
      ],
      "name": "getOrderFromId",
      "outputs": [
        {
          "components": [
            {
              "internalType": "uint256",
              "name": "totalAmount",
              "type": "uint256"
            },
            {
              "internalType": "uint256",
              "name": "remainingAmount",
              "type": "uint256"
            },
            {
              "internalType": "int256",
              "name": "price",
              "type": "int256"
            },
            {
              "internalType": "uint256",
              "name": "timestamp",
              "type": "uint256"
            },
            {
              "internalType": "address",
              "name": "userAddress",
              "type": "address"
            },
            {
              "internalType": "enum OrderLibrary.OrderStatus",
              "name": "status",
              "type": "uint8"
            },
            {
              "internalType": "enum OrderLibrary.OrderNature",
              "name": "nature",
              "type": "uint8"
            },
            {
              "internalType": "int256[]",
              "name": "fillsPrice",
              "type": "int256[]"
            },
            {
              "internalType": "uint256[]",
              "name": "fillsAmount",
              "type": "uint256[]"
            },
            {
              "internalType": "uint256[]",
              "name": "fillsTimestamp",
              "type": "uint256[]"
            }
          ],
          "internalType": "struct OrderLibrary.Order",
          "name": "",
          "type": "tuple"
        }
      ],
      "stateMutability": "view",
      "type": "function"
    },
    {
      "inputs": [
        {
          "internalType": "enum OrderLibrary.OrderType",
          "name": "_orderType",
          "type": "uint8"
        }
      ],
      "name": "getTotalOrderCount",
      "outputs": [
        {
          "internalType": "uint256",
          "name": "",
          "type": "uint256"
        }
      ],
      "stateMutability": "view",
      "type": "function"
    },
    {
      "inputs": [
        {
          "components": [
            {
              "internalType": "enum OrderLibrary.OrderStatus",
              "name": "status",
              "type": "uint8"
            },
            {
              "internalType": "address",
              "name": "userAddress",
              "type": "address"
            },
            {
              "internalType": "bool",
              "name": "filterByUser",
              "type": "bool"
            }
          ],
          "internalType": "struct OrderLibrary.AllOrdersQueryParams",
          "name": "params",
          "type": "tuple"
        }
      ],
      "name": "getAllOrdersWithFilters",
      "outputs": [
        {
          "internalType": "uint256[]",
          "name": "amount",
          "type": "uint256[]"
        },
        {
          "internalType": "int256[]",
          "name": "price",
          "type": "int256[]"
        },
        {
          "internalType": "uint256[]",
          "name": "orderIds",
          "type": "uint256[]"
        },
        {
          "internalType": "enum OrderLibrary.OrderType[]",
          "name": "orderType",
          "type": "uint8[]"
        },
        {
          "internalType": "enum OrderLibrary.OrderNature[]",
          "name": "nature",
          "type": "uint8[]"
        },
        {
          "internalType": "int256[][]",
          "name": "fillsPrice",
          "type": "int256[][]"
        },
        {
          "internalType": "uint256[][]",
          "name": "fillsAmount",
          "type": "uint256[][]"
        },
        {
          "internalType": "uint256[][]",
          "name": "fillsTimestamp",
          "type": "uint256[][]"
        }
      ],
      "stateMutability": "view",
      "type": "function"
    }
  ],
  "bytecode": "0x60a060405234620000e6576200288760208138039182620000208162000131565b938492833981010312620000e657516001600160a01b03811690818103620000e657608052330362000095576200005662000157565b620000606200026e565b60405161251c90816200036b823960805181818161013801528181610379015281816104710152818161090401526110940152f35b60405162461bcd60e51b8152602060048201526024808201527f43616c6c6572206973206e6f7420746865206f7264657220626f6f6b206d616e60448201526330b3b2b960e11b6064820152608490fd5b600080fd5b50634e487b7160e01b600052604160045260246000fd5b60405190606082016001600160401b038111838210176200012257604052565b6200012c620000eb565b604052565b6040519190601f01601f191682016001600160401b038111838210176200012257604052565b60008080526020527fad3228b676f7d3cd4284a5443f17f1962b36e491b30a40b2405849e597ba5fb9805491908215620001e1575b50600080805260208190527fad3228b676f7d3cd4284a5443f17f1962b36e491b30a40b2405849e597ba5fb58190557fad3228b676f7d3cd4284a5443f17f1962b36e491b30a40b2405849e597ba5fb7559050565b620001eb62000102565b9060009384835260208301908582526040840192868452680100000000000000008210156200025e575b600182018082558210156200024a5760208760039260029798995220910201935184555160018401555191015580386200018c565b634e487b7160e01b87526032600452602487fd5b62000268620000eb565b62000215565b600160009081526020527fada5013122d395ba3c54772283fb069b10426056ef8ca54750cb9bb552a59e81805491908215620002f1575b5090506000620002c060016000526000602052604060002090565b556001600090815260208190527fada5013122d395ba3c54772283fb069b10426056ef8ca54750cb9bb552a59e7f55565b620002fb62000102565b9060009384835260208301908582526040840192868452680100000000000000008210156200035a575b600182018082558210156200024a576020876003926002979899522091020193518455516001840155519101558038620002a5565b62000364620000eb565b6200032556fe6101c06040526004361015610014575b600080fd5b60003560e01c8063042320fc146100f05780631e3cc601146100e75780633a226883146100de57806356be8641146100d55780638c57f0e9146100cc57806394c3880a146100c35780639861d802146100ba578063afa8fc70146100b1578063b940cb7e146100a8578063e1d0c8931461009f5763fc7663a71461009757600080fd5b61000f610acf565b5061000f610a10565b5061000f610972565b5061000f610933565b5061000f6108ed565b5061000f610881565b5061000f610809565b5061000f6103ff565b5061000f610360565b5061000f6102bf565b5061000f610103565b6002111561000f57565b503461000f57606036600319011261000f57602061016f600435610126816100f9565b602435610132816100f9565b610166337f00000000000000000000000000000000000000000000000000000000000000006001600160a01b031614610b25565b60443591611381565b6040519015158152f35b50634e487b7160e01b600052602160045260246000fd5b6004111561019a57565b6101a2610179565b565b9060048210156101b15752565b6101b9610179565b52565b6002111561019a57565b906101b9826101bc565b90815180825260208080930193019160005b8281106101f0575050505090565b8351855293810193928101926001016101e2565b906102bc91602081528151602082015260208201516040820152604082015160608201526060820151608082015261024b608083015160a083019060018060a01b03169052565b61025d60a083015160c08301906101a4565b61026f60c083015160e08301906101c6565b60e08201519061014061028f6101009382858501526101608401906101d0565b928401516102ac601f1994610120928686830301848701526101d0565b94015192828503019101526101d0565b90565b503461000f5760408060031936011261000f578061035161035c926004356102e6816100f9565b8151906102f282610618565b6060610120600093848152846020820152848682015284838201528460808201528460a08201528460c08201528260e0820152826101008201520152610337816101bc565b815280602052600182822001602435825260205220611607565b905191829182610204565b0390f35b503461000f576000806003193601126103fc576103a7337f00000000000000000000000000000000000000000000000000000000000000006001600160a01b031614610b25565b8080528060205260406103be60038284200161208c565b8180528160205281818120558160028282200155600182526103e460038284200161208c565b60018252816020528181812055816002828220015551f35b80fd5b503461000f5760a036600319011261000f576004356044356001600160a01b03602435818316830361000f576020936105bf7f57c8b633cd47b2227512a6c52ec2574ea10acc231ea47bdee3eee219c94a31449360643561045f816100f9565b6104986084359261046f846100f9565b7f0000000000000000000000000000000000000000000000000000000000000000163314610b25565b6104a181610b7d565b966104ac8854610bad565b8881809a556104b9610bf0565b6104c1610bf0565b6104c9610bf0565b906104d261069c565b8a81528e81018b9052604081018c90524260608201526001600160a01b038716608082015292600060a085015261050c8960c08601610c67565b60e084015261010083015261012082015261053e6001830191610539858490600052602052604060002090565b610daf565b6002820161054c8154610bad565b9055610557866101bc565b600186036105e2576105a0925061056d856101bc565b8a89600187036105ca576003610597836105878394610f28565b9590600052602052604060002090565b015493016120df565b506105b2886105ad610f47565b610fc1565b6040519586958987610f80565b0390a1604051908152f35b60036105978382939590600052602052604060002090565b509060066105f09201610ea7565b6105fc886105ad610eef565b6105b2565b50634e487b7160e01b600052604160045260246000fd5b610140810190811067ffffffffffffffff82111761063557604052565b61063d610601565b604052565b6060810190811067ffffffffffffffff82111761063557604052565b6040810190811067ffffffffffffffff82111761063557604052565b90601f8019910116810190811067ffffffffffffffff82111761063557604052565b604051906101a282610618565b90815180825260208080930193019160005b8281106106c9575050505090565b90919293828060019287516106dd816101bc565b8152019501939291016106bb565b908082519081815260208091019281808460051b8301019501936000915b8483106107195750505050505090565b9091929394958480610737600193601f198682030187528a516101d0565b9801930193019194939290610709565b9694929061076390999896949299610100808a528901906101d0565b602090888103828a015281808c5192838152019b019160005b8281106107f557505050506107d9926107bd6107e79695936107af8c6107cb958c6102bc9e9f81604091039101526101d0565b908a820360608c01526106a9565b9088820360808a01526106a9565b9086820360a08801526106eb565b9084820360c08601526106eb565b9160e08184039101526106eb565b83518d529b81019b9281019260010161077c565b503461000f57606036600319011261000f5760405161082781610642565b600435600481101561000f5781526024356001600160a01b038116810361000f576020820152604435801515810361000f578161086b91604061035c940152611711565b9460409896989491949392935198899889610747565b503461000f5760e036600319011261000f5760043561089f816100f9565b60643590600482101561000f57606036608319011261000f576108eb91604051916108c983610642565b608435835260a435602084015260c43560408401526044359060243590611065565b005b503461000f57600036600319011261000f576040517f00000000000000000000000000000000000000000000000000000000000000006001600160a01b03168152602090f35b503461000f57602036600319011261000f57600435610951816100f9565b61095a816101bc565b60005260006020526020604060002054604051908152f35b503461000f57602036600319011261000f5761035c600435610993816100f9565b61099c816101bc565b6000908152806020526004604082206109b36120c0565b506109bc6120c0565b50019060018254116000146109ef57506109d86109de91611fd5565b5061217e565b516040519081529081906020820190565b60405191506109fd82610642565b80825280602083015260408201526109de565b503461000f57606036600319011261000f57600435610a2e816100f9565b602435604435600481101561000f577f741f70c8b3dd5bd997dff5fda0f5f617f5d9a46e92fa60ba5d68637deb03bf3691610a68846101bc565b60009384528360205260016040852001818552602052610aab8260046040872001610aa660ff825460a01c166004811015610ac2575b83141561115f565b610c87565b610aba604051928392836111aa565b0390a1604051f35b610aca610179565b610a9e565b503461000f57602036600319011261000f57600435610aed816100f9565b610af6816101bc565b600052600060205261035c610b1160066040600020016115b8565b6040519182916020835260208301906101d0565b15610b2c57565b60405162461bcd60e51b8152602060048201526024808201527f43616c6c6572206973206e6f7420746865206f7264657220626f6f6b206d616e60448201526330b3b2b960e11b6064820152608490fd5b610b86816101bc565b6000526000602052604060002090565b50634e487b7160e01b600052601160045260246000fd5b6001906000198114610bbd570190565b610bc5610b96565b0190565b60209067ffffffffffffffff8111610be3575b60051b0190565b610beb610601565b610bdc565b604051906000602083019280841067ffffffffffffffff851117610c1c575b8360405281815292369037565b610c24610601565b610c0f565b90610c3382610bc9565b610c40604051918261067a565b8281528092610c51601f1991610bc9565b0190602036910137565b60048210156101b15752565b6101b9826101bc565b50634e487b7160e01b600052600060045260246000fd5b906004811015610cac575b815460ff60a01b191660a09190911b60ff60a01b16179055565b610cb4610179565b610c92565b90610cc3816101bc565b815460ff60a81b191660a89190911b60ff60a81b16179055565b806000190460021181151516610cf4575b60011b90565b610cfc610b96565b610cee565b91610d1d9183549060031b600019811b9283911b169119161790565b9055565b815191600160401b8311610da2575b8154838355808410610d79575b50610d52602080920192600052602060002090565b6000925b848410610d64575050505050565b60018382829351855501920193019290610d56565b6000838152846020822092830192015b828110610d97575050610d3d565b818155600101610d89565b610daa610601565b610d30565b60076101206101a29380518455602081015160018501556040810151600285015560608101516003850155610e3e60048501610e13610df7608085015160018060a01b031690565b82546001600160a01b0319166001600160a01b03909116178255565b610e2a60a0840151610e2481610190565b82610c87565b60c083015190610e39826101bc565b610cb9565b610e4f60e082015160058601610d21565b610e6161010082015160068601610d21565b01519101610d21565b50634e487b7160e01b600052603260045260246000fd5b8054821015610e9a575b60005260206000200190600090565b610ea2610e6a565b610e8b565b610ec9610d1d91805490600160401b821015610ee2575b600182018155610e81565b819391549060031b600019811b9283911b169119161790565b610eea610601565b610ebe565b60405190610efc8261065e565b602082527f4f7264657220616464656420746f206d61726b6574206f72646572733a2025646020830152565b600160ff1b8114610f3a575b60000390565b610f42610b96565b610f34565b60405190610f548261065e565b601782527f4f7264657220616464656420746f20686561703a2025640000000000000000006020830152565b9260a094919796959260c0850198855260208501526040840152600180851b03166060830152610faf816101bc565b6080820152610fbd836101bc565b0152565b9190604051906020632d839cb360e21b81840152604060248401528451948560648501526000915b8683106110345750508285611022936101a2969760849411611027575b6044830152601f8019910116810103606481018452018261067a565b61104a565b6000848385010152611006565b8183018101518584016084015291820191610fe9565b600080916020815191016a636f6e736f6c652e6c6f675afa50565b7fd6f0c09589c4d1c383f2cda7894592f67d44338798ce6e87200229c4e74e6c689460c094929392916110c2337f00000000000000000000000000000000000000000000000000000000000000006001600160a01b031614610b25565b6110cb816101bc565b600052600060205260016040600020018460005260205261114d6040600020928460018501556110fe8160048601610c87565b61110c835160058601610ea7565b602083019261111f845160068701610ea7565b6111326040820195600787519101610ea7565b519251935194604051968752602087015260408601906101a4565b6060840152608083015260a0820152a1565b1561116657565b606460405162461bcd60e51b815260206004820152602060248201527f4f7264657220697320616c726561647920696e207468697320737461747573206044820152fd5b9081526040810192916101a291602001906101a4565b7f741f70c8b3dd5bd997dff5fda0f5f617f5d9a46e92fa60ba5d68637deb03bf36916040916111ee816101bc565b6000526000602052600182600020018160005260205260048260002001805461122a60ff8260a01c166004811015611248575b6003141561115f565b60ff60a01b1916600360a01b179055815190815260036020820152a1565b611250610179565b611221565b1561125c57565b60405162461bcd60e51b81526020600482015260136024820152724f72646572206973206e6f742041637469766560681b6044820152606490fd5b1561129e57565b60405162461bcd60e51b815260206004820152600e60248201526d417272617920697320656d70747960901b6044820152606490fd5b600181106112e4575b6000190190565b6112ec610b96565b6112dd565b6001906001198111610bbd570190565b50634e487b7160e01b600052603160045260246000fd5b8054908115611343575b600019918201916113338383610e81565b909182549160031b1b1916905555565b61134b611301565b611322565b80156112e4576000190190565b60409194939260608201958252611373816101bc565b6020820152610fbd836101bc565b6001926113b260046113a7838761139787610b7d565b0190600052602052604060002090565b015460a01c60ff1690565b6113bb81610190565b15801561158f575b6113cc90611255565b6113d5836101bc565b82840361145b57806113f28160036113ec86610b7d565b0161215b565b51036114525761144c7f2978f9c3eaed0402764746f572e1619c2f1a0d4cf48ee4626b542fe0fa65a0c7935b61142883856111c0565b600261143385610b7d565b0161143e8154611350565b90556040519384938461135d565b0390a190565b50505050600090565b939192906006946114788661146f84610b7d565b01541515611297565b60009485845b611548575b50909192809495905b6114d1575b5061144c906114cc7f2978f9c3eaed0402764746f572e1619c2f1a0d4cf48ee4626b542fe0fa65a0c79596976114c686610b7d565b01611318565b61141e565b6114e5876114de86610b7d565b01546112d4565b8110156115435761153d859161153861151e6115148b6115048a610b7d565b0161150e856112f1565b90610e81565b90549060031b1c90565b611532838c61152c8b610b7d565b01610e81565b90610d01565b610bad565b9061148c565b611491565b8761155285610b7d565b015481101561158a578261156d611514838b61152c89610b7d565b146115825761157c8591610bad565b9061147e565b955083611483565b611483565b506113cc846115a760046113a7858461139789610b7d565b6115b081610190565b1490506113c3565b9060405191828154918282526020928383019160005283600020936000905b8282106115ed575050506101a29250038361067a565b8554845260019586019588955093810193909101906115d7565b9061169d600761161561069c565b8454815260018501546020820152600285015460408201526003850154606082015260048501546001600160a01b03811660808301529094906116749060ff90611667828260a01c1660a08a01610c5b565b60a81c1660c08701610c67565b611680600582016115b8565b60e0860152611691600682016115b8565b610100860152016115b8565b610120830152565b906116af82610bc9565b6116bc604051918261067a565b82815280926116cd601f1991610bc9565b019060005b8281106116de57505050565b8060606020809385010152016116d2565b6020918151811015611704575b60051b010190565b61170c610e6a565b6116fc565b805161171c81610190565b815161172781610190565b61173081610190565b15611fcd575b60009060015b60008080526020526000805160206124c783398151915254811161188557600080805260205261178461177f8260016000805160206124c7833981519152611397565b611607565b60a081019083825161179581610190565b8751906117a182610190565b6117aa82610190565b6117b381610190565b1492831561185c575b5050816117ed575b506117d8575b6117d390610bad565b61173c565b916117e56117d391610bad565b9290506117ca565b90506118036117ff6040870151151590565b1590565b908115611812575b50386117c4565b602086015190915061184a9061183e906080906001600160a01b03165b9301516001600160a01b031690565b6001600160a01b031690565b6001600160a01b03909116143861180b565b909192505161186a81610190565b61187382610190565b61187c81610190565b149083386117bc565b5060015b600160009081526020527fada5013122d395ba3c54772283fb069b10426056ef8ca54750cb9bb552a59e7d5481116119bf576118d961177f82600161139760016000526000602052604060002090565b60a08101908382516118ea81610190565b8751906118f682610190565b6118ff82610190565b61190881610190565b14928315611996575b505081611942575b5061192d575b61192890610bad565b611889565b9161193a61192891610bad565b92905061191f565b90506119546117ff6040870151151590565b908115611963575b5038611919565b60208601519091506119849061183e906080906001600160a01b031661182f565b6001600160a01b03909116143861195c565b90919250516119a481610190565b6119ad82610190565b6119b681610190565b14908338611911565b509190916119cc83610c29565b6119d584610c29565b906119df85610c29565b926119e986610c29565b94611a166119f688610c29565b97611a00816116a5565b61016052611a0d816116a5565b610100526116a5565b60a052600060805260015b60008080526020526000805160206124c7833981519152548111611cf7576000808052602052611a6461177f8260016000805160206124c7833981519152611397565b6101405260a06101405101838151611a7b81610190565b845190611a8782610190565b611a9082610190565b611a9981610190565b14918215611cd0575b505080611c80575b611abd575b611ab890610bad565b611a21565b97949196939095926020610140510151611ad9608051836116ef565b5288611ae7608051846116ef565b526040610140510151611afc608051856116ef565b526000611b0b608051866116ef565b52611b3160c0610140510151611b20816101bc565b611b2c608051886116ef565b610c67565b611b4260e061014051015151610c29565b611b51608051610160516116ef565b52611b61608051610160516116ef565b50610100610140510160e052611b7a60e0515151610c29565b611b89608051610100516116ef565b52611b99608051610100516116ef565b50610120610140510161018052611bb4610180515151610c29565b611bc260805160a0516116ef565b52611bd160805160a0516116ef565b5060005b60e06101405101518051821015611c5d5790611bf481611c58936116ef565b51611c0e82611c08608051610160516116ef565b516116ef565b52611c1c8160e051516116ef565b51611c3082611c08608051610100516116ef565b52611c3f8161018051516116ef565b51611c5282611c0860805160a0516116ef565b52610bad565b611bd5565b50509295909396919497611ab890611c76608051610bad565b6080529050611aaf565b50611c916117ff6040840151151590565b80611aaa575060208201516001600160a01b03166101405160800151611cbf906001600160a01b031661183e565b6001600160a01b0390911614611aaa565b90915051611cdd81610190565b611ce682610190565b611cef81610190565b148338611aa2565b5060015b600160009081526020527fada5013122d395ba3c54772283fb069b10426056ef8ca54750cb9bb552a59e7d548111611fb257611d4b61177f82600161139760016000526000602052604060002090565b6101205260a06101205101838151611d6281610190565b845190611d6e82610190565b611d7782610190565b611d8081610190565b14918215611f8b575b505080611f3b575b611da4575b611d9f90610bad565b611cfb565b97949196939095926020610120510151611dc0608051836116ef565b5288611dce608051846116ef565b526040610120510151611de3608051856116ef565b52611df9611df3608051866116ef565b60019052565b611e0d60c0610120510151611b20816101bc565b611e1e60e061012051015151610c29565b611e2d608051610160516116ef565b52611e3d608051610160516116ef565b50610100610120510160c052611e5660c0515151610c29565b611e65608051610100516116ef565b52611e75608051610100516116ef565b506101208051016101a052611e8e6101a0515151610c29565b611e9c60805160a0516116ef565b52611eab60805160a0516116ef565b5060005b60e06101205101518051821015611f185790611ece81611f13936116ef565b51611ee282611c08608051610160516116ef565b52611ef08160c051516116ef565b51611f0482611c08608051610100516116ef565b52611c3f816101a051516116ef565b611eaf565b50509295909396919497611d9f90611f31608051610bad565b6080529050611d96565b50611f4c6117ff6040840151151590565b80611d91575060208201516001600160a01b03166101205160800151611f7a906001600160a01b031661183e565b6001600160a01b0390911614611d91565b90915051611f9881610190565b611fa182610190565b611faa81610190565b148338611d89565b50505094909391939291906101605190610100519060a05190565b506001611736565b805460011015611ff1575b600052600360206000200190600090565b611ff9610e6a565b611fe0565b805482101561201b575b6000526003602060002091020190600090565b612023610e6a565b612008565b91604090600292612049575b80518455602081015160018501550151910155565b612051610c70565b612034565b906120796101a292805490600160401b82101561207f575b600182018155611ffe565b90612028565b612087610601565b61206e565b6001018054156120995750565b6040516101a2916120a982610642565b600082526000602083015260006040830152612056565b604051906120cd82610642565b60006040838281528260208201520152565b906102bc92936120ed6120c0565b50600183019081541561214d575b6121058454610bad565b845560405195869361211685610642565b84526020840152604083015261212c8282612056565b5460018110612140575b60001901916122b4565b612148610b96565b612136565b6121568461208c565b6120fb565b6102bc916121676120c0565b5060005260028101602052604060002054906121ef565b9060405161218b81610642565b60406002829480548452600181015460208501520154910152565b805480156121e2575b6000190190600060026121c28484611ffe565b6121d5575b828155826001820155015555565b6121dd610c70565b6121c7565b6121ea611301565b6121af565b906121f86120c0565b506001820190808254118015906122ac575b6122885761221b6109d88284611ffe565b92835160005260028101602052600060408120556122456109d861223f85546112d4565b85611ffe565b61224e846121a6565b8354831061225e575b5050505090565b6109d88361227f956122748261227995876122b4565b611ffe565b90612369565b38808080612257565b50505060405161229781610642565b60008152600060208201526000604082015290565b50801561220a565b919060019283831480156122f7575b156122d2576101a293506124a2565b6122f2836122ec6109d887966101a2981c80978601611ffe565b836124a2565b6122b4565b5060208201805185830185871c91876123108484611ffe565b50015413928315612324575b5050506122c3565b9091925051866123348484611ffe565b500154149182612349575b505038808061231c565b600291925061235d90604086015193611ffe565b5001541115388061233f565b91906001830192835461237b84610cdd565b9485821161238f5750506101a293506124a2565b61239c6109d88783611ffe565b916123a6876112f1565b108061242f575b612410575b50602081015160208401518082129182156123ee575b5050156123da57506101a293506124a2565b6101a294936123e991836124a2565b612369565b149050806123fe575b38806123c8565b506040810151604084015111156123f7565b9461242991506124226109d891610bad565b8096611ffe565b386123b2565b50600161244461243e886112f1565b83611ffe565b500154602083019081511290811561245d575b506123ad565b9050600161247361246d896112f1565b84611ffe565b50015490511480612485575b38612457565b50600261249461243e886112f1565b50015460408301511161247f565b6002916124b6816120798660018601611ffe565b516000520160205260406000205556fead3228b676f7d3cd4284a5443f17f1962b36e491b30a40b2405849e597ba5fb5a26469706673582212203929cb69a2012166ca6c86c7189c3778ff18f8b075c6d514e71ab72cb804650d64736f6c634300080d0033",
  "immutableReferences": {
    "11355": [
      {
        "length": 32,
        "start": 312
      },
      {
        "length": 32,
        "start": 889
      },
      {
        "length": 32,
        "start": 1137
      },
      {
        "length": 32,
        "start": 2308
      },
      {
        "length": 32,
        "start": 4244
      }
    ]
  },
  "source": "// SPDX-License-Identifier: UNLICENSED\npragma solidity ^0.8.0;\nimport \"./OrderLibrary.sol\";\n\nimport \"hardhat/console.sol\";\n\ninterface IOrderBookData {\n    event OrderAddedEvent(\n        uint256 orderId,\n        uint256 amount,\n        int256 price,\n        address userAddress,\n        OrderLibrary.OrderType orderType,\n        OrderLibrary.OrderNature orderNature\n    );\n\n    event OrderUpdatedEvent(\n        uint256 orderId,\n        uint256 remainingAmount,\n        OrderLibrary.OrderStatus status,\n        int256 price,\n        uint256 amount,\n        uint256 timestamp\n    );\n\n    event OrderStatusUpdatedEvent(\n        uint256 orderId,\n        OrderLibrary.OrderStatus status\n    );\n\n    event OrderRemovedEvent(\n        uint256 orderId,\n        OrderLibrary.OrderType orderType,\n        OrderLibrary.OrderNature orderNature\n    );\n\n    function initializeOrderBooks() external;\n\n    function addOrder(\n        uint256 _amount,\n        int256 _price,\n        address _userAddress,\n        OrderLibrary.OrderType _orderType,\n        OrderLibrary.OrderNature _orderNature\n    ) external returns (uint256);\n\n    function removeOrder(\n        OrderLibrary.OrderType _orderType,\n        OrderLibrary.OrderNature _orderNature,\n        uint256 _orderId\n    ) external returns (bool);\n\n    function getBestOrderFromHeap(\n        OrderLibrary.OrderType _orderType\n    ) external view returns (uint256);\n\n    function getOrderFromId(\n        OrderLibrary.OrderType _orderType,\n        uint256 _orderId\n    ) external view returns (OrderLibrary.Order memory);\n\n    function getTotalOrderCount(\n        OrderLibrary.OrderType _orderType\n    ) external view returns (uint256);\n\n    function updateOrder(\n        OrderLibrary.OrderType _orderType,\n        uint256 _orderId,\n        uint256 _remainingAmount,\n        OrderLibrary.OrderStatus _status,\n        OrderLibrary.Fills memory _orderReceipts\n    ) external;\n\n    function getAllPendingMarketOrders(\n        OrderLibrary.OrderType _orderType\n    ) external view returns (uint256[] memory);\n\n    function getAllOrdersWithFilters(\n        OrderLibrary.AllOrdersQueryParams memory params\n    )\n        external\n        view\n        returns (\n            uint256[] memory amount,\n            int256[] memory price,\n            uint256[] memory orderIds,\n            OrderLibrary.OrderType[] memory orderType,\n            OrderLibrary.OrderNature[] memory nature,\n            int256[][] memory fillsPrice,\n            uint256[][] memory fillsAmount,\n            uint256[][] memory fillsTimestamp\n        );\n}\n\ncontract OrderBookData is IOrderBookData {\n    address public immutable orderBookManager;\n\n    struct OrderBook {\n        uint256 totalOrders;\n        mapping(uint256 => OrderLibrary.Order) orders;\n        uint256 activeCount;\n        Data heap;\n        uint256[] marketOrderIds;\n    }\n\n    mapping(OrderLibrary.OrderType => OrderBook) internal orderBooks;\n\n    modifier onlyManager() {\n        require(\n            msg.sender == orderBookManager,\n            \"Caller is not the order book manager\"\n        );\n        _;\n    }\n\n    constructor(address _orderBookManager) {\n        orderBookManager = _orderBookManager;\n        initializeOrderBooks();\n    }\n\n    function initializeOrderBooks() public override onlyManager {\n        initOrderBook(OrderLibrary.OrderType.Buy);\n        initOrderBook(OrderLibrary.OrderType.Sell);\n    }\n\n    // Initialize the heap for a specific order book\n    function initOrderBook(OrderLibrary.OrderType _orderType) private {\n        heapInit(orderBooks[_orderType].heap);\n        orderBooks[_orderType].totalOrders = 0;\n        orderBooks[_orderType].activeCount = 0;\n    }\n\n    // Adds a new order to the order book\n    // NOTE: Use negative values of price to emulate a min-heap (for buy orderbook)\n    function addOrder(\n        uint256 _amount,\n        int256 _price,\n        address _userAddress,\n        OrderLibrary.OrderType _orderType,\n        OrderLibrary.OrderNature _orderNature\n    ) public override onlyManager returns (uint256 orderId) {\n        OrderBook storage book = orderBooks[_orderType];\n        book.totalOrders++;\n        orderId = book.totalOrders;\n\n        book.orders[orderId] = OrderLibrary.Order({\n            totalAmount: _amount,\n            remainingAmount: _amount,\n            price: _price,\n            timestamp: block.timestamp,\n            userAddress: _userAddress,\n            status: OrderLibrary.OrderStatus.Active,\n            nature: _orderNature,\n            fillsPrice: new int256[](0),\n            fillsAmount: new uint256[](0),\n            fillsTimestamp: new uint256[](0)\n        });\n        book.activeCount++;\n\n        // insert only limit orders into the heap\n        if (_orderNature == OrderLibrary.OrderNature.Limit) {\n            // To emulate a min-heap for sell orders to always get the cheapest sell order as the root\n            int256 price = _orderType == OrderLibrary.OrderType.Sell\n                ? -_price\n                : int256(_price);\n            insertHeap(\n                book.heap,\n                orderId,\n                price,\n                book.orders[orderId].timestamp\n            );\n            console.log(\"Order added to heap: %d\", orderId);\n        } else {\n            book.marketOrderIds.push(orderId);\n            console.log(\"Order added to market orders: %d\", orderId);\n        }\n\n        emit OrderAddedEvent(\n            orderId,\n            _amount,\n            _price,\n            _userAddress,\n            _orderType,\n            _orderNature\n        );\n\n        return orderId;\n    }\n\n    function updateOrder(\n        OrderLibrary.OrderType _orderType,\n        uint256 _orderId,\n        uint256 _remainingAmount,\n        OrderLibrary.OrderStatus _status,\n        OrderLibrary.Fills memory _orderReceipt\n    ) external override onlyManager {\n        OrderLibrary.Order storage order = orderBooks[_orderType].orders[\n            _orderId\n        ];\n        order.remainingAmount = _remainingAmount;\n        order.status = _status;\n        order.fillsPrice.push(_orderReceipt.price);\n        order.fillsAmount.push(_orderReceipt.amount);\n        order.fillsTimestamp.push(_orderReceipt.timestamp);\n\n        emit OrderUpdatedEvent(\n            _orderId,\n            _remainingAmount,\n            _status,\n            _orderReceipt.price,\n            _orderReceipt.amount,\n            _orderReceipt.timestamp\n        );\n    }\n\n    // Update Order Status (used for cancelling an order as this is just a status change)\n    function updateOrderStatus(\n        OrderLibrary.OrderType _orderType,\n        uint256 _orderId,\n        OrderLibrary.OrderStatus _newOrderStatus\n    ) public {\n        OrderLibrary.Order storage order = orderBooks[_orderType].orders[\n            _orderId\n        ];\n        require(\n            _newOrderStatus != order.status,\n            \"Order is already in this status \"\n        );\n        order.status = _newOrderStatus;\n\n        emit OrderStatusUpdatedEvent(_orderId, _newOrderStatus);\n    }\n\n    // Remove order\n    function removeOrder(\n        OrderLibrary.OrderType _orderType,\n        OrderLibrary.OrderNature _orderNature,\n        uint256 _orderId\n    ) external override onlyManager returns (bool) {\n        // Check if order exists\n        require(\n            orderBooks[_orderType].orders[_orderId].status ==\n                OrderLibrary.OrderStatus.Active ||\n                orderBooks[_orderType].orders[_orderId].status ==\n                OrderLibrary.OrderStatus.PartiallyFilled,\n            \"Order is not Active\"\n        );\n\n        if (_orderNature == OrderLibrary.OrderNature.Limit) {\n            // Get Node from heap\n            Node memory deletedNode = extractById(\n                orderBooks[_orderType].heap,\n                _orderId\n            );\n\n            if (deletedNode.id != _orderId) {\n                return false; // Order not in heap\n            }\n        } else {\n            require(\n                orderBooks[_orderType].marketOrderIds.length > 0,\n                \"Array is empty\"\n            );\n            uint idx;\n            for (\n                uint i = 0;\n                i < orderBooks[_orderType].marketOrderIds.length;\n                i++\n            ) {\n                if (orderBooks[_orderType].marketOrderIds[i] == _orderId) {\n                    idx = i;\n                    break;\n                }\n            }\n            for (\n                uint i = idx;\n                i < orderBooks[_orderType].marketOrderIds.length - 1;\n                i++\n            ) {\n                orderBooks[_orderType].marketOrderIds[i] = orderBooks[\n                    _orderType\n                ].marketOrderIds[i + 1];\n            }\n\n            orderBooks[_orderType].marketOrderIds.pop();\n        }\n\n        // Cancel order and reduce active order count\n        updateOrderStatus(\n            _orderType,\n            _orderId,\n            OrderLibrary.OrderStatus.Cancelled\n        );\n        orderBooks[_orderType].activeCount--;\n\n        emit OrderRemovedEvent(_orderId, _orderType, _orderNature);\n\n        return true; // Order removed successfully\n    }\n\n    // Retrieve the best order from the heap (top of the heap, based on price)\n    function getBestOrderFromHeap(\n        OrderLibrary.OrderType _orderType\n    ) external view returns (uint256) {\n        Node memory rootNode = getMax(orderBooks[_orderType].heap); // Get the top node\n        return uint256(rootNode.id);\n    }\n\n    function getAllPendingMarketOrders(\n        OrderLibrary.OrderType _orderType\n    ) external view returns (uint256[] memory) {\n        return orderBooks[_orderType].marketOrderIds;\n    }\n\n    function getOrderFromId(\n        OrderLibrary.OrderType _orderType,\n        uint256 _orderId\n    ) external view returns (OrderLibrary.Order memory) {\n        OrderBook storage book = orderBooks[_orderType];\n        return book.orders[_orderId];\n    }\n\n    function getTotalOrderCount(\n        OrderLibrary.OrderType _orderType\n    ) external view returns (uint256) {\n        return orderBooks[_orderType].totalOrders;\n    }\n\n    function getAllOrdersWithFilters(\n        OrderLibrary.AllOrdersQueryParams memory params\n    )\n        external\n        view\n        returns (\n            uint256[] memory amount,\n            int256[] memory price,\n            uint256[] memory orderIds,\n            OrderLibrary.OrderType[] memory orderType,\n            OrderLibrary.OrderNature[] memory nature,\n            int256[][] memory fillsPrice,\n            uint256[][] memory fillsAmount,\n            uint256[][] memory fillsTimestamp\n        )\n    {\n        OrderLibrary.OrderStatus status2 = params.status;\n        if (params.status == OrderLibrary.OrderStatus.Active) {\n            status2 = OrderLibrary.OrderStatus.PartiallyFilled;\n        }\n\n        uint256 matchingOrders = 0;\n        for (\n            uint256 i = 1;\n            i <= orderBooks[OrderLibrary.OrderType.Buy].totalOrders;\n            i++\n        ) {\n            OrderLibrary.Order memory order = orderBooks[\n                OrderLibrary.OrderType.Buy\n            ].orders[i];\n            if (\n                (order.status == params.status || order.status == status2) &&\n                (!params.filterByUser ||\n                    params.userAddress == order.userAddress)\n            ) {\n                matchingOrders++;\n            }\n        }\n        for (\n            uint256 i = 1;\n            i <= orderBooks[OrderLibrary.OrderType.Sell].totalOrders;\n            i++\n        ) {\n            OrderLibrary.Order memory order = orderBooks[\n                OrderLibrary.OrderType.Sell\n            ].orders[i];\n            if (\n                (order.status == params.status || order.status == status2) &&\n                (!params.filterByUser ||\n                    params.userAddress == order.userAddress)\n            ) {\n                matchingOrders++;\n            }\n        }\n\n        amount = new uint256[](matchingOrders);\n        orderIds = new uint256[](matchingOrders);\n        price = new int256[](matchingOrders);\n        orderType = new OrderLibrary.OrderType[](matchingOrders);\n        nature = new OrderLibrary.OrderNature[](matchingOrders);\n        fillsPrice = new int256[][](matchingOrders);\n        fillsAmount = new uint256[][](matchingOrders);\n        fillsTimestamp = new uint256[][](matchingOrders);\n\n        uint256 currentIndex = 0;\n\n        // Process buy orders\n        for (\n            uint256 i = 1;\n            i <= orderBooks[OrderLibrary.OrderType.Buy].totalOrders;\n            i++\n        ) {\n            OrderLibrary.Order memory order = orderBooks[\n                OrderLibrary.OrderType.Buy\n            ].orders[i];\n            if (\n                (order.status == params.status || order.status == status2) &&\n                (!params.filterByUser ||\n                    params.userAddress == order.userAddress)\n            ) {\n                amount[currentIndex] = order.remainingAmount;\n                orderIds[currentIndex] = i;\n                price[currentIndex] = order.price;\n                orderType[currentIndex] = OrderLibrary.OrderType.Buy;\n                nature[currentIndex] = order.nature;\n\n                fillsPrice[currentIndex] = new int256[](\n                    order.fillsPrice.length\n                );\n                fillsAmount[currentIndex] = new uint256[](\n                    order.fillsAmount.length\n                );\n                fillsTimestamp[currentIndex] = new uint256[](\n                    order.fillsTimestamp.length\n                );\n\n                for (uint256 j = 0; j < order.fillsPrice.length; j++) {\n                    fillsPrice[currentIndex][j] = order.fillsPrice[j];\n                    fillsAmount[currentIndex][j] = order.fillsAmount[j];\n                    fillsTimestamp[currentIndex][j] = order.fillsTimestamp[j];\n                }\n\n                currentIndex++;\n            }\n        }\n\n        // Process sell orders\n        for (\n            uint256 i = 1;\n            i <= orderBooks[OrderLibrary.OrderType.Sell].totalOrders;\n            i++\n        ) {\n            OrderLibrary.Order memory order = orderBooks[\n                OrderLibrary.OrderType.Sell\n            ].orders[i];\n            if (\n                (order.status == params.status || order.status == status2) &&\n                (!params.filterByUser ||\n                    params.userAddress == order.userAddress)\n            ) {\n                amount[currentIndex] = order.remainingAmount;\n                orderIds[currentIndex] = i;\n                price[currentIndex] = order.price;\n                orderType[currentIndex] = OrderLibrary.OrderType.Sell;\n                nature[currentIndex] = order.nature;\n\n                fillsPrice[currentIndex] = new int256[](\n                    order.fillsPrice.length\n                );\n                fillsAmount[currentIndex] = new uint256[](\n                    order.fillsAmount.length\n                );\n                fillsTimestamp[currentIndex] = new uint256[](\n                    order.fillsTimestamp.length\n                );\n\n                for (uint256 j = 0; j < order.fillsPrice.length; j++) {\n                    fillsPrice[currentIndex][j] = order.fillsPrice[j];\n                    fillsAmount[currentIndex][j] = order.fillsAmount[j];\n                    fillsTimestamp[currentIndex][j] = order.fillsTimestamp[j];\n                }\n\n                currentIndex++;\n            }\n        }\n\n        return (\n            amount,\n            price,\n            orderIds,\n            orderType,\n            nature,\n            fillsPrice,\n            fillsAmount,\n            fillsTimestamp\n        );\n    }\n\n    // Custom Heap Implementation\n    uint constant ROOT_INDEX = 1;\n\n    struct Data {\n        uint256 idCount;\n        Node[] nodes; // root is index 1; index 0 not used\n        mapping(uint256 => uint) indices; // unique id => node index\n    }\n\n    struct Node {\n        uint256 id; // use with another mapping to store arbitrary object types\n        int256 price;\n        uint256 timestamp; //timestamp to decide priority of older unfulfilled orders in the heap\n    }\n\n    // Call init before anything else\n    function heapInit(Data storage data) private {\n        if (data.nodes.length == 0) data.nodes.push(Node(0, 0, 0));\n    }\n\n    function insertHeap(\n        Data storage data,\n        uint256 orderId,\n        int256 price,\n        uint256 timestamp\n    ) private returns (Node memory) {\n        if (data.nodes.length == 0) heapInit(data);\n        data.idCount++;\n        Node memory n = Node(orderId, price, timestamp);\n        data.nodes.push(n);\n        _bubbleUp(data, n, data.nodes.length - 1);\n        return n;\n    }\n\n    function extractMax(Data storage data) private returns (Node memory) {\n        return _extract(data, ROOT_INDEX);\n    }\n\n    function extractById(\n        Data storage data,\n        uint256 id\n    ) private returns (Node memory) {\n        return _extract(data, data.indices[id]);\n    }\n\n    // View functions\n    function dump(Data storage data) private view returns (Node[] memory) {\n        return data.nodes;\n    }\n\n    function getById(\n        Data storage data,\n        uint256 id\n    ) private view returns (Node memory) {\n        return getByIndex(data, data.indices[id]);\n    }\n\n    function getByIndex(\n        Data storage data,\n        uint256 i\n    ) private view returns (Node memory) {\n        return data.nodes.length > i ? data.nodes[i] : Node(0, 0, 0);\n    }\n\n    function getMax(Data storage data) private view returns (Node memory) {\n        return getByIndex(data, ROOT_INDEX);\n    }\n\n    function size(Data storage data) private view returns (uint) {\n        return data.nodes.length > 0 ? data.nodes.length - 1 : 0;\n    }\n\n    function isNode(Node memory n) private pure returns (bool) {\n        return n.id > 0;\n    }\n\n    function _extract(\n        Data storage data,\n        uint256 i\n    ) private returns (Node memory) {\n        if (data.nodes.length <= i || i <= 0) return Node(0, 0, 0);\n\n        Node memory extractedNode = data.nodes[i];\n        delete data.indices[extractedNode.id];\n\n        Node memory tailNode = data.nodes[data.nodes.length - 1];\n        data.nodes.pop(); // Replaces `data.nodes.length--`\n\n        if (i < data.nodes.length) {\n            // if extracted node was not tail\n            _bubbleUp(data, tailNode, i);\n            _bubbleDown(data, data.nodes[i], i); // then try bubbling down\n        }\n        return extractedNode;\n    }\n\n    function _bubbleUp(Data storage data, Node memory n, uint i) private {\n        if (\n            i == ROOT_INDEX ||\n            (n.price < data.nodes[i / 2].price ||\n                (n.price == data.nodes[i / 2].price &&\n                    n.timestamp >= data.nodes[i / 2].timestamp))\n        ) {\n            _insertHeap(data, n, i);\n        } else {\n            _insertHeap(data, data.nodes[i / 2], i);\n            _bubbleUp(data, n, i / 2);\n        }\n    }\n\n    function _bubbleDown(Data storage data, Node memory n, uint i) private {\n        uint length = data.nodes.length;\n        uint cIndex = i * 2; // left child index\n\n        if (length <= cIndex) {\n            _insertHeap(data, n, i);\n        } else {\n            Node memory highestPriorityChild = data.nodes[cIndex];\n\n            if (\n                length > cIndex + 1 &&\n                (data.nodes[cIndex + 1].price > highestPriorityChild.price ||\n                    (data.nodes[cIndex + 1].price ==\n                        highestPriorityChild.price &&\n                        data.nodes[cIndex + 1].timestamp <\n                        highestPriorityChild.timestamp))\n            ) {\n                highestPriorityChild = data.nodes[++cIndex];\n            }\n\n            if (\n                highestPriorityChild.price < n.price ||\n                (highestPriorityChild.price == n.price &&\n                    highestPriorityChild.timestamp >= n.timestamp)\n            ) {\n                _insertHeap(data, n, i);\n            } else {\n                _insertHeap(data, highestPriorityChild, i);\n                _bubbleDown(data, n, cIndex);\n            }\n        }\n    }\n\n    function _insertHeap(Data storage data, Node memory n, uint i) private {\n        data.nodes[i] = n;\n        data.indices[n.id] = i;\n    }\n}\n",
  "sourcePath": "C:\\Users\\kaise\\OneDrive\\Desktop\\Codebase\\NTU\\sc4053-blockchain-technology\\contracts\\OrderBookData.sol",
  "compiler": {
    "name": "solc",
    "version": "0.8.13+commit.abaa5c0e.Emscripten.clang"
  },
  "schemaVersion": "3.4.16",
  "updatedAt": "2024-11-09T05:40:47.451Z",
  "devdoc": {
    "kind": "dev",
    "methods": {},
    "version": 1
  },
  "userdoc": {
    "kind": "user",
    "methods": {},
    "version": 1
  }
}