{
  "contractName": "OrderBookManager",
  "abi": [
    {
      "anonymous": false,
      "inputs": [
        {
          "indexed": true,
          "internalType": "bytes32",
          "name": "marketId",
          "type": "bytes32"
        },
        {
          "indexed": false,
          "internalType": "address",
          "name": "orderBookAddress",
          "type": "address"
        }
      ],
      "name": "OrderBookCreated",
      "type": "event"
    },
    {
      "inputs": [
        {
          "internalType": "bytes32",
          "name": "",
          "type": "bytes32"
        }
      ],
      "name": "marketOrderBooks",
      "outputs": [
        {
          "internalType": "contract IOrderBookData",
          "name": "",
          "type": "address"
        }
      ],
      "stateMutability": "view",
      "type": "function",
      "constant": true
    },
    {
      "inputs": [
        {
          "internalType": "bytes32",
          "name": "marketId",
          "type": "bytes32"
        }
      ],
      "name": "orderBookExists",
      "outputs": [
        {
          "internalType": "bool",
          "name": "",
          "type": "bool"
        }
      ],
      "stateMutability": "view",
      "type": "function",
      "constant": true
    },
    {
      "inputs": [
        {
          "internalType": "bytes32",
          "name": "_marketId",
          "type": "bytes32"
        }
      ],
      "name": "createMarketOrderBook",
      "outputs": [],
      "stateMutability": "nonpayable",
      "type": "function"
    },
    {
      "inputs": [
        {
          "internalType": "bytes32",
          "name": "_marketId",
          "type": "bytes32"
        },
        {
          "internalType": "uint256",
          "name": "_amount",
          "type": "uint256"
        },
        {
          "internalType": "uint256",
          "name": "_price",
          "type": "uint256"
        },
        {
          "internalType": "address",
          "name": "_userAddress",
          "type": "address"
        },
        {
          "internalType": "enum OrderLibrary.OrderType",
          "name": "_orderType",
          "type": "uint8"
        },
        {
          "internalType": "enum OrderLibrary.OrderNature",
          "name": "_orderNature",
          "type": "uint8"
        }
      ],
      "name": "createOrder",
      "outputs": [
        {
          "internalType": "uint256",
          "name": "_orderId",
          "type": "uint256"
        }
      ],
      "stateMutability": "nonpayable",
      "type": "function"
    },
    {
      "inputs": [
        {
          "internalType": "bytes32",
          "name": "_marketId",
          "type": "bytes32"
        },
        {
          "internalType": "uint256",
          "name": "_orderId",
          "type": "uint256"
        },
        {
          "internalType": "enum OrderLibrary.OrderType",
          "name": "_orderType",
          "type": "uint8"
        }
      ],
      "name": "cancelOrder",
      "outputs": [
        {
          "internalType": "bool",
          "name": "",
          "type": "bool"
        }
      ],
      "stateMutability": "nonpayable",
      "type": "function"
    },
    {
      "inputs": [
        {
          "internalType": "bytes32",
          "name": "_marketId",
          "type": "bytes32"
        },
        {
          "internalType": "uint256",
          "name": "_pendingOrderId",
          "type": "uint256"
        },
        {
          "internalType": "enum OrderLibrary.OrderType",
          "name": "_orderType",
          "type": "uint8"
        },
        {
          "internalType": "enum OrderLibrary.OrderNature",
          "name": "_orderNature",
          "type": "uint8"
        }
      ],
      "name": "matchOrder",
      "outputs": [
        {
          "internalType": "uint256",
          "name": "",
          "type": "uint256"
        },
        {
          "internalType": "address[]",
          "name": "toBePaid",
          "type": "address[]"
        },
        {
          "internalType": "address[]",
          "name": "toReceive",
          "type": "address[]"
        },
        {
          "internalType": "uint256[]",
          "name": "tokenAmount",
          "type": "uint256[]"
        },
        {
          "internalType": "uint256[]",
          "name": "currencyAmount",
          "type": "uint256[]"
        }
      ],
      "stateMutability": "nonpayable",
      "type": "function"
    },
    {
      "inputs": [
        {
          "internalType": "bytes32",
          "name": "_marketId",
          "type": "bytes32"
        },
        {
          "components": [
            {
              "internalType": "enum OrderLibrary.OrderStatus",
              "name": "status",
              "type": "uint8"
            },
            {
              "internalType": "address",
              "name": "userAddress",
              "type": "address"
            },
            {
              "internalType": "bool",
              "name": "filterByUser",
              "type": "bool"
            }
          ],
          "internalType": "struct OrderLibrary.AllOrdersQueryParams",
          "name": "params",
          "type": "tuple"
        }
      ],
      "name": "getAllOrdersForAMarket",
      "outputs": [
        {
          "internalType": "uint256[]",
          "name": "amount",
          "type": "uint256[]"
        },
        {
          "internalType": "uint256[]",
          "name": "price",
          "type": "uint256[]"
        },
        {
          "internalType": "enum OrderLibrary.OrderType[]",
          "name": "orderType",
          "type": "uint8[]"
        },
        {
          "internalType": "enum OrderLibrary.OrderNature[]",
          "name": "nature",
          "type": "uint8[]"
        },
        {
          "internalType": "uint256[][]",
          "name": "fillsPrice",
          "type": "uint256[][]"
        },
        {
          "internalType": "uint256[][]",
          "name": "fillsAmount",
          "type": "uint256[][]"
        },
        {
          "internalType": "uint256[][]",
          "name": "fillsTimestamp",
          "type": "uint256[][]"
        }
      ],
      "stateMutability": "view",
      "type": "function",
      "constant": true
    }
  ],
  "bytecode": "0x608080604052346100165761383c908161001c8239f35b600080fdfe6080604052600436101562000014575b600080fd5b60003560e01c8063353a69fa14620000b3578063428842c314620000a85780636baf21b5146200009d5780637aea80c11462000092578063aeeb6f1f1462000087578063bf707a8f146200007c5763eea862a9146200007257600080fd5b6200000f62000f30565b506200000f62000e08565b506200000f62000dcc565b506200000f62000ce2565b506200000f62000c37565b506200000f6200096a565b346200000f5760803660031901126200000f57620000d360443562000890565b620000e060643562000890565b620001186200010c620000ff6004356000526000602052604060002090565b546001600160a01b031690565b6001600160a01b031690565b604051631e3cc60160e01b8152600081806200013d602435604435600484016200112a565b0381855afa90811562000880575b60009162000861575b506200016260443562000a81565b60443562000858576001905b6000916020820151805b620006de575b506200018a8362001359565b91620001968462001359565b94620001a28562001359565b91620001ae8662001359565b60208201519060005b82151580620006d4575b15620006c157604051635ca065bf60e11b81529260208480620001e88b60048301620012f4565b0381895afa938415620006b1575b60009462000679575b5083156200066557604051631e3cc60160e01b8152906000828062000229888d600484016200112a565b03818a5afa91821562000655575b6000926200062b575b506200024e60643562000a81565b60643515606435620005f1575b15620005d05790886200031d8785948f96620002f98f918e8160208a0151808710600014620005c55750859b8c9788965b6200029960443562000a81565b8c60443562000598576080620002d693620002e58794620002d6620002f399620002cf86620002cf98015160018060a01b031690565b9262001391565b6001600160a01b039091169052565b01516001600160a01b031690565b62001391565b526200030a604086015183620013bc565b62000316878a62001391565b526200133f565b95866200032f8660208601516200133f565b936040808201519162000341620009ff565b92835288602084015242828401520151966200035c620009ff565b978852602088015242604088015284159081156200058e578b6002955b846200058457856002945b6200050d575b505050821562000485575b8b3b156200000f578b60009283620003cb9560405196879586948593630c12ba4360e41b85526024356044356004870162001402565b03925af1801562000475575b6200045e575b50883b156200000f578a6200040f6200042a966000946040519687958695630c12ba4360e41b87526004870162001402565b0381838b5af180156200044e575b62000430575b5062001320565b620001b7565b80620004406200044792620009b8565b80620013de565b8b62000423565b62000458620010a8565b6200041d565b80620004406200046e92620009b8565b8e620003dd565b6200047f620010a8565b620003d7565b6040516331a9ad7b60e21b81526020818e81600081620004ae602435604435600484016200112a565b03925af18015620004fd575b620004c7575b5062000395565b620004ed9060203d602011620004f5575b620004e48183620009dc565b81019062001112565b5038620004c0565b503d620004d8565b62000507620010a8565b620004ba565b620005349260209260006040518096819582946331a9ad7b60e21b8452600484016200112a565b03925af1801562000574575b62000550575b508b8e856200038a565b6200056c9060203d602011620004f557620004e48183620009dc565b503862000546565b6200057e620010a8565b62000540565b8560019462000384565b8b60019562000379565b6080620002cf91620002e58794620002d6620002f399620002cf86620002d69a015160018060a01b031690565b9b8c9788966200028c565b995050509450505050620005ed92945b6040519586958662000910565b0390f35b50620005ff60443562000a81565b60443562000619576040860151604083015111156200025b565b6040860151604083015110156200025b565b6200064d9192503d806000833e620006448183620009dc565b810190620011fe565b908c62000240565b6200065f620010a8565b62000237565b9850509450505050620005ed9294620005e0565b620006a191945060203d602011620006a9575b620006988183620009dc565b81019062001102565b928b620001ff565b503d6200068c565b620006bb620010a8565b620001f6565b50945095505050620005ed9294620005e0565b50888110620001c1565b92604051635ca065bf60e11b815260208180620006ff8660048301620012f4565b0381895afa90811562000848575b60009162000824575b508015620007b3576000620007419160405180938192631e3cc60160e01b835287600484016200112a565b0381895afa90811562000814575b600091620007f5575b506200076660643562000a81565b60643515606435620007bb575b15620007b35760200151620007a0919080861015620007a7575062000799859162001320565b946200133f565b8062000178565b62000799909162001320565b50926200017e565b50620007c960443562000a81565b604435620007e35760408401516040820151111562000773565b60408401516040820151101562000773565b6200080d91503d806000833e620006448183620009dc565b8662000758565b6200081e620010a8565b6200074f565b62000841915060203d602011620006a957620006988183620009dc565b8662000716565b62000852620010a8565b6200070d565b6000906200016e565b6200087991503d806000833e620006448183620009dc565b8262000154565b6200088a620010a8565b6200014b565b600211156200000f57565b90815180825260208080930193019160005b828110620008bc575050505090565b83516001600160a01b031685529381019392810192600101620008ad565b90815180825260208080930193019160005b828110620008fb575050505090565b835185529381019392810192600101620008ec565b93906200096795936200093a62000958946200094993885260a0602089015260a08801906200089b565b9086820360408801526200089b565b908482036060860152620008da565b916080818403910152620008da565b90565b50346200000f5760203660031901126200000f576004356000526000602052602060018060a01b0360406000205416604051908152f35b50634e487b7160e01b600052604160045260246000fd5b67ffffffffffffffff8111620009cd57604052565b620009d7620009a1565b604052565b90601f8019910116810190811067ffffffffffffffff821117620009cd57604052565b604051906060820182811067ffffffffffffffff821117620009cd57604052565b60405190610140820182811067ffffffffffffffff821117620009cd57604052565b600411156200000f57565b6001600160a01b038116036200000f57565b801515036200000f57565b50634e487b7160e01b600052602160045260246000fd5b6002111562000a8c57565b62000a9662000a6a565b565b90815180825260208080930193019160005b82811062000ab9575050505090565b909192938280600192875162000acf8162000a81565b81520195019392910162000aaa565b908082519081815260208091019281808460051b830101950193600080925b85841062000b0f575050505050505090565b9091929380959697601f1983820301855288519082808351928381520192019085905b80821062000b5457505050908060019299019401940192959493919062000afd565b919380600192948651815201940192018893929162000b32565b9593919062000b8f62000b9f91999896949960e0895260e0890190620008da565b602092888203848a0152620008da565b868103604088015281808a51928381520199019160005b82811062000c12575050505062000c03929162000be58862000bf49388620009679a9b0360608a015262000a98565b90868203608088015262000ade565b9084820360a086015262000ade565b9160c081840391015262000ade565b9091929982806001928d5162000c288162000a81565b8152019b019392910162000bb6565b50346200000f5760803660031901126200000f5760603660231901126200000f57620005ed62000cbe6040516060810181811067ffffffffffffffff82111762000cd2575b60405260243562000c8d8162000a42565b815260443562000c9d8162000a4d565b602082015260643562000cb08162000a5f565b60408201526004356200154e565b936040979597939193519788978862000b6e565b62000cdc620009a1565b62000c7c565b50346200000f5760603660031901126200000f57620005ed6000602062000d7060443560043562000d138262000890565b60008181526020819052604090205462000d38906001600160a01b03161515620010b5565b845283835260408085205490516331a9ad7b60e21b81529485936001600160a01b03909216928492839160243590600484016200112a565b03925af190811562000dbc575b60009162000d99575b5060405190151581529081906020820190565b62000db5915060203d8111620004f557620004e48183620009dc565b3862000d86565b62000dc6620010a8565b62000d7d565b50346200000f5760203660031901126200000f57600435600090815260208181526040909120546001600160a01b031615156040519015158152f35b50346200000f5760c03660031901126200000f57620005ed606435602060043562000e338362000a4d565b60a46084359362000e448562000890565b81359262000e528462000890565b60008181526020819052604090205462000e77906001600160a01b03161515620010b5565b60005260008452600060018060a01b03938460408320541690604051978896879563dee846b760e01b87526024356004880152604435602488015216604486015262000ec38162000a81565b606485015262000ed38162000a81565b60848401525af190811562000f20575b60009162000efd575b506040519081529081906020820190565b62000f19915060203d8111620006a957620006988183620009dc565b3862000eec565b62000f2a620010a8565b62000ee3565b50346200000f5760203660031901126200000f576004356000818152602081905260409020547f470d499f20ea64dc25e93fc0cd23b84d14fb6dd5c8b035351600197a867583c89062001036906001600160a01b039062000fa290829062000f9a9082166200010c565b16156200105b565b6040518062000fd561210d8083019083821067ffffffffffffffff8311176200104b575b620016fa843930815260200190565b03906000f080156200103b575b166200101c8162000ffd866000526000602052604060002090565b80546001600160a01b0319166001600160a01b03909216919091179055565b6040516001600160a01b0390911681529081906020820190565b0390a2005b62001045620010a8565b62000fe2565b62001055620009a1565b62000fc6565b156200106357565b60405162461bcd60e51b815260206004820152601960248201527f4f7264657220426f6f6b20616c726561647920657869737473000000000000006044820152606490fd5b506040513d6000823e3d90fd5b15620010bd57565b60405162461bcd60e51b815260206004820152601960248201527f4f7264657220426f6f6b20646f6573206e6f74206578697374000000000000006044820152606490fd5b908160209103126200000f575190565b908160209103126200000f5751620009678162000a5f565b6040810193929160209190620011408162000a81565b81520152565b519062000a968262000a4d565b519062000a968262000a42565b519062000a968262000890565b60209067ffffffffffffffff811162001188575b60051b0190565b62001192620009a1565b62001181565b81601f820112156200000f57805191620011b2836200116d565b92620011c26040519485620009dc565b808452602092838086019260051b8201019283116200000f578301905b828210620011ee575050505090565b81518152908301908301620011df565b6020818303126200000f57805167ffffffffffffffff918282116200000f5701610140818403126200000f576200123462000a20565b9281518452602082015160208501526040820151604085015260608201516060850152620012656080830162001146565b60808501526200127860a0830162001153565b60a08501526200128b60c0830162001160565b60c085015260e08201518381116200000f5781620012ab91840162001198565b60e0850152610100808301518481116200000f5782620012cd91850162001198565b9085015261012092838301519081116200000f57620012ed920162001198565b9082015290565b91906020830192620013068262000a81565b52565b50634e487b7160e01b600052601160045260246000fd5b600190600019811462001331570190565b6200133b62001309565b0190565b8181106200134b570390565b6200135562001309565b0390565b9062001365826200116d565b620013746040519182620009dc565b828152809262001387601f19916200116d565b0190602036910137565b8051821015620013a65760209160051b010190565b634e487b7160e01b600052603260045260246000fd5b8060001904821181151516620013d0570290565b620013da62001309565b0290565b60009103126200000f57565b906004821015620013f85752565b6200130662000a6a565b93620014389060c0946040949897939860e0880199620014228162000a81565b88526020880152848701526060860190620013ea565b80516080850152602081015160a08501520151910152565b81601f820112156200000f578051916200146a836200116d565b926200147a6040519485620009dc565b808452602092838086019260051b8201019283116200000f578301905b828210620014a6575050505090565b8380918351620014b68162000890565b81520191019062001497565b9080601f830112156200000f57815190620014dd826200116d565b92620014ed6040519485620009dc565b828452602092838086019160051b830101928084116200000f57848301915b8483106200151d5750505050505090565b825167ffffffffffffffff81116200000f578691620015428484809489010162001198565b8152019201916200150c565b6040909291926000938491825281602052606460018060a01b0380858520541685519586948593638c57f0e960e01b85526200158f600486018351620013ea565b60208201511660248501520151151560448301525afa928315620016e9575b80918194829483948480948194620015cc575b505096959493929190565b965097505094505050503d8084833e620015e78183620009dc565b81019260e082850312620016ce5781519267ffffffffffffffff93848111620016e557856200161891850162001198565b906020840151858111620016e157866200163491860162001198565b906040850151868111620016dd57876200165091870162001450565b966060860151878111620016d957816200166c91880162001450565b966080870151818111620016d5578262001688918901620014c2565b9660a0810151828111620016d15783620016a4918301620014c2565b9660c0820151928311620016ce5750620016c0929101620014c2565b9196959493923880620015c1565b80fd5b8780fd5b8680fd5b8580fd5b8480fd5b8380fd5b8280fd5b620016f3620010a8565b620015ae56fe60a060405234620000d8576200210d60208138039182620000208162000123565b938492833981010312620000d857516001600160a01b03811690818103620000d857608052330362000087576200005662000149565b6200006062000251565b604051611dce90816200033f82396080518181816102f70152818161064a01526108230152f35b60405162461bcd60e51b8152602060048201526024808201527f43616c6c6572206973206e6f7420746865206f7264657220626f6f6b206d616e60448201526330b3b2b960e11b6064820152608490fd5b600080fd5b50634e487b7160e01b600052604160045260246000fd5b60408051919082016001600160401b038111838210176200011457604052565b6200011e620000dd565b604052565b6040519190601f01601f191682016001600160401b038111838210176200011457604052565b60008080526020527fad3228b676f7d3cd4284a5443f17f1962b36e491b30a40b2405849e597ba5fb9805491908215620001d3575b50600080805260208190527fad3228b676f7d3cd4284a5443f17f1962b36e491b30a40b2405849e597ba5fb58190557fad3228b676f7d3cd4284a5443f17f1962b36e491b30a40b2405849e597ba5fb7559050565b620001dd620000f4565b9060009384835260208301918583526801000000000000000082101562000241575b600182018082558210156200022d57856020916001959697522090831b01925183555191015580386200017e565b634e487b7160e01b86526032600452602486fd5b6200024b620000dd565b620001ff565b600160009081526020527fada5013122d395ba3c54772283fb069b10426056ef8ca54750cb9bb552a59e81805491908215620002d4575b5090506000620002a360016000526000602052604060002090565b556001600090815260208190527fada5013122d395ba3c54772283fb069b10426056ef8ca54750cb9bb552a59e7f55565b620002de620000f4565b906000938483526020830191858352680100000000000000008210156200032e575b600182018082558210156200022d57856020916001959697522090831b019251835551910155803862000288565b62000338620000dd565b6200030056fe6101c06040818152600436101561001557600080fd5b600090813560e01c9283631e3cc601146100eb5750505080633a226883146100e2578063817aade2146100d95780638c57f0e9146100d05780639861d802146100c7578063b940cb7e146100be578063c12ba430146100b5578063c6a6b5ec146100ac578063dee846b7146100a35763e1d0c89314610096575b3880600080fd5b61009e610938565b61008f565b5061009e6107d1565b5061009e61079b565b5061009e61072f565b5061009e610679565b5061009e610633565b5061009e6105be565b5061009e61037d565b5061009e6102de565b3461018557816003193601126101855781610181936101769260606101206004359261011684610189565b61011f816103d6565b848152846020820152848682015284838201528460808201528460a08201528460c08201528260e082015282610100820152015261015c816101db565b815280602052600182822001602435825260205220610fb7565b905191829182610223565b0390f35b8280fd5b6002111561019357565b600080fd5b50634e487b7160e01b600052602160045260246000fd5b600411156101b957565b6101c1610198565b565b9060048210156101d05752565b6101d8610198565b52565b600211156101b957565b906101d8826101db565b90815180825260208080930193019160005b82811061020f575050505090565b835185529381019392810192600101610201565b906102db91602081528151602082015260208201516040820152604082015160608201526060820151608082015261026a608083015160a083019060018060a01b03169052565b61027c60a083015160c08301906101c3565b61028e60c083015160e08301906101e5565b60e0820151906101406102ae6101009382858501526101608401906101ef565b928401516102cb601f1994610120928686830301848701526101ef565b94015192828503019101526101ef565b90565b50346101935760008060031936011261037a57610325337f00000000000000000000000000000000000000000000000000000000000000006001600160a01b031614610a02565b80805280602052604061033c600382842001611a12565b818052816020528181812055816002828220015560018252610362600382842001611a12565b60018252816020528181812055816002828220015551f35b80fd5b50346101935760203660031901126101935760043561039b81610189565b6103a4816101db565b60005260006020526020600260406000200154604051908152f35b50634e487b7160e01b600052604160045260246000fd5b610140810190811067ffffffffffffffff8211176103f357604052565b6103fb6103bf565b604052565b6060810190811067ffffffffffffffff8211176103f357604052565b6040810190811067ffffffffffffffff8211176103f357604052565b90601f8019910116810190811067ffffffffffffffff8211176103f357604052565b604051906101c1826103d6565b90815180825260208080930193019160005b828110610487575050505090565b909192938280600192875161049b816101db565b815201950193929101610479565b908082519081815260208091019281808460051b8301019501936000915b8483106104d75750505050505090565b90919293949584806104f5600193601f198682030187528a516101ef565b98019301930191949392906104c7565b9593919061052361053291999896949960e0895260e08901906101ef565b602092888203848a01526101ef565b868103604088015281808a51928381520199019160005b82811061059c575050505061058e92916105728861058093886102db9a9b0360608a0152610467565b9086820360808801526104a9565b9084820360a08601526104a9565b9160c08184039101526104a9565b9091929982806001928d516105b0816101db565b8152019b0193929101610549565b5034610193576060366003190112610193576040516105dc81610400565b60043560048110156101935781526024356001600160a01b0381168103610193576020820152604435801515810361019357816106209160406101819401526110c1565b9360409795979391935197889788610505565b5034610193576000366003190112610193576040517f00000000000000000000000000000000000000000000000000000000000000006001600160a01b03168152602090f35b50346101935760203660031901126101935761018160043561069a81610189565b6106a3816101db565b6000908152806020526004604082206106ba611a3f565b506106c3611a3f565b50019060018254116000146106f657506106df6106e591611965565b50611aef565b516040519081529081906020820190565b604080519250820167ffffffffffffffff811183821017610722575b60405280825260208201526106e5565b61072a6103bf565b610712565b50346101935760e03660031901126101935760043561074d81610189565b60643590600482101561019357606036608319011261019357610799916040519161077783610400565b608435835260a435602084015260c43560408401526044359060243590610dd2565b005b50346101935760403660031901126101935760206107c76004356107be81610189565b60243590610eb6565b6040519015158152f35b50346101935760a0366003190112610193576001600160a01b0360443560043560243583831683036101935760209361091a926064359261081184610189565b61084a6084359361082185610189565b7f0000000000000000000000000000000000000000000000000000000000000000163314610a02565b6108ed61085685610a5a565b926108618454610a8a565b97889586865561086f610acd565b6108c761087a610acd565b926108b7610886610acd565b9561088f61045a565b8881526020810198909852604088018a90524260608901526001600160a01b03166080880152565b600060a087015260c08601610b44565b60e084015261010083015261012082015260008581526001850160205260409020610c6c565b600282016108fb8154610a8a565b9055600160009461090b816101db565b14610923575b50600301611a58565b50604051908152f35b600391935061093190610d27565b9290610911565b50346101935760603660031901126101935760043561095681610189565b60443560048110156101935761096b826101db565b600091825281602052600160408320016024358352602052600460408320019060ff825460a01c1660048110156109f5575b81146109b1576109ac91610b64565b604051f35b606460405162461bcd60e51b815260206004820152602060248201527f4f7264657220697320616c726561647920696e207468697320737461747573206044820152fd5b6109fd610198565b61099d565b15610a0957565b60405162461bcd60e51b8152602060048201526024808201527f43616c6c6572206973206e6f7420746865206f7264657220626f6f6b206d616e60448201526330b3b2b960e11b6064820152608490fd5b610a63816101db565b6000526000602052604060002090565b50634e487b7160e01b600052601160045260246000fd5b6001906000198114610a9a570190565b610aa2610a73565b0190565b60209067ffffffffffffffff8111610ac0575b60051b0190565b610ac86103bf565b610ab9565b604051906000602083019280841067ffffffffffffffff851117610af9575b8360405281815292369037565b610b016103bf565b610aec565b90610b1082610aa6565b610b1d6040519182610438565b8281528092610b2e601f1991610aa6565b0190602036910137565b60048210156101d05752565b6101d8826101db565b50634e487b7160e01b600052600060045260246000fd5b906004811015610b89575b815460ff60a01b191660a09190911b60ff60a01b16179055565b610b91610198565b610b6f565b90610ba0816101db565b815460ff60a81b191660a89190911b60ff60a81b16179055565b806000190460021181151516610bd1575b60011b90565b610bd9610a73565b610bcb565b815191600160401b8311610c5f575b8154838355808410610c36575b50610c0f602080920192600052602060002090565b6000925b848410610c21575050505050565b60018382829351855501920193019290610c13565b6000838152846020822092830192015b828110610c54575050610bfa565b818155600101610c46565b610c676103bf565b610bed565b60076101206101c19380518455602081015160018501556040810151600285015560608101516003850155610cfb60048501610cd0610cb4608085015160018060a01b031690565b82546001600160a01b0319166001600160a01b03909116178255565b610ce760a0840151610ce1816101af565b82610b64565b60c083015190610cf6826101db565b610b96565b610d0c60e082015160058601610bde565b610d1e61010082015160068601610bde565b01519101610bde565b600160001960008313600160ff1b8490058212168216610d69575b82828060ff1b030513600083121616610d5c575b60000390565b610d64610a73565b610d56565b610d71610a73565b610d42565b50634e487b7160e01b600052603260045260246000fd5b805490600160401b821015610dc5575b60018201808255821015610db8575b60005260206000200155565b610dc0610d76565b610dac565b610dcd6103bf565b610d9d565b93610e13600793946040936101c197610dea816101db565b600052600060205260018560002001906000526020528360002095600187015560048601610b64565b610e21815160058601610d8d565b610e32602082015160068601610d8d565b01519101610d8d565b610e44816101db565b60005260006020526001604060002001906000526020526004604060002001805460ff8160a01c166004811015610e8e575b6003146109b15760ff60a01b1916600360a01b179055565b610e96610198565b610e76565b8015610ea9575b6000190190565b610eb1610a73565b610ea2565b610ebf816101db565b6000908082528160205260408220918381526001830160205260ff600460408320015460a01c16610eef816101af565b610f2d5783610f018160038601611acc565b5103610f265750600292610f1491610e3b565b01610f1f8154610e9b565b9055600190565b9250505090565b60405162461bcd60e51b81526020600482015260136024820152724f72646572206973206e6f742041637469766560681b6044820152606490fd5b9060405191828154918282526020928383019160005283600020936000905b828210610f9d575050506101c192500383610438565b855484526001958601958895509381019390910190610f87565b9061104d6007610fc561045a565b8454815260018501546020820152600285015460408201526003850154606082015260048501546001600160a01b03811660808301529094906110249060ff90611017828260a01c1660a08a01610b38565b60a81c1660c08701610b44565b61103060058201610f68565b60e086015261104160068201610f68565b61010086015201610f68565b610120830152565b9061105f82610aa6565b61106c6040519182610438565b828152809261107d601f1991610aa6565b019060005b82811061108e57505050565b806060602080938501015201611082565b60209181518110156110b4575b60051b010190565b6110bc610d76565b6110ac565b80516110cc816101af565b81516110d7816101af565b6110e0816101af565b1561195d575b60009060015b6000808052602052600080516020611d7983398151915254811161124157600080805260205261114061113b826001600080516020611d798339815191525b0190600052602052604060002090565b610fb7565b60a0810190838251611151816101af565b87519061115d826101af565b611166826101af565b61116f816101af565b14928315611218575b5050816111a9575b50611194575b61118f90610a8a565b6110ec565b916111a161118f91610a8a565b929050611186565b90506111bf6111bb6040870151151590565b1590565b9081156111ce575b5038611180565b6020860151909150611206906111fa906080906001600160a01b03165b9301516001600160a01b031690565b6001600160a01b031690565b6001600160a01b0390911614386111c7565b9091925051611226816101af565b61122f826101af565b611238816101af565b14908338611178565b5060015b600160009081526020527fada5013122d395ba3c54772283fb069b10426056ef8ca54750cb9bb552a59e7d54811161137b5761129561113b82600161112b60016000526000602052604060002090565b60a08101908382516112a6816101af565b8751906112b2826101af565b6112bb826101af565b6112c4816101af565b14928315611352575b5050816112fe575b506112e9575b6112e490610a8a565b611245565b916112f66112e491610a8a565b9290506112db565b90506113106111bb6040870151151590565b90811561131f575b50386112d5565b6020860151909150611340906111fa906080906001600160a01b03166111eb565b6001600160a01b039091161438611318565b9091925051611360816101af565b611369826101af565b611372816101af565b149083386112cd565b5091909161138883610b06565b61139184610b06565b9161139b85610b06565b936113c76113a887610b06565b966113b281611055565b60e0526113be81611055565b6101a052611055565b60c05260006101005260015b6000808052602052600080516020611d7983398151915254811161169957600080805260205260a061141861113b836001600080516020611d7983398151915261112b565b80825201838151611428816101af565b845190611434826101af565b61143d826101af565b611446816101af565b14918215611672575b505080611623575b61146a575b61146590610a8a565b6113d3565b9592602060a098959298969396510151611487610100518361109f565b52604060a051015161149c610100518461109f565b5260006114ac610100518561109f565b526114d260c060a05101516114c0816101db565b6114cd610100518761109f565b610b44565b6114e260e060a051015151610b06565b6114f16101005160e05161109f565b526115016101005160e05161109f565b5061151861010060a0510180610180525151610b06565b611528610100516101a05161109f565b52611539610100516101a05161109f565b5061155061012060a0510180610160525151610b06565b61155f6101005160c05161109f565b5261156f6101005160c05161109f565b5060005b60e060a051015180518210156115fd5790611591816115f89361109f565b516115ab826115a56101005160e05161109f565b5161109f565b526115ba81610180515161109f565b516115cf826115a5610100516101a05161109f565b526115de81610160515161109f565b516115f2826115a56101005160c05161109f565b52610a8a565b611573565b50509295611465909791949795929561161861010051610a8a565b61010052905061145c565b506116346111bb6040840151151590565b80611457575060208201516001600160a01b031660a05160800151611661906001600160a01b03166111fa565b6001600160a01b0390911614611457565b9091505161167f816101af565b611688826101af565b611691816101af565b14833861144f565b5060015b600160009081526020527fada5013122d395ba3c54772283fb069b10426056ef8ca54750cb9bb552a59e7d5481116119445760a06116ef61113b83600161112b60016000526000602052604060002090565b8060805201838151611700816101af565b84519061170c826101af565b611715826101af565b61171e816101af565b1491821561191d575b5050806118cf575b611742575b61173d90610a8a565b61169d565b9592602060809895929896939651015161175f610100518361109f565b5260406080510151611774610100518461109f565b5261178b611785610100518561109f565b60019052565b61179e60c060805101516114c0816101db565b6117ae60e0608051015151610b06565b6117bd6101005160e05161109f565b526117cd6101005160e05161109f565b506117e46101006080510180610140525151610b06565b6117f4610100516101a05161109f565b52611805610100516101a05161109f565b5061181c6101206080510180610120525151610b06565b61182b6101005160c05161109f565b5261183b6101005160c05161109f565b5060005b60e0608051015180518210156118a9579061185d816118a49361109f565b51611871826115a56101005160e05161109f565b5261188081610140515161109f565b51611895826115a5610100516101a05161109f565b526115de81610120515161109f565b61183f565b5050929561173d90979194979592956118c461010051610a8a565b610100529050611734565b506118e06111bb6040840151151590565b8061172f575060208201516001600160a01b031660808051015161190c906001600160a01b03166111fa565b6001600160a01b039091161461172f565b9091505161192a816101af565b611933826101af565b61193c816101af565b148338611727565b505060e0516101a05160c0519397949694919390925090565b5060016110e6565b805460011015611981575b600052600260206000200190600090565b611989610d76565b611970565b80548210156119ab575b60005260206000209060011b0190600090565b6119b3610d76565b611998565b916020906001926119cf575b805184550151910155565b6119d7610b4d565b6119c4565b906119ff6101c192805490600160401b821015611a05575b60018201815561198e565b906119b8565b611a0d6103bf565b6119f4565b600101805415611a1f5750565b6040516101c191611a2f8261041c565b60008252600060208301526119dc565b60405190611a4c8261041c565b60006020838281520152565b6102db91611a64611a3f565b5060018201805415611abe575b611a7b8354610a8a565b8355604051948592611a8c8461041c565b83526020830152611a9d82826119dc565b5460018110611ab1575b6000190191611c28565b611ab9610a73565b611aa7565b611ac783611a12565b611a71565b6102db91611ad8611a3f565b506000526002810160205260406000205490611b58565b90604051611afc8161041c565b602060018294805484520154910152565b80548015611b4257600019019060006001611b28848461198e565b611b35575b828155015555565b611b3d610b4d565b611b2d565b634e487b7160e01b600052603160045260246000fd5b90611b61611a3f565b50600182019080825411801590611c20575b611c0357611b846106df828461198e565b9283516000526002810160205260006040812055611bb36106df845460018110611bf6575b600019018561198e565b611bbc84611b0d565b83548310611bcc575b5050505090565b6106df83611bed95611be282611be79587611c28565b61198e565b90611c9a565b38808080611bc5565b611bfe610a73565b611ba9565b505050604051611c128161041c565b600081526000602082015290565b508015611b73565b91906001928383148015611c6b575b15611c46576101c19350611d54565b611c6683611c606106df87966101c1981c8097860161198e565b83611d54565b611c28565b50602082015184611c8085821c82850161198e565b5001541215611c37565b6001906001198111610a9a570190565b919060018301928354611cac84610bba565b94858211611cc05750506101c19350611d54565b611ccd6106df878361198e565b91611cd787611c8a565b1080611d31575b611d12575b506020818101519084015112611cfe57506101c19350611d54565b6101c19493611d0d9183611d54565b611c9a565b94611d2b9150611d246106df91610a8a565b809661198e565b38611ce3565b506001611d46611d4088611c8a565b8361198e565b500154602083015112611cde565b600291611d68816119ff866001860161198e565b516000520160205260406000205556fead3228b676f7d3cd4284a5443f17f1962b36e491b30a40b2405849e597ba5fb5a2646970667358221220c8457afc2dc115764d803cfeac93242bce563f407e1b6719056972519b761a0a64736f6c634300080d0033a264697066735822122014d021b5a62a5623d9a499d3905533ab49343539a54c3597bf45c044a05cc6ee64736f6c634300080d0033",
  "immutableReferences": {},
  "source": "// SPDX-License-Identifier: UNLICENSED\npragma solidity ^0.8.0;\nimport \"./OrderLibrary.sol\";\nimport \"./OrderBookData.sol\";\n\n// import \"hardhat/console.sol\";\n\ncontract OrderBookManager {\n    mapping(bytes32 => IOrderBookData) public marketOrderBooks;\n\n    event OrderBookCreated(bytes32 indexed marketId, address orderBookAddress);\n\n    function orderBookExists(bytes32 marketId) public view returns (bool) {\n        return address(marketOrderBooks[marketId]) != address(0);\n    }\n\n    function createMarketOrderBook(bytes32 _marketId) public {\n        require(\n            address(marketOrderBooks[_marketId]) == address(0),\n            \"Order Book already exists\"\n        );\n        // Deploy new OrderBookData contract for this market\n        OrderBookData newOrderBook = new OrderBookData(address(this));\n        marketOrderBooks[_marketId] = IOrderBookData(address(newOrderBook));\n\n        emit OrderBookCreated(_marketId, address(newOrderBook));\n    }\n\n    function createOrder(\n        bytes32 _marketId,\n        uint256 _amount,\n        uint256 _price,\n        address _userAddress,\n        OrderLibrary.OrderType _orderType,\n        OrderLibrary.OrderNature _orderNature\n    ) public returns (uint256 _orderId) {\n        require(orderBookExists(_marketId), \"Order Book does not exist\");\n        uint256 orderId = marketOrderBooks[_marketId].addOrder(\n            _amount,\n            _price,\n            _userAddress,\n            _orderType,\n            _orderNature\n        );\n        return orderId;\n    }\n\n    function cancelOrder(\n        bytes32 _marketId,\n        uint256 _orderId,\n        OrderLibrary.OrderType _orderType\n    ) public returns (bool) {\n        require(orderBookExists(_marketId), \"Order Book does not exist\");\n        bool removed = marketOrderBooks[_marketId].removeOrder(\n            _orderType,\n            _orderId\n        );\n        return removed;\n    }\n\n    function matchOrder(\n        bytes32 _marketId,\n        uint256 _pendingOrderId,\n        OrderLibrary.OrderType _orderType,\n        OrderLibrary.OrderNature _orderNature\n    )\n        public\n        returns (\n            uint256,\n            address[] memory toBePaid,\n            address[] memory toReceive,\n            uint256[] memory tokenAmount,\n            uint256[] memory currencyAmount\n        )\n    {\n        IOrderBookData marketOrderBook = marketOrderBooks[_marketId];\n        OrderLibrary.Order memory pendingOrder = marketOrderBook.getOrderFromId(\n            _orderType,\n            _pendingOrderId\n        );\n        OrderLibrary.OrderType oppositeOrderType = _orderType ==\n            OrderLibrary.OrderType.Buy\n            ? OrderLibrary.OrderType.Sell\n            : OrderLibrary.OrderType.Buy;\n\n        uint256 matchCount = 0;\n        uint256 remainingAmount = pendingOrder.remainingAmount;\n\n        while (remainingAmount > 0) {\n            uint256 tempBestOrderId = marketOrderBook.getBestOrderFromHeap(\n                oppositeOrderType\n            );\n            if (tempBestOrderId == 0) break; // No more orders to match\n\n            OrderLibrary.Order memory tempBestOrder = marketOrderBook\n                .getOrderFromId(oppositeOrderType, tempBestOrderId);\n\n            bool canMatch = _orderNature == OrderLibrary.OrderNature.Market ||\n                (\n                    _orderType == OrderLibrary.OrderType.Buy\n                        ? pendingOrder.price >= tempBestOrder.price\n                        : pendingOrder.price <= tempBestOrder.price\n                );\n\n            if (!canMatch) break;\n\n            uint256 matchedAmount = remainingAmount <\n                tempBestOrder.remainingAmount\n                ? remainingAmount\n                : tempBestOrder.remainingAmount;\n\n            matchCount++;\n            remainingAmount -= matchedAmount;\n        }\n\n        // Initialize arrays with the correct size\n        toBePaid = new address[](matchCount);\n        toReceive = new address[](matchCount);\n        tokenAmount = new uint256[](matchCount);\n        currencyAmount = new uint256[](matchCount);\n\n        uint256 count = 0;\n        uint256 pendingOrderNewAmount = pendingOrder.remainingAmount;\n\n        while (pendingOrderNewAmount > 0 && count < matchCount) {\n            uint256 bestOrderId = marketOrderBook.getBestOrderFromHeap(\n                oppositeOrderType\n            );\n            if (bestOrderId == 0) break; // No more orders to match\n\n            OrderLibrary.Order memory bestOrder = marketOrderBook\n                .getOrderFromId(oppositeOrderType, bestOrderId);\n\n            bool orderMatched = _orderNature ==\n                OrderLibrary.OrderNature.Market ||\n                (\n                    _orderType == OrderLibrary.OrderType.Buy\n                        ? pendingOrder.price >= bestOrder.price\n                        : pendingOrder.price <= bestOrder.price\n                );\n\n            if (!orderMatched) break;\n\n            uint256 matchedAmount = pendingOrderNewAmount <\n                bestOrder.remainingAmount\n                ? pendingOrderNewAmount\n                : bestOrder.remainingAmount;\n\n            // Safe array insertion since we pre-allocated the correct size\n            if (_orderType == OrderLibrary.OrderType.Buy) {\n                toBePaid[count] = bestOrder.userAddress;\n                toReceive[count] = pendingOrder.userAddress;\n            } else {\n                toBePaid[count] = pendingOrder.userAddress;\n                toReceive[count] = bestOrder.userAddress;\n            }\n\n            tokenAmount[count] = matchedAmount;\n            currencyAmount[count] = matchedAmount * bestOrder.price;\n\n            pendingOrderNewAmount -= matchedAmount;\n            uint256 bestOrderNewAmount = bestOrder.remainingAmount -\n                matchedAmount;\n\n            // Update fills for both matched orders\n            OrderLibrary.Fills memory pendingOrderNewReceipts = OrderLibrary\n                .Fills({\n                    price: bestOrder.price,\n                    amount: matchedAmount,\n                    timestamp: block.timestamp\n                });\n            OrderLibrary.Fills memory bestOrderNewReceipts = OrderLibrary\n                .Fills({\n                    price: bestOrder.price,\n                    amount: matchedAmount,\n                    timestamp: block.timestamp\n                });\n\n            // Update order statuses\n            OrderLibrary.OrderStatus bestOrderNewStatus = bestOrderNewAmount ==\n                0\n                ? OrderLibrary.OrderStatus.Filled\n                : OrderLibrary.OrderStatus.PartiallyFilled;\n\n            OrderLibrary.OrderStatus pendingOrderNewStatus = pendingOrderNewAmount ==\n                    0\n                    ? OrderLibrary.OrderStatus.Filled\n                    : OrderLibrary.OrderStatus.PartiallyFilled;\n\n            if (bestOrderNewAmount == 0) {\n                marketOrderBook.removeOrder(oppositeOrderType, bestOrderId);\n            }\n\n            if (pendingOrderNewAmount == 0) {\n                marketOrderBook.removeOrder(_orderType, _pendingOrderId);\n            }\n\n            marketOrderBook.updateOrder(\n                _orderType,\n                _pendingOrderId,\n                pendingOrderNewAmount,\n                pendingOrderNewStatus,\n                pendingOrderNewReceipts\n            );\n\n            marketOrderBook.updateOrder(\n                oppositeOrderType,\n                bestOrderId,\n                bestOrderNewAmount,\n                bestOrderNewStatus,\n                bestOrderNewReceipts\n            );\n\n            count++;\n        }\n\n        return (\n            pendingOrderNewAmount,\n            toBePaid,\n            toReceive,\n            tokenAmount,\n            currencyAmount\n        );\n    }\n\n    function getAllOrdersForAMarket(\n        bytes32 _marketId,\n        OrderLibrary.AllOrdersQueryParams memory params\n    )\n        external\n        view\n        returns (\n            uint256[] memory amount,\n            uint256[] memory price,\n            OrderLibrary.OrderType[] memory orderType,\n            OrderLibrary.OrderNature[] memory nature,\n            uint256[][] memory fillsPrice,\n            uint256[][] memory fillsAmount,\n            uint256[][] memory fillsTimestamp\n        )\n    {\n        return marketOrderBooks[_marketId].getAllOrdersWithFilters(params);\n    }\n}\n",
  "sourcePath": "C:\\Users\\kaise\\OneDrive\\Desktop\\Codebase\\NTU\\sc4053-blockchain-technology\\contracts\\OrderBookManager.sol",
  "compiler": {
    "name": "solc",
    "version": "0.8.13+commit.abaa5c0e.Emscripten.clang"
  },
  "schemaVersion": "3.4.16",
  "updatedAt": "2024-11-04T16:02:28.302Z",
  "networkType": "ethereum",
  "devdoc": {
    "kind": "dev",
    "methods": {},
    "version": 1
  },
  "userdoc": {
    "kind": "user",
    "methods": {},
    "version": 1
  }
}