{
  "contractName": "OrderBookManager",
  "abi": [
    {
      "inputs": [],
      "stateMutability": "nonpayable",
      "type": "constructor"
    },
    {
      "anonymous": false,
      "inputs": [
        {
          "indexed": true,
          "internalType": "bytes32",
          "name": "marketId",
          "type": "bytes32"
        },
        {
          "indexed": false,
          "internalType": "address",
          "name": "orderBookAddress",
          "type": "address"
        }
      ],
      "name": "OrderBookCreatedEvent",
      "type": "event"
    },
    {
      "anonymous": false,
      "inputs": [
        {
          "indexed": false,
          "internalType": "uint256",
          "name": "orderId",
          "type": "uint256"
        }
      ],
      "name": "OrderCancelledEvent",
      "type": "event"
    },
    {
      "anonymous": false,
      "inputs": [
        {
          "indexed": false,
          "internalType": "enum OrderLibrary.OrderType",
          "name": "orderType",
          "type": "uint8"
        },
        {
          "indexed": false,
          "internalType": "uint256",
          "name": "orderId",
          "type": "uint256"
        }
      ],
      "name": "OrderFilledEvent",
      "type": "event"
    },
    {
      "anonymous": false,
      "inputs": [
        {
          "indexed": false,
          "internalType": "enum OrderLibrary.OrderType",
          "name": "orderType",
          "type": "uint8"
        },
        {
          "indexed": false,
          "internalType": "uint256",
          "name": "orderId",
          "type": "uint256"
        }
      ],
      "name": "OrderPartiallyFilledEvent",
      "type": "event"
    },
    {
      "anonymous": false,
      "inputs": [
        {
          "indexed": false,
          "internalType": "uint256",
          "name": "orderId",
          "type": "uint256"
        }
      ],
      "name": "OrderPlacedEvent",
      "type": "event"
    },
    {
      "inputs": [
        {
          "internalType": "bytes32",
          "name": "",
          "type": "bytes32"
        }
      ],
      "name": "marketOrderBooks",
      "outputs": [
        {
          "internalType": "contract IOrderBookData",
          "name": "",
          "type": "address"
        }
      ],
      "stateMutability": "view",
      "type": "function",
      "constant": true
    },
    {
      "inputs": [],
      "name": "tokenManager",
      "outputs": [
        {
          "internalType": "contract TokenManager",
          "name": "",
          "type": "address"
        }
      ],
      "stateMutability": "view",
      "type": "function",
      "constant": true
    },
    {
      "inputs": [
        {
          "internalType": "address",
          "name": "_tokenManagerAddr",
          "type": "address"
        }
      ],
      "name": "initialize",
      "outputs": [],
      "stateMutability": "nonpayable",
      "type": "function"
    },
    {
      "inputs": [
        {
          "internalType": "bytes32",
          "name": "marketId",
          "type": "bytes32"
        }
      ],
      "name": "orderBookExists",
      "outputs": [
        {
          "internalType": "bool",
          "name": "",
          "type": "bool"
        }
      ],
      "stateMutability": "view",
      "type": "function",
      "constant": true
    },
    {
      "inputs": [
        {
          "internalType": "bytes32",
          "name": "_marketId",
          "type": "bytes32"
        }
      ],
      "name": "createMarketOrderBook",
      "outputs": [],
      "stateMutability": "nonpayable",
      "type": "function"
    },
    {
      "inputs": [
        {
          "internalType": "bytes32",
          "name": "_marketId",
          "type": "bytes32"
        },
        {
          "internalType": "uint256",
          "name": "_amount",
          "type": "uint256"
        },
        {
          "internalType": "int256",
          "name": "_price",
          "type": "int256"
        },
        {
          "internalType": "address",
          "name": "_userAddress",
          "type": "address"
        },
        {
          "internalType": "enum OrderLibrary.OrderType",
          "name": "_orderType",
          "type": "uint8"
        },
        {
          "internalType": "enum OrderLibrary.OrderNature",
          "name": "_orderNature",
          "type": "uint8"
        }
      ],
      "name": "createOrder",
      "outputs": [
        {
          "internalType": "uint256",
          "name": "_orderId",
          "type": "uint256"
        }
      ],
      "stateMutability": "nonpayable",
      "type": "function"
    },
    {
      "inputs": [
        {
          "internalType": "bytes32",
          "name": "_marketId",
          "type": "bytes32"
        },
        {
          "internalType": "uint256",
          "name": "_orderId",
          "type": "uint256"
        },
        {
          "internalType": "enum OrderLibrary.OrderType",
          "name": "_orderType",
          "type": "uint8"
        },
        {
          "internalType": "enum OrderLibrary.OrderNature",
          "name": "_orderNature",
          "type": "uint8"
        }
      ],
      "name": "cancelOrder",
      "outputs": [
        {
          "internalType": "bool",
          "name": "",
          "type": "bool"
        }
      ],
      "stateMutability": "nonpayable",
      "type": "function"
    },
    {
      "inputs": [
        {
          "internalType": "bytes32",
          "name": "_marketId",
          "type": "bytes32"
        },
        {
          "internalType": "uint256",
          "name": "_pendingOrderId",
          "type": "uint256"
        },
        {
          "internalType": "uint8",
          "name": "_exchangeTokenId",
          "type": "uint8"
        },
        {
          "internalType": "enum OrderLibrary.OrderType",
          "name": "_orderType",
          "type": "uint8"
        }
      ],
      "name": "matchOrder",
      "outputs": [
        {
          "internalType": "uint256",
          "name": "",
          "type": "uint256"
        },
        {
          "internalType": "address[]",
          "name": "toBePaid",
          "type": "address[]"
        },
        {
          "internalType": "address[]",
          "name": "toReceive",
          "type": "address[]"
        },
        {
          "internalType": "uint256[]",
          "name": "tokenAmount",
          "type": "uint256[]"
        },
        {
          "internalType": "int256[]",
          "name": "currencyAmount",
          "type": "int256[]"
        }
      ],
      "stateMutability": "nonpayable",
      "type": "function"
    },
    {
      "inputs": [
        {
          "internalType": "bytes32",
          "name": "_marketId",
          "type": "bytes32"
        },
        {
          "components": [
            {
              "internalType": "enum OrderLibrary.OrderStatus",
              "name": "status",
              "type": "uint8"
            },
            {
              "internalType": "address",
              "name": "userAddress",
              "type": "address"
            },
            {
              "internalType": "bool",
              "name": "filterByUser",
              "type": "bool"
            }
          ],
          "internalType": "struct OrderLibrary.AllOrdersQueryParams",
          "name": "params",
          "type": "tuple"
        }
      ],
      "name": "getAllOrdersForAMarket",
      "outputs": [
        {
          "internalType": "uint256[]",
          "name": "amount",
          "type": "uint256[]"
        },
        {
          "internalType": "int256[]",
          "name": "price",
          "type": "int256[]"
        },
        {
          "internalType": "uint256[]",
          "name": "orderIds",
          "type": "uint256[]"
        },
        {
          "internalType": "enum OrderLibrary.OrderType[]",
          "name": "orderType",
          "type": "uint8[]"
        },
        {
          "internalType": "enum OrderLibrary.OrderNature[]",
          "name": "nature",
          "type": "uint8[]"
        },
        {
          "internalType": "int256[][]",
          "name": "fillsPrice",
          "type": "int256[][]"
        },
        {
          "internalType": "uint256[][]",
          "name": "fillsAmount",
          "type": "uint256[][]"
        },
        {
          "internalType": "uint256[][]",
          "name": "fillsTimestamp",
          "type": "uint256[][]"
        }
      ],
      "stateMutability": "view",
      "type": "function",
      "constant": true
    },
    {
      "inputs": [
        {
          "internalType": "enum OrderLibrary.OrderType",
          "name": "_orderType",
          "type": "uint8"
        },
        {
          "internalType": "bytes32",
          "name": "_marketId",
          "type": "bytes32"
        }
      ],
      "name": "getBestPriceInMarket",
      "outputs": [
        {
          "internalType": "int256",
          "name": "",
          "type": "int256"
        }
      ],
      "stateMutability": "view",
      "type": "function",
      "constant": true
    }
  ],
  "bytecode": "0x60808060405234610023576001805460ff60a01b1916905561572390816100298239f35b600080fdfe6101608060405260043610156200001557600080fd5b6000803560e01c9182632a709b1414620001055750508063353a69fa14620000fa578063428842c314620000ef5780636baf21b514620000e457806383f5163f14620000d9578063aeeb6f1f14620000ce578063bdd1367714620000c3578063beb7adb814620000b8578063c4d66de814620000ad5763eea862a9146200009d575b38600080fd5b620000a762001fed565b62000097565b50620000a762001f2e565b50620000a762001df9565b50620000a762001cc7565b50620000a762001c8b565b50620000a762001b60565b50620000a762001ab2565b50620000a76200174b565b50620000a762000219565b346200012a57816003193601126200012a576001546001600160a01b03168152602090f35b5080fd5b60009103126200013a57565b600080fd5b600211156200013a57565b90815180825260208080930193019160005b8281106200016b575050505090565b83516001600160a01b0316855293810193928101926001016200015c565b90815180825260208080930193019160005b828110620001aa575050505090565b8351855293810193928101926001016200019b565b9390620002169593620001e96200020794620001f893885260a0602089015260a08801906200014a565b9086820360408801526200014a565b90848203606086015262000189565b91608081840391015262000189565b90565b50346200013a5760803660031901126200013a5760ff60443516604435036200013a57620002496064356200013f565b60ff60015460a01c161562001714576200029062000284620002776004356000526000602052604060002090565b546001600160a01b031690565b6001600160a01b031690565b61012052604051631e3cc60160e01b815260008180620002b9602435606435600484016200260d565b0381610120515afa90811562001704575b600091620016e5575b50620002e56020820151151562002629565b620002f26064356200188c565b606435620016da5760016080525b604051630afa8fc760e41b815260208180620003226080516004830162002676565b0381610120515afa908115620016ca575b600091620016a6575b50620003716200034c826200268b565b9162000358816200268b565b6101005262000367816200268b565b610140526200268b565b60009160208401519060c08501516200038a816200188c565b62000395816200188c565b62000abb57600180546200040090602090620003ba906001600160a01b031662000284565b60808901516001600160a01b0316604051633e72a46960e01b81526001600160a01b039190911660048201526044803560ff166024830152909384929183918291820190565b03915afa90811562000aab575b60009162000a87575b5060c0959395525b808062000a79575b1562000a6a576200044360c0516200043d62002a99565b62002b17565b60405190635ca065bf60e11b825260208280620004666080516004830162002676565b0381610120515afa91821562000a5a575b60009262000a22575b508115620009fc57604051631e3cc60160e01b815260008180620004ab86608051600484016200260d565b0381610120515afa8015620009ec575b600060e052620009c2575b50620004d660c051151562002aca565b60e051604081015160a0819052602090910151919082881162000960575050508492620005186200050a60a0518862002862565b670de0b6b3a7640000900490565b60c051106200092957620005de846000975b6200053c6200050a60a0518462002862565b620005496064356200188c565b606435620009105760e0516080015162000582906001600160a01b03165b62000573878a620026ed565b6001600160a01b039091169052565b6200058f6064356200188c565b606435620008f55760808b0151620005ba906001600160a01b03165b620005738761010051620026ed565b82620005ca8661014051620026ed565b52620005d7858a620026ed565b5262002958565b918294620005f381602060e051015162002958565b91620005fe6200181a565b9460a05186528260208701524260408701526200061a6200181a565b9260a051845260208401524260408401528315600014620008ec576002955b81620008e45760025b85620008b857604051630108c83f60e21b8152602081806200066b886080516004840162002411565b03816000610120515af18015620008a8575b62000884575b50600080516020620056ae83398151915260405180620006a787608051836200260d565b0390a15b826200085657604051630108c83f60e21b815260208180620006d660243560643560048401620023ee565b03816000610120515af1801562000846575b62000810575b50600080516020620056ae8339815191526040518062000714602435606435836200260d565b0390a15b610120513b156200013a576200074f916000916040519384928392634a61c40560e11b978885526024356064356004870162002a2c565b038183610120515af1801562000800575b620007e9575b50610120513b156200013a5762000795600093620007b397604051968795869586526080516004870162002a2c565b038183610120515af18015620007d9575b620007bb575b5062002a7a565b91936200041e565b80620007cb620007d29262001799565b806200012e565b38620007ac565b620007e36200221f565b620007a6565b80620007cb620007f99262001799565b3862000766565b6200080a6200221f565b62000760565b620008369060203d6020116200083e575b6200082d8183620017f7565b810190620023d6565b5038620006ee565b503d62000821565b620008506200221f565b620006e8565b600080516020620056ce833981519152604051806200087b602435606435836200260d565b0390a162000718565b620008a09060203d6020116200083e576200082d8183620017f7565b503862000683565b620008b26200221f565b6200067d565b600080516020620056ce83398151915260405180620008db87608051836200260d565b0390a1620006ab565b600162000642565b60019562000639565b60e05160800151620005ba906001600160a01b0316620005ab565b60808b015162000582906001600160a01b031662000567565b9250620009516200093d60a0518762002862565b6200094a60c05162002836565b9062002876565b92620005de846000976200052a565b8290620009756200050a60c051928662002862565b1115620009915750506200093d620009519160a0519062002862565b620005de9197620009b9620009b06200050a84999660a0519062002862565b60c05162002958565b60c0526200052a565b620009e2903d806000833e620009d98183620017f7565b81019062002517565b60e05238620004c6565b620009f66200221f565b620004bb565b505093505062000a1e905b6040519384936101405191610100519186620001bf565b0390f35b62000a4a91925060203d60201162000a52575b62000a418183620017f7565b81019062002381565b903862000480565b503d62000a35565b62000a646200221f565b62000477565b5093505062000a1e9062000a07565b506020860151151562000426565b62000aa4915060203d60201162000a525762000a418183620017f7565b3862000416565b62000ab56200221f565b6200040d565b9360409391935163fc7663a760e01b81526000818062000ae16080516004830162002676565b0381610120515afa90811562001696575b6000916200166e575b506000855b62000b15575b5050505062000a1e9062000a07565b801562001004575b851562000ffe57604051635ca065bf60e11b81526020818062000b466080516004830162002676565b0381610120515afa90811562000fee575b60009162000fca575b50801562000fc35760405194631e3cc60160e01b86526000868062000b8c85608051600484016200260d565b0381610120515afa95861562000fb3575b60009662000f92575b5062000bb46064356200188c565b60643562000f80576040850151604087015113155b1562000f785760208601518089101562000f6b575062000c7088805b62000bf26064356200188c565b838c8a60643562000f2d576080015162000c1c9262000573916001600160a01b03165b92620026ed565b608088015162000c3f906001600160a01b03165b620005738661010051620026ed565b8162000c4f8561014051620026ed565b5262000c646200050a60408b01518462002862565b620005d7858c620026ed565b91829862000c838160208a015162002958565b916040808a01519962000c956200181a565b9a8b528360208c015242828c015201519162000cb06200181a565b92835260208301524260408301528262000f24576002945b8062000f1b576002995b8462000eef57604051630108c83f60e21b81526020818062000cfb876080516004840162002411565b03816000610120515af1801562000edf575b62000ebb575b50600080516020620056ae8339815191526040518062000d3786608051836200260d565b0390a15b8162000e8d57604051630108c83f60e21b81526020818062000d666024356064356004840162002411565b03816000610120515af1801562000e7d575b62000e59575b50600080516020620056ae8339815191526040518062000da4602435606435836200260d565b0390a15b610120513b156200013a57604051634a61c40560e11b8082529b9092839262000ddd9290916024356064356004870162002a2c565b03816101205191815a6000948591f1801562000e49575b62000e32575b50610120513b156200013a578a986200079560009362000e2b97604051968795869586526080516004870162002a2c565b9362000b00565b80620007cb62000e429262001799565b3862000dfa565b62000e536200221f565b62000df4565b62000e759060203d6020116200083e576200082d8183620017f7565b503862000d7e565b62000e876200221f565b62000d78565b600080516020620056ce8339815191526040518062000eb2602435606435836200260d565b0390a162000da8565b62000ed79060203d6020116200083e576200082d8183620017f7565b503862000d13565b62000ee96200221f565b62000d0d565b600080516020620056ce8339815191526040518062000f1286608051836200260d565b0390a162000d3b565b60019962000cd2565b60019462000cc8565b5060808a015162000f4c9262000573916001600160a01b031662000c15565b608089015162000f65906001600160a01b031662000c30565b62000c3f565b62000c7090809962000be5565b505062000b06565b60408501516040870151121562000bc9565b62000fab9196503d806000833e620009d98183620017f7565b943862000ba6565b62000fbd6200221f565b62000b9d565b5062000b06565b62000fe7915060203d60201162000a525762000a418183620017f7565b3862000b60565b62000ff86200221f565b62000b57565b62000b06565b929094959193955b855184108062001664575b15620016575762001079906200103d620010328689620026ed565b516200043d62002718565b6200104c816200043d62002744565b60006200105a8689620026ed565b5160405180948192631e3cc60160e01b8352608051600484016200260d565b0381610120515afa91821562001647575b60009262001623575b506001549192620010fb92602090620010b5906001600160a01b031662000284565b60808601516001600160a01b0316604051633e72a46960e01b81526001600160a01b039190911660048201526044803560ff166024830152909586929183918291820190565b03915afa92831562001613575b600093620015ed575b5062001121836200043d6200277f565b6200112e831515620027ab565b604087015191858a89876020810151808610600014620015e6575084975b886200115c816200043d620027f0565b6200117a620011706200050a8b8462002862565b6200043d62002897565b6200118a6200050a8a8362002862565b821062001595575b505062001265948894620005d788602096620012456200125c978a97620012128f6200050a620011d291620011cb8d6200043d620027f0565b8c62002862565b97620011e2896200043d6200291d565b620011ef6064356200188c565b6064356200157a576080830151620005739088906001600160a01b031662000c15565b6200121f6064356200188c565b606435620015655750608001516001600160a01b03165b620005738461010051620026ed565b85620012558361014051620026ed565b52620026ed565b96015162002958565b62001274816200043d62002972565b6200127e6200181a565b93838552806020860152426040860152620012986200181a565b9384526020840152426040840152806200155c576002925b8562001553576002945b888b846200152a5762001340600080516020620056ae833981519152926200135192620012f0620012ea620029ad565b620022d8565b620013216020620013028484620026ed565b5160405180938192630108c83f60e21b835260805160048401620023ee565b03816000610120515af180156200151a575b620014f6575b50620026ed565b51604051918291608051836200260d565b0390a15b86620014c85762001369620012ea620029e0565b604051630108c83f60e21b8152602081806200138e6024356064356004840162002411565b03816000610120515af18015620014b8575b62001494575b50600080516020620056ae83398151915260405180620013cc602435606435836200260d565b0390a15b610120513b156200013a576000620014069160405180938192634a61c40560e11b9a8b84528c6024356064356004870162002a2c565b038183610120515af1801562001484575b6200146d575b506200142a888b620026ed565b51610120513b156200013a576200146595620007956000936200145e97604051968795869586526080516004870162002a2c565b9362002a7a565b92906200100c565b80620007cb6200147d9262001799565b386200141d565b6200148e6200221f565b62001417565b620014b09060203d6020116200083e576200082d8183620017f7565b5038620013a6565b620014c26200221f565b620013a0565b600080516020620056ce83398151915260405180620014ed602435606435836200260d565b0390a1620013d0565b620015129060203d6020116200083e576200082d8183620017f7565b503862001339565b620015246200221f565b62001333565b62001340600080516020620056ce833981519152926200154a92620026ed565b0390a162001355565b600194620012ba565b600192620012b0565b608001516001600160a01b0316905062001236565b6080840151620005739088906001600160a01b031662000c15565b889293949599509087969183620015ab620028d2565b620015b690620022d8565b620015c19162002862565b90620015cd9062002836565b620015d89162002876565b989493929181965062001192565b976200114c565b6200160b91935060203d60201162000a525762000a418183620017f7565b913862001111565b6200161d6200221f565b62001108565b620010fb925062001640903d806000833e620009d98183620017f7565b9162001093565b620016516200221f565b6200108a565b9490929593919562000b1d565b5080151562001017565b6200168f91503d806000833e620016868183620017f7565b810190620026c3565b3862000afb565b620016a06200221f565b62000af2565b620016c3915060203d60201162000a525762000a418183620017f7565b386200033c565b620016d46200221f565b62000333565b600060805262000300565b620016fd91503d806000833e620009d98183620017f7565b38620002d3565b6200170e6200221f565b620002ca565b60405162461bcd60e51b815260206004820152600f60248201526e139bdd081a5b9a5d1a585b1a5e9959608a1b6044820152606490fd5b50346200013a5760203660031901126200013a576004356000526000602052602060018060a01b0360406000205416604051908152f35b50634e487b7160e01b600052604160045260246000fd5b67ffffffffffffffff8111620017ae57604052565b620017b862001782565b604052565b6060810190811067ffffffffffffffff821117620017ae57604052565b6040810190811067ffffffffffffffff821117620017ae57604052565b90601f8019910116810190811067ffffffffffffffff821117620017ae57604052565b604051906200182982620017bd565b565b60405190610140820182811067ffffffffffffffff821117620017ae57604052565b600411156200013a57565b6001600160a01b038116036200013a57565b801515036200013a57565b50634e487b7160e01b600052602160045260246000fd5b600211156200189757565b6200182962001875565b90815180825260208080930193019160005b828110620018c2575050505090565b9091929382806001928751620018d8816200188c565b815201950193929101620018b3565b908082519081815260208091019281808460051b8301019501936000915b848310620019165750505050505090565b909192939495848062001936600193601f198682030187528a5162000189565b980193019301919493929062001905565b908082519081815260208091019281808460051b830101950193600080925b85841062001978575050505050505090565b9091929380959697601f1983820301855288519082808351928381520192019085905b808210620019bd57505050908060019299019401940192959493919062001966565b91938060019294865181520194019201889392916200199b565b96949262001a0b620019fb62001a1a939b9a98969b610100808c528b019062000189565b6020948a8203868c015262000189565b9088820360408a015262000189565b868103606088015281808a51928381520199019160005b82811062001a8d575050505062001a7e929162001a608862001a6f9388620002169a9b0360808a0152620018a1565b9086820360a0880152620018e7565b9084820360c086015262001947565b9160e081840391015262001947565b9091929982806001928d5162001aa3816200188c565b8152019b019392910162001a31565b50346200013a5760803660031901126200013a5760603660231901126200013a5762000a1e62001b396040516060810181811067ffffffffffffffff82111762001b50575b60405260243562001b08816200184d565b815260443562001b188162001858565b602082015260643562001b2b816200186a565b604082015260043562002c5d565b9460409896989491949392935198899889620019d7565b62001b5a62001782565b62001af7565b50346200013a5760403660031901126200013a5762000a1e604062001c00600060043562001b8e816200013f565b62001bad62000284620002776024356000526000602052604060002090565b8451635ca065bf60e11b8152916020838062001bcd846004830162002676565b0381855afa92831562001c7b575b849362001c56575b508551809581948293631e3cc60160e01b8452600484016200260d565b03915afa90811562001c46575b60009162001c29575b5001516040519081529081906020820190565b62001c3f913d8091833e620009d98183620017f7565b3862001c16565b62001c506200221f565b62001c0d565b62001c7391935060203d811162000a525762000a418183620017f7565b913862001be3565b62001c856200221f565b62001bdb565b50346200013a5760203660031901126200013a57600435600090815260208181526040909120546001600160a01b031615156040519015158152f35b50346200013a5760c03660031901126200013a5762000a1e62001d73602060043560643562001cf68162001858565b60843562001d04816200013f565b60a4359262001d13846200013f565b60008181526020819052604090205462001d38906001600160a01b0316151562002334565b60005260008452600060018060a01b0360408220541692604051968795869485936356be864160e01b85526044356024356004870162002391565b03925af190811562001de9575b60009162001dc6575b506040518181527f0d01306187ba8e4e2165a1bc9425fc067b18a7e63e50bf1ad580e86ba2ae5dd590602090a16040519081529081906020820190565b62001de2915060203d811162000a525762000a418183620017f7565b3862001d89565b62001df36200221f565b62001d80565b50346200013a5760803660031901126200013a5762000a1e62001e9560243560208160443560043562001e2c826200013f565b6064359062001e3b826200013f565b60008181526020819052604090205462001e60906001600160a01b0316151562002334565b600090815280855260408120546001600160a01b03169260405197889586948593630108c83f60e21b85526004850162002434565b03925af191821562001f1e575b60009262001ef9575b508162001ec6575b5060405190151581529081906020820190565b6040519081527f2939c457f10861c751d5495331764a0e7826e1ff65219a17e3c7f25010b170ad90602090a13862001eb3565b62001f1691925060203d81116200083e576200082d8183620017f7565b903862001eab565b62001f286200221f565b62001ea2565b50346200013a5760203660031901126200013a5760043562001f508162001858565b60ff60015460a01c1662001fb25762001f9b906001600160a01b031662001f798115156200212d565b60018060a01b03166bffffffffffffffffffffffff60a01b6001541617600155565b6001805460ff60a01b1916600160a01b179055005b005b60405162461bcd60e51b8152602060048201526013602482015272105b1c9958591e481a5b9a5d1a585b1a5e9959606a1b6044820152606490fd5b50346200013a5760203660031901126200013a576004357f538d13ad60071296a31f2ddc8d8fdcb22aea236dc3494808668915c58df20178620020fc60018060a01b036200205a81620020526200028462000277886000526000602052604060002090565b16156200217a565b62002068620012ea620021c7565b604051806200209b6128878083019083821067ffffffffffffffff8311176200211d575b62002e27843930815260200190565b03906000f080156200210d575b16620020e281620020c3866000526000602052604060002090565b80546001600160a01b0319166001600160a01b03909216919091179055565b6040516001600160a01b0390911681529081906020820190565b0390a262001fb0620012ea6200222c565b620021176200221f565b620020a8565b6200212762001782565b6200208c565b156200213557565b60405162461bcd60e51b815260206004820152601d60248201527f496e76616c696420746f6b656e206d616e6167657220616464726573730000006044820152606490fd5b156200218257565b60405162461bcd60e51b815260206004820152601960248201527f4f7264657220426f6f6b20616c726561647920657869737473000000000000006044820152606490fd5b60405190620021d682620017bd565b603482527339102137b7b5903337b91026b0b935b2ba17171760611b6040837f5b4f72646572426f6f6b4d616e616765725d204372656174696e67204f72646560208201520152565b506040513d6000823e3d90fd5b604051906200223b82620017bd565b603382527232b0ba32b2103337b91026b0b935b2ba17171760691b6040837f5b4f72646572426f6f6b4d616e616765725d204f7264657220426f6f6b20637260208201520152565b91908251928382526000905b848210620022bf575092806020939411620022b1575b601f01601f1916010190565b6000838284010152620022a5565b906020908180828501015190828601015201906200228f565b6200230a62002319620018299260405192839163104c13eb60e21b602084015260206024840152604483019062002283565b03601f198101835282620017f7565b600080916020815191016a636f6e736f6c652e6c6f675afa50565b156200233c57565b60405162461bcd60e51b815260206004820152601960248201527f4f7264657220426f6f6b20646f6573206e6f74206578697374000000000000006044820152606490fd5b908160209103126200013a575190565b90815260208101919091526001600160a01b03909116604082015260a0810193929160809190620023c2816200188c565b6060820152620023d2836200188c565b0152565b908160209103126200013a575162000216816200186a565b606081019392916040919062002404816200188c565b8152600060208201520152565b606081019392916040919062002427816200188c565b8152600160208201520152565b6060810194939260409262002449816200188c565b825262002456816200188c565b60208201520152565b5190620018298262001858565b519062001829826200184d565b519062001829826200013f565b60209067ffffffffffffffff8111620024a1575b60051b0190565b620024ab62001782565b6200249a565b81601f820112156200013a57805191620024cb8362002486565b92620024db6040519485620017f7565b808452602092838086019260051b8201019283116200013a578301905b82821062002507575050505090565b81518152908301908301620024f8565b6020818303126200013a57805167ffffffffffffffff918282116200013a5701610140818403126200013a576200254d6200182b565b92815184526020820151602085015260408201516040850152606082015160608501526200257e608083016200245f565b60808501526200259160a083016200246c565b60a0850152620025a460c0830162002479565b60c085015260e08201518381116200013a5781620025c4918401620024b1565b60e0850152610100808301518481116200013a5782620025e6918501620024b1565b9085015261012092838301519081116200013a57620026069201620024b1565b9082015290565b604081019392916020919062002623816200188c565b81520152565b156200263157565b60405162461bcd60e51b815260206004820152601d60248201527f50656e64696e67206f726465722069732066756c6c792066696c6c65640000006044820152606490fd5b9190602083019262002688826200188c565b52565b90620026978262002486565b620026a66040519182620017f7565b8281528092620026b9601f199162002486565b0190602036910137565b906020828203126200013a57815167ffffffffffffffff81116200013a57620002169201620024b1565b8051821015620027025760209160051b010190565b634e487b7160e01b600052603260045260246000fd5b604051906200272782620017da565b600e82526d026b0b935b2ba1027b93232b91d160951b6020830152565b604051906200275382620017da565b601d82527f50656e64696e6720416d6f756e74206f6620746865206f726465723a200000006020830152565b604051906200278e82620017da565b600e82526d02ab9b2b9103130b630b731b29d160951b6020830152565b15620027b357565b60405162461bcd60e51b8152602060048201526015602482015274557365722062616c616e6365206973207a65726f2160581b6044820152606490fd5b60405190620027ff82620017da565b6011825270026b4b734b6bab69020b6b7bab73a101e9607d1b6020830152565b50634e487b7160e01b600052601160045260246000fd5b670de0b6b3a764000090806000190482118115151662002854570290565b6200285e6200281f565b0290565b806000190482118115151662002854570290565b811562002881570490565b634e487b7160e01b600052601260045260246000fd5b60405190620028a682620017da565b601a82527f496e697469616c20416d6f756e7420746f206d61746368203d200000000000006020830152565b60405190620028e182620017bd565b602782526642616c616e636560c81b6040837f456e746572696e6720696620636f6e646974696f6e3a205265647563696e672060208201520152565b604051906200292c82620017da565b601882527f46696e616c20416d6f756e7420746f206d61746368203d2000000000000000006020830152565b81811062002964570390565b6200296e6200281f565b0390565b604051906200298182620017da565b601a82527f4d61726b6574204f72646572204e657720416d6f756e74203d200000000000006020830152565b60405190620029bc82620017da565b60158252742932b6b7bb34b7339026b0b935b2ba1027b93232b960591b6020830152565b60405190620029ef82620017da565b60168252752932b6b7bb34b733902832b73234b7339027b93232b960511b6020830152565b90600482101562002a225752565b6200268862001875565b9362002a629060c0946040949897939860e088019962002a4c816200188c565b8852602088015284870152606086019062002a14565b80516080850152602081015160a08501520151910152565b600190600019811462002a8b570190565b62002a956200281f565b0190565b6040519062002aa882620017da565b6013825272020bb30b4b630b13632902130b630b731b29d1606d1b6020830152565b1562002ad257565b60405162461bcd60e51b815260206004820152601d60248201527f557365722068617320696e73756666696369656e742062616c616e63650000006044820152606490fd5b6200231962002b4a916200182993604051938492632d839cb360e21b602085015260406024850152606484019062002283565b90604483015203601f198101835282620017f7565b81601f820112156200013a5780519162002b798362002486565b9262002b896040519485620017f7565b808452602092838086019260051b8201019283116200013a578301905b82821062002bb5575050505090565b838091835162002bc5816200013f565b81520191019062002ba6565b9080601f830112156200013a5781519062002bec8262002486565b9262002bfc6040519485620017f7565b828452602092838086019160051b830101928084116200013a57848301915b84831062002c2c5750505050505090565b825167ffffffffffffffff81116200013a57869162002c5184848094890101620024b1565b81520192019162002c1b565b91604091926000938491825281602052606460018060a01b0380868520541686519687948593638c57f0e960e01b855262002c9d60048601835162002a14565b60208201511660248501520151151560448301525afa91821562002e16575b839084809481948294839484809462002cdc575b50509796959493929190565b97509750509650505050503d8082843e62002cf88184620017f7565b820191610100818403126200012a5780519167ffffffffffffffff928381116200012a578462002d2a918401620024b1565b602083015184811162002e12578562002d45918501620024b1565b604084015185811162002e0e578662002d60918601620024b1565b96606085015186811162002e0a578762002d7c91870162002b5f565b96608086015187811162002e06578162002d9891880162002b5f565b9660a087015181811162002e02578262002db491890162002bd1565b9660c081015182811162002dfe578362002dd091830162002bd1565b9660e082015192831162002dfb575062002dec92910162002bd1565b91979695949392388062002cd0565b80fd5b8780fd5b8680fd5b8580fd5b8480fd5b8380fd5b8280fd5b62002e206200221f565b62002cbc56fe60a060405234620000e6576200288760208138039182620000208162000131565b938492833981010312620000e657516001600160a01b03811690818103620000e657608052330362000095576200005662000157565b620000606200026e565b60405161251c90816200036b823960805181818161013801528181610379015281816104710152818161090401526110940152f35b60405162461bcd60e51b8152602060048201526024808201527f43616c6c6572206973206e6f7420746865206f7264657220626f6f6b206d616e60448201526330b3b2b960e11b6064820152608490fd5b600080fd5b50634e487b7160e01b600052604160045260246000fd5b60405190606082016001600160401b038111838210176200012257604052565b6200012c620000eb565b604052565b6040519190601f01601f191682016001600160401b038111838210176200012257604052565b60008080526020527fad3228b676f7d3cd4284a5443f17f1962b36e491b30a40b2405849e597ba5fb9805491908215620001e1575b50600080805260208190527fad3228b676f7d3cd4284a5443f17f1962b36e491b30a40b2405849e597ba5fb58190557fad3228b676f7d3cd4284a5443f17f1962b36e491b30a40b2405849e597ba5fb7559050565b620001eb62000102565b9060009384835260208301908582526040840192868452680100000000000000008210156200025e575b600182018082558210156200024a5760208760039260029798995220910201935184555160018401555191015580386200018c565b634e487b7160e01b87526032600452602487fd5b62000268620000eb565b62000215565b600160009081526020527fada5013122d395ba3c54772283fb069b10426056ef8ca54750cb9bb552a59e81805491908215620002f1575b5090506000620002c060016000526000602052604060002090565b556001600090815260208190527fada5013122d395ba3c54772283fb069b10426056ef8ca54750cb9bb552a59e7f55565b620002fb62000102565b9060009384835260208301908582526040840192868452680100000000000000008210156200035a575b600182018082558210156200024a576020876003926002979899522091020193518455516001840155519101558038620002a5565b62000364620000eb565b6200032556fe6101c06040526004361015610014575b600080fd5b60003560e01c8063042320fc146100f05780631e3cc601146100e75780633a226883146100de57806356be8641146100d55780638c57f0e9146100cc57806394c3880a146100c35780639861d802146100ba578063afa8fc70146100b1578063b940cb7e146100a8578063e1d0c8931461009f5763fc7663a71461009757600080fd5b61000f610acf565b5061000f610a10565b5061000f610972565b5061000f610933565b5061000f6108ed565b5061000f610881565b5061000f610809565b5061000f6103ff565b5061000f610360565b5061000f6102bf565b5061000f610103565b6002111561000f57565b503461000f57606036600319011261000f57602061016f600435610126816100f9565b602435610132816100f9565b610166337f00000000000000000000000000000000000000000000000000000000000000006001600160a01b031614610b25565b60443591611381565b6040519015158152f35b50634e487b7160e01b600052602160045260246000fd5b6004111561019a57565b6101a2610179565b565b9060048210156101b15752565b6101b9610179565b52565b6002111561019a57565b906101b9826101bc565b90815180825260208080930193019160005b8281106101f0575050505090565b8351855293810193928101926001016101e2565b906102bc91602081528151602082015260208201516040820152604082015160608201526060820151608082015261024b608083015160a083019060018060a01b03169052565b61025d60a083015160c08301906101a4565b61026f60c083015160e08301906101c6565b60e08201519061014061028f6101009382858501526101608401906101d0565b928401516102ac601f1994610120928686830301848701526101d0565b94015192828503019101526101d0565b90565b503461000f5760408060031936011261000f578061035161035c926004356102e6816100f9565b8151906102f282610618565b6060610120600093848152846020820152848682015284838201528460808201528460a08201528460c08201528260e0820152826101008201520152610337816101bc565b815280602052600182822001602435825260205220611607565b905191829182610204565b0390f35b503461000f576000806003193601126103fc576103a7337f00000000000000000000000000000000000000000000000000000000000000006001600160a01b031614610b25565b8080528060205260406103be60038284200161208c565b8180528160205281818120558160028282200155600182526103e460038284200161208c565b60018252816020528181812055816002828220015551f35b80fd5b503461000f5760a036600319011261000f576004356044356001600160a01b03602435818316830361000f576020936105bf7f57c8b633cd47b2227512a6c52ec2574ea10acc231ea47bdee3eee219c94a31449360643561045f816100f9565b6104986084359261046f846100f9565b7f0000000000000000000000000000000000000000000000000000000000000000163314610b25565b6104a181610b7d565b966104ac8854610bad565b8881809a556104b9610bf0565b6104c1610bf0565b6104c9610bf0565b906104d261069c565b8a81528e81018b9052604081018c90524260608201526001600160a01b038716608082015292600060a085015261050c8960c08601610c67565b60e084015261010083015261012082015261053e6001830191610539858490600052602052604060002090565b610daf565b6002820161054c8154610bad565b9055610557866101bc565b600186036105e2576105a0925061056d856101bc565b8a89600187036105ca576003610597836105878394610f28565b9590600052602052604060002090565b015493016120df565b506105b2886105ad610f47565b610fc1565b6040519586958987610f80565b0390a1604051908152f35b60036105978382939590600052602052604060002090565b509060066105f09201610ea7565b6105fc886105ad610eef565b6105b2565b50634e487b7160e01b600052604160045260246000fd5b610140810190811067ffffffffffffffff82111761063557604052565b61063d610601565b604052565b6060810190811067ffffffffffffffff82111761063557604052565b6040810190811067ffffffffffffffff82111761063557604052565b90601f8019910116810190811067ffffffffffffffff82111761063557604052565b604051906101a282610618565b90815180825260208080930193019160005b8281106106c9575050505090565b90919293828060019287516106dd816101bc565b8152019501939291016106bb565b908082519081815260208091019281808460051b8301019501936000915b8483106107195750505050505090565b9091929394958480610737600193601f198682030187528a516101d0565b9801930193019194939290610709565b9694929061076390999896949299610100808a528901906101d0565b602090888103828a015281808c5192838152019b019160005b8281106107f557505050506107d9926107bd6107e79695936107af8c6107cb958c6102bc9e9f81604091039101526101d0565b908a820360608c01526106a9565b9088820360808a01526106a9565b9086820360a08801526106eb565b9084820360c08601526106eb565b9160e08184039101526106eb565b83518d529b81019b9281019260010161077c565b503461000f57606036600319011261000f5760405161082781610642565b600435600481101561000f5781526024356001600160a01b038116810361000f576020820152604435801515810361000f578161086b91604061035c940152611711565b9460409896989491949392935198899889610747565b503461000f5760e036600319011261000f5760043561089f816100f9565b60643590600482101561000f57606036608319011261000f576108eb91604051916108c983610642565b608435835260a435602084015260c43560408401526044359060243590611065565b005b503461000f57600036600319011261000f576040517f00000000000000000000000000000000000000000000000000000000000000006001600160a01b03168152602090f35b503461000f57602036600319011261000f57600435610951816100f9565b61095a816101bc565b60005260006020526020604060002054604051908152f35b503461000f57602036600319011261000f5761035c600435610993816100f9565b61099c816101bc565b6000908152806020526004604082206109b36120c0565b506109bc6120c0565b50019060018254116000146109ef57506109d86109de91611fd5565b5061217e565b516040519081529081906020820190565b60405191506109fd82610642565b80825280602083015260408201526109de565b503461000f57606036600319011261000f57600435610a2e816100f9565b602435604435600481101561000f577f741f70c8b3dd5bd997dff5fda0f5f617f5d9a46e92fa60ba5d68637deb03bf3691610a68846101bc565b60009384528360205260016040852001818552602052610aab8260046040872001610aa660ff825460a01c166004811015610ac2575b83141561115f565b610c87565b610aba604051928392836111aa565b0390a1604051f35b610aca610179565b610a9e565b503461000f57602036600319011261000f57600435610aed816100f9565b610af6816101bc565b600052600060205261035c610b1160066040600020016115b8565b6040519182916020835260208301906101d0565b15610b2c57565b60405162461bcd60e51b8152602060048201526024808201527f43616c6c6572206973206e6f7420746865206f7264657220626f6f6b206d616e60448201526330b3b2b960e11b6064820152608490fd5b610b86816101bc565b6000526000602052604060002090565b50634e487b7160e01b600052601160045260246000fd5b6001906000198114610bbd570190565b610bc5610b96565b0190565b60209067ffffffffffffffff8111610be3575b60051b0190565b610beb610601565b610bdc565b604051906000602083019280841067ffffffffffffffff851117610c1c575b8360405281815292369037565b610c24610601565b610c0f565b90610c3382610bc9565b610c40604051918261067a565b8281528092610c51601f1991610bc9565b0190602036910137565b60048210156101b15752565b6101b9826101bc565b50634e487b7160e01b600052600060045260246000fd5b906004811015610cac575b815460ff60a01b191660a09190911b60ff60a01b16179055565b610cb4610179565b610c92565b90610cc3816101bc565b815460ff60a81b191660a89190911b60ff60a81b16179055565b806000190460021181151516610cf4575b60011b90565b610cfc610b96565b610cee565b91610d1d9183549060031b600019811b9283911b169119161790565b9055565b815191600160401b8311610da2575b8154838355808410610d79575b50610d52602080920192600052602060002090565b6000925b848410610d64575050505050565b60018382829351855501920193019290610d56565b6000838152846020822092830192015b828110610d97575050610d3d565b818155600101610d89565b610daa610601565b610d30565b60076101206101a29380518455602081015160018501556040810151600285015560608101516003850155610e3e60048501610e13610df7608085015160018060a01b031690565b82546001600160a01b0319166001600160a01b03909116178255565b610e2a60a0840151610e2481610190565b82610c87565b60c083015190610e39826101bc565b610cb9565b610e4f60e082015160058601610d21565b610e6161010082015160068601610d21565b01519101610d21565b50634e487b7160e01b600052603260045260246000fd5b8054821015610e9a575b60005260206000200190600090565b610ea2610e6a565b610e8b565b610ec9610d1d91805490600160401b821015610ee2575b600182018155610e81565b819391549060031b600019811b9283911b169119161790565b610eea610601565b610ebe565b60405190610efc8261065e565b602082527f4f7264657220616464656420746f206d61726b6574206f72646572733a2025646020830152565b600160ff1b8114610f3a575b60000390565b610f42610b96565b610f34565b60405190610f548261065e565b601782527f4f7264657220616464656420746f20686561703a2025640000000000000000006020830152565b9260a094919796959260c0850198855260208501526040840152600180851b03166060830152610faf816101bc565b6080820152610fbd836101bc565b0152565b9190604051906020632d839cb360e21b81840152604060248401528451948560648501526000915b8683106110345750508285611022936101a2969760849411611027575b6044830152601f8019910116810103606481018452018261067a565b61104a565b6000848385010152611006565b8183018101518584016084015291820191610fe9565b600080916020815191016a636f6e736f6c652e6c6f675afa50565b7fd6f0c09589c4d1c383f2cda7894592f67d44338798ce6e87200229c4e74e6c689460c094929392916110c2337f00000000000000000000000000000000000000000000000000000000000000006001600160a01b031614610b25565b6110cb816101bc565b600052600060205260016040600020018460005260205261114d6040600020928460018501556110fe8160048601610c87565b61110c835160058601610ea7565b602083019261111f845160068701610ea7565b6111326040820195600787519101610ea7565b519251935194604051968752602087015260408601906101a4565b6060840152608083015260a0820152a1565b1561116657565b606460405162461bcd60e51b815260206004820152602060248201527f4f7264657220697320616c726561647920696e207468697320737461747573206044820152fd5b9081526040810192916101a291602001906101a4565b7f741f70c8b3dd5bd997dff5fda0f5f617f5d9a46e92fa60ba5d68637deb03bf36916040916111ee816101bc565b6000526000602052600182600020018160005260205260048260002001805461122a60ff8260a01c166004811015611248575b6003141561115f565b60ff60a01b1916600360a01b179055815190815260036020820152a1565b611250610179565b611221565b1561125c57565b60405162461bcd60e51b81526020600482015260136024820152724f72646572206973206e6f742041637469766560681b6044820152606490fd5b1561129e57565b60405162461bcd60e51b815260206004820152600e60248201526d417272617920697320656d70747960901b6044820152606490fd5b600181106112e4575b6000190190565b6112ec610b96565b6112dd565b6001906001198111610bbd570190565b50634e487b7160e01b600052603160045260246000fd5b8054908115611343575b600019918201916113338383610e81565b909182549160031b1b1916905555565b61134b611301565b611322565b80156112e4576000190190565b60409194939260608201958252611373816101bc565b6020820152610fbd836101bc565b6001926113b260046113a7838761139787610b7d565b0190600052602052604060002090565b015460a01c60ff1690565b6113bb81610190565b15801561158f575b6113cc90611255565b6113d5836101bc565b82840361145b57806113f28160036113ec86610b7d565b0161215b565b51036114525761144c7f2978f9c3eaed0402764746f572e1619c2f1a0d4cf48ee4626b542fe0fa65a0c7935b61142883856111c0565b600261143385610b7d565b0161143e8154611350565b90556040519384938461135d565b0390a190565b50505050600090565b939192906006946114788661146f84610b7d565b01541515611297565b60009485845b611548575b50909192809495905b6114d1575b5061144c906114cc7f2978f9c3eaed0402764746f572e1619c2f1a0d4cf48ee4626b542fe0fa65a0c79596976114c686610b7d565b01611318565b61141e565b6114e5876114de86610b7d565b01546112d4565b8110156115435761153d859161153861151e6115148b6115048a610b7d565b0161150e856112f1565b90610e81565b90549060031b1c90565b611532838c61152c8b610b7d565b01610e81565b90610d01565b610bad565b9061148c565b611491565b8761155285610b7d565b015481101561158a578261156d611514838b61152c89610b7d565b146115825761157c8591610bad565b9061147e565b955083611483565b611483565b506113cc846115a760046113a7858461139789610b7d565b6115b081610190565b1490506113c3565b9060405191828154918282526020928383019160005283600020936000905b8282106115ed575050506101a29250038361067a565b8554845260019586019588955093810193909101906115d7565b9061169d600761161561069c565b8454815260018501546020820152600285015460408201526003850154606082015260048501546001600160a01b03811660808301529094906116749060ff90611667828260a01c1660a08a01610c5b565b60a81c1660c08701610c67565b611680600582016115b8565b60e0860152611691600682016115b8565b610100860152016115b8565b610120830152565b906116af82610bc9565b6116bc604051918261067a565b82815280926116cd601f1991610bc9565b019060005b8281106116de57505050565b8060606020809385010152016116d2565b6020918151811015611704575b60051b010190565b61170c610e6a565b6116fc565b805161171c81610190565b815161172781610190565b61173081610190565b15611fcd575b60009060015b60008080526020526000805160206124c783398151915254811161188557600080805260205261178461177f8260016000805160206124c7833981519152611397565b611607565b60a081019083825161179581610190565b8751906117a182610190565b6117aa82610190565b6117b381610190565b1492831561185c575b5050816117ed575b506117d8575b6117d390610bad565b61173c565b916117e56117d391610bad565b9290506117ca565b90506118036117ff6040870151151590565b1590565b908115611812575b50386117c4565b602086015190915061184a9061183e906080906001600160a01b03165b9301516001600160a01b031690565b6001600160a01b031690565b6001600160a01b03909116143861180b565b909192505161186a81610190565b61187382610190565b61187c81610190565b149083386117bc565b5060015b600160009081526020527fada5013122d395ba3c54772283fb069b10426056ef8ca54750cb9bb552a59e7d5481116119bf576118d961177f82600161139760016000526000602052604060002090565b60a08101908382516118ea81610190565b8751906118f682610190565b6118ff82610190565b61190881610190565b14928315611996575b505081611942575b5061192d575b61192890610bad565b611889565b9161193a61192891610bad565b92905061191f565b90506119546117ff6040870151151590565b908115611963575b5038611919565b60208601519091506119849061183e906080906001600160a01b031661182f565b6001600160a01b03909116143861195c565b90919250516119a481610190565b6119ad82610190565b6119b681610190565b14908338611911565b509190916119cc83610c29565b6119d584610c29565b906119df85610c29565b926119e986610c29565b94611a166119f688610c29565b97611a00816116a5565b61016052611a0d816116a5565b610100526116a5565b60a052600060805260015b60008080526020526000805160206124c7833981519152548111611cf7576000808052602052611a6461177f8260016000805160206124c7833981519152611397565b6101405260a06101405101838151611a7b81610190565b845190611a8782610190565b611a9082610190565b611a9981610190565b14918215611cd0575b505080611c80575b611abd575b611ab890610bad565b611a21565b97949196939095926020610140510151611ad9608051836116ef565b5288611ae7608051846116ef565b526040610140510151611afc608051856116ef565b526000611b0b608051866116ef565b52611b3160c0610140510151611b20816101bc565b611b2c608051886116ef565b610c67565b611b4260e061014051015151610c29565b611b51608051610160516116ef565b52611b61608051610160516116ef565b50610100610140510160e052611b7a60e0515151610c29565b611b89608051610100516116ef565b52611b99608051610100516116ef565b50610120610140510161018052611bb4610180515151610c29565b611bc260805160a0516116ef565b52611bd160805160a0516116ef565b5060005b60e06101405101518051821015611c5d5790611bf481611c58936116ef565b51611c0e82611c08608051610160516116ef565b516116ef565b52611c1c8160e051516116ef565b51611c3082611c08608051610100516116ef565b52611c3f8161018051516116ef565b51611c5282611c0860805160a0516116ef565b52610bad565b611bd5565b50509295909396919497611ab890611c76608051610bad565b6080529050611aaf565b50611c916117ff6040840151151590565b80611aaa575060208201516001600160a01b03166101405160800151611cbf906001600160a01b031661183e565b6001600160a01b0390911614611aaa565b90915051611cdd81610190565b611ce682610190565b611cef81610190565b148338611aa2565b5060015b600160009081526020527fada5013122d395ba3c54772283fb069b10426056ef8ca54750cb9bb552a59e7d548111611fb257611d4b61177f82600161139760016000526000602052604060002090565b6101205260a06101205101838151611d6281610190565b845190611d6e82610190565b611d7782610190565b611d8081610190565b14918215611f8b575b505080611f3b575b611da4575b611d9f90610bad565b611cfb565b97949196939095926020610120510151611dc0608051836116ef565b5288611dce608051846116ef565b526040610120510151611de3608051856116ef565b52611df9611df3608051866116ef565b60019052565b611e0d60c0610120510151611b20816101bc565b611e1e60e061012051015151610c29565b611e2d608051610160516116ef565b52611e3d608051610160516116ef565b50610100610120510160c052611e5660c0515151610c29565b611e65608051610100516116ef565b52611e75608051610100516116ef565b506101208051016101a052611e8e6101a0515151610c29565b611e9c60805160a0516116ef565b52611eab60805160a0516116ef565b5060005b60e06101205101518051821015611f185790611ece81611f13936116ef565b51611ee282611c08608051610160516116ef565b52611ef08160c051516116ef565b51611f0482611c08608051610100516116ef565b52611c3f816101a051516116ef565b611eaf565b50509295909396919497611d9f90611f31608051610bad565b6080529050611d96565b50611f4c6117ff6040840151151590565b80611d91575060208201516001600160a01b03166101205160800151611f7a906001600160a01b031661183e565b6001600160a01b0390911614611d91565b90915051611f9881610190565b611fa182610190565b611faa81610190565b148338611d89565b50505094909391939291906101605190610100519060a05190565b506001611736565b805460011015611ff1575b600052600360206000200190600090565b611ff9610e6a565b611fe0565b805482101561201b575b6000526003602060002091020190600090565b612023610e6a565b612008565b91604090600292612049575b80518455602081015160018501550151910155565b612051610c70565b612034565b906120796101a292805490600160401b82101561207f575b600182018155611ffe565b90612028565b612087610601565b61206e565b6001018054156120995750565b6040516101a2916120a982610642565b600082526000602083015260006040830152612056565b604051906120cd82610642565b60006040838281528260208201520152565b906102bc92936120ed6120c0565b50600183019081541561214d575b6121058454610bad565b845560405195869361211685610642565b84526020840152604083015261212c8282612056565b5460018110612140575b60001901916122b4565b612148610b96565b612136565b6121568461208c565b6120fb565b6102bc916121676120c0565b5060005260028101602052604060002054906121ef565b9060405161218b81610642565b60406002829480548452600181015460208501520154910152565b805480156121e2575b6000190190600060026121c28484611ffe565b6121d5575b828155826001820155015555565b6121dd610c70565b6121c7565b6121ea611301565b6121af565b906121f86120c0565b506001820190808254118015906122ac575b6122885761221b6109d88284611ffe565b92835160005260028101602052600060408120556122456109d861223f85546112d4565b85611ffe565b61224e846121a6565b8354831061225e575b5050505090565b6109d88361227f956122748261227995876122b4565b611ffe565b90612369565b38808080612257565b50505060405161229781610642565b60008152600060208201526000604082015290565b50801561220a565b919060019283831480156122f7575b156122d2576101a293506124a2565b6122f2836122ec6109d887966101a2981c80978601611ffe565b836124a2565b6122b4565b5060208201805185830185871c91876123108484611ffe565b50015413928315612324575b5050506122c3565b9091925051866123348484611ffe565b500154149182612349575b505038808061231c565b600291925061235d90604086015193611ffe565b5001541115388061233f565b91906001830192835461237b84610cdd565b9485821161238f5750506101a293506124a2565b61239c6109d88783611ffe565b916123a6876112f1565b108061242f575b612410575b50602081015160208401518082129182156123ee575b5050156123da57506101a293506124a2565b6101a294936123e991836124a2565b612369565b149050806123fe575b38806123c8565b506040810151604084015111156123f7565b9461242991506124226109d891610bad565b8096611ffe565b386123b2565b50600161244461243e886112f1565b83611ffe565b500154602083019081511290811561245d575b506123ad565b9050600161247361246d896112f1565b84611ffe565b50015490511480612485575b38612457565b50600261249461243e886112f1565b50015460408301511161247f565b6002916124b6816120798660018601611ffe565b516000520160205260406000205556fead3228b676f7d3cd4284a5443f17f1962b36e491b30a40b2405849e597ba5fb5a26469706673582212203929cb69a2012166ca6c86c7189c3778ff18f8b075c6d514e71ab72cb804650d64736f6c634300080d0033176724daaa51ab0e492cb134b9dc3cbb135994821865c8d3d5f5a1bdbd11bb48fd22db442efe383267e0c4aa13f34b2d1ff23f3074069f1c9d2f11df866652d5a2646970667358221220c7c7abcfbbc2fc1009d956a17b674a0e6c32f4b97bbd29222e93ab23120732d064736f6c634300080d0033",
  "immutableReferences": {},
  "source": "// SPDX-License-Identifier: UNLICENSED\npragma solidity ^0.8.0;\nimport \"./OrderLibrary.sol\";\nimport \"./OrderBookData.sol\";\nimport \"./TokenManager.sol\";\nimport \"hardhat/console.sol\";\n\ncontract OrderBookManager {\n    event OrderBookCreatedEvent(\n        bytes32 indexed marketId,\n        address orderBookAddress\n    );\n\n    event OrderPlacedEvent(uint256 orderId);\n    event OrderCancelledEvent(uint256 orderId);\n    event OrderFilledEvent(OrderLibrary.OrderType orderType, uint256 orderId);\n    event OrderPartiallyFilledEvent(\n        OrderLibrary.OrderType orderType,\n        uint256 orderId\n    );\n\n    mapping(bytes32 => IOrderBookData) public marketOrderBooks;\n    TokenManager public tokenManager;\n    bool private initialized;\n\n    modifier onlyInitialized() {\n        require(initialized, \"Not initialized\");\n        _;\n    }\n\n    constructor() {\n        initialized = false;\n    }\n\n    function initialize(address _tokenManagerAddr) external {\n        require(!initialized, \"Already initialized\");\n        require(\n            _tokenManagerAddr != address(0),\n            \"Invalid token manager address\"\n        );\n        tokenManager = TokenManager(_tokenManagerAddr);\n        initialized = true;\n    }\n\n    function orderBookExists(bytes32 marketId) public view returns (bool) {\n        return address(marketOrderBooks[marketId]) != address(0);\n    }\n\n    function createMarketOrderBook(bytes32 _marketId) public {\n        require(\n            address(marketOrderBooks[_marketId]) == address(0),\n            \"Order Book already exists\"\n        );\n        console.log(\"[OrderBookManager] Creating Order Book for Market...\");\n\n        // Deploy new OrderBookData contract for this market\n        OrderBookData newOrderBook = new OrderBookData(address(this));\n        marketOrderBooks[_marketId] = IOrderBookData(address(newOrderBook));\n\n        emit OrderBookCreatedEvent(_marketId, address(newOrderBook));\n        console.log(\"[OrderBookManager] Order Book created for Market...\");\n    }\n\n    function createOrder(\n        bytes32 _marketId,\n        uint256 _amount,\n        int256 _price,\n        address _userAddress,\n        OrderLibrary.OrderType _orderType,\n        OrderLibrary.OrderNature _orderNature\n    ) external returns (uint256 _orderId) {\n        require(orderBookExists(_marketId), \"Order Book does not exist\");\n        uint256 orderId = marketOrderBooks[_marketId].addOrder(\n            _amount,\n            _price,\n            _userAddress,\n            _orderType,\n            _orderNature\n        );\n        emit OrderPlacedEvent(orderId);\n        return orderId;\n    }\n\n    function cancelOrder(\n        bytes32 _marketId,\n        uint256 _orderId,\n        OrderLibrary.OrderType _orderType,\n        OrderLibrary.OrderNature _orderNature\n    ) external returns (bool) {\n        require(orderBookExists(_marketId), \"Order Book does not exist\");\n        bool removed = marketOrderBooks[_marketId].removeOrder(\n            _orderType,\n            _orderNature,\n            _orderId\n        );\n        if (removed) {\n            emit OrderCancelledEvent(_orderId);\n        }\n        return removed;\n    }\n\n    function matchOrder(\n        bytes32 _marketId,\n        uint256 _pendingOrderId,\n        uint8 _exchangeTokenId,\n        OrderLibrary.OrderType _orderType\n    )\n        external\n        onlyInitialized\n        returns (\n            uint256,\n            address[] memory toBePaid,\n            address[] memory toReceive,\n            uint256[] memory tokenAmount,\n            int256[] memory currencyAmount\n        )\n    {\n        IOrderBookData marketOrderBook = marketOrderBooks[_marketId];\n        OrderLibrary.Order memory pendingOrder = marketOrderBook.getOrderFromId(\n            _orderType,\n            _pendingOrderId\n        );\n        require(\n            pendingOrder.remainingAmount > 0,\n            \"Pending order is fully filled\"\n        );\n        OrderLibrary.OrderType oppositeOrderType = _orderType ==\n            OrderLibrary.OrderType.Buy\n            ? OrderLibrary.OrderType.Sell\n            : OrderLibrary.OrderType.Buy;\n\n        uint256 remainingAmount = pendingOrder.remainingAmount;\n\n        // Initialize arrays with the correct size\n        uint256 size = marketOrderBook.getTotalOrderCount(oppositeOrderType);\n        toBePaid = new address[](size);\n        toReceive = new address[](size);\n        tokenAmount = new uint256[](size);\n        currencyAmount = new int256[](size);\n\n        uint256 count = 0;\n        uint256 pendingOrderNewAmount = pendingOrder.remainingAmount;\n\n        if (pendingOrder.nature == OrderLibrary.OrderNature.Market) {\n            bool flag = true;\n            uint256 availableBalance = tokenManager.getBalance(\n                pendingOrder.userAddress,\n                _exchangeTokenId\n            );\n            while (flag && pendingOrder.remainingAmount > 0) {\n                console.log(\"Available Balance: \", availableBalance);\n                uint256 bestOrderId = marketOrderBook.getBestOrderFromHeap(\n                    oppositeOrderType\n                );\n                // No opposite order present in the orderbook\n                if (bestOrderId == 0) {\n                    break;\n                }\n                OrderLibrary.Order memory bestOrder = marketOrderBook\n                    .getOrderFromId(oppositeOrderType, bestOrderId);\n\n                require(availableBalance > 0, \"User has insufficient balance\");\n\n                int256 settlingPrice = bestOrder.price;\n                uint256 minimumAmount;\n                if (pendingOrderNewAmount <= bestOrder.remainingAmount) {\n                    minimumAmount = pendingOrderNewAmount;\n                    if (\n                        availableBalance >=\n                        ((minimumAmount * uint256(settlingPrice)) / 1 ether)\n                    ) {\n                        flag = false; // Market Order will get fully satisfied so no reason to look for more orders\n                    } else {\n                        minimumAmount =\n                            (minimumAmount * uint256(settlingPrice)) /\n                            (availableBalance * 1 ether);\n                        flag = false; // Market Order will get partially filled but Limit Order will also get partially filled. Thus, market order will not be able to satisfy any more limit orders because of lack of user balance\n                    }\n                } else {\n                    minimumAmount = bestOrder.remainingAmount;\n                    if (\n                        (minimumAmount * uint256(settlingPrice)) / 1 ether >\n                        availableBalance\n                    ) {\n                        minimumAmount =\n                            (minimumAmount * uint256(settlingPrice)) /\n                            (availableBalance * 1 ether);\n                        flag = false; // Market Order will get partially filled but Limit Order will also get partially filled. Thus, market order will not be able to satisfy any more limit orders because of lack of user balance\n                    } else {\n                        availableBalance -=\n                            (minimumAmount * uint256(settlingPrice)) /\n                            1 ether; // Limit Order is fully satisfied but Market order is only partially filled and will continue to look for next best order, so user balance is updated\n                    }\n                }\n\n                uint256 matchedAmount = (minimumAmount *\n                    uint256(settlingPrice)) / 1 ether;\n                toBePaid[count] = _orderType == OrderLibrary.OrderType.Buy\n                    ? bestOrder.userAddress\n                    : pendingOrder.userAddress;\n                toReceive[count] = _orderType == OrderLibrary.OrderType.Buy\n                    ? pendingOrder.userAddress\n                    : bestOrder.userAddress;\n                tokenAmount[count] = minimumAmount;\n                currencyAmount[count] = int256(matchedAmount);\n\n                pendingOrderNewAmount -= minimumAmount;\n                uint256 bestOrderNewAmount = bestOrder.remainingAmount -\n                    minimumAmount;\n\n                // Update fills for both matched orders\n                OrderLibrary.Fills memory pendingOrderNewReceipts = OrderLibrary\n                    .Fills({\n                        price: settlingPrice,\n                        amount: minimumAmount,\n                        timestamp: block.timestamp\n                    });\n                OrderLibrary.Fills memory bestOrderNewReceipts = OrderLibrary\n                    .Fills({\n                        price: settlingPrice,\n                        amount: minimumAmount,\n                        timestamp: block.timestamp\n                    });\n\n                // Update order statuses\n                OrderLibrary.OrderStatus bestOrderNewStatus = bestOrderNewAmount ==\n                        0\n                        ? OrderLibrary.OrderStatus.Filled\n                        : OrderLibrary.OrderStatus.PartiallyFilled;\n\n                OrderLibrary.OrderStatus pendingOrderNewStatus = pendingOrderNewAmount ==\n                        0\n                        ? OrderLibrary.OrderStatus.Filled\n                        : OrderLibrary.OrderStatus.PartiallyFilled;\n\n                if (bestOrderNewAmount == 0) {\n                    marketOrderBook.removeOrder(\n                        oppositeOrderType,\n                        OrderLibrary.OrderNature.Limit,\n                        bestOrderId\n                    );\n\n                    emit OrderFilledEvent(oppositeOrderType, bestOrderId);\n                } else {\n                    emit OrderPartiallyFilledEvent(\n                        oppositeOrderType,\n                        bestOrderId\n                    );\n                }\n\n                if (pendingOrderNewAmount == 0) {\n                    marketOrderBook.removeOrder(\n                        _orderType,\n                        OrderLibrary.OrderNature.Market,\n                        _pendingOrderId\n                    );\n\n                    emit OrderFilledEvent(_orderType, _pendingOrderId);\n                } else {\n                    emit OrderPartiallyFilledEvent(_orderType, _pendingOrderId);\n                }\n\n                marketOrderBook.updateOrder(\n                    _orderType,\n                    _pendingOrderId,\n                    pendingOrderNewAmount,\n                    pendingOrderNewStatus,\n                    pendingOrderNewReceipts\n                );\n\n                marketOrderBook.updateOrder(\n                    oppositeOrderType,\n                    bestOrderId,\n                    bestOrderNewAmount,\n                    bestOrderNewStatus,\n                    bestOrderNewReceipts\n                );\n\n                count++;\n            }\n        } else {\n            uint256[] memory pendingMarketOrders = marketOrderBook\n                .getAllPendingMarketOrders(oppositeOrderType);\n            uint i = 0;\n            while (pendingOrderNewAmount > 0) {\n                if (i == 0) {\n                    while (\n                        i < pendingMarketOrders.length &&\n                        pendingOrderNewAmount > 0\n                    ) {\n                        console.log(\"Market Order: \", pendingMarketOrders[i]);\n                        console.log(\n                            \"Pending Amount of the order: \",\n                            pendingOrderNewAmount\n                        );\n                        OrderLibrary.Order memory marketOrder = marketOrderBook\n                            .getOrderFromId(\n                                oppositeOrderType,\n                                pendingMarketOrders[i]\n                            );\n                        uint256 userBalance = tokenManager.getBalance(\n                            marketOrder.userAddress,\n                            _exchangeTokenId\n                        );\n                        console.log(\"User balance: \", userBalance);\n                        require(userBalance > 0, \"User balance is zero!\");\n\n                        int256 settlingPrice = pendingOrder.price;\n                        uint256 minimumAmount = pendingOrderNewAmount <\n                            marketOrder.remainingAmount\n                            ? pendingOrderNewAmount\n                            : marketOrder.remainingAmount;\n                        console.log(\"Minimum Amount = \", minimumAmount);\n                        console.log(\n                            \"Initial Amount to match = \",\n                            (minimumAmount * uint256(settlingPrice)) / 1 ether\n                        );\n                        if (\n                            userBalance <\n                            ((minimumAmount * uint256(settlingPrice)) / 1 ether)\n                        ) {\n                            console.log(\n                                \"Entering if condition: Reducing Balance\"\n                            );\n                            minimumAmount =\n                                (minimumAmount * uint256(settlingPrice)) /\n                                (userBalance * 1 ether);\n                        }\n                        console.log(\"Minimum Amount = \", minimumAmount);\n\n                        uint256 amountToMatch = (minimumAmount *\n                            uint256(settlingPrice)) / 1 ether;\n\n                        console.log(\"Final Amount to match = \", amountToMatch);\n\n                        toBePaid[count] = _orderType ==\n                            OrderLibrary.OrderType.Buy\n                            ? marketOrder.userAddress\n                            : pendingOrder.userAddress;\n                        toReceive[count] = _orderType ==\n                            OrderLibrary.OrderType.Buy\n                            ? pendingOrder.userAddress\n                            : marketOrder.userAddress;\n                        tokenAmount[count] = minimumAmount;\n                        currencyAmount[count] = int256(amountToMatch);\n\n                        pendingOrderNewAmount -= minimumAmount;\n                        uint256 marketOrderNewAmount = marketOrder\n                            .remainingAmount - minimumAmount;\n\n                        console.log(\n                            \"Market Order New Amount = \",\n                            marketOrderNewAmount\n                        );\n                        // Update fills for both matched orders\n                        OrderLibrary.Fills\n                            memory newPendingOrderReceipts = OrderLibrary\n                                .Fills({\n                                    price: settlingPrice,\n                                    amount: minimumAmount,\n                                    timestamp: block.timestamp\n                                });\n                        OrderLibrary.Fills\n                            memory marketOrderNewReceipts = OrderLibrary.Fills({\n                                price: settlingPrice,\n                                amount: minimumAmount,\n                                timestamp: block.timestamp\n                            });\n\n                        // Update order statuses\n                        OrderLibrary.OrderStatus marketOrderNewStatus = marketOrderNewAmount ==\n                                0\n                                ? OrderLibrary.OrderStatus.Filled\n                                : OrderLibrary.OrderStatus.PartiallyFilled;\n\n                        OrderLibrary.OrderStatus newPendingOrderStatus = pendingOrderNewAmount ==\n                                0\n                                ? OrderLibrary.OrderStatus.Filled\n                                : OrderLibrary.OrderStatus.PartiallyFilled;\n\n                        if (marketOrderNewAmount == 0) {\n                            console.log(\"Removing Market Order\");\n                            marketOrderBook.removeOrder(\n                                oppositeOrderType,\n                                OrderLibrary.OrderNature.Market,\n                                pendingMarketOrders[i]\n                            );\n\n                            emit OrderFilledEvent(\n                                oppositeOrderType,\n                                pendingMarketOrders[i]\n                            );\n                        } else {\n                            emit OrderPartiallyFilledEvent(\n                                oppositeOrderType,\n                                pendingMarketOrders[i]\n                            );\n                        }\n\n                        if (pendingOrderNewAmount == 0) {\n                            console.log(\"Removing Pending Order\");\n                            marketOrderBook.removeOrder(\n                                _orderType,\n                                OrderLibrary.OrderNature.Limit,\n                                _pendingOrderId\n                            );\n\n                            emit OrderFilledEvent(_orderType, _pendingOrderId);\n                        } else {\n                            emit OrderPartiallyFilledEvent(\n                                _orderType,\n                                _pendingOrderId\n                            );\n                        }\n\n                        marketOrderBook.updateOrder(\n                            _orderType,\n                            _pendingOrderId,\n                            pendingOrderNewAmount,\n                            newPendingOrderStatus,\n                            newPendingOrderReceipts\n                        );\n\n                        marketOrderBook.updateOrder(\n                            oppositeOrderType,\n                            pendingMarketOrders[i],\n                            marketOrderNewAmount,\n                            marketOrderNewStatus,\n                            marketOrderNewReceipts\n                        );\n\n                        count++;\n                        i++;\n                    }\n                }\n\n                if (pendingOrderNewAmount == 0) {\n                    break;\n                }\n\n                uint256 bestOrderId = marketOrderBook.getBestOrderFromHeap(\n                    oppositeOrderType\n                );\n                if (bestOrderId == 0) break; // No more orders to match\n\n                OrderLibrary.Order memory bestOrder = marketOrderBook\n                    .getOrderFromId(oppositeOrderType, bestOrderId);\n\n                bool orderMatched = _orderType == OrderLibrary.OrderType.Buy\n                    ? pendingOrder.price >= bestOrder.price\n                    : pendingOrder.price <= bestOrder.price;\n                if (!orderMatched) break;\n\n                uint256 matchedAmount = pendingOrderNewAmount <\n                    bestOrder.remainingAmount\n                    ? pendingOrderNewAmount\n                    : bestOrder.remainingAmount;\n\n                // Safe array insertion since we pre-allocated the correct size\n                if (_orderType == OrderLibrary.OrderType.Buy) {\n                    toBePaid[count] = bestOrder.userAddress;\n                    toReceive[count] = pendingOrder.userAddress;\n                } else {\n                    toBePaid[count] = pendingOrder.userAddress;\n                    toReceive[count] = bestOrder.userAddress;\n                }\n                tokenAmount[count] = matchedAmount;\n                currencyAmount[count] = int256(\n                    (matchedAmount * uint256(bestOrder.price)) / 1 ether\n                );\n\n                pendingOrderNewAmount -= matchedAmount;\n                uint256 bestOrderNewAmount = bestOrder.remainingAmount -\n                    matchedAmount;\n\n                // Update fills for both matched orders\n                OrderLibrary.Fills memory pendingOrderNewReceipts = OrderLibrary\n                    .Fills({\n                        price: bestOrder.price,\n                        amount: matchedAmount,\n                        timestamp: block.timestamp\n                    });\n                OrderLibrary.Fills memory bestOrderNewReceipts = OrderLibrary\n                    .Fills({\n                        price: bestOrder.price,\n                        amount: matchedAmount,\n                        timestamp: block.timestamp\n                    });\n\n                // Update order statuses\n                OrderLibrary.OrderStatus bestOrderNewStatus = bestOrderNewAmount ==\n                        0\n                        ? OrderLibrary.OrderStatus.Filled\n                        : OrderLibrary.OrderStatus.PartiallyFilled;\n\n                OrderLibrary.OrderStatus pendingOrderNewStatus = pendingOrderNewAmount ==\n                        0\n                        ? OrderLibrary.OrderStatus.Filled\n                        : OrderLibrary.OrderStatus.PartiallyFilled;\n\n                if (bestOrderNewAmount == 0) {\n                    marketOrderBook.removeOrder(\n                        oppositeOrderType,\n                        OrderLibrary.OrderNature.Limit,\n                        bestOrderId\n                    );\n\n                    emit OrderFilledEvent(oppositeOrderType, bestOrderId);\n                } else {\n                    emit OrderPartiallyFilledEvent(\n                        oppositeOrderType,\n                        bestOrderId\n                    );\n                }\n\n                if (pendingOrderNewAmount == 0) {\n                    marketOrderBook.removeOrder(\n                        _orderType,\n                        OrderLibrary.OrderNature.Limit,\n                        _pendingOrderId\n                    );\n                    emit OrderFilledEvent(_orderType, _pendingOrderId);\n                } else {\n                    emit OrderPartiallyFilledEvent(_orderType, _pendingOrderId);\n                }\n\n                marketOrderBook.updateOrder(\n                    _orderType,\n                    _pendingOrderId,\n                    pendingOrderNewAmount,\n                    pendingOrderNewStatus,\n                    pendingOrderNewReceipts\n                );\n\n                marketOrderBook.updateOrder(\n                    oppositeOrderType,\n                    bestOrderId,\n                    bestOrderNewAmount,\n                    bestOrderNewStatus,\n                    bestOrderNewReceipts\n                );\n\n                count++;\n            }\n        }\n\n        return (\n            pendingOrderNewAmount,\n            toBePaid,\n            toReceive,\n            tokenAmount,\n            currencyAmount\n        );\n    }\n\n    function getAllOrdersForAMarket(\n        bytes32 _marketId,\n        OrderLibrary.AllOrdersQueryParams memory params\n    )\n        external\n        view\n        returns (\n            uint256[] memory amount,\n            int256[] memory price,\n            uint256[] memory orderIds,\n            OrderLibrary.OrderType[] memory orderType,\n            OrderLibrary.OrderNature[] memory nature,\n            int256[][] memory fillsPrice,\n            uint256[][] memory fillsAmount,\n            uint256[][] memory fillsTimestamp\n        )\n    {\n        IOrderBookData orderBook = marketOrderBooks[_marketId];\n        return orderBook.getAllOrdersWithFilters(params);\n    }\n\n    function getBestPriceInMarket(\n        OrderLibrary.OrderType _orderType,\n        bytes32 _marketId\n    ) external view returns (int256) {\n        IOrderBookData marketOrderBook = marketOrderBooks[_marketId];\n        uint256 orderId = marketOrderBook.getBestOrderFromHeap(_orderType);\n        return marketOrderBook.getOrderFromId(_orderType, orderId).price;\n    }\n}\n",
  "sourcePath": "C:\\Users\\kaise\\OneDrive\\Desktop\\Codebase\\NTU\\sc4053-blockchain-technology\\contracts\\OrderBookManager.sol",
  "compiler": {
    "name": "solc",
    "version": "0.8.13+commit.abaa5c0e.Emscripten.clang"
  },
  "schemaVersion": "3.4.16",
  "updatedAt": "2024-11-09T09:27:03.519Z",
  "networkType": "ethereum",
  "devdoc": {
    "kind": "dev",
    "methods": {},
    "version": 1
  },
  "userdoc": {
    "kind": "user",
    "methods": {},
    "version": 1
  }
}