{
  "contractName": "OrderBookData",
  "abi": [
    {
      "inputs": [
        {
          "internalType": "address",
          "name": "_orderBookManager",
          "type": "address"
        }
      ],
      "stateMutability": "nonpayable",
      "type": "constructor"
    },
    {
      "inputs": [],
      "name": "orderBookManager",
      "outputs": [
        {
          "internalType": "address",
          "name": "",
          "type": "address"
        }
      ],
      "stateMutability": "view",
      "type": "function"
    },
    {
      "inputs": [],
      "name": "initializeOrderBooks",
      "outputs": [],
      "stateMutability": "nonpayable",
      "type": "function"
    },
    {
      "inputs": [
        {
          "internalType": "uint256",
          "name": "_amount",
          "type": "uint256"
        },
        {
          "internalType": "uint256",
          "name": "_price",
          "type": "uint256"
        },
        {
          "internalType": "address",
          "name": "_userAddress",
          "type": "address"
        },
        {
          "internalType": "enum OrderLibrary.OrderType",
          "name": "_orderType",
          "type": "uint8"
        },
        {
          "internalType": "enum OrderLibrary.OrderNature",
          "name": "_orderNature",
          "type": "uint8"
        }
      ],
      "name": "addOrder",
      "outputs": [
        {
          "internalType": "uint256",
          "name": "orderId",
          "type": "uint256"
        }
      ],
      "stateMutability": "nonpayable",
      "type": "function"
    },
    {
      "inputs": [
        {
          "internalType": "enum OrderLibrary.OrderType",
          "name": "_orderType",
          "type": "uint8"
        },
        {
          "internalType": "uint256",
          "name": "_orderId",
          "type": "uint256"
        },
        {
          "internalType": "uint256",
          "name": "_remainingAmount",
          "type": "uint256"
        },
        {
          "internalType": "enum OrderLibrary.OrderStatus",
          "name": "_status",
          "type": "uint8"
        },
        {
          "components": [
            {
              "internalType": "uint256",
              "name": "price",
              "type": "uint256"
            },
            {
              "internalType": "uint256",
              "name": "amount",
              "type": "uint256"
            },
            {
              "internalType": "uint256",
              "name": "timestamp",
              "type": "uint256"
            }
          ],
          "internalType": "struct OrderLibrary.Fills",
          "name": "_orderReceipt",
          "type": "tuple"
        }
      ],
      "name": "updateOrder",
      "outputs": [],
      "stateMutability": "nonpayable",
      "type": "function"
    },
    {
      "inputs": [
        {
          "internalType": "enum OrderLibrary.OrderType",
          "name": "_orderType",
          "type": "uint8"
        },
        {
          "internalType": "uint256",
          "name": "_orderId",
          "type": "uint256"
        },
        {
          "internalType": "enum OrderLibrary.OrderStatus",
          "name": "_newOrderStatus",
          "type": "uint8"
        }
      ],
      "name": "updateOrderStatus",
      "outputs": [],
      "stateMutability": "nonpayable",
      "type": "function"
    },
    {
      "inputs": [
        {
          "internalType": "enum OrderLibrary.OrderType",
          "name": "_orderType",
          "type": "uint8"
        },
        {
          "internalType": "uint256",
          "name": "_orderId",
          "type": "uint256"
        }
      ],
      "name": "removeOrder",
      "outputs": [
        {
          "internalType": "bool",
          "name": "",
          "type": "bool"
        }
      ],
      "stateMutability": "nonpayable",
      "type": "function"
    },
    {
      "inputs": [
        {
          "internalType": "enum OrderLibrary.OrderType",
          "name": "_orderType",
          "type": "uint8"
        }
      ],
      "name": "getBestOrderFromHeap",
      "outputs": [
        {
          "internalType": "uint256",
          "name": "",
          "type": "uint256"
        }
      ],
      "stateMutability": "view",
      "type": "function"
    },
    {
      "inputs": [
        {
          "internalType": "enum OrderLibrary.OrderType",
          "name": "_orderType",
          "type": "uint8"
        },
        {
          "internalType": "uint256",
          "name": "_orderId",
          "type": "uint256"
        }
      ],
      "name": "getOrderFromId",
      "outputs": [
        {
          "components": [
            {
              "internalType": "uint256",
              "name": "totalAmount",
              "type": "uint256"
            },
            {
              "internalType": "uint256",
              "name": "remainingAmount",
              "type": "uint256"
            },
            {
              "internalType": "uint256",
              "name": "price",
              "type": "uint256"
            },
            {
              "internalType": "uint256",
              "name": "timestamp",
              "type": "uint256"
            },
            {
              "internalType": "address",
              "name": "userAddress",
              "type": "address"
            },
            {
              "internalType": "enum OrderLibrary.OrderStatus",
              "name": "status",
              "type": "uint8"
            },
            {
              "internalType": "enum OrderLibrary.OrderNature",
              "name": "nature",
              "type": "uint8"
            },
            {
              "internalType": "uint256[]",
              "name": "fillsPrice",
              "type": "uint256[]"
            },
            {
              "internalType": "uint256[]",
              "name": "fillsAmount",
              "type": "uint256[]"
            },
            {
              "internalType": "uint256[]",
              "name": "fillsTimestamp",
              "type": "uint256[]"
            }
          ],
          "internalType": "struct OrderLibrary.Order",
          "name": "",
          "type": "tuple"
        }
      ],
      "stateMutability": "view",
      "type": "function"
    },
    {
      "inputs": [
        {
          "internalType": "enum OrderLibrary.OrderType",
          "name": "_orderType",
          "type": "uint8"
        }
      ],
      "name": "getActiveOrderCount",
      "outputs": [
        {
          "internalType": "uint256",
          "name": "",
          "type": "uint256"
        }
      ],
      "stateMutability": "view",
      "type": "function"
    },
    {
      "inputs": [
        {
          "components": [
            {
              "internalType": "enum OrderLibrary.OrderStatus",
              "name": "status",
              "type": "uint8"
            },
            {
              "internalType": "address",
              "name": "userAddress",
              "type": "address"
            },
            {
              "internalType": "bool",
              "name": "filterByUser",
              "type": "bool"
            }
          ],
          "internalType": "struct OrderLibrary.AllOrdersQueryParams",
          "name": "params",
          "type": "tuple"
        }
      ],
      "name": "getAllOrdersWithFilters",
      "outputs": [
        {
          "internalType": "uint256[]",
          "name": "amount",
          "type": "uint256[]"
        },
        {
          "internalType": "uint256[]",
          "name": "price",
          "type": "uint256[]"
        },
        {
          "internalType": "enum OrderLibrary.OrderType[]",
          "name": "orderType",
          "type": "uint8[]"
        },
        {
          "internalType": "enum OrderLibrary.OrderNature[]",
          "name": "nature",
          "type": "uint8[]"
        },
        {
          "internalType": "uint256[][]",
          "name": "fillsPrice",
          "type": "uint256[][]"
        },
        {
          "internalType": "uint256[][]",
          "name": "fillsAmount",
          "type": "uint256[][]"
        },
        {
          "internalType": "uint256[][]",
          "name": "fillsTimestamp",
          "type": "uint256[][]"
        }
      ],
      "stateMutability": "view",
      "type": "function"
    }
  ],
  "bytecode": "0x60a060405234620000d8576200210c60208138039182620000208162000123565b938492833981010312620000d857516001600160a01b03811690818103620000d857608052330362000087576200005662000149565b6200006062000251565b604051611dcd90816200033f82396080518181816102f70152818161064a01526108230152f35b60405162461bcd60e51b8152602060048201526024808201527f43616c6c6572206973206e6f7420746865206f7264657220626f6f6b206d616e60448201526330b3b2b960e11b6064820152608490fd5b600080fd5b50634e487b7160e01b600052604160045260246000fd5b60408051919082016001600160401b038111838210176200011457604052565b6200011e620000dd565b604052565b6040519190601f01601f191682016001600160401b038111838210176200011457604052565b60008080526020527fad3228b676f7d3cd4284a5443f17f1962b36e491b30a40b2405849e597ba5fb9805491908215620001d3575b50600080805260208190527fad3228b676f7d3cd4284a5443f17f1962b36e491b30a40b2405849e597ba5fb58190557fad3228b676f7d3cd4284a5443f17f1962b36e491b30a40b2405849e597ba5fb7559050565b620001dd620000f4565b9060009384835260208301918583526801000000000000000082101562000241575b600182018082558210156200022d57856020916001959697522090831b01925183555191015580386200017e565b634e487b7160e01b86526032600452602486fd5b6200024b620000dd565b620001ff565b600160009081526020527fada5013122d395ba3c54772283fb069b10426056ef8ca54750cb9bb552a59e81805491908215620002d4575b5090506000620002a360016000526000602052604060002090565b556001600090815260208190527fada5013122d395ba3c54772283fb069b10426056ef8ca54750cb9bb552a59e7f55565b620002de620000f4565b906000938483526020830191858352680100000000000000008210156200032e575b600182018082558210156200022d57856020916001959697522090831b019251835551910155803862000288565b62000338620000dd565b6200030056fe6101c06040818152600436101561001557600080fd5b600090813560e01c9283631e3cc601146100eb5750505080633a226883146100e2578063817aade2146100d95780638c57f0e9146100d05780639861d802146100c7578063b940cb7e146100be578063c12ba430146100b5578063c6a6b5ec146100ac578063dee846b7146100a35763e1d0c89314610096575b3880600080fd5b61009e610938565b61008f565b5061009e6107d1565b5061009e61079b565b5061009e61072f565b5061009e610679565b5061009e610633565b5061009e6105be565b5061009e61037d565b5061009e6102de565b3461018557816003193601126101855781610181936101769260606101206004359261011684610189565b61011f816103d6565b848152846020820152848682015284838201528460808201528460a08201528460c08201528260e082015282610100820152015261015c816101db565b815280602052600182822001602435825260205220610fb7565b905191829182610223565b0390f35b8280fd5b6002111561019357565b600080fd5b50634e487b7160e01b600052602160045260246000fd5b600411156101b957565b6101c1610198565b565b9060048210156101d05752565b6101d8610198565b52565b600211156101b957565b906101d8826101db565b90815180825260208080930193019160005b82811061020f575050505090565b835185529381019392810192600101610201565b906102db91602081528151602082015260208201516040820152604082015160608201526060820151608082015261026a608083015160a083019060018060a01b03169052565b61027c60a083015160c08301906101c3565b61028e60c083015160e08301906101e5565b60e0820151906101406102ae6101009382858501526101608401906101ef565b928401516102cb601f1994610120928686830301848701526101ef565b94015192828503019101526101ef565b90565b50346101935760008060031936011261037a57610325337f00000000000000000000000000000000000000000000000000000000000000006001600160a01b031614610a02565b80805280602052604061033c600382842001611a11565b818052816020528181812055816002828220015560018252610362600382842001611a11565b60018252816020528181812055816002828220015551f35b80fd5b50346101935760203660031901126101935760043561039b81610189565b6103a4816101db565b60005260006020526020600260406000200154604051908152f35b50634e487b7160e01b600052604160045260246000fd5b610140810190811067ffffffffffffffff8211176103f357604052565b6103fb6103bf565b604052565b6060810190811067ffffffffffffffff8211176103f357604052565b6040810190811067ffffffffffffffff8211176103f357604052565b90601f8019910116810190811067ffffffffffffffff8211176103f357604052565b604051906101c1826103d6565b90815180825260208080930193019160005b828110610487575050505090565b909192938280600192875161049b816101db565b815201950193929101610479565b908082519081815260208091019281808460051b8301019501936000915b8483106104d75750505050505090565b90919293949584806104f5600193601f198682030187528a516101ef565b98019301930191949392906104c7565b9593919061052361053291999896949960e0895260e08901906101ef565b602092888203848a01526101ef565b868103604088015281808a51928381520199019160005b82811061059c575050505061058e92916105728861058093886102db9a9b0360608a0152610467565b9086820360808801526104a9565b9084820360a08601526104a9565b9160c08184039101526104a9565b9091929982806001928d516105b0816101db565b8152019b0193929101610549565b5034610193576060366003190112610193576040516105dc81610400565b60043560048110156101935781526024356001600160a01b0381168103610193576020820152604435801515810361019357816106209160406101819401526110c1565b9360409795979391935197889788610505565b5034610193576000366003190112610193576040517f00000000000000000000000000000000000000000000000000000000000000006001600160a01b03168152602090f35b50346101935760203660031901126101935761018160043561069a81610189565b6106a3816101db565b6000908152806020526004604082206106ba611a3e565b506106c3611a3e565b50019060018254116000146106f657506106df6106e591611964565b50611aee565b516040519081529081906020820190565b604080519250820167ffffffffffffffff811183821017610722575b60405280825260208201526106e5565b61072a6103bf565b610712565b50346101935760e03660031901126101935760043561074d81610189565b60643590600482101561019357606036608319011261019357610799916040519161077783610400565b608435835260a435602084015260c43560408401526044359060243590610dd2565b005b50346101935760403660031901126101935760206107c76004356107be81610189565b60243590610eb6565b6040519015158152f35b50346101935760a0366003190112610193576001600160a01b0360443560043560243583831683036101935760209361091a926064359261081184610189565b61084a6084359361082185610189565b7f0000000000000000000000000000000000000000000000000000000000000000163314610a02565b6108ed61085685610a5a565b926108618454610a8a565b97889586865561086f610acd565b6108c761087a610acd565b926108b7610886610acd565b9561088f61045a565b8881526020810198909852604088018a90524260608901526001600160a01b03166080880152565b600060a087015260c08601610b44565b60e084015261010083015261012082015260008581526001850160205260409020610c6c565b600282016108fb8154610a8a565b9055600160009461090b816101db565b14610923575b50600301611a57565b50604051908152f35b600391935061093190610d27565b9290610911565b50346101935760603660031901126101935760043561095681610189565b60443560048110156101935761096b826101db565b600091825281602052600160408320016024358352602052600460408320019060ff825460a01c1660048110156109f5575b81146109b1576109ac91610b64565b604051f35b606460405162461bcd60e51b815260206004820152602060248201527f4f7264657220697320616c726561647920696e207468697320737461747573206044820152fd5b6109fd610198565b61099d565b15610a0957565b60405162461bcd60e51b8152602060048201526024808201527f43616c6c6572206973206e6f7420746865206f7264657220626f6f6b206d616e60448201526330b3b2b960e11b6064820152608490fd5b610a63816101db565b6000526000602052604060002090565b50634e487b7160e01b600052601160045260246000fd5b6001906000198114610a9a570190565b610aa2610a73565b0190565b60209067ffffffffffffffff8111610ac0575b60051b0190565b610ac86103bf565b610ab9565b604051906000602083019280841067ffffffffffffffff851117610af9575b8360405281815292369037565b610b016103bf565b610aec565b90610b1082610aa6565b610b1d6040519182610438565b8281528092610b2e601f1991610aa6565b0190602036910137565b60048210156101d05752565b6101d8826101db565b50634e487b7160e01b600052600060045260246000fd5b906004811015610b89575b815460ff60a01b191660a09190911b60ff60a01b16179055565b610b91610198565b610b6f565b90610ba0816101db565b815460ff60a81b191660a89190911b60ff60a81b16179055565b806000190460021181151516610bd1575b60011b90565b610bd9610a73565b610bcb565b815191600160401b8311610c5f575b8154838355808410610c36575b50610c0f602080920192600052602060002090565b6000925b848410610c21575050505050565b60018382829351855501920193019290610c13565b6000838152846020822092830192015b828110610c54575050610bfa565b818155600101610c46565b610c676103bf565b610bed565b60076101206101c19380518455602081015160018501556040810151600285015560608101516003850155610cfb60048501610cd0610cb4608085015160018060a01b031690565b82546001600160a01b0319166001600160a01b03909116178255565b610ce760a0840151610ce1816101af565b82610b64565b60c083015190610cf6826101db565b610b96565b610d0c60e082015160058601610bde565b610d1e61010082015160068601610bde565b01519101610bde565b600160001960008313600160ff1b8490058212168216610d69575b82828060ff1b030513600083121616610d5c575b60000390565b610d64610a73565b610d56565b610d71610a73565b610d42565b50634e487b7160e01b600052603260045260246000fd5b805490600160401b821015610dc5575b60018201808255821015610db8575b60005260206000200155565b610dc0610d76565b610dac565b610dcd6103bf565b610d9d565b93610e13600793946040936101c197610dea816101db565b600052600060205260018560002001906000526020528360002095600187015560048601610b64565b610e21815160058601610d8d565b610e32602082015160068601610d8d565b01519101610d8d565b610e44816101db565b60005260006020526001604060002001906000526020526004604060002001805460ff8160a01c166004811015610e8e575b6003146109b15760ff60a01b1916600360a01b179055565b610e96610198565b610e76565b8015610ea9575b6000190190565b610eb1610a73565b610ea2565b610ebf816101db565b6000908082528160205260408220918381526001830160205260ff600460408320015460a01c16610eef816101af565b610f2d5783610f018160038601611acb565b5103610f265750600292610f1491610e3b565b01610f1f8154610e9b565b9055600190565b9250505090565b60405162461bcd60e51b81526020600482015260136024820152724f72646572206973206e6f742041637469766560681b6044820152606490fd5b9060405191828154918282526020928383019160005283600020936000905b828210610f9d575050506101c192500383610438565b855484526001958601958895509381019390910190610f87565b9061104d6007610fc561045a565b8454815260018501546020820152600285015460408201526003850154606082015260048501546001600160a01b03811660808301529094906110249060ff90611017828260a01c1660a08a01610b38565b60a81c1660c08701610b44565b61103060058201610f68565b60e086015261104160068201610f68565b61010086015201610f68565b610120830152565b9061105f82610aa6565b61106c6040519182610438565b828152809261107d601f1991610aa6565b019060005b82811061108e57505050565b806060602080938501015201611082565b60209181518110156110b4575b60051b010190565b6110bc610d76565b6110ac565b80516110cc816101af565b81516110d7816101af565b6110e0816101af565b1561195c575b60009060015b6000808052602052600080516020611d7883398151915254811161124157600080805260205261114061113b826001600080516020611d788339815191525b0190600052602052604060002090565b610fb7565b60a0810190838251611151816101af565b87519061115d826101af565b611166826101af565b61116f816101af565b14928315611218575b5050816111a9575b50611194575b61118f90610a8a565b6110ec565b916111a161118f91610a8a565b929050611186565b90506111bf6111bb6040870151151590565b1590565b9081156111ce575b5038611180565b6020860151909150611206906111fa906080906001600160a01b03165b9301516001600160a01b031690565b6001600160a01b031690565b6001600160a01b0390911614386111c7565b9091925051611226816101af565b61122f826101af565b611238816101af565b14908338611178565b5060015b600160009081526020527fada5013122d395ba3c54772283fb069b10426056ef8ca54750cb9bb552a59e7d54811161137b5761129561113b82600161112b60016000526000602052604060002090565b60a08101908382516112a6816101af565b8751906112b2826101af565b6112bb826101af565b6112c4816101af565b14928315611352575b5050816112fe575b506112e9575b6112e490610a8a565b611245565b916112f66112e491610a8a565b9290506112db565b90506113106111bb6040870151151590565b90811561131f575b50386112d5565b6020860151909150611340906111fa906080906001600160a01b03166111eb565b6001600160a01b039091161438611318565b9091925051611360816101af565b611369826101af565b611372816101af565b149083386112cd565b5091909161138883610b06565b61139184610b06565b9161139b85610b06565b936113c66113a887610b06565b966113b281611055565b60c0526113be81611055565b60e052611055565b6101a05260006101005260015b6000808052602052600080516020611d7883398151915254811161169957600080805260205260a061141861113b836001600080516020611d7883398151915261112b565b80825201838151611428816101af565b845190611434826101af565b61143d826101af565b611446816101af565b14918215611672575b505080611623575b61146a575b61146590610a8a565b6113d3565b9592602060a098959298969396510151611487610100518361109f565b52604060a051015161149c610100518461109f565b5260006114ac610100518561109f565b526114d260c060a05101516114c0816101db565b6114cd610100518761109f565b610b44565b6114e260e060a051015151610b06565b6114f16101005160c05161109f565b526115016101005160c05161109f565b5061151861010060a0510180610180525151610b06565b6115276101005160e05161109f565b526115376101005160e05161109f565b5061154e61012060a0510180610160525151610b06565b61155e610100516101a05161109f565b5261156f610100516101a05161109f565b5060005b60e060a051015180518210156115fd5790611591816115f89361109f565b516115ab826115a56101005160c05161109f565b5161109f565b526115ba81610180515161109f565b516115ce826115a56101005160e05161109f565b526115dd81610160515161109f565b516115f2826115a5610100516101a05161109f565b52610a8a565b611573565b50509295611465909791949795929561161861010051610a8a565b61010052905061145c565b506116346111bb6040840151151590565b80611457575060208201516001600160a01b031660a05160800151611661906001600160a01b03166111fa565b6001600160a01b0390911614611457565b9091505161167f816101af565b611688826101af565b611691816101af565b14833861144f565b5060015b600160009081526020527fada5013122d395ba3c54772283fb069b10426056ef8ca54750cb9bb552a59e7d5481116119435760a06116ef61113b83600161112b60016000526000602052604060002090565b8060805201838151611700816101af565b84519061170c826101af565b611715826101af565b61171e816101af565b1491821561191c575b5050806118ce575b611742575b61173d90610a8a565b61169d565b9592602060809895929896939651015161175f610100518361109f565b5260406080510151611774610100518461109f565b5261178b611785610100518561109f565b60019052565b61179e60c060805101516114c0816101db565b6117ae60e0608051015151610b06565b6117bd6101005160c05161109f565b526117cd6101005160c05161109f565b506117e46101006080510180610140525151610b06565b6117f36101005160e05161109f565b526118036101005160e05161109f565b5061181a6101206080510180610120525151610b06565b61182a610100516101a05161109f565b5261183b610100516101a05161109f565b5060005b60e0608051015180518210156118a8579061185d816118a39361109f565b51611871826115a56101005160c05161109f565b5261188081610140515161109f565b51611894826115a56101005160e05161109f565b526115dd81610120515161109f565b61183f565b5050929561173d90979194979592956118c361010051610a8a565b610100529050611734565b506118df6111bb6040840151151590565b8061172f575060208201516001600160a01b031660808051015161190b906001600160a01b03166111fa565b6001600160a01b039091161461172f565b90915051611929816101af565b611932826101af565b61193b816101af565b148338611727565b505060c05160e0516101a0519397949694919390925090565b5060016110e6565b805460011015611980575b600052600260206000200190600090565b611988610d76565b61196f565b80548210156119aa575b60005260206000209060011b0190600090565b6119b2610d76565b611997565b916020906001926119ce575b805184550151910155565b6119d6610b4d565b6119c3565b906119fe6101c192805490600160401b821015611a04575b60018201815561198d565b906119b7565b611a0c6103bf565b6119f3565b600101805415611a1e5750565b6040516101c191611a2e8261041c565b60008252600060208301526119db565b60405190611a4b8261041c565b60006020838281520152565b6102db91611a63611a3e565b5060018201805415611abd575b611a7a8354610a8a565b8355604051948592611a8b8461041c565b83526020830152611a9c82826119db565b5460018110611ab0575b6000190191611c27565b611ab8610a73565b611aa6565b611ac683611a11565b611a70565b6102db91611ad7611a3e565b506000526002810160205260406000205490611b57565b90604051611afb8161041c565b602060018294805484520154910152565b80548015611b4157600019019060006001611b27848461198d565b611b34575b828155015555565b611b3c610b4d565b611b2c565b634e487b7160e01b600052603160045260246000fd5b90611b60611a3e565b50600182019080825411801590611c1f575b611c0257611b836106df828461198d565b9283516000526002810160205260006040812055611bb26106df845460018110611bf5575b600019018561198d565b611bbb84611b0c565b83548310611bcb575b5050505090565b6106df83611bec95611be182611be69587611c27565b61198d565b90611c99565b38808080611bc4565b611bfd610a73565b611ba8565b505050604051611c118161041c565b600081526000602082015290565b508015611b72565b91906001928383148015611c6a575b15611c45576101c19350611d53565b611c6583611c5f6106df87966101c1981c8097860161198d565b83611d53565b611c27565b50602082015184611c7f85821c82850161198d565b5001541215611c36565b6001906001198111610a9a570190565b919060018301928354611cab84610bba565b94858211611cbf5750506101c19350611d53565b611ccc6106df878361198d565b91611cd687611c89565b1080611d30575b611d11575b506020818101519084015112611cfd57506101c19350611d53565b6101c19493611d0c9183611d53565b611c99565b94611d2a9150611d236106df91610a8a565b809661198d565b38611ce2565b506001611d45611d3f88611c89565b8361198d565b500154602083015112611cdd565b600291611d67816119fe866001860161198d565b516000520160205260406000205556fead3228b676f7d3cd4284a5443f17f1962b36e491b30a40b2405849e597ba5fb5a2646970667358221220c8457afc2dc115764d803cfeac93242bce563f407e1b6719056972519b761a0a64736f6c634300080d0033",
  "immutableReferences": {
    "2528": [
      {
        "length": 32,
        "start": 759
      },
      {
        "length": 32,
        "start": 1610
      },
      {
        "length": 32,
        "start": 2083
      }
    ]
  },
  "source": "// SPDX-License-Identifier: UNLICENSED\npragma solidity ^0.8.0;\nimport \"./OrderLibrary.sol\";\n// import \"hardhat/console.sol\";\n\ninterface IOrderBookData {\n    function initializeOrderBooks() external;\n\n    function addOrder(\n        uint256 _amount,\n        uint256 _price,\n        address _userAddress,\n        OrderLibrary.OrderType _orderType,\n        OrderLibrary.OrderNature _orderNature\n    ) external returns (uint256);\n\n    function removeOrder(\n        OrderLibrary.OrderType _orderType,\n        uint256 _orderId\n    ) external returns (bool);\n\n    function getBestOrderFromHeap(\n        OrderLibrary.OrderType _orderType\n    ) external view returns (uint256);\n\n    function getOrderFromId(\n        OrderLibrary.OrderType _orderType,\n        uint256 _orderId\n    ) external view returns (OrderLibrary.Order memory);\n\n    function getActiveOrderCount(\n        OrderLibrary.OrderType _orderType\n    ) external view returns (uint256);\n\n    function updateOrder(\n        OrderLibrary.OrderType _orderType,\n        uint256 _orderId,\n        uint256 _remainingAmount,\n        OrderLibrary.OrderStatus _status,\n        OrderLibrary.Fills memory _orderReceipts\n    ) external;\n\n    function getAllOrdersWithFilters(\n        OrderLibrary.AllOrdersQueryParams memory params\n    )\n        external\n        view\n        returns (\n            uint256[] memory amount,\n            uint256[] memory price,\n            OrderLibrary.OrderType[] memory orderType,\n            OrderLibrary.OrderNature[] memory nature,\n            uint256[][] memory fillsPrice,\n            uint256[][] memory fillsAmount,\n            uint256[][] memory fillsTimestamp\n        );\n}\n\ncontract OrderBookData is IOrderBookData {\n    address public immutable orderBookManager;\n\n    struct OrderBook {\n        uint256 totalOrders;\n        mapping(uint256 => OrderLibrary.Order) orders;\n        uint256 activeCount;\n        Data heap;\n    }\n\n    mapping(OrderLibrary.OrderType => OrderBook) internal orderBooks;\n\n    modifier onlyManager() {\n        require(\n            msg.sender == orderBookManager,\n            \"Caller is not the order book manager\"\n        );\n        _;\n    }\n\n    constructor(address _orderBookManager) {\n        orderBookManager = _orderBookManager;\n        initializeOrderBooks();\n    }\n\n    function initializeOrderBooks() public override onlyManager {\n        initOrderBook(OrderLibrary.OrderType.Buy);\n        initOrderBook(OrderLibrary.OrderType.Sell);\n    }\n\n    // Initialize the heap for a specific order book\n    function initOrderBook(OrderLibrary.OrderType _orderType) private {\n        heapInit(orderBooks[_orderType].heap);\n        orderBooks[_orderType].totalOrders = 0;\n        orderBooks[_orderType].activeCount = 0;\n    }\n\n    // Adds a new order to the order book\n    // NOTE: Use negative values of price to emulate a min-heap (for buy orderbook)\n\n    function addOrder(\n        uint256 _amount,\n        uint256 _price,\n        address _userAddress,\n        OrderLibrary.OrderType _orderType,\n        OrderLibrary.OrderNature _orderNature\n    ) public override onlyManager returns (uint256 orderId) {\n        OrderBook storage book = orderBooks[_orderType];\n        book.totalOrders++;\n        orderId = book.totalOrders;\n\n        book.orders[orderId] = OrderLibrary.Order({\n            totalAmount: _amount,\n            remainingAmount: _amount,\n            price: _price,\n            timestamp: block.timestamp,\n            userAddress: _userAddress,\n            status: OrderLibrary.OrderStatus.Active,\n            nature: _orderNature,\n            fillsPrice: new uint256[](0),\n            fillsAmount: new uint256[](0),\n            fillsTimestamp: new uint256[](0)\n        });\n        book.activeCount++;\n        // To emulate a min-heap for sell orders to always get the cheapest sell order as the root\n        int256 price;\n        if (_orderType == OrderLibrary.OrderType.Sell) {\n            price = -1 * int256(_price);\n        }\n        insertHeap(book.heap, orderId, price);\n        return orderId;\n    }\n\n    function updateOrder(\n        OrderLibrary.OrderType _orderType,\n        uint256 _orderId,\n        uint256 _remainingAmount,\n        OrderLibrary.OrderStatus _status,\n        OrderLibrary.Fills memory _orderReceipt\n    ) public {\n        OrderLibrary.Order storage order = orderBooks[_orderType].orders[\n            _orderId\n        ];\n        order.remainingAmount = _remainingAmount;\n        order.status = _status;\n        order.fillsPrice.push(_orderReceipt.price);\n        order.fillsAmount.push(_orderReceipt.amount);\n        order.fillsTimestamp.push(_orderReceipt.timestamp);\n    }\n\n    // Update Order Status (used for cancelling an order as this is just a status change)\n    function updateOrderStatus(\n        OrderLibrary.OrderType _orderType,\n        uint256 _orderId,\n        OrderLibrary.OrderStatus _newOrderStatus\n    ) public {\n        OrderLibrary.Order storage order = orderBooks[_orderType].orders[\n            _orderId\n        ];\n        require(\n            _newOrderStatus != order.status,\n            \"Order is already in this status \"\n        );\n        order.status = _newOrderStatus;\n    }\n\n    // Remove order from heap\n    function removeOrder(\n        OrderLibrary.OrderType _orderType,\n        uint256 _orderId\n    ) public returns (bool) {\n        OrderBook storage book = orderBooks[_orderType];\n\n        // Check if order exists\n        require(\n            book.orders[_orderId].status == OrderLibrary.OrderStatus.Active,\n            \"Order is not Active\"\n        );\n\n        // Get Node from heap\n        Node memory deletedNode = extractById(book.heap, _orderId);\n        if (deletedNode.id != _orderId) {\n            return false; //Order not in heap\n        }\n\n        // Cancel order and reduce active order count\n        updateOrderStatus(\n            _orderType,\n            _orderId,\n            OrderLibrary.OrderStatus.Cancelled\n        );\n        book.activeCount--;\n\n        return true; // Order removed successfully\n    }\n\n    // Retrieve the best order from the heap (top of the heap, based on price)\n    function getBestOrderFromHeap(\n        OrderLibrary.OrderType _orderType\n    ) public view returns (uint256) {\n        OrderBook storage book = orderBooks[_orderType];\n        Node memory rootNode = getMax(book.heap); // Get the top node\n        return uint256(rootNode.id);\n    }\n\n    function getOrderFromId(\n        OrderLibrary.OrderType _orderType,\n        uint256 _orderId\n    ) public view returns (OrderLibrary.Order memory) {\n        OrderBook storage book = orderBooks[_orderType];\n        return book.orders[_orderId];\n    }\n\n    // Retrieve buy/sell orders for a particular token pair\n\n    // Retrieve active orders?\n    function getActiveOrderCount(\n        OrderLibrary.OrderType _orderType\n    ) public view returns (uint256) {\n        return orderBooks[_orderType].activeCount;\n    }\n\n    function getAllOrdersWithFilters(\n        OrderLibrary.AllOrdersQueryParams memory params\n    )\n        external\n        view\n        returns (\n            uint256[] memory amount,\n            uint256[] memory price,\n            OrderLibrary.OrderType[] memory orderType,\n            OrderLibrary.OrderNature[] memory nature,\n            uint256[][] memory fillsPrice,\n            uint256[][] memory fillsAmount,\n            uint256[][] memory fillsTimestamp\n        )\n    {\n        OrderLibrary.OrderStatus status2 = params.status;\n        if (params.status == OrderLibrary.OrderStatus.Active) {\n            status2 = OrderLibrary.OrderStatus.PartiallyFilled;\n        }\n\n        uint256 matchingOrders = 0;\n        for (\n            uint256 i = 1;\n            i <= orderBooks[OrderLibrary.OrderType.Buy].totalOrders;\n            i++\n        ) {\n            OrderLibrary.Order memory order = orderBooks[\n                OrderLibrary.OrderType.Buy\n            ].orders[i];\n            if (\n                (order.status == params.status || order.status == status2) &&\n                (!params.filterByUser ||\n                    params.userAddress == order.userAddress)\n            ) {\n                matchingOrders++;\n            }\n        }\n        for (\n            uint256 i = 1;\n            i <= orderBooks[OrderLibrary.OrderType.Sell].totalOrders;\n            i++\n        ) {\n            OrderLibrary.Order memory order = orderBooks[\n                OrderLibrary.OrderType.Sell\n            ].orders[i];\n            if (\n                (order.status == params.status || order.status == status2) &&\n                (!params.filterByUser ||\n                    params.userAddress == order.userAddress)\n            ) {\n                matchingOrders++;\n            }\n        }\n\n        amount = new uint256[](matchingOrders);\n        price = new uint256[](matchingOrders);\n        orderType = new OrderLibrary.OrderType[](matchingOrders);\n        nature = new OrderLibrary.OrderNature[](matchingOrders);\n        fillsPrice = new uint256[][](matchingOrders);\n        fillsAmount = new uint256[][](matchingOrders);\n        fillsTimestamp = new uint256[][](matchingOrders);\n\n        uint256 currentIndex = 0;\n\n        // Process buy orders\n        for (\n            uint256 i = 1;\n            i <= orderBooks[OrderLibrary.OrderType.Buy].totalOrders;\n            i++\n        ) {\n            OrderLibrary.Order memory order = orderBooks[\n                OrderLibrary.OrderType.Buy\n            ].orders[i];\n            if (\n                (order.status == params.status || order.status == status2) &&\n                (!params.filterByUser ||\n                    params.userAddress == order.userAddress)\n            ) {\n                amount[currentIndex] = order.remainingAmount;\n                price[currentIndex] = order.price;\n                orderType[currentIndex] = OrderLibrary.OrderType.Buy;\n                nature[currentIndex] = order.nature;\n\n                fillsPrice[currentIndex] = new uint256[](\n                    order.fillsPrice.length\n                );\n                fillsAmount[currentIndex] = new uint256[](\n                    order.fillsAmount.length\n                );\n                fillsTimestamp[currentIndex] = new uint256[](\n                    order.fillsTimestamp.length\n                );\n\n                for (uint256 j = 0; j < order.fillsPrice.length; j++) {\n                    fillsPrice[currentIndex][j] = order.fillsPrice[j];\n                    fillsAmount[currentIndex][j] = order.fillsAmount[j];\n                    fillsTimestamp[currentIndex][j] = order.fillsTimestamp[j];\n                }\n\n                currentIndex++;\n            }\n        }\n\n        // Process sell orders\n        for (\n            uint256 i = 1;\n            i <= orderBooks[OrderLibrary.OrderType.Sell].totalOrders;\n            i++\n        ) {\n            OrderLibrary.Order memory order = orderBooks[\n                OrderLibrary.OrderType.Sell\n            ].orders[i];\n            if (\n                (order.status == params.status || order.status == status2) &&\n                (!params.filterByUser ||\n                    params.userAddress == order.userAddress)\n            ) {\n                amount[currentIndex] = order.remainingAmount;\n                price[currentIndex] = order.price;\n                orderType[currentIndex] = OrderLibrary.OrderType.Sell;\n                nature[currentIndex] = order.nature;\n\n                fillsPrice[currentIndex] = new uint256[](\n                    order.fillsPrice.length\n                );\n                fillsAmount[currentIndex] = new uint256[](\n                    order.fillsAmount.length\n                );\n                fillsTimestamp[currentIndex] = new uint256[](\n                    order.fillsTimestamp.length\n                );\n\n                for (uint256 j = 0; j < order.fillsPrice.length; j++) {\n                    fillsPrice[currentIndex][j] = order.fillsPrice[j];\n                    fillsAmount[currentIndex][j] = order.fillsAmount[j];\n                    fillsTimestamp[currentIndex][j] = order.fillsTimestamp[j];\n                }\n\n                currentIndex++;\n            }\n        }\n\n        return (\n            amount,\n            price,\n            orderType,\n            nature,\n            fillsPrice,\n            fillsAmount,\n            fillsTimestamp\n        );\n    }\n\n    // Custom Heap Implementation\n    uint constant ROOT_INDEX = 1;\n\n    struct Data {\n        uint256 idCount;\n        Node[] nodes; // root is index 1; index 0 not used\n        mapping(uint256 => uint) indices; // unique id => node index\n    }\n\n    struct Node {\n        uint256 id; // use with another mapping to store arbitrary object types\n        int256 priority;\n    }\n\n    // Call init before anything else\n    function heapInit(Data storage data) private {\n        if (data.nodes.length == 0) data.nodes.push(Node(0, 0));\n    }\n\n    function insertHeap(\n        Data storage data,\n        uint256 orderId,\n        int256 priority\n    ) private returns (Node memory) {\n        if (data.nodes.length == 0) heapInit(data);\n        data.idCount++;\n        Node memory n = Node(orderId, priority);\n        data.nodes.push(n);\n        _bubbleUp(data, n, data.nodes.length - 1);\n        return n;\n    }\n\n    function extractMax(Data storage data) private returns (Node memory) {\n        return _extract(data, ROOT_INDEX);\n    }\n\n    function extractById(\n        Data storage data,\n        uint256 id\n    ) private returns (Node memory) {\n        return _extract(data, data.indices[id]);\n    }\n\n    // View functions\n    function dump(Data storage data) private view returns (Node[] memory) {\n        return data.nodes;\n    }\n\n    function getById(\n        Data storage data,\n        uint256 id\n    ) private view returns (Node memory) {\n        return getByIndex(data, data.indices[id]);\n    }\n\n    function getByIndex(\n        Data storage data,\n        uint256 i\n    ) private view returns (Node memory) {\n        return data.nodes.length > i ? data.nodes[i] : Node(0, 0);\n    }\n\n    function getMax(Data storage data) private view returns (Node memory) {\n        return getByIndex(data, ROOT_INDEX);\n    }\n\n    function size(Data storage data) private view returns (uint) {\n        return data.nodes.length > 0 ? data.nodes.length - 1 : 0;\n    }\n\n    function isNode(Node memory n) private pure returns (bool) {\n        return n.id > 0;\n    }\n\n    function _extract(\n        Data storage data,\n        uint256 i\n    ) private returns (Node memory) {\n        if (data.nodes.length <= i || i <= 0) return Node(0, 0);\n\n        Node memory extractedNode = data.nodes[i];\n        delete data.indices[extractedNode.id];\n\n        Node memory tailNode = data.nodes[data.nodes.length - 1];\n        data.nodes.pop(); // Replaces `data.nodes.length--`\n\n        if (i < data.nodes.length) {\n            // if extracted node was not tail\n            _bubbleUp(data, tailNode, i);\n            _bubbleDown(data, data.nodes[i], i); // then try bubbling down\n        }\n        return extractedNode;\n    }\n\n    function _bubbleUp(Data storage data, Node memory n, uint i) private {\n        if (i == ROOT_INDEX || n.priority <= data.nodes[i / 2].priority) {\n            _insertHeap(data, n, i);\n        } else {\n            _insertHeap(data, data.nodes[i / 2], i);\n            _bubbleUp(data, n, i / 2);\n        }\n    }\n\n    function _bubbleDown(Data storage data, Node memory n, uint i) private {\n        uint length = data.nodes.length;\n        uint cIndex = i * 2; // left child index\n\n        if (length <= cIndex) {\n            _insertHeap(data, n, i);\n        } else {\n            Node memory largestChild = data.nodes[cIndex];\n\n            if (\n                length > cIndex + 1 &&\n                data.nodes[cIndex + 1].priority > largestChild.priority\n            ) {\n                largestChild = data.nodes[++cIndex];\n            }\n\n            if (largestChild.priority <= n.priority) {\n                _insertHeap(data, n, i);\n            } else {\n                _insertHeap(data, largestChild, i);\n                _bubbleDown(data, n, cIndex);\n            }\n        }\n    }\n\n    function _insertHeap(Data storage data, Node memory n, uint i) private {\n        data.nodes[i] = n;\n        data.indices[n.id] = i;\n    }\n}\n",
  "sourcePath": "C:\\Users\\kaise\\OneDrive\\Desktop\\Codebase\\NTU\\sc4053-blockchain-technology\\contracts\\OrderBookData.sol",
  "compiler": {
    "name": "solc",
    "version": "0.8.13+commit.abaa5c0e.Emscripten.clang"
  },
  "schemaVersion": "3.4.16",
  "updatedAt": "2024-11-04T13:02:38.507Z",
  "devdoc": {
    "kind": "dev",
    "methods": {},
    "version": 1
  },
  "userdoc": {
    "kind": "user",
    "methods": {},
    "version": 1
  }
}