{
  "contractName": "TokenManager",
  "abi": [
    {
      "inputs": [],
      "stateMutability": "nonpayable",
      "type": "constructor"
    },
    {
      "anonymous": false,
      "inputs": [
        {
          "indexed": false,
          "internalType": "string",
          "name": "symbol",
          "type": "string"
        },
        {
          "indexed": true,
          "internalType": "address",
          "name": "userAddress",
          "type": "address"
        },
        {
          "indexed": false,
          "internalType": "uint256",
          "name": "amount",
          "type": "uint256"
        },
        {
          "indexed": false,
          "internalType": "uint256",
          "name": "timestamp",
          "type": "uint256"
        }
      ],
      "name": "DepositEvent",
      "type": "event"
    },
    {
      "anonymous": false,
      "inputs": [
        {
          "indexed": false,
          "internalType": "uint8",
          "name": "tokenId",
          "type": "uint8"
        },
        {
          "indexed": true,
          "internalType": "address",
          "name": "from",
          "type": "address"
        },
        {
          "indexed": true,
          "internalType": "address",
          "name": "to",
          "type": "address"
        },
        {
          "indexed": false,
          "internalType": "uint256",
          "name": "amount",
          "type": "uint256"
        },
        {
          "indexed": false,
          "internalType": "uint256",
          "name": "timestamp",
          "type": "uint256"
        }
      ],
      "name": "InternalTransferEvent",
      "type": "event"
    },
    {
      "anonymous": false,
      "inputs": [
        {
          "indexed": true,
          "internalType": "address",
          "name": "previousOwner",
          "type": "address"
        },
        {
          "indexed": true,
          "internalType": "address",
          "name": "newOwner",
          "type": "address"
        }
      ],
      "name": "OwnershipTransferred",
      "type": "event"
    },
    {
      "anonymous": false,
      "inputs": [
        {
          "indexed": false,
          "internalType": "uint8",
          "name": "tokenId",
          "type": "uint8"
        },
        {
          "indexed": false,
          "internalType": "string",
          "name": "name",
          "type": "string"
        },
        {
          "indexed": false,
          "internalType": "string",
          "name": "symbol",
          "type": "string"
        },
        {
          "indexed": false,
          "internalType": "uint256",
          "name": "initialSupply",
          "type": "uint256"
        },
        {
          "indexed": false,
          "internalType": "uint256",
          "name": "timestamp",
          "type": "uint256"
        }
      ],
      "name": "TokenIssueEvent",
      "type": "event"
    },
    {
      "anonymous": false,
      "inputs": [
        {
          "indexed": false,
          "internalType": "string",
          "name": "symbol",
          "type": "string"
        },
        {
          "indexed": true,
          "internalType": "address",
          "name": "userAddress",
          "type": "address"
        },
        {
          "indexed": false,
          "internalType": "uint256",
          "name": "amount",
          "type": "uint256"
        },
        {
          "indexed": false,
          "internalType": "uint256",
          "name": "timestamp",
          "type": "uint256"
        }
      ],
      "name": "WithdrawalEvent",
      "type": "event"
    },
    {
      "inputs": [],
      "name": "marketManager",
      "outputs": [
        {
          "internalType": "contract MarketManager",
          "name": "",
          "type": "address"
        }
      ],
      "stateMutability": "view",
      "type": "function",
      "constant": true
    },
    {
      "inputs": [],
      "name": "owner",
      "outputs": [
        {
          "internalType": "address",
          "name": "",
          "type": "address"
        }
      ],
      "stateMutability": "view",
      "type": "function",
      "constant": true
    },
    {
      "inputs": [],
      "name": "renounceOwnership",
      "outputs": [],
      "stateMutability": "nonpayable",
      "type": "function"
    },
    {
      "inputs": [
        {
          "internalType": "address",
          "name": "newOwner",
          "type": "address"
        }
      ],
      "name": "transferOwnership",
      "outputs": [],
      "stateMutability": "nonpayable",
      "type": "function"
    },
    {
      "inputs": [
        {
          "internalType": "address",
          "name": "_marketManagerAddr",
          "type": "address"
        }
      ],
      "name": "initialize",
      "outputs": [],
      "stateMutability": "nonpayable",
      "type": "function"
    },
    {
      "inputs": [
        {
          "internalType": "uint8",
          "name": "_tokenId",
          "type": "uint8"
        }
      ],
      "name": "getToken",
      "outputs": [
        {
          "internalType": "address",
          "name": "",
          "type": "address"
        }
      ],
      "stateMutability": "view",
      "type": "function",
      "constant": true
    },
    {
      "inputs": [
        {
          "internalType": "string",
          "name": "_name",
          "type": "string"
        },
        {
          "internalType": "string",
          "name": "_symbol",
          "type": "string"
        },
        {
          "internalType": "uint256",
          "name": "_initialSupply",
          "type": "uint256"
        }
      ],
      "name": "issueToken",
      "outputs": [],
      "stateMutability": "nonpayable",
      "type": "function"
    },
    {
      "inputs": [
        {
          "internalType": "string",
          "name": "_symbol",
          "type": "string"
        },
        {
          "internalType": "uint256",
          "name": "_amount",
          "type": "uint256"
        },
        {
          "internalType": "address",
          "name": "_userAddress",
          "type": "address"
        }
      ],
      "name": "deposit",
      "outputs": [
        {
          "internalType": "uint256",
          "name": "tokenBalance",
          "type": "uint256"
        }
      ],
      "stateMutability": "nonpayable",
      "type": "function"
    },
    {
      "inputs": [
        {
          "internalType": "string",
          "name": "_symbol",
          "type": "string"
        },
        {
          "internalType": "uint256",
          "name": "_amount",
          "type": "uint256"
        },
        {
          "internalType": "address",
          "name": "_userAddress",
          "type": "address"
        }
      ],
      "name": "withdraw",
      "outputs": [
        {
          "internalType": "uint256",
          "name": "tokenBalance",
          "type": "uint256"
        }
      ],
      "stateMutability": "nonpayable",
      "type": "function"
    },
    {
      "inputs": [
        {
          "internalType": "address",
          "name": "_userAddress",
          "type": "address"
        },
        {
          "internalType": "string",
          "name": "_symbol",
          "type": "string"
        }
      ],
      "name": "getUserTokenBalance",
      "outputs": [
        {
          "internalType": "uint256",
          "name": "tokenBalance",
          "type": "uint256"
        }
      ],
      "stateMutability": "view",
      "type": "function",
      "constant": true
    },
    {
      "inputs": [
        {
          "internalType": "address",
          "name": "_from",
          "type": "address"
        },
        {
          "internalType": "address",
          "name": "_to",
          "type": "address"
        },
        {
          "internalType": "uint8",
          "name": "_tokenId",
          "type": "uint8"
        },
        {
          "internalType": "uint256",
          "name": "_amount",
          "type": "uint256"
        }
      ],
      "name": "transferFrom",
      "outputs": [
        {
          "internalType": "bool",
          "name": "",
          "type": "bool"
        }
      ],
      "stateMutability": "nonpayable",
      "type": "function"
    },
    {
      "inputs": [
        {
          "internalType": "string",
          "name": "_symbol",
          "type": "string"
        }
      ],
      "name": "getTokenId",
      "outputs": [
        {
          "internalType": "uint8",
          "name": "",
          "type": "uint8"
        }
      ],
      "stateMutability": "view",
      "type": "function",
      "constant": true
    },
    {
      "inputs": [
        {
          "internalType": "address",
          "name": "_user",
          "type": "address"
        },
        {
          "internalType": "uint8",
          "name": "_tokenId",
          "type": "uint8"
        }
      ],
      "name": "getBalance",
      "outputs": [
        {
          "internalType": "uint256",
          "name": "",
          "type": "uint256"
        }
      ],
      "stateMutability": "view",
      "type": "function",
      "constant": true
    },
    {
      "inputs": [],
      "name": "getAllTokens",
      "outputs": [
        {
          "internalType": "string[]",
          "name": "tokenNames",
          "type": "string[]"
        },
        {
          "internalType": "string[]",
          "name": "tokenSymbols",
          "type": "string[]"
        }
      ],
      "stateMutability": "view",
      "type": "function",
      "constant": true
    }
  ],
  "bytecode": "0x6080806040523461006f5760008054336001600160a01b0319821681178355916001600160a01b03909116907f8be0079c531659141344cd1fd0a4f28419497f9722a3daafe3b4186f6b6457e09084a36004805461ffff60a01b1916600160a01b179055612c2990816100758239f35b600080fdfe6080604052600436101562000014575b600080fd5b60003560e01c80630903133914620001545780631e7663bc146200014957806321755977146200013e5780632344e1de14620001335780632a5c792a14620001285780633e72a469146200011d57806341ed2c121462000112578063715018a614620001075780637804e70714620000fc57806382b8660014620000f15780638da5cb5b14620000e6578063c4d66de814620000db578063d63196e814620000d05763f2fde38b14620000c657600080fd5b6200000f620011c0565b506200000f6200102b565b506200000f62000f72565b506200000f62000f46565b506200000f62000ee6565b506200000f62000cce565b506200000f62000c20565b506200000f62000bf4565b506200000f62000b9a565b506200000f620009d7565b506200000f6200085a565b506200000f62000515565b506200000f62000465565b506200000f6200019e565b600435906001600160a01b03821682036200000f57565b602435906001600160a01b03821682036200000f57565b6044359060ff821682036200000f57565b50346200000f5760803660031901126200000f5762000236620002297ff9b39da53b419c4c7d968c56514f6eac273d3b23ef66229a01bb0d9117dfd6a0620002b7620001e96200015f565b62000315620001f762000176565b620002016200018d565b938491620002ec83620002b7606435976200027560018060a01b038083169d8e1515620019fd565b8087169e8f151562001a41565b620002438b151562001797565b6200026c6200025f8660ff166000526001602052604060002090565b546001600160a01b031690565b16151562001336565b62000290896200028462001a83565b8360ff87169162001b09565b620002d289620002c985620002b78560018060a01b03166000526003602052604060002090565b9060ff16600052602052604060002090565b54101562001ab0565b6001600160a01b0316600090815260036020526040902090565b620002f9868254620019e3565b90556001600160a01b0316600090815260036020526040902090565b6200032282825462001812565b90556040805160ff93909316835260208301919091524290820152606090a360405160018152602090f35b0390f35b50634e487b7160e01b600052604160045260246000fd5b67ffffffffffffffff81116200037d57604052565b6200038762000351565b604052565b6040810190811067ffffffffffffffff8211176200037d57604052565b6060810190811067ffffffffffffffff8211176200037d57604052565b90601f8019910116810190811067ffffffffffffffff8211176200037d57604052565b60209067ffffffffffffffff811162000408575b601f01601f19160190565b6200041262000351565b620003fd565b81601f820112156200000f578035906200043282620003e9565b92620004426040519485620003c6565b828452602083830101116200000f57816000926020809301838601378301015290565b50346200000f5760203660031901126200000f5760043567ffffffffffffffff81116200000f576200049c90369060040162000418565b60ff620004a9826200142b565b541615620004da5760ff620004c26200034d926200142b565b54166040519182918291909160ff6020820193169052565b60405162461bcd60e51b8152602060048201526013602482015272151bdad95b88191bd95cdb89dd08195e1a5cdd606a1b6044820152606490fd5b50346200000f5760603660031901126200000f5767ffffffffffffffff600480358281116200000f576200054d903690830162000418565b906024358381116200000f5762000568903690830162000418565b91604435926200057762001290565b60ff835460a81c161562000816577ff75d10da78e4bb49a50a1c14710561b706ba0d28b15d021cb2cc6e2d092ea4ed620006409495620005c184620005bb6200137a565b62001700565b620005d083620005bb620013b5565b620005e587620005df620013f0565b620016b8565b6200060960ff62000601620005fa866200142b565b5460ff1690565b161562001453565b6200061687151562001498565b604051958691610f588084019182118483101762000806575b62001c9c84398885873393620014f3565b039562000694600097889788f08015620007f6575b8654620006759060a01c60ff1660ff166000526001602052604060002090565b80546001600160a01b0319166001600160a01b03909216919091179055565b8454620006bb9060a01c60ff16620006ac856200142b565b9060ff1660ff19825416179055565b845492620006da60ff8560a01c16956040519384934292898662001544565b0390a1620006f1620006eb62001586565b62001654565b600182116200073e575b83620007396200071a62000714865460ff9060a01c1690565b62001633565b6004805460ff60a01b191660a09290921b60ff60a01b16919091179055565b604051f35b6001600160a01b031691823b15620007f1576040516344fdab1160e01b815260ff90921681830190815262000739946200071a9462000714949283919082908490829060200103925af18015620007e1575b620007c3575b508054620007b99060a01c60ff1660ff620007b0620015d0565b911690620016b8565b91849350620006fb565b80620007d3620007da9262000368565b80620008e0565b3862000796565b620007eb62001537565b62000790565b505050fd5b6200080062001537565b62000655565b6200081062000351565b6200062f565b60405162461bcd60e51b8152602081850152601d60248201527f546f6b656e206d616e61676572206e6f7420696e697469616c697a65640000006044820152606490fd5b50346200000f5760403660031901126200000f57620008786200015f565b60243567ffffffffffffffff81116200000f5760209160ff620008ae620008a8620008d794369060040162000418565b6200142b565b54169060018060a01b03166000526003835260406000209060ff16600052602052604060002090565b54604051908152f35b60009103126200000f57565b918091926000905b8282106200090e57501162000907575050565b6000910152565b91508060209183015181860152018291620008f4565b906020916200093f81518092818552858086019101620008ec565b601f01601f1916010190565b908082519081815260208091019281808460051b8301019501936000915b8483106200097a5750505050505090565b90919293949584806200099a600193601f198682030187528a5162000924565b980193019301919493929062000969565b9091620009c5620009d4936040845260408401906200094b565b9160208184039101526200094b565b90565b50346200000f5760008060031936011262000b9757600490620009ff825460ff9060a01c1690565b62000a1e62000a1862000a128362001b66565b60ff1690565b62001bb5565b9162000a3262000a1862000a128462001b66565b9360ff92831660015b818582161062000a5657604051806200034d898983620009ab565b8062000b25848662000a8d62000a816200025f62000b2c9760ff166000526001602052604060002090565b6001600160a01b031690565b604062000adc8c82516306fdde0360e01b815285818881885afa90811562000b87575b869162000b69575b5062000ad462000acc62000a128b62001b66565b809362001c70565b528d62001c70565b50516395d89b4160e01b815292839182905afa90811562000b59575b879162000b32575b5062000b1062000a128462001b66565b9062000b1d828c62001c70565b528962001c70565b5062001633565b62000a3b565b62000b5291503d8089833e62000b498183620003c6565b81019062001c07565b3862000b00565b62000b6362001537565b62000af8565b62000b8091503d8088833e62000b498183620003c6565b3862000ab8565b62000b9162001537565b62000ab0565b80fd5b50346200000f5760403660031901126200000f5762000bb86200015f565b6024359060ff821682036200000f576001600160a01b0316600090815260036020908152604080832060ff9094168352928152919020620008d7565b50346200000f5760003660031901126200000f576004546040516001600160a01b039091168152602090f35b50346200000f5760008060031936011262000b975762000c3f62001290565b80546001600160a01b0319811682556040519082906001600160a01b03167f8be0079c531659141344cd1fd0a4f28419497f9722a3daafe3b4186f6b6457e08284a3f35b60606003198201126200000f576004359067ffffffffffffffff82116200000f5762000cb29160040162000418565b90602435906044356001600160a01b03811681036200000f5790565b50346200000f576200034d62000e906200025f620002b77f84b1821c493be0f356d92532c866021be43bf63dab6938bf6748729ecce791cf62000e7362000d153662000c83565b939162000d3860ff62000d2f620005fa849795976200142b565b1615156200174a565b62000d4584151562001797565b62000d938462000d7b62000d5d620005fa856200142b565b6001600160a01b0389166000908152600360205260409020620002b7565b5462000d8b81620005df62001972565b10156200199f565b62000e2262000e0560208662000dce62000a8162000a8162000db9620005fa896200142b565b9d8e60ff166000526001602052604060002090565b60405163a9059cbb60e01b81526001600160a01b038b16600482015260248101929092529092839190829060009082906044820190565b03925af190811562000ed6575b60009162000ea1575b506200187e565b6001600160a01b038516600090815260036020526040902062000e47908890620002b7565b62000e54858254620019e3565b90556040516001600160a01b03861694909283929091429184620018cb565b0390a26001600160a01b0316600090815260036020526040902090565b546040519081529081906020820190565b62000ec7915060203d811162000ece575b62000ebe8183620003c6565b81019062001864565b3862000e1b565b503d62000eb2565b62000ee062001537565b62000e12565b50346200000f5760203660031901126200000f5760043560ff81168091036200000f57806020916000526001825260018060a01b039062000f308260406000205416151562001336565b6000526001825260406000205416604051908152f35b50346200000f5760003660031901126200000f576000546040516001600160a01b039091168152602090f35b50346200000f5760203660031901126200000f5762000f906200015f565b60ff60045460a81c1662000ff05762000fdb906001600160a01b031662000fb9811515620012e9565b60018060a01b03166bffffffffffffffffffffffff60a01b6004541617600455565b6004805460ff60a81b1916600160a81b179055005b60405162461bcd60e51b8152602060048201526013602482015272105b1c9958591e481a5b9a5d1a585b1a5e9959606a1b6044820152606490fd5b50346200000f576200034d62000e906200025f620002b77f92601632002667117695ed40cf2ad65114ec345add12cbcb4d321e51fd5f1e6d6200118c620010723662000c83565b93916200108c60ff62000d2f620005fa849795976200142b565b6200109984151562001797565b620010ae85620010a8620017e3565b6200191f565b620010f7620010e3620010c5620005fa846200142b565b6001600160a01b0388166000908152600360205260409020620002b7565b54620010f0868262001812565b116200181f565b6200115a62000e056020866200111d62000a8162000a8162000db9620005fa896200142b565b6040516323b872dd60e01b81526001600160a01b038b16600482015230602482015260448101929092529092839190829060009082906064820190565b6001600160a01b03851660009081526003602052604090206200117f908890620002b7565b62000e5485825462001812565b0390a2620002d2620011b584620002b78460018060a01b03166000526003602052604060002090565b54620005df620018ef565b50346200000f5760203660031901126200000f57620011de6200015f565b620011e862001290565b6001600160a01b039081169081156200123c57600080546001600160a01b031981168417825560405191939192167f8be0079c531659141344cd1fd0a4f28419497f9722a3daafe3b4186f6b6457e08484a3f35b60405162461bcd60e51b815260206004820152602660248201527f4f776e61626c653a206e6577206f776e657220697320746865207a65726f206160448201526564647265737360d01b6064820152608490fd5b6000546001600160a01b03163303620012a557565b606460405162461bcd60e51b815260206004820152602060248201527f4f776e61626c653a2063616c6c6572206973206e6f7420746865206f776e65726044820152fd5b15620012f157565b60405162461bcd60e51b815260206004820152601e60248201527f496e76616c6964206d61726b6574206d616e61676572206164647265737300006044820152606490fd5b156200133e57565b60405162461bcd60e51b8152602060048201526014602482015273151bdad95b88191bd95cc81b9bdd08195e1a5cdd60621b6044820152606490fd5b6040519062001389826200038c565b601a82527f5b546f6b656e4d616e616765725d20546f6b656e204e616d653a0000000000006020830152565b60405190620013c4826200038c565b601c82527f5b546f6b656e4d616e616765725d20546f6b656e2053796d626f6c3a000000006020830152565b60405190620013ff826200038c565b601e82527f5b546f6b656e4d616e616765725d20496e697469616c20537570706c793a00006020830152565b602062001446918160405193828580945193849201620008ec565b8101600281520301902090565b156200145b57565b60405162461bcd60e51b8152602060048201526015602482015274546f6b656e20616c7265616479206578697374732160581b6044820152606490fd5b15620014a057565b60405162461bcd60e51b815260206004820152602560248201527f496e697469616c20737570706c79206d75737420626520677265617465722074604482015264068616e20360dc1b6064820152608490fd5b9294939060609262001512620015219260808752608087019062000924565b90858203602087015262000924565b60408401959095526001600160a01b0316910152565b506040513d6000823e3d90fd5b91926200156d60809460ff6200157c949998979916855260a0602086015260a085019062000924565b90838203604085015262000924565b9460608201520152565b604051906200159582620003a9565b602682526519515d995b9d60d21b6040837f5b546f6b656e4d616e616765725d20456d697474656420546f6b656e4973737560208201520152565b60405190620015df82620003a9565b602882526739103a37b5b2b71d60c11b6040837f5b546f6b656e4d616e616765725d204d61726b6574206372656174656420666f60208201520152565b50634e487b7160e01b600052601160045260246000fd5b60ff6001911660ff811462001646570190565b620016506200161c565b0190565b62001686620016956200169b9260405192839163104c13eb60e21b602084015260206024840152604483019062000924565b03601f198101835282620003c6565b6200169d565b565b600080916020815191016a636f6e736f6c652e6c6f675afa50565b62001695620016eb916200169b93604051938492632d839cb360e21b602085015260406024850152606484019062000924565b90604483015203601f198101835282620003c6565b620016956200173791620016866200169b94604051948593634b5c427760e01b602086015260406024860152606485019062000924565b8381036023190160448501529062000924565b156200175257565b60405162461bcd60e51b815260206004820152601860248201527f546f6b656e206861736e2774206265656e2069737375656400000000000000006044820152606490fd5b156200179f57565b606460405162461bcd60e51b815260206004820152602060248201527f416d6f756e74206d7573742062652067726561746572207468616e207a65726f6044820152fd5b60405190620017f2826200038c565b6011825270026b2b9b9b0b3b29039b2b73232b910169607d1b6020830152565b8119811162001646570190565b156200182757565b60405162461bcd60e51b8152602060048201526015602482015274557365722062616c616e6365206f766572666c6f7760581b6044820152606490fd5b908160209103126200000f575180151581036200000f5790565b156200188657565b60405162461bcd60e51b815260206004820152601960248201527f4661696c656420746f207472616e7366657220616d6f756e74000000000000006044820152606490fd5b620018e56040929594939560608352606083019062000924565b9460208201520152565b60405190620018fe826200038c565b601282527102ab83230ba32b2103130b630b731b29016960751b6020830152565b6200169562001952916200169b9360405193849263319af33360e01b602085015260406024850152606484019062000924565b6001600160a01b0391909116604483015203601f198101835282620003c6565b6040519062001981826200038c565b600f82526e02ab9b2b9103130b630b731b290169608d1b6020830152565b15620019a757565b60405162461bcd60e51b8152602060048201526014602482015273496e73756666696369656e742062616c616e636560601b6044820152606490fd5b818110620019ef570390565b620019f96200161c565b0390565b1562001a0557565b60405162461bcd60e51b8152602060048201526014602482015273496e76616c69642066726f6d206164647265737360601b6044820152606490fd5b1562001a4957565b60405162461bcd60e51b8152602060048201526012602482015271496e76616c696420746f206164647265737360701b6044820152606490fd5b6040519062001a92826200038c565b600f82526e02a3930b739b332b93934b73390169608d1b6020830152565b1562001ab857565b60405162461bcd60e51b815260206004820152602360248201527f5b546f6b656e4d616e616765725d20496e73756666696369656e742062616c616044820152626e636560e81b6064820152608490fd5b62001695916200169b9462001b3d94604051958694637c7a8d8f60e11b60208701526080602487015260a486019062000924565b6001600160a01b0390931660448501526064840152608483015203601f198101835282620003c6565b60ff166001811062001b7a575b6000190190565b62001b846200161c565b62001b73565b60209067ffffffffffffffff811162001ba5575b60051b0190565b62001baf62000351565b62001b9e565b9062001bc18262001b8a565b62001bd06040519182620003c6565b828152809262001be3601f199162001b8a565b019060005b82811062001bf557505050565b80606060208093850101520162001be8565b6020818303126200000f5780519067ffffffffffffffff82116200000f570181601f820112156200000f57805162001c3f81620003e9565b9262001c4f6040519485620003c6565b818452602082840101116200000f57620009d49160208085019101620008ec565b805182101562001c855760209160051b010190565b634e487b7160e01b600052603260045260246000fdfe608060405234620000a35762000f58803803806200001d81620000bf565b928339810190608081830312620000a35780516001600160401b0390818111620000a357836200004f918401620000f4565b926020830151918211620000a3576200006a918301620000f4565b604082015160609092015191906001600160a01b0383168303620000a357620000939362000188565b6040516109c69081620005928239f35b600080fd5b50634e487b7160e01b600052604160045260246000fd5b6040519190601f01601f191682016001600160401b03811183821017620000e557604052565b620000ef620000a8565b604052565b81601f82011215620000a3578051906001600160401b03821162000178575b6020906200012a601f8401601f19168301620000bf565b93838552828483010111620000a35782906000905b838383106200015f575050116200015557505090565b6000918301015290565b819350828193920101518282880101520183916200013f565b62000182620000a8565b62000113565b805191949391906001600160401b038211620002a5575b620001b782620001b1600354620002b5565b620002f2565b60209081601f84116001146200020e5750918062000200969792620001fa9460009262000202575b50508160011b916000199060031b1c191617600355620003a4565b620004a8565b565b015190503880620001df565b60036000529190601f1984167fc2575a0e9e593c00f959f8c92f12db2869c3395a3b0502d05e2516446f71f85b936000905b8282106200028c575050926001928592620001fa96620002009a9b961062000272575b505050811b01600355620003a4565b015160001960f88460031b161c1916905538808062000263565b8060018697829497870151815501960194019062000240565b620002af620000a8565b6200019f565b90600182811c92168015620002e7575b6020831014620002d157565b634e487b7160e01b600052602260045260246000fd5b91607f1691620002c5565b601f8111620002ff575050565b6000906003825260208220906020601f850160051c8301941062000340575b601f0160051c01915b8281106200033457505050565b81815560010162000327565b90925082906200031e565b601f811162000358575050565b6000906004825260208220906020601f850160051c8301941062000399575b601f0160051c01915b8281106200038d57505050565b81815560010162000380565b909250829062000377565b80519091906001600160401b03811162000498575b620003d181620003cb600454620002b5565b6200034b565b602080601f831160011462000410575081929360009262000404575b50508160011b916000199060031b1c191617600455565b015190503880620003ed565b6004600052601f198316949091907f8a35acfbc15ff81a39ae7d344fd709f28e8600b4aa8c65c6b64bfe7fe36bd19b926000905b8782106200047f57505083600195961062000465575b505050811b01600455565b015160001960f88460031b161c191690553880806200045a565b8060018596829496860151815501950193019062000444565b620004a2620000a8565b620003b9565b6001600160a01b038116919082156200054c5760025490821982116200053657826200051b6200053192620005016000967fddf252ad1be2c89b69c2b068fc378daa952ba7f163c4a11628f55a4df523b3ef9601600255565b6001600160a01b0316600090815260208190526040902090565b8054820190556040519081529081906020820190565b0390a3565b634e487b7160e01b600052601160045260246000fd5b60405162461bcd60e51b815260206004820152601f60248201527f45524332303a206d696e7420746f20746865207a65726f2061646472657373006044820152606490fdfe60806040526004361015610013575b600080fd5b60003560e01c806306fdde03146100ef578063095ea7b3146100e657806318160ddd146100dd57806323b872dd146100d4578063313ce567146100cb57806339509351146100c257806370a08231146100b957806395d89b41146100b0578063a457c2d7146100a7578063a9059cbb1461009e5763dd62ed3e1461009657600080fd5b61000e610605565b5061000e6105de565b5061000e61052f565b5061000e61046b565b5061000e610430565b5061000e6103bd565b5061000e6103a0565b5061000e6102d4565b5061000e6102b5565b5061000e610283565b5061000e61014f565b919091602080825283519081818401526000945b82861061013957505080604093941161012c575b601f01601f1916010190565b6000838284010152610120565b858101820151848701604001529481019461010c565b503461000e576000806003193601126102545760405190806003549060019180831c9280821692831561024a575b602092838610851461023657858852602088019490811561021a57506001146101c1575b6101bd876101b18189038261065e565b604051918291826100f8565b0390f35b600360005294509192917fc2575a0e9e593c00f959f8c92f12db2869c3395a3b0502d05e2516446f71f85b5b83861061020957505050910190506101b1826101bd38806101a1565b8054858701529482019481016101ed565b60ff191685525050500191506101b19050826101bd38806101a1565b634e487b7160e01b82526022600452602482fd5b93607f169361017d565b80fd5b600435906001600160a01b038216820361000e57565b602435906001600160a01b038216820361000e57565b503461000e57604036600319011261000e576102aa6102a0610257565b6024359033610865565b602060405160018152f35b503461000e57600036600319011261000e576020600254604051908152f35b503461000e57606036600319011261000e576102ee610257565b6102f661026d565b6001600160a01b03821660009081526001602090815260408083203384529091529020604435919054926001840161033f575b6103339350610749565b60405160018152602090f35b82841061035b576103568361033395033383610865565b610329565b60405162461bcd60e51b815260206004820152601d60248201527f45524332303a20696e73756666696369656e7420616c6c6f77616e63650000006044820152606490fd5b503461000e57600036600319011261000e57602060405160128152f35b503461000e57604036600319011261000e576103d7610257565b602435903360005260016020526104048160406000209060018060a01b0316600052602052604060002090565b54918019831161041a576102aa92019033610865565b634e487b7160e01b600052601160045260246000fd5b503461000e57602036600319011261000e576001600160a01b03610452610257565b1660005260006020526020604060002054604051908152f35b503461000e576000806003193601126102545760405190806004549060019180831c92808216928315610525575b602092838610851461023657858852602088019490811561021a57506001146104cc576101bd876101b18189038261065e565b600460005294509192917f8a35acfbc15ff81a39ae7d344fd709f28e8600b4aa8c65c6b64bfe7fe36bd19b5b83861061051457505050910190506101b1826101bd38806101a1565b8054858701529482019481016104f8565b93607f1693610499565b503461000e57604036600319011261000e57610549610257565b602435903360005260016020526105768160406000209060018060a01b0316600052602052604060002090565b549180831061058b5761033392039033610865565b60405162461bcd60e51b815260206004820152602560248201527f45524332303a2064656372656173656420616c6c6f77616e63652062656c6f77604482015264207a65726f60d81b6064820152608490fd5b503461000e57604036600319011261000e576102aa6105fb610257565b6024359033610749565b503461000e57604036600319011261000e576020610655610624610257565b61062c61026d565b6001600160a01b0391821660009081526001855260408082209290931681526020919091522090565b54604051908152f35b90601f8019910116810190811067ffffffffffffffff82111761068057604052565b634e487b7160e01b600052604160045260246000fd5b1561069d57565b60405162461bcd60e51b815260206004820152602360248201527f45524332303a207472616e7366657220746f20746865207a65726f206164647260448201526265737360e81b6064820152608490fd5b156106f557565b60405162461bcd60e51b815260206004820152602660248201527f45524332303a207472616e7366657220616d6f756e7420657863656564732062604482015265616c616e636560d01b6064820152608490fd5b916001600160a01b038084169290918315610812576107f7827fddf252ad1be2c89b69c2b068fc378daa952ba7f163c4a11628f55a4df523b3ef9461080d941696610795881515610696565b6107dc846107b58360018060a01b03166000526000602052604060002090565b546107c2828210156106ee565b039160018060a01b03166000526000602052604060002090565b556001600160a01b0316600090815260208190526040902090565b8054820190556040519081529081906020820190565b0390a3565b60405162461bcd60e51b815260206004820152602560248201527f45524332303a207472616e736665722066726f6d20746865207a65726f206164604482015264647265737360d81b6064820152608490fd5b6001600160a01b03808216929190831561093f5782169384156108ef57806108de7f8c5be1e5ebec7d5bd14f71427d1e84f3dd0314c0f7b2291e5b200ac8c7c3b925946108c761080d9560018060a01b03166000526001602052604060002090565b9060018060a01b0316600052602052604060002090565b556040519081529081906020820190565b60405162461bcd60e51b815260206004820152602260248201527f45524332303a20617070726f766520746f20746865207a65726f206164647265604482015261737360f01b6064820152608490fd5b60405162461bcd60e51b8152602060048201526024808201527f45524332303a20617070726f76652066726f6d20746865207a65726f206164646044820152637265737360e01b6064820152608490fdfea2646970667358221220c4cb51761df1d94167afe8a086ada11f862a7cd8bdd9578c190beba4f073dee364736f6c634300080d0033a26469706673582212201429d3cfc9326bd60931b065a0e3adaa3bc1acfb26ba47366a12df5097c86c8d64736f6c634300080d0033",
  "immutableReferences": {},
  "source": "// SPDX-License-Identifier: UNLICENSED\npragma solidity ^0.8.0;\n\nimport \"@openzeppelin/contracts/access/Ownable.sol\";\nimport \"./Token.sol\";\nimport \"./MarketManager.sol\";\nimport \"hardhat/console.sol\";\n\ncontract TokenManager is Ownable {\n    // Token ID -> Token\n    mapping(uint8 => Token) internal tokens;\n\n    // Map token symbol to whether it exists in the DEX or not\n    mapping(string => uint8) internal isToken;\n\n    // User Address -> [Token ID -> Balance]\n    mapping(address => mapping(uint8 => uint256)) internal userBalances;\n\n    MarketManager public marketManager;\n\n    uint8 internal tokenId = 1;\n\n    event TokenIssueEvent(\n        uint8 tokenId,\n        string name,\n        string symbol,\n        uint256 initialSupply,\n        uint256 timestamp\n    );\n\n    event DepositEvent(\n        string symbol,\n        address indexed userAddress,\n        uint256 amount,\n        uint256 timestamp\n    );\n\n    event WithdrawalEvent(\n        string symbol,\n        address indexed userAddress,\n        uint256 amount,\n        uint256 timestamp\n    );\n\n    event InternalTransferEvent(\n        uint8 tokenId,\n        address indexed from,\n        address indexed to,\n        uint256 amount,\n        uint256 timestamp\n    );\n\n    bool private initialized;\n\n    modifier onlyInitialized() {\n        require(initialized, \"Token manager not initialized\");\n        _;\n    }\n\n    constructor() Ownable() {\n        initialized = false;\n    }\n\n    function initialize(address _marketManagerAddr) external {\n        require(!initialized, \"Already initialized\");\n        require(\n            _marketManagerAddr != address(0),\n            \"Invalid market manager address\"\n        );\n        marketManager = MarketManager(_marketManagerAddr);\n        initialized = true;\n    }\n\n    function getToken(uint8 _tokenId) external view returns (address) {\n        require(\n            address(tokens[_tokenId]) != address(0),\n            \"Token does not exist\"\n        );\n        return address(tokens[_tokenId]);\n    }\n\n    function issueToken(\n        string memory _name,\n        string memory _symbol,\n        uint256 _initialSupply\n    ) external onlyOwner onlyInitialized {\n        // Log each parameter explicitly\n        console.log(\"[TokenManager] Token Name:\", _name);\n        console.log(\"[TokenManager] Token Symbol:\", _symbol);\n        console.log(\"[TokenManager] Initial Supply:\", _initialSupply);\n        require(isToken[_symbol] == 0, \"Token already exists!\");\n        require(_initialSupply > 0, \"Initial supply must be greater than 0\");\n\n        // Create a token\n        Token newToken = new Token(_name, _symbol, _initialSupply, msg.sender);\n\n        tokens[tokenId] = newToken;\n        isToken[_symbol] = tokenId;\n\n        emit TokenIssueEvent(\n            tokenId,\n            _name,\n            _symbol,\n            _initialSupply,\n            block.timestamp\n        );\n        console.log(\"[TokenManager] Emitted TokenIssueEvent\");\n\n        if (tokenId > 1) {\n            marketManager.createMarket(tokenId);\n            console.log(\"[TokenManager] Market created for token:\", tokenId);\n        }\n\n        tokenId++;\n    }\n\n    function deposit(\n        string memory _symbol,\n        uint256 _amount,\n        address _userAddress\n    ) external returns (uint256 tokenBalance) {\n        require(isToken[_symbol] > 0, \"Token hasn't been issued\");\n        require(_amount > 0, \"Amount must be greater than zero\");\n        console.log(\"Message sender - \", _userAddress);\n\n        uint256 userBalance = getUserTokenBalance(_userAddress, _symbol);\n        require(userBalance + _amount > userBalance, \"User balance overflow\");\n\n        uint8 _tokenId = isToken[_symbol];\n        IERC20 token = tokens[_tokenId];\n\n        // Deposit \"amount\" number of a particular token from sender to contract\n        require(\n            token.transferFrom(_userAddress, address(this), _amount),\n            \"Failed to transfer amount\"\n        );\n\n        // Ledger update\n        userBalances[_userAddress][_tokenId] += _amount;\n\n        emit DepositEvent(_symbol, _userAddress, _amount, block.timestamp);\n\n        console.log(\"Updated balance - \", userBalances[_userAddress][_tokenId]);\n        return userBalances[_userAddress][_tokenId];\n    }\n\n    function withdraw(\n        string memory _symbol,\n        uint256 _amount,\n        address _userAddress\n    ) external returns (uint256 tokenBalance) {\n        require(isToken[_symbol] > 0, \"Token hasn't been issued\");\n        require(_amount > 0, \"Amount must be greater than zero\");\n\n        uint256 userBalance = getUserTokenBalance(_userAddress, _symbol);\n        console.log(\"User balance - \", userBalance);\n        require(userBalance >= _amount, \"Insufficient balance\");\n\n        uint8 _tokenId = isToken[_symbol];\n        IERC20 token = tokens[_tokenId];\n\n        // Send \"amount\" number of a particular token from contract to sender\n        require(\n            token.transfer(_userAddress, _amount),\n            \"Failed to transfer amount\"\n        );\n\n        // Update ledger\n        userBalances[_userAddress][_tokenId] -= _amount;\n\n        emit WithdrawalEvent(_symbol, _userAddress, _amount, block.timestamp);\n\n        return userBalances[_userAddress][_tokenId];\n    }\n\n    function getUserTokenBalance(\n        address _userAddress,\n        string memory _symbol\n    ) public view returns (uint256 tokenBalance) {\n        uint8 _tokenId = isToken[_symbol];\n        return userBalances[_userAddress][_tokenId];\n    }\n\n    function transferFrom(\n        address _from,\n        address _to,\n        uint8 _tokenId,\n        uint256 _amount\n    ) external returns (bool) {\n        require(_from != address(0), \"Invalid from address\");\n        require(_to != address(0), \"Invalid to address\");\n        require(_amount > 0, \"Amount must be greater than zero\");\n        require(tokens[_tokenId] != Token(address(0)), \"Token does not exist\");\n\n        // Check if sender has sufficient balance\n        console.log(\"Transferring - \", _from, _tokenId, _amount);\n        require(\n            userBalances[_from][_tokenId] >= _amount,\n            \"[TokenManager] Insufficient balance\"\n        );\n\n        // Update balances\n        userBalances[_from][_tokenId] -= _amount;\n        userBalances[_to][_tokenId] += _amount;\n\n        emit InternalTransferEvent(\n            _tokenId,\n            _from,\n            _to,\n            _amount,\n            block.timestamp\n        );\n\n        return true;\n    }\n\n    // Helper function to get token ID from symbol\n    function getTokenId(string memory _symbol) external view returns (uint8) {\n        require(isToken[_symbol] > 0, \"Token doesn't exist\");\n        return isToken[_symbol];\n    }\n\n    // Helper function to get balance for any user (not just msg.sender)\n    function getBalance(\n        address _user,\n        uint8 _tokenId\n    ) external view returns (uint256) {\n        return userBalances[_user][_tokenId];\n    }\n\n    function getAllTokens()\n        external\n        view\n        returns (string[] memory tokenNames, string[] memory tokenSymbols)\n    {\n        tokenNames = new string[](tokenId - 1);\n        tokenSymbols = new string[](tokenId - 1);\n\n        for (uint8 i = 1; i < tokenId; i++) {\n            Token t = tokens[i];\n            tokenNames[i - 1] = t.name();\n            tokenSymbols[i - 1] = t.symbol();\n        }\n\n        return (tokenNames, tokenSymbols);\n    }\n}\n",
  "sourcePath": "C:\\Users\\kaise\\OneDrive\\Desktop\\Codebase\\NTU\\sc4053-blockchain-technology\\contracts\\TokenManager.sol",
  "compiler": {
    "name": "solc",
    "version": "0.8.13+commit.abaa5c0e.Emscripten.clang"
  },
  "schemaVersion": "3.4.16",
  "updatedAt": "2024-11-09T05:40:51.113Z",
  "networkType": "ethereum",
  "devdoc": {
    "kind": "dev",
    "methods": {
      "owner()": {
        "details": "Returns the address of the current owner."
      },
      "renounceOwnership()": {
        "details": "Leaves the contract without owner. It will not be possible to call `onlyOwner` functions. Can only be called by the current owner. NOTE: Renouncing ownership will leave the contract without an owner, thereby disabling any functionality that is only available to the owner."
      },
      "transferOwnership(address)": {
        "details": "Transfers ownership of the contract to a new account (`newOwner`). Can only be called by the current owner."
      }
    },
    "version": 1
  },
  "userdoc": {
    "kind": "user",
    "methods": {},
    "version": 1
  }
}