{
  "contractName": "TokenManager",
  "abi": [
    {
      "inputs": [
        {
          "internalType": "address",
          "name": "_marketManagerAddr",
          "type": "address"
        }
      ],
      "stateMutability": "nonpayable",
      "type": "constructor"
    },
    {
      "anonymous": false,
      "inputs": [
        {
          "indexed": false,
          "internalType": "string",
          "name": "symbol",
          "type": "string"
        },
        {
          "indexed": true,
          "internalType": "address",
          "name": "userAddress",
          "type": "address"
        },
        {
          "indexed": false,
          "internalType": "uint256",
          "name": "amount",
          "type": "uint256"
        },
        {
          "indexed": false,
          "internalType": "uint256",
          "name": "timestamp",
          "type": "uint256"
        }
      ],
      "name": "DepositEvent",
      "type": "event"
    },
    {
      "anonymous": false,
      "inputs": [
        {
          "indexed": false,
          "internalType": "uint8",
          "name": "tokenId",
          "type": "uint8"
        },
        {
          "indexed": true,
          "internalType": "address",
          "name": "from",
          "type": "address"
        },
        {
          "indexed": true,
          "internalType": "address",
          "name": "to",
          "type": "address"
        },
        {
          "indexed": false,
          "internalType": "uint256",
          "name": "amount",
          "type": "uint256"
        },
        {
          "indexed": false,
          "internalType": "uint256",
          "name": "timestamp",
          "type": "uint256"
        }
      ],
      "name": "InternalTransferEvent",
      "type": "event"
    },
    {
      "anonymous": false,
      "inputs": [
        {
          "indexed": true,
          "internalType": "address",
          "name": "previousOwner",
          "type": "address"
        },
        {
          "indexed": true,
          "internalType": "address",
          "name": "newOwner",
          "type": "address"
        }
      ],
      "name": "OwnershipTransferred",
      "type": "event"
    },
    {
      "anonymous": false,
      "inputs": [
        {
          "indexed": false,
          "internalType": "uint8",
          "name": "tokenId",
          "type": "uint8"
        },
        {
          "indexed": false,
          "internalType": "string",
          "name": "name",
          "type": "string"
        },
        {
          "indexed": false,
          "internalType": "string",
          "name": "symbol",
          "type": "string"
        },
        {
          "indexed": false,
          "internalType": "uint256",
          "name": "initialSupply",
          "type": "uint256"
        },
        {
          "indexed": false,
          "internalType": "uint256",
          "name": "timestamp",
          "type": "uint256"
        }
      ],
      "name": "TokenIssueEvent",
      "type": "event"
    },
    {
      "anonymous": false,
      "inputs": [
        {
          "indexed": false,
          "internalType": "string",
          "name": "symbol",
          "type": "string"
        },
        {
          "indexed": true,
          "internalType": "address",
          "name": "userAddress",
          "type": "address"
        },
        {
          "indexed": false,
          "internalType": "uint256",
          "name": "amount",
          "type": "uint256"
        },
        {
          "indexed": false,
          "internalType": "uint256",
          "name": "timestamp",
          "type": "uint256"
        }
      ],
      "name": "WithdrawalEvent",
      "type": "event"
    },
    {
      "inputs": [],
      "name": "marketManager",
      "outputs": [
        {
          "internalType": "contract MarketManager",
          "name": "",
          "type": "address"
        }
      ],
      "stateMutability": "view",
      "type": "function",
      "constant": true
    },
    {
      "inputs": [],
      "name": "owner",
      "outputs": [
        {
          "internalType": "address",
          "name": "",
          "type": "address"
        }
      ],
      "stateMutability": "view",
      "type": "function",
      "constant": true
    },
    {
      "inputs": [],
      "name": "renounceOwnership",
      "outputs": [],
      "stateMutability": "nonpayable",
      "type": "function"
    },
    {
      "inputs": [
        {
          "internalType": "address",
          "name": "newOwner",
          "type": "address"
        }
      ],
      "name": "transferOwnership",
      "outputs": [],
      "stateMutability": "nonpayable",
      "type": "function"
    },
    {
      "inputs": [
        {
          "internalType": "uint8",
          "name": "_tokenId",
          "type": "uint8"
        }
      ],
      "name": "getToken",
      "outputs": [
        {
          "internalType": "address",
          "name": "",
          "type": "address"
        }
      ],
      "stateMutability": "view",
      "type": "function",
      "constant": true
    },
    {
      "inputs": [
        {
          "internalType": "string",
          "name": "_name",
          "type": "string"
        },
        {
          "internalType": "string",
          "name": "_symbol",
          "type": "string"
        },
        {
          "internalType": "uint256",
          "name": "_initialSupply",
          "type": "uint256"
        }
      ],
      "name": "issueToken",
      "outputs": [],
      "stateMutability": "nonpayable",
      "type": "function"
    },
    {
      "inputs": [
        {
          "internalType": "string",
          "name": "_symbol",
          "type": "string"
        },
        {
          "internalType": "uint256",
          "name": "_amount",
          "type": "uint256"
        }
      ],
      "name": "deposit",
      "outputs": [
        {
          "internalType": "uint256",
          "name": "tokenBalance",
          "type": "uint256"
        }
      ],
      "stateMutability": "nonpayable",
      "type": "function"
    },
    {
      "inputs": [
        {
          "internalType": "string",
          "name": "_symbol",
          "type": "string"
        },
        {
          "internalType": "uint256",
          "name": "_amount",
          "type": "uint256"
        }
      ],
      "name": "withdraw",
      "outputs": [
        {
          "internalType": "uint256",
          "name": "tokenBalance",
          "type": "uint256"
        }
      ],
      "stateMutability": "nonpayable",
      "type": "function"
    },
    {
      "inputs": [
        {
          "internalType": "string",
          "name": "_symbol",
          "type": "string"
        }
      ],
      "name": "getUserTokenBalance",
      "outputs": [
        {
          "internalType": "uint256",
          "name": "tokenBalance",
          "type": "uint256"
        }
      ],
      "stateMutability": "view",
      "type": "function",
      "constant": true
    },
    {
      "inputs": [
        {
          "internalType": "address",
          "name": "_from",
          "type": "address"
        },
        {
          "internalType": "address",
          "name": "_to",
          "type": "address"
        },
        {
          "internalType": "uint8",
          "name": "_tokenId",
          "type": "uint8"
        },
        {
          "internalType": "uint256",
          "name": "_amount",
          "type": "uint256"
        }
      ],
      "name": "transferFrom",
      "outputs": [
        {
          "internalType": "bool",
          "name": "",
          "type": "bool"
        }
      ],
      "stateMutability": "nonpayable",
      "type": "function"
    },
    {
      "inputs": [
        {
          "internalType": "string",
          "name": "_symbol",
          "type": "string"
        }
      ],
      "name": "getTokenId",
      "outputs": [
        {
          "internalType": "uint8",
          "name": "",
          "type": "uint8"
        }
      ],
      "stateMutability": "view",
      "type": "function",
      "constant": true
    },
    {
      "inputs": [
        {
          "internalType": "address",
          "name": "_user",
          "type": "address"
        },
        {
          "internalType": "uint8",
          "name": "_tokenId",
          "type": "uint8"
        }
      ],
      "name": "getBalance",
      "outputs": [
        {
          "internalType": "uint256",
          "name": "",
          "type": "uint256"
        }
      ],
      "stateMutability": "view",
      "type": "function",
      "constant": true
    },
    {
      "inputs": [],
      "name": "getAllTokens",
      "outputs": [
        {
          "internalType": "string[]",
          "name": "tokenNames",
          "type": "string[]"
        },
        {
          "internalType": "string[]",
          "name": "tokenSymbols",
          "type": "string[]"
        }
      ],
      "stateMutability": "view",
      "type": "function",
      "constant": true
    }
  ],
  "bytecode": "0x60a03461007757601f6125f738819003918201601f19168301916001600160401b0383118484101761007c5780849260209460405283398101031261007757516001600160a01b03811681036100775761005890610092565b60405161250890816100ef823960805181818161066d0152610cac0152f35b600080fd5b634e487b7160e01b600052604160045260246000fd5b60008054336001600160a01b03198216811783556040516001600160a01b03949391928516917f8be0079c531659141344cd1fd0a4f28419497f9722a3daafe3b4186f6b6457e091a3600160ff1960045416176004551660805256fe6080604052600436101562000014575b600080fd5b60003560e01c806309031339146200013d5780631e7663bc14620001325780632175597714620001275780632a5c792a146200011c57806330b39a621462000111578063319aac1f14620001065780633e72a46914620000fb57806341ed2c1214620000f0578063715018a614620000e557806382b8660014620000da5780638da5cb5b14620000cf5780638e27d71914620000c45763f2fde38b14620000ba57600080fd5b6200000f62000eeb565b506200000f62000dca565b506200000f62000d9e565b506200000f62000d3e565b506200000f62000cdb565b506200000f62000c93565b506200000f62000c39565b506200000f62000beb565b506200000f62000a2c565b506200000f62000837565b506200000f620004a6565b506200000f6200042b565b506200000f62000187565b600435906001600160a01b03821682036200000f57565b602435906001600160a01b03821682036200000f57565b6044359060ff821682036200000f57565b50346200000f5760803660031901126200000f576200021f620002127ff9b39da53b419c4c7d968c56514f6eac273d3b23ef66229a01bb0d9117dfd6a062000285620001d262000148565b620002e3620001e06200015f565b620001ea62000176565b938491620002ba8362000285606435976200025e60018060a01b038083169d8e1515620013bf565b8087169e8f151562001403565b6200022c8b151562001238565b62000255620002488660ff166000526001602052604060002090565b546001600160a01b031690565b16151562001014565b620002a0896200029785620002858560018060a01b03166000526003602052604060002090565b9060ff16600052602052604060002090565b54101562001361565b6001600160a01b0316600090815260036020526040902090565b620002c7868254620013a5565b90556001600160a01b0316600090815260036020526040902090565b620002f082825462001284565b90556040805160ff93909316835260208301919091524290820152606090a360405160018152602090f35b0390f35b50634e487b7160e01b600052604160045260246000fd5b67ffffffffffffffff81116200034b57604052565b620003556200031f565b604052565b90601f8019910116810190811067ffffffffffffffff8211176200034b57604052565b60209067ffffffffffffffff81116200039c575b601f01601f19160190565b620003a66200031f565b62000391565b81601f820112156200000f57803590620003c6826200037d565b92620003d660405194856200035a565b828452602083830101116200000f57816000926020809301838601378301015290565b60206003198201126200000f576004359067ffffffffffffffff82116200000f576200042891600401620003ac565b90565b50346200000f576200043d36620003f9565b60ff6200044a8262001058565b5416156200046b5760ff6200046160209262001058565b5416604051908152f35b60405162461bcd60e51b8152602060048201526013602482015272151bdad95b88191bd95cdb89dd08195e1a5cdd606a1b6044820152606490fd5b50346200000f5760603660031901126200000f5767ffffffffffffffff600480358281116200000f57620004de9036908301620003ac565b90602435918383116200000f577ff75d10da78e4bb49a50a1c14710561b706ba0d28b15d021cb2cc6e2d092ea4ed6200051f620005899436908501620003ac565b94604435906200052e62000fbb565b6200055260ff6200054a620005438a62001058565b5460ff1690565b161562001080565b6200055f821515620010c5565b604051958691610f588084019182118483101762000733575b6200157b8439838987339362001120565b0395620005e0600097889788f0801562000723575b620005c1620005ae885460ff1690565b60ff166000526001602052604060002090565b80546001600160a01b0319166001600160a01b03909216919091179055565b6200060a620005f0865460ff1690565b620005fb8362001058565b9060ff1660ff19825416179055565b6200062b6200061a865460ff1690565b946040519384934292888662001171565b0390a1600160ff8216116200066b575b50620006566200065062000666925460ff1690565b620011ca565b60ff1660ff196004541617600455565b604051f35b7f00000000000000000000000000000000000000000000000000000000000000006001600160a01b031691823b156200071e576040516344fdab1160e01b815260ff9092168183019081526200066694620006569462000650949283919082908490829060200103925af180156200070e575b620006f0575b5091508392506200063b565b8062000700620007079262000336565b8062000743565b38620006e4565b6200071862001164565b620006de565b505050fd5b6200072d62001164565b6200059e565b6200073d6200031f565b62000578565b60009103126200000f57565b918091926000905b828210620007715750116200076a575050565b6000910152565b9150806020918301518186015201829162000757565b90602091620007a2815180928185528580860191016200074f565b601f01601f1916010190565b908082519081815260208091019281808460051b8301019501936000915b848310620007dd5750505050505090565b9091929394958480620007fd600193601f198682030187528a5162000787565b9801930193019194939290620007cc565b9091620008286200042893604084526040840190620007ae565b916020818403910152620007ae565b50346200000f57600080600319360112620009f3576004906200085b825460ff1690565b6200087a620008746200086e8362001445565b60ff1690565b62001494565b916200088e620008746200086e8462001445565b9360ff92831660015b8185821610620008b257604051806200031b8989836200080e565b80620009818486620008e9620008dd62000248620009889760ff166000526001602052604060002090565b6001600160a01b031690565b6040620009388c82516306fdde0360e01b815285818881885afa908115620009e3575b8691620009c5575b5062000930620009286200086e8b62001445565b80936200154f565b528d6200154f565b50516395d89b4160e01b815292839182905afa908115620009b5575b87916200098e575b506200096c6200086e8462001445565b9062000979828c6200154f565b52896200154f565b50620011ca565b62000897565b620009ae91503d8089833e620009a581836200035a565b810190620014e6565b386200095c565b620009bf62001164565b62000954565b620009dc91503d8088833e620009a581836200035a565b3862000914565b620009ed62001164565b6200090c565b80fd5b60406003198201126200000f576004359067ffffffffffffffff82116200000f5762000a2591600401620003ac565b9060243590565b50346200000f576200031b62000b9562000a4636620009f6565b62000a6460ff62000a5b620005438562001058565b161515620011eb565b62000a7181151562001238565b62000a9e816200029762000a89620005438662001058565b33600090815260036020526040902062000285565b7f84b1821c493be0f356d92532c866021be43bf63dab6938bf6748729ecce791cf62000b7d62000ad2620005438562001058565b9362000b4162000afb620008dd620008dd620002488960ff166000526001602052604060002090565b60405163a9059cbb60e01b81523360048201526024810187905290602090829081600081604481015b03925af190811562000bdb575b60009162000ba6575b50620012f0565b33600090815260036020526040902062000b5d90869062000285565b62000b6a858254620013a5565b905560405191829133954291846200133d565b0390a233600090815260036020526040902062000285565b546040519081529081906020820190565b62000bcc915060203d811162000bd3575b62000bc381836200035a565b810190620012d6565b3862000b3a565b503d62000bb7565b62000be562001164565b62000b31565b50346200000f57602062000c3060ff62000c0f62000c0936620003f9565b62001058565b5416336000526003835260406000209060ff16600052602052604060002090565b54604051908152f35b50346200000f5760403660031901126200000f5762000c5762000148565b6024359060ff821682036200000f576001600160a01b0316600090815260036020908152604080832060ff909416835292815291902062000c30565b50346200000f5760003660031901126200000f576040517f00000000000000000000000000000000000000000000000000000000000000006001600160a01b03168152602090f35b50346200000f57600080600319360112620009f35762000cfa62000fbb565b80546001600160a01b0319811682556040519082906001600160a01b03167f8be0079c531659141344cd1fd0a4f28419497f9722a3daafe3b4186f6b6457e08284a3f35b50346200000f5760203660031901126200000f5760043560ff81168091036200000f57806020916000526001825260018060a01b039062000d888260406000205416151562001014565b6000526001825260406000205416604051908152f35b50346200000f5760003660031901126200000f576000546040516001600160a01b039091168152602090f35b50346200000f576200031b62000b9562000de436620009f6565b62000df960ff62000a5b620005438562001058565b62000e0681151562001238565b62000e3162000e1d62000a89620005438562001058565b5462000e2a838262001284565b1162001291565b7f92601632002667117695ed40cf2ad65114ec345add12cbcb4d321e51fd5f1e6d62000b7d62000e65620005438562001058565b9362000ec262000e8e620008dd620008dd620002488960ff166000526001602052604060002090565b6040516323b872dd60e01b815233600482015230602482015260448101879052906020908290816000816064810162000b24565b33600090815260036020526040902062000ede90869062000285565b62000b6a85825462001284565b50346200000f5760203660031901126200000f5762000f0962000148565b62000f1362000fbb565b6001600160a01b0390811690811562000f6757600080546001600160a01b031981168417825560405191939192167f8be0079c531659141344cd1fd0a4f28419497f9722a3daafe3b4186f6b6457e08484a3f35b60405162461bcd60e51b815260206004820152602660248201527f4f776e61626c653a206e6577206f776e657220697320746865207a65726f206160448201526564647265737360d01b6064820152608490fd5b6000546001600160a01b0316330362000fd057565b606460405162461bcd60e51b815260206004820152602060248201527f4f776e61626c653a2063616c6c6572206973206e6f7420746865206f776e65726044820152fd5b156200101c57565b60405162461bcd60e51b8152602060048201526014602482015273151bdad95b88191bd95cc81b9bdd08195e1a5cdd60621b6044820152606490fd5b6020620010739181604051938285809451938492016200074f565b8101600281520301902090565b156200108857565b60405162461bcd60e51b8152602060048201526015602482015274546f6b656e20616c7265616479206578697374732160581b6044820152606490fd5b15620010cd57565b60405162461bcd60e51b815260206004820152602560248201527f496e697469616c20737570706c79206d75737420626520677265617465722074604482015264068616e20360dc1b6064820152608490fd5b929493906060926200113f6200114e9260808752608087019062000787565b90858203602087015262000787565b60408401959095526001600160a01b0316910152565b506040513d6000823e3d90fd5b91926200119a60809460ff620011a9949998979916855260a0602086015260a085019062000787565b90838203604085015262000787565b9460608201520152565b50634e487b7160e01b600052601160045260246000fd5b60ff6001911660ff8114620011dd570190565b620011e7620011b3565b0190565b15620011f357565b60405162461bcd60e51b815260206004820152601860248201527f546f6b656e206861736e2774206265656e2069737375656400000000000000006044820152606490fd5b156200124057565b606460405162461bcd60e51b815260206004820152602060248201527f416d6f756e74206d7573742062652067726561746572207468616e207a65726f6044820152fd5b81198111620011dd570190565b156200129957565b60405162461bcd60e51b8152602060048201526015602482015274557365722062616c616e6365206f766572666c6f7760581b6044820152606490fd5b908160209103126200000f575180151581036200000f5790565b15620012f857565b60405162461bcd60e51b815260206004820152601960248201527f4661696c656420746f207472616e7366657220616d6f756e74000000000000006044820152606490fd5b620013576040929594939560608352606083019062000787565b9460208201520152565b156200136957565b60405162461bcd60e51b8152602060048201526014602482015273496e73756666696369656e742062616c616e636560601b6044820152606490fd5b818110620013b1570390565b620013bb620011b3565b0390565b15620013c757565b60405162461bcd60e51b8152602060048201526014602482015273496e76616c69642066726f6d206164647265737360601b6044820152606490fd5b156200140b57565b60405162461bcd60e51b8152602060048201526012602482015271496e76616c696420746f206164647265737360701b6044820152606490fd5b60ff166001811062001459575b6000190190565b62001463620011b3565b62001452565b60209067ffffffffffffffff811162001484575b60051b0190565b6200148e6200031f565b6200147d565b90620014a08262001469565b620014af60405191826200035a565b8281528092620014c2601f199162001469565b019060005b828110620014d457505050565b806060602080938501015201620014c7565b6020818303126200000f5780519067ffffffffffffffff82116200000f570181601f820112156200000f5780516200151e816200037d565b926200152e60405194856200035a565b818452602082840101116200000f576200042891602080850191016200074f565b8051821015620015645760209160051b010190565b634e487b7160e01b600052603260045260246000fdfe608060405234620000a35762000f58803803806200001d81620000bf565b928339810190608081830312620000a35780516001600160401b0390818111620000a357836200004f918401620000f4565b926020830151918211620000a3576200006a918301620000f4565b604082015160609092015191906001600160a01b0383168303620000a357620000939362000188565b6040516109c69081620005928239f35b600080fd5b50634e487b7160e01b600052604160045260246000fd5b6040519190601f01601f191682016001600160401b03811183821017620000e557604052565b620000ef620000a8565b604052565b81601f82011215620000a3578051906001600160401b03821162000178575b6020906200012a601f8401601f19168301620000bf565b93838552828483010111620000a35782906000905b838383106200015f575050116200015557505090565b6000918301015290565b819350828193920101518282880101520183916200013f565b62000182620000a8565b62000113565b805191949391906001600160401b038211620002a5575b620001b782620001b1600354620002b5565b620002f2565b60209081601f84116001146200020e5750918062000200969792620001fa9460009262000202575b50508160011b916000199060031b1c191617600355620003a4565b620004a8565b565b015190503880620001df565b60036000529190601f1984167fc2575a0e9e593c00f959f8c92f12db2869c3395a3b0502d05e2516446f71f85b936000905b8282106200028c575050926001928592620001fa96620002009a9b961062000272575b505050811b01600355620003a4565b015160001960f88460031b161c1916905538808062000263565b8060018697829497870151815501960194019062000240565b620002af620000a8565b6200019f565b90600182811c92168015620002e7575b6020831014620002d157565b634e487b7160e01b600052602260045260246000fd5b91607f1691620002c5565b601f8111620002ff575050565b6000906003825260208220906020601f850160051c8301941062000340575b601f0160051c01915b8281106200033457505050565b81815560010162000327565b90925082906200031e565b601f811162000358575050565b6000906004825260208220906020601f850160051c8301941062000399575b601f0160051c01915b8281106200038d57505050565b81815560010162000380565b909250829062000377565b80519091906001600160401b03811162000498575b620003d181620003cb600454620002b5565b6200034b565b602080601f831160011462000410575081929360009262000404575b50508160011b916000199060031b1c191617600455565b015190503880620003ed565b6004600052601f198316949091907f8a35acfbc15ff81a39ae7d344fd709f28e8600b4aa8c65c6b64bfe7fe36bd19b926000905b8782106200047f57505083600195961062000465575b505050811b01600455565b015160001960f88460031b161c191690553880806200045a565b8060018596829496860151815501950193019062000444565b620004a2620000a8565b620003b9565b6001600160a01b038116919082156200054c5760025490821982116200053657826200051b6200053192620005016000967fddf252ad1be2c89b69c2b068fc378daa952ba7f163c4a11628f55a4df523b3ef9601600255565b6001600160a01b0316600090815260208190526040902090565b8054820190556040519081529081906020820190565b0390a3565b634e487b7160e01b600052601160045260246000fd5b60405162461bcd60e51b815260206004820152601f60248201527f45524332303a206d696e7420746f20746865207a65726f2061646472657373006044820152606490fdfe60806040526004361015610013575b600080fd5b60003560e01c806306fdde03146100ef578063095ea7b3146100e657806318160ddd146100dd57806323b872dd146100d4578063313ce567146100cb57806339509351146100c257806370a08231146100b957806395d89b41146100b0578063a457c2d7146100a7578063a9059cbb1461009e5763dd62ed3e1461009657600080fd5b61000e610605565b5061000e6105de565b5061000e61052f565b5061000e61046b565b5061000e610430565b5061000e6103bd565b5061000e6103a0565b5061000e6102d4565b5061000e6102b5565b5061000e610283565b5061000e61014f565b919091602080825283519081818401526000945b82861061013957505080604093941161012c575b601f01601f1916010190565b6000838284010152610120565b858101820151848701604001529481019461010c565b503461000e576000806003193601126102545760405190806003549060019180831c9280821692831561024a575b602092838610851461023657858852602088019490811561021a57506001146101c1575b6101bd876101b18189038261065e565b604051918291826100f8565b0390f35b600360005294509192917fc2575a0e9e593c00f959f8c92f12db2869c3395a3b0502d05e2516446f71f85b5b83861061020957505050910190506101b1826101bd38806101a1565b8054858701529482019481016101ed565b60ff191685525050500191506101b19050826101bd38806101a1565b634e487b7160e01b82526022600452602482fd5b93607f169361017d565b80fd5b600435906001600160a01b038216820361000e57565b602435906001600160a01b038216820361000e57565b503461000e57604036600319011261000e576102aa6102a0610257565b6024359033610865565b602060405160018152f35b503461000e57600036600319011261000e576020600254604051908152f35b503461000e57606036600319011261000e576102ee610257565b6102f661026d565b6001600160a01b03821660009081526001602090815260408083203384529091529020604435919054926001840161033f575b6103339350610749565b60405160018152602090f35b82841061035b576103568361033395033383610865565b610329565b60405162461bcd60e51b815260206004820152601d60248201527f45524332303a20696e73756666696369656e7420616c6c6f77616e63650000006044820152606490fd5b503461000e57600036600319011261000e57602060405160128152f35b503461000e57604036600319011261000e576103d7610257565b602435903360005260016020526104048160406000209060018060a01b0316600052602052604060002090565b54918019831161041a576102aa92019033610865565b634e487b7160e01b600052601160045260246000fd5b503461000e57602036600319011261000e576001600160a01b03610452610257565b1660005260006020526020604060002054604051908152f35b503461000e576000806003193601126102545760405190806004549060019180831c92808216928315610525575b602092838610851461023657858852602088019490811561021a57506001146104cc576101bd876101b18189038261065e565b600460005294509192917f8a35acfbc15ff81a39ae7d344fd709f28e8600b4aa8c65c6b64bfe7fe36bd19b5b83861061051457505050910190506101b1826101bd38806101a1565b8054858701529482019481016104f8565b93607f1693610499565b503461000e57604036600319011261000e57610549610257565b602435903360005260016020526105768160406000209060018060a01b0316600052602052604060002090565b549180831061058b5761033392039033610865565b60405162461bcd60e51b815260206004820152602560248201527f45524332303a2064656372656173656420616c6c6f77616e63652062656c6f77604482015264207a65726f60d81b6064820152608490fd5b503461000e57604036600319011261000e576102aa6105fb610257565b6024359033610749565b503461000e57604036600319011261000e576020610655610624610257565b61062c61026d565b6001600160a01b0391821660009081526001855260408082209290931681526020919091522090565b54604051908152f35b90601f8019910116810190811067ffffffffffffffff82111761068057604052565b634e487b7160e01b600052604160045260246000fd5b1561069d57565b60405162461bcd60e51b815260206004820152602360248201527f45524332303a207472616e7366657220746f20746865207a65726f206164647260448201526265737360e81b6064820152608490fd5b156106f557565b60405162461bcd60e51b815260206004820152602660248201527f45524332303a207472616e7366657220616d6f756e7420657863656564732062604482015265616c616e636560d01b6064820152608490fd5b916001600160a01b038084169290918315610812576107f7827fddf252ad1be2c89b69c2b068fc378daa952ba7f163c4a11628f55a4df523b3ef9461080d941696610795881515610696565b6107dc846107b58360018060a01b03166000526000602052604060002090565b546107c2828210156106ee565b039160018060a01b03166000526000602052604060002090565b556001600160a01b0316600090815260208190526040902090565b8054820190556040519081529081906020820190565b0390a3565b60405162461bcd60e51b815260206004820152602560248201527f45524332303a207472616e736665722066726f6d20746865207a65726f206164604482015264647265737360d81b6064820152608490fd5b6001600160a01b03808216929190831561093f5782169384156108ef57806108de7f8c5be1e5ebec7d5bd14f71427d1e84f3dd0314c0f7b2291e5b200ac8c7c3b925946108c761080d9560018060a01b03166000526001602052604060002090565b9060018060a01b0316600052602052604060002090565b556040519081529081906020820190565b60405162461bcd60e51b815260206004820152602260248201527f45524332303a20617070726f766520746f20746865207a65726f206164647265604482015261737360f01b6064820152608490fd5b60405162461bcd60e51b8152602060048201526024808201527f45524332303a20617070726f76652066726f6d20746865207a65726f206164646044820152637265737360e01b6064820152608490fdfea2646970667358221220c4cb51761df1d94167afe8a086ada11f862a7cd8bdd9578c190beba4f073dee364736f6c634300080d0033a26469706673582212208e7c902ad1157ab24f31964597c539caf8d1c359203482493b84b14a1ff94be964736f6c634300080d0033",
  "immutableReferences": {
    "4880": [
      {
        "length": 32,
        "start": 1645
      },
      {
        "length": 32,
        "start": 3244
      }
    ]
  },
  "source": "// SPDX-License-Identifier: UNLICENSED\npragma solidity ^0.8.0;\n\nimport \"@openzeppelin/contracts/access/Ownable.sol\";\nimport \"./Token.sol\";\nimport \"./MarketManager.sol\";\n\ncontract TokenManager is Ownable {\n    // Token ID -> Token\n    mapping(uint8 => Token) internal tokens;\n\n    // Map token symbol to whether it exists in the DEX or not\n    mapping(string => uint8) internal isToken;\n\n    // User Address -> [Token ID -> Balance]\n    mapping(address => mapping(uint8 => uint256)) internal userBalances;\n\n    MarketManager public immutable marketManager;\n\n    uint8 internal tokenId = 1;\n\n    event TokenIssueEvent(\n        uint8 tokenId,\n        string name,\n        string symbol,\n        uint256 initialSupply,\n        uint256 timestamp\n    );\n\n    event DepositEvent(\n        string symbol,\n        address indexed userAddress,\n        uint256 amount,\n        uint256 timestamp\n    );\n\n    event WithdrawalEvent(\n        string symbol,\n        address indexed userAddress,\n        uint256 amount,\n        uint256 timestamp\n    );\n\n    event InternalTransferEvent(\n        uint8 tokenId,\n        address indexed from,\n        address indexed to,\n        uint256 amount,\n        uint256 timestamp\n    );\n\n    constructor(address _marketManagerAddr) Ownable() {\n        marketManager = MarketManager(_marketManagerAddr);\n    }\n\n    function getToken(uint8 _tokenId) external view returns (address) {\n        require(\n            address(tokens[_tokenId]) != address(0),\n            \"Token does not exist\"\n        );\n        return address(tokens[_tokenId]);\n    }\n\n    function issueToken(\n        string memory _name,\n        string memory _symbol,\n        uint256 _initialSupply\n    ) external onlyOwner {\n        require(isToken[_symbol] == 0, \"Token already exists!\");\n        require(_initialSupply > 0, \"Initial supply must be greater than 0\");\n\n        // Create a token\n        Token newToken = new Token(_name, _symbol, _initialSupply, msg.sender);\n\n        tokens[tokenId] = newToken;\n        isToken[_symbol] = tokenId;\n\n        emit TokenIssueEvent(\n            tokenId,\n            _name,\n            _symbol,\n            _initialSupply,\n            block.timestamp\n        );\n\n        if (tokenId > 1) {\n            marketManager.createMarket(tokenId);\n        }\n\n        tokenId++;\n    }\n\n    function deposit(\n        string memory _symbol,\n        uint256 _amount\n    ) external returns (uint256 tokenBalance) {\n        require(isToken[_symbol] > 0, \"Token hasn't been issued\");\n        require(_amount > 0, \"Amount must be greater than zero\");\n\n        uint256 userBalance = getUserTokenBalance(_symbol);\n        require(userBalance + _amount > userBalance, \"User balance overflow\");\n\n        uint8 _tokenId = isToken[_symbol];\n        IERC20 token = tokens[_tokenId];\n\n        // Deposit \"amount\" number of a particular token from sender to contract\n        require(\n            token.transferFrom(msg.sender, address(this), _amount),\n            \"Failed to transfer amount\"\n        );\n\n        // Ledger update\n        userBalances[msg.sender][_tokenId] += _amount;\n\n        emit DepositEvent(_symbol, msg.sender, _amount, block.timestamp);\n\n        return userBalances[msg.sender][_tokenId];\n    }\n\n    function withdraw(\n        string memory _symbol,\n        uint256 _amount\n    ) external returns (uint256 tokenBalance) {\n        require(isToken[_symbol] > 0, \"Token hasn't been issued\");\n        require(_amount > 0, \"Amount must be greater than zero\");\n\n        uint256 userBalance = getUserTokenBalance(_symbol);\n        require(userBalance >= _amount, \"Insufficient balance\");\n\n        uint8 _tokenId = isToken[_symbol];\n        IERC20 token = tokens[_tokenId];\n\n        // Send \"amount\" number of a particular token from contract to sender\n        require(\n            token.transfer(msg.sender, _amount),\n            \"Failed to transfer amount\"\n        );\n\n        // Update ledger\n        userBalances[msg.sender][_tokenId] -= _amount;\n\n        emit WithdrawalEvent(_symbol, msg.sender, _amount, block.timestamp);\n\n        return userBalances[msg.sender][_tokenId];\n    }\n\n    function getUserTokenBalance(\n        string memory _symbol\n    ) public view returns (uint256 tokenBalance) {\n        uint8 _tokenId = isToken[_symbol];\n        return userBalances[msg.sender][_tokenId];\n    }\n\n    function transferFrom(\n        address _from,\n        address _to,\n        uint8 _tokenId,\n        uint256 _amount\n    ) external returns (bool) {\n        require(_from != address(0), \"Invalid from address\");\n        require(_to != address(0), \"Invalid to address\");\n        require(_amount > 0, \"Amount must be greater than zero\");\n        require(tokens[_tokenId] != Token(address(0)), \"Token does not exist\");\n\n        // Check if sender has sufficient balance\n        require(\n            userBalances[_from][_tokenId] >= _amount,\n            \"Insufficient balance\"\n        );\n\n        // Update balances\n        userBalances[_from][_tokenId] -= _amount;\n        userBalances[_to][_tokenId] += _amount;\n\n        emit InternalTransferEvent(\n            _tokenId,\n            _from,\n            _to,\n            _amount,\n            block.timestamp\n        );\n\n        return true;\n    }\n\n    // Helper function to get token ID from symbol\n    function getTokenId(string memory _symbol) external view returns (uint8) {\n        require(isToken[_symbol] > 0, \"Token doesn't exist\");\n        return isToken[_symbol];\n    }\n\n    // Helper function to get balance for any user (not just msg.sender)\n    function getBalance(\n        address _user,\n        uint8 _tokenId\n    ) external view returns (uint256) {\n        return userBalances[_user][_tokenId];\n    }\n\n    function getAllTokens()\n        external\n        view\n        returns (string[] memory tokenNames, string[] memory tokenSymbols)\n    {\n        tokenNames = new string[](tokenId - 1);\n        tokenSymbols = new string[](tokenId - 1);\n\n        for (uint8 i = 1; i < tokenId; i++) {\n            Token t = tokens[i];\n            tokenNames[i - 1] = t.name();\n            tokenSymbols[i - 1] = t.symbol();\n        }\n\n        return (tokenNames, tokenSymbols);\n    }\n}\n",
  "sourcePath": "C:\\Users\\kaise\\OneDrive\\Desktop\\Codebase\\NTU\\sc4053-blockchain-technology\\contracts\\TokenManager.sol",
  "compiler": {
    "name": "solc",
    "version": "0.8.13+commit.abaa5c0e.Emscripten.clang"
  },
  "schemaVersion": "3.4.16",
  "updatedAt": "2024-11-04T13:02:41.327Z",
  "networkType": "ethereum",
  "devdoc": {
    "kind": "dev",
    "methods": {
      "owner()": {
        "details": "Returns the address of the current owner."
      },
      "renounceOwnership()": {
        "details": "Leaves the contract without owner. It will not be possible to call `onlyOwner` functions. Can only be called by the current owner. NOTE: Renouncing ownership will leave the contract without an owner, thereby disabling any functionality that is only available to the owner."
      },
      "transferOwnership(address)": {
        "details": "Transfers ownership of the contract to a new account (`newOwner`). Can only be called by the current owner."
      }
    },
    "version": 1
  },
  "userdoc": {
    "kind": "user",
    "methods": {},
    "version": 1
  }
}