{
  "contractName": "Exchange",
  "abi": [
    {
      "anonymous": false,
      "inputs": [
        {
          "indexed": false,
          "internalType": "string",
          "name": "symbol",
          "type": "string"
        },
        {
          "indexed": true,
          "internalType": "address",
          "name": "userAddress",
          "type": "address"
        },
        {
          "indexed": false,
          "internalType": "uint256",
          "name": "amount",
          "type": "uint256"
        },
        {
          "indexed": false,
          "internalType": "uint256",
          "name": "timestamp",
          "type": "uint256"
        }
      ],
      "name": "DepositEvent",
      "type": "event"
    },
    {
      "anonymous": false,
      "inputs": [
        {
          "indexed": false,
          "internalType": "uint8",
          "name": "tokenIndex",
          "type": "uint8"
        },
        {
          "indexed": false,
          "internalType": "string",
          "name": "name",
          "type": "string"
        },
        {
          "indexed": false,
          "internalType": "string",
          "name": "symbol",
          "type": "string"
        },
        {
          "indexed": false,
          "internalType": "uint256",
          "name": "initialSupply",
          "type": "uint256"
        },
        {
          "indexed": false,
          "internalType": "uint256",
          "name": "timestamp",
          "type": "uint256"
        }
      ],
      "name": "IssueTokenEvent",
      "type": "event"
    },
    {
      "anonymous": false,
      "inputs": [
        {
          "indexed": false,
          "internalType": "uint256",
          "name": "marketId",
          "type": "uint256"
        },
        {
          "indexed": false,
          "internalType": "uint8",
          "name": "tokenId1",
          "type": "uint8"
        },
        {
          "indexed": false,
          "internalType": "uint8",
          "name": "tokenId2",
          "type": "uint8"
        },
        {
          "indexed": false,
          "internalType": "uint256",
          "name": "timestamp",
          "type": "uint256"
        }
      ],
      "name": "MarketCreatedEvent",
      "type": "event"
    },
    {
      "anonymous": false,
      "inputs": [
        {
          "indexed": false,
          "internalType": "uint256",
          "name": "orderId",
          "type": "uint256"
        },
        {
          "indexed": false,
          "internalType": "uint8",
          "name": "tokenId1",
          "type": "uint8"
        },
        {
          "indexed": false,
          "internalType": "uint8",
          "name": "tokenId2",
          "type": "uint8"
        },
        {
          "indexed": false,
          "internalType": "enum OrderLibrary.OrderType",
          "name": "orderType",
          "type": "uint8"
        },
        {
          "indexed": false,
          "internalType": "address",
          "name": "userAddress",
          "type": "address"
        },
        {
          "indexed": false,
          "internalType": "uint256",
          "name": "timestamp",
          "type": "uint256"
        }
      ],
      "name": "OrderCancelledEvent",
      "type": "event"
    },
    {
      "anonymous": false,
      "inputs": [
        {
          "indexed": false,
          "internalType": "uint8",
          "name": "tokenId1",
          "type": "uint8"
        },
        {
          "indexed": false,
          "internalType": "uint8",
          "name": "tokenId2",
          "type": "uint8"
        },
        {
          "indexed": false,
          "internalType": "uint256",
          "name": "price",
          "type": "uint256"
        },
        {
          "indexed": false,
          "internalType": "uint256",
          "name": "amount",
          "type": "uint256"
        },
        {
          "indexed": false,
          "internalType": "address",
          "name": "userAddress",
          "type": "address"
        },
        {
          "indexed": false,
          "internalType": "enum OrderLibrary.OrderType",
          "name": "orderType",
          "type": "uint8"
        },
        {
          "indexed": false,
          "internalType": "enum OrderLibrary.OrderNature",
          "name": "orderNature",
          "type": "uint8"
        },
        {
          "indexed": false,
          "internalType": "uint256",
          "name": "timestamp",
          "type": "uint256"
        }
      ],
      "name": "OrderCreatedEvent",
      "type": "event"
    },
    {
      "anonymous": false,
      "inputs": [
        {
          "indexed": false,
          "internalType": "uint8",
          "name": "tokenId1",
          "type": "uint8"
        },
        {
          "indexed": false,
          "internalType": "uint8",
          "name": "tokenId2",
          "type": "uint8"
        },
        {
          "indexed": false,
          "internalType": "uint256",
          "name": "price",
          "type": "uint256"
        },
        {
          "indexed": false,
          "internalType": "uint256",
          "name": "amount",
          "type": "uint256"
        },
        {
          "indexed": false,
          "internalType": "enum OrderLibrary.OrderType",
          "name": "orderType",
          "type": "uint8"
        },
        {
          "indexed": false,
          "internalType": "enum OrderLibrary.OrderNature",
          "name": "orderNature",
          "type": "uint8"
        },
        {
          "indexed": false,
          "internalType": "uint256",
          "name": "timestamp",
          "type": "uint256"
        }
      ],
      "name": "OrderFilledEvent",
      "type": "event"
    },
    {
      "anonymous": false,
      "inputs": [
        {
          "indexed": true,
          "internalType": "address",
          "name": "previousOwner",
          "type": "address"
        },
        {
          "indexed": true,
          "internalType": "address",
          "name": "newOwner",
          "type": "address"
        }
      ],
      "name": "OwnershipTransferred",
      "type": "event"
    },
    {
      "anonymous": false,
      "inputs": [
        {
          "indexed": false,
          "internalType": "string",
          "name": "symbol",
          "type": "string"
        },
        {
          "indexed": true,
          "internalType": "address",
          "name": "userAddress",
          "type": "address"
        },
        {
          "indexed": false,
          "internalType": "uint256",
          "name": "amount",
          "type": "uint256"
        },
        {
          "indexed": false,
          "internalType": "uint256",
          "name": "timestamp",
          "type": "uint256"
        }
      ],
      "name": "WithdrawalEvent",
      "type": "event"
    },
    {
      "inputs": [],
      "name": "owner",
      "outputs": [
        {
          "internalType": "address",
          "name": "",
          "type": "address"
        }
      ],
      "stateMutability": "view",
      "type": "function",
      "constant": true
    },
    {
      "inputs": [],
      "name": "renounceOwnership",
      "outputs": [],
      "stateMutability": "nonpayable",
      "type": "function"
    },
    {
      "inputs": [
        {
          "internalType": "address",
          "name": "newOwner",
          "type": "address"
        }
      ],
      "name": "transferOwnership",
      "outputs": [],
      "stateMutability": "nonpayable",
      "type": "function"
    },
    {
      "inputs": [
        {
          "internalType": "string",
          "name": "symbol",
          "type": "string"
        },
        {
          "internalType": "uint256",
          "name": "amount",
          "type": "uint256"
        }
      ],
      "name": "depositTokens",
      "outputs": [
        {
          "internalType": "uint256",
          "name": "tokenBalance",
          "type": "uint256"
        }
      ],
      "stateMutability": "nonpayable",
      "type": "function"
    },
    {
      "inputs": [
        {
          "internalType": "string",
          "name": "symbol",
          "type": "string"
        },
        {
          "internalType": "uint256",
          "name": "amount",
          "type": "uint256"
        }
      ],
      "name": "withdrawTokens",
      "outputs": [
        {
          "internalType": "uint256",
          "name": "tokenBalance",
          "type": "uint256"
        }
      ],
      "stateMutability": "nonpayable",
      "type": "function"
    },
    {
      "inputs": [
        {
          "internalType": "string",
          "name": "name",
          "type": "string"
        },
        {
          "internalType": "string",
          "name": "symbol",
          "type": "string"
        },
        {
          "internalType": "uint256",
          "name": "initialSupply",
          "type": "uint256"
        }
      ],
      "name": "issueToken",
      "outputs": [],
      "stateMutability": "nonpayable",
      "type": "function"
    },
    {
      "inputs": [
        {
          "internalType": "string",
          "name": "symbol1",
          "type": "string"
        },
        {
          "internalType": "string",
          "name": "symbol2",
          "type": "string"
        },
        {
          "internalType": "uint256",
          "name": "price",
          "type": "uint256"
        },
        {
          "internalType": "uint256",
          "name": "amount",
          "type": "uint256"
        },
        {
          "internalType": "enum OrderLibrary.OrderType",
          "name": "orderType",
          "type": "uint8"
        },
        {
          "internalType": "enum OrderLibrary.OrderNature",
          "name": "orderNature",
          "type": "uint8"
        }
      ],
      "name": "placeOrder",
      "outputs": [
        {
          "internalType": "uint256",
          "name": "orderId",
          "type": "uint256"
        }
      ],
      "stateMutability": "nonpayable",
      "type": "function"
    },
    {
      "inputs": [
        {
          "internalType": "uint8",
          "name": "marketID",
          "type": "uint8"
        },
        {
          "internalType": "enum OrderLibrary.OrderType",
          "name": "orderType",
          "type": "uint8"
        },
        {
          "internalType": "uint256",
          "name": "orderId",
          "type": "uint256"
        }
      ],
      "name": "cancelOrder",
      "outputs": [],
      "stateMutability": "nonpayable",
      "type": "function"
    }
  ],
  "bytecode": "0x60806040526003805460ff1990811690915560068054909116905534801561002657600080fd5b5061003033610035565b610085565b600080546001600160a01b038381166001600160a01b0319831681178455604051919092169283917f8be0079c531659141344cd1fd0a4f28419497f9722a3daafe3b4186f6b6457e09190a35050565b614af780620000956000396000f3fe60806040523480156200001157600080fd5b5060043610620000935760003560e01c8063a7fe29b61162000062578063a7fe29b614620000f2578063d531bc711462000118578063e9935773146200012f578063f2fde38b146200014657600080fd5b806321755977146200009857806356d831bf14620000b1578063715018a614620000c85780638da5cb5b14620000d2575b600080fd5b620000af620000a936600462001e3d565b6200015d565b005b620000af620000c236600462001ebf565b62000196565b620000af62000282565b6000546040516001600160a01b0390911681526020015b60405180910390f35b620001096200010336600462001f0a565b6200029a565b604051908152602001620000e9565b620001096200012936600462001fb2565b620004e2565b620001096200014036600462001fb2565b620004f9565b620000af6200015736600462002011565b62000507565b6200016762000586565b600062000176848484620005e2565b905060018160ff1611156200019057620001908162000791565b50505050565b60ff831660009081526004602081905260408083205490516340bd56f160e11b81526001600160a01b039091169163817aade291620001d89187910162002061565b602060405180830381865afa158015620001f6573d6000803e3d6000fd5b505050506040513d601f19601f820116820180604052508101906200021c919062002076565b116200026f5760405162461bcd60e51b815260206004820152601c60248201527f496e76616c6964206d61726b6574206f72206f7264657220747970650000000060448201526064015b60405180910390fd5b6200027d8382338562000940565b505050565b6200028c62000586565b62000298600062000a38565b565b6000620002a78762000a88565b620002c65760405162461bcd60e51b8152600401620002669062002090565b620002d18662000a88565b620002f05760405162461bcd60e51b8152600401620002669062002090565b6000620002fd8862000b3d565b905060006200030c8862000b3d565b9050600085600181111562000325576200032562002038565b03620003bc57600084600181111562000342576200034262002038565b1480620003975750600184600181111562000361576200036162002038565b148015620003975750620003768688620020d4565b33600090815260026020908152604080832060ff8716845290915290205410155b620003b65760405162461bcd60e51b81526004016200026690620020f6565b62000447565b6000846001811115620003d357620003d362002038565b14806200042857506001846001811115620003f257620003f262002038565b148015620004285750620004078688620020d4565b33600090815260026020908152604080832060ff8616845290915290205410155b620004475760405162461bcd60e51b81526004016200026690620020f6565b60006040518060e001604052808460ff1681526020018360ff168152602001898152602001888152602001336001600160a01b0316815260200187600181111562000496576200049662002038565b8152602001866001811115620004b057620004b062002038565b905290506000620004c18262000c07565b805195509050620004d484848362000e4f565b505050509695505050505050565b6000620004f0838362001183565b90505b92915050565b6000620004f083836200138a565b6200051162000586565b6001600160a01b038116620005785760405162461bcd60e51b815260206004820152602660248201527f4f776e61626c653a206e6577206f776e657220697320746865207a65726f206160448201526564647265737360d01b606482015260840162000266565b620005838162000a38565b50565b6000546001600160a01b03163314620002985760405162461bcd60e51b815260206004820181905260248201527f4f776e61626c653a2063616c6c6572206973206e6f7420746865206f776e6572604482015260640162000266565b6000620005ee62000586565b620005f98362000a88565b156200063f5760405162461bcd60e51b8152602060048201526014602482015273546f6b656e20616c72656164792065786973747360601b604482015260640162000266565b60035460ff166200065281600162002124565b60ff16116200069b5760405162461bcd60e51b8152602060048201526014602482015273546f6b656e20696e646578206f766572666c6f7760601b604482015260640162000266565b6003805460ff16906000620006b0836200214c565b91906101000a81548160ff021916908360ff1602179055505083838333604051620006db9062001c8c565b620006ea9493929190620021cb565b604051809103906000f08015801562000707573d6000803e3d6000fd5b506003805460ff9081166000908152600160205260409081902080546001600160a01b0319166001600160a01b039590951694909417909355905491517f2487dda3a9fd88a518ddb2e52447485194fd83e80601f27ab8662dc970eefe59926200077b921690879087908790429062002216565b60405180910390a15060035460ff169392505050565b60065460ff16620007a481600162002124565b60ff1611620007ee5760405162461bcd60e51b81526020600482015260156024820152744d61726b657420696e646578206f766572666c6f7760581b604482015260640162000266565b60015b8160ff168160ff1610156200093c576006805460ff1690600062000815836200214c565b82546101009290920a60ff81810219909316918316021790915560408051808201825285831681528483166020808301919091526006549093166000908152600590935291206200086a925090600262001c9a565b506006546040805160ff9283168152838316602082015291841682820152426060830152517e8e103c2d7177808fb58eb7b2c4fd97d42751aba4ce3953f238ba0f748a98019181900360800190a160006040518060200160405280604051620008d39062001d47565b604051809103906000f080158015620008f0573d6000803e3d6000fd5b506001600160a01b0390811690915260065460ff166000908152600460205260409020915182546001600160a01b0319169116179055508062000933816200214c565b915050620007f1565b5050565b6000806200094e8662001632565b60ff8816600090815260046020819052604080832080549151637619773960e11b8152959750939550929391926001600160a01b03169163ec32ee72916200099b918b918a91016200225d565b6020604051808303816000875af1158015620009bb573d6000803e3d6000fd5b505050506040513d601f19601f82011682018060405250810190620009e191906200227c565b9050801562000a2e577f016b9764e314a557cd4364243d037e2f4436271d9b88d8478dde4d6730bb280c878585888a4260405162000a2596959493929190620022a0565b60405180910390a15b5050505050505050565b600080546001600160a01b038381166001600160a01b0319831681178455604051919092169283917f8be0079c531659141344cd1fd0a4f28419497f9722a3daafe3b4186f6b6457e09190a35050565b6000805b60035460ff9081169082161162000b34578260405160200162000ab09190620022e9565b60408051808303601f19018152828252805160209182012060ff851660009081526001835283902054640100000000600160c01b0390831b166395d89b411790921b9083015290603801604051602081830303815290604052805190602001200362000b1f5750600192915050565b8062000b2b816200214c565b91505062000a8c565b50600092915050565b6000805b60035460ff9081169082161162000b3457825160208085019190912060ff83166000908152600190925260408083205481516395d89b4160e01b8152915192936001600160a01b03909116926395d89b419260048082019392918290030181865afa15801562000bb5573d6000803e3d6000fd5b505050506040513d6000823e601f3d908101601f1916820160405262000bdf919081019062002307565b805190602001200362000bf25792915050565b8062000bfe816200214c565b91505062000b41565b62000c3a6040518060a0016040528060008152602001606081526020016060815260200160608152602001606081525090565b600082604001511162000c905760405162461bcd60e51b815260206004820152601f60248201527f5072696365206d7573742062652067726561746572207468616e207a65726f00604482015260640162000266565b600082606001511162000cb75760405162461bcd60e51b8152600401620002669062002387565b600062000ccd83600001518460200151620016c8565b60ff8116600090815260046020526040902090915062000cee81856200185e565b808452815460a086015160c087015160405163107bd35d60e01b81526000946001600160a01b039094169363107bd35d9362000d32939192909190600401620023bc565b6000604051808303816000875af115801562000d52573d6000803e3d6000fd5b505050506040513d6000823e601f3d908101601f1916820160405262000d7c9190810190620024ee565b6080890152606088015260408701526020860152845190915062000da590839087908462001961565b845260005b84606001515181101562000e46577fb6756b92409d9924aca60250ea385db4243b302d7256b967f2e5fef6bef1001f8660000151876020015188604001518860600151858151811062000e015762000e01620025b2565b60200260200101518a60a001518b60c001514260405162000e299796959493929190620025c8565b60405180910390a18062000e3d8162002619565b91505062000daa565b50505050919050565b60005b81602001515181101562000190578160600151818151811062000e795762000e79620025b2565b6020026020010151600260008460200151848151811062000e9e5762000e9e620025b2565b60200260200101516001600160a01b03166001600160a01b0316815260200190815260200160002060008660ff1660ff168152602001908152602001600020600082825462000eee919062002635565b9091555050606082015180518290811062000f0d5762000f0d620025b2565b6020026020010151600260008460400151848151811062000f325762000f32620025b2565b60200260200101516001600160a01b03166001600160a01b0316815260200190815260200160002060008660ff1660ff168152602001908152602001600020600082825462000f82919062002650565b9250508190555062000ff26040518060400160405280601c81526020017f5472616e73666572696e672025732066726f6d20257320746f202573000000008152508360600151838151811062000fdc5762000fdc620025b2565b60200260200101518660ff168660ff1662001be8565b816080015181815181106200100b576200100b620025b2565b60200260200101516002600084602001518481518110620010305762001030620025b2565b60200260200101516001600160a01b03166001600160a01b0316815260200190815260200160002060008560ff1660ff168152602001908152602001600020600082825462001080919062002650565b909155505060808201518051829081106200109f576200109f620025b2565b60200260200101516002600084604001518481518110620010c457620010c4620025b2565b60200260200101516001600160a01b03166001600160a01b0316815260200190815260200160002060008560ff1660ff168152602001908152602001600020600082825462001114919062002635565b925050819055506200116e6040518060400160405280601c81526020017f5472616e73666572696e672025732066726f6d20257320746f202573000000008152508360600151838151811062000fdc5762000fdc620025b2565b806200117a8162002619565b91505062000e52565b6000620011908362000a88565b620011af5760405162461bcd60e51b8152600401620002669062002090565b60008211620011d25760405162461bcd60e51b8152600401620002669062002387565b6000620011df8462001c35565b90506000620011ef848362002650565b1015620012105760405162461bcd60e51b81526004016200026690620020f6565b60006200121d8562000b3d565b60ff81166000908152600160205260409081902054905163a9059cbb60e01b8152336004820152602481018790529192506001600160a01b031690819063a9059cbb906044016020604051808303816000875af115801562001283573d6000803e3d6000fd5b505050506040513d601f19601f82011682018060405250810190620012a991906200227c565b1515600114620012ee5760405162461bcd60e51b815260206004820152600f60248201526e151c985b9cd9995c8819985a5b1959608a1b604482015260640162000266565b33600090815260026020908152604080832060ff86168452909152812080548792906200131d90849062002650565b909155505060405133907f84b1821c493be0f356d92532c866021be43bf63dab6938bf6748729ecce791cf906200135a908990899042906200266a565b60405180910390a25033600090815260026020908152604080832060ff9094168352929052205491505092915050565b6000620013978362000a88565b620013b65760405162461bcd60e51b8152600401620002669062002090565b60008211620013d95760405162461bcd60e51b8152600401620002669062002387565b6000620013e68462001c35565b905080620013f5848262002635565b116200143c5760405162461bcd60e51b8152602060048201526015602482015274557365722062616c616e6365206f766572666c6f7760581b604482015260640162000266565b6000620014498562000b3d565b60ff8116600090815260016020526040908190205490516323b872dd60e01b8152336004820152306024820152604481018790529192506001600160a01b0316906323b872dd906064016020604051808303816000875af1158015620014b3573d6000803e3d6000fd5b505050506040513d601f19601f82011682018060405250810190620014d991906200227c565b620015195760405162461bcd60e51b815260206004820152600f60248201526e151c985b9cd9995c8819985a5b1959608a1b604482015260640162000266565b33600090815260026020908152604080832060ff85168452909152812080548692906200154890849062002635565b909155505060ff81166000908152600160205260408082205481516395d89b4160e01b8152915133937f92601632002667117695ed40cf2ad65114ec345add12cbcb4d321e51fd5f1e6d936001600160a01b03909316926395d89b4192600480830193928290030181865afa158015620015c6573d6000803e3d6000fd5b505050506040513d6000823e601f3d908101601f19168201604052620015f0919081019062002307565b864260405162001603939291906200266a565b60405180910390a233600090815260026020908152604080832060ff9094168352929052205491505092915050565b60ff81166000908152600560205260408120805482919082906200165a576200165a620025b2565b60009182526020808320818304015460ff8781168552600590925260409093208054601f9093166101000a90930416919060019081106200169f576200169f620025b2565b90600052602060002090602091828204019190069054906101000a900460ff1691509150915091565b6000805b60065460ff90811690821611620018545760ff8181166000908152600560205260408120805492871692909190620017085762001708620025b2565b60009182526020918290209181049091015460ff601f9092166101000a90041614801562001780575060ff818116600090815260056020526040902080549185169160019081106200175e576200175e620025b2565b60009182526020918290209181049091015460ff601f9092166101000a900416145b156200178e579050620004f3565b60ff8181166000908152600560205260408120805492861692909190620017b957620017b9620025b2565b60009182526020918290209181049091015460ff601f9092166101000a90041614801562001831575060ff818116600090815260056020526040902080549186169160019081106200180f576200180f620025b2565b60009182526020918290209181049091015460ff601f9092166101000a900416145b156200183f579050620004f3565b806200184b816200214c565b915050620016cc565b5060009392505050565b81546060820151604080840151608085015160a086015160c0870151935163936c7cc160e01b815260009687966001600160a01b039091169563936c7cc195620018b49592949093909190899060040162002691565b6020604051808303816000875af1158015620018d4573d6000803e3d6000fd5b505050506040513d601f19601f82011682018060405250810190620018fa919062002076565b835160208501516040808701516060880151608089015160a08a015160c08b015194519798507fbf701a9153480b5f16192f3b9879527a8cbd93ba64b6d337eac4bbdd6c47e0dd9762001952979695904290620026e3565b60405180910390a19392505050565b60008082118015620019765750836060015182105b1562001af657845460a08501516040516312703a6f60e11b81526001600160a01b03909216916324e074de91620019b69187919060019060040162002745565b600060405180830381600087803b158015620019d157600080fd5b505af1158015620019e6573d6000803e3d6000fd5b505050506000828560600151620019fe919062002650565b8654604080880151608089015160a08a015160c08b0151935163936c7cc160e01b81529596506001600160a01b039094169463936c7cc19462001a4b948894939260019060040162002691565b6020604051808303816000875af115801562001a6b573d6000803e3d6000fd5b505050506040513d601f19601f8201168201806040525081019062001a91919062002076565b8551602087015160408089015160808a015160a08b015160c08c01519351969a507fbf701a9153480b5f16192f3b9879527a8cbd93ba64b6d337eac4bbdd6c47e0dd9662001ae7969594899392914290620026e3565b60405180910390a15062001bdf565b8160000362001b7357845460a08501516040516312703a6f60e11b81526001600160a01b03909216916324e074de9162001b399187919060029060040162002745565b600060405180830381600087803b15801562001b5457600080fd5b505af115801562001b69573d6000803e3d6000fd5b5050505062001bdf565b845460a08501516040516367f705e160e01b81526001600160a01b03909216916367f705e19162001baa918791906004016200225d565b600060405180830381600087803b15801562001bc557600080fd5b505af115801562001bda573d6000803e3d6000fd5b505050505b50909392505050565b620001908484848460405160240162001c05949392919062002770565b60408051601f198184030181529190526020810180516001600160e01b031663a7a8785360e01b17905262001c6a565b3360009081526002602052604081208162001c508462000b3d565b60ff16815260208101919091526040016000205492915050565b80516a636f6e736f6c652e6c6f6790602083016000808383865afa5050505050565b610c1f80620027a283390190565b82805482825590600052602060002090601f0160209004810192821562001d355791602002820160005b8382111562001d0457835183826101000a81548160ff021916908360ff160217905550926020019260010160208160000104928301926001030262001cc4565b801562001d335782816101000a81549060ff021916905560010160208160000104928301926001030262001d04565b505b5062001d4392915062001d55565b5090565b61170180620033c183390190565b5b8082111562001d43576000815560010162001d56565b634e487b7160e01b600052604160045260246000fd5b604051601f8201601f1916810167ffffffffffffffff8111828210171562001dae5762001dae62001d6c565b604052919050565b600067ffffffffffffffff82111562001dd35762001dd362001d6c565b50601f01601f191660200190565b600082601f83011262001df357600080fd5b813562001e0a62001e048262001db6565b62001d82565b81815284602083860101111562001e2057600080fd5b816020850160208301376000918101602001919091529392505050565b60008060006060848603121562001e5357600080fd5b833567ffffffffffffffff8082111562001e6c57600080fd5b62001e7a8783880162001de1565b9450602086013591508082111562001e9157600080fd5b5062001ea08682870162001de1565b925050604084013590509250925092565b600281106200058357600080fd5b60008060006060848603121562001ed557600080fd5b833560ff8116811462001ee757600080fd5b9250602084013562001ef98162001eb1565b929592945050506040919091013590565b60008060008060008060c0878903121562001f2457600080fd5b863567ffffffffffffffff8082111562001f3d57600080fd5b62001f4b8a838b0162001de1565b9750602089013591508082111562001f6257600080fd5b5062001f7189828a0162001de1565b9550506040870135935060608701359250608087013562001f928162001eb1565b915060a087013562001fa48162001eb1565b809150509295509295509295565b6000806040838503121562001fc657600080fd5b823567ffffffffffffffff81111562001fde57600080fd5b62001fec8582860162001de1565b95602094909401359450505050565b6001600160a01b03811681146200058357600080fd5b6000602082840312156200202457600080fd5b8135620020318162001ffb565b9392505050565b634e487b7160e01b600052602160045260246000fd5b6002811062000583576200058362002038565b6020810162002070836200204e565b91905290565b6000602082840312156200208957600080fd5b5051919050565b602080825260149082015273151bdad95b88191bd95cc81b9bdd08195e1a5cdd60621b604082015260600190565b634e487b7160e01b600052601160045260246000fd5b6000816000190483118215151615620020f157620020f1620020be565b500290565b602080825260149082015273496e73756666696369656e742062616c616e636560601b604082015260600190565b600060ff821660ff84168060ff03821115620021445762002144620020be565b019392505050565b600060ff821660ff8103620021655762002165620020be565b60010192915050565b60005b838110156200218b57818101518382015260200162002171565b83811115620001905750506000910152565b60008151808452620021b78160208601602086016200216e565b601f01601f19169290920160200192915050565b608081526000620021e060808301876200219d565b8281036020840152620021f481876200219d565b604084019590955250506001600160a01b039190911660609091015292915050565b60ff8616815260a0602082015260006200223460a08301876200219d565b82810360408401526200224881876200219d565b60608401959095525050608001529392505050565b828152604081016200226f836200204e565b8260208301529392505050565b6000602082840312156200228f57600080fd5b815180151581146200203157600080fd5b86815260ff86811660208301528516604082015260c08101620022c3856200204e565b60608201949094526001600160a01b0392909216608083015260a0909101529392505050565b60008251620022fd8184602087016200216e565b9190910192915050565b6000602082840312156200231a57600080fd5b815167ffffffffffffffff8111156200233257600080fd5b8201601f810184136200234457600080fd5b80516200235562001e048262001db6565b8181528560208385010111156200236b57600080fd5b6200237e8260208301602086016200216e565b95945050505050565b6020808252818101527f416d6f756e74206d7573742062652067726561746572207468616e207a65726f604082015260600190565b83815260608101620023ce846200204e565b836020830152620023df836200204e565b826040830152949350505050565b600067ffffffffffffffff8211156200240a576200240a62001d6c565b5060051b60200190565b600082601f8301126200242657600080fd5b815160206200243962001e0483620023ed565b82815260059290921b840181019181810190868411156200245957600080fd5b8286015b8481101562002481578051620024738162001ffb565b83529183019183016200245d565b509695505050505050565b600082601f8301126200249e57600080fd5b81516020620024b162001e0483620023ed565b82815260059290921b84018101918181019086841115620024d157600080fd5b8286015b84811015620024815780518352918301918301620024d5565b600080600080600060a086880312156200250757600080fd5b85519450602086015167ffffffffffffffff808211156200252757600080fd5b6200253589838a0162002414565b955060408801519150808211156200254c57600080fd5b6200255a89838a0162002414565b945060608801519150808211156200257157600080fd5b6200257f89838a016200248c565b935060808801519150808211156200259657600080fd5b50620025a5888289016200248c565b9150509295509295909350565b634e487b7160e01b600052603260045260246000fd5b60ff888116825287166020820152604081018690526060810185905260e08101620025f3856200204e565b84608083015262002604846200204e565b60a082019390935260c0015295945050505050565b6000600182016200262e576200262e620020be565b5060010190565b600082198211156200264b576200264b620020be565b500190565b600082821015620026655762002665620020be565b500390565b6060815260006200267f60608301866200219d565b60208301949094525060400152919050565b868152602081018690526001600160a01b038516604082015260c08101620026b9856200204e565b846060830152620026ca846200204e565b83608083015282151560a0830152979650505050505050565b60ff89811682528816602082015260408101879052606081018690526001600160a01b038516608082015261010081016200271e856200204e565b8460a08301526200272f846200204e565b60c082019390935260e001529695505050505050565b8381526060810162002757846200204e565b83602083015260048310620023df57620023df62002038565b6080815260006200278560808301876200219d565b602083019590955250604081019290925260609091015291905056fe60806040523480156200001157600080fd5b5060405162000c1f38038062000c1f8339810160408190526200003491620002bb565b8351849084906200004d90600390602085019062000148565b5080516200006390600490602084019062000148565b5050506200007881836200008260201b60201c565b50505050620003b3565b6001600160a01b038216620000dd5760405162461bcd60e51b815260206004820152601f60248201527f45524332303a206d696e7420746f20746865207a65726f206164647265737300604482015260640160405180910390fd5b8060026000828254620000f1919062000350565b90915550506001600160a01b038216600081815260208181526040808320805486019055518481527fddf252ad1be2c89b69c2b068fc378daa952ba7f163c4a11628f55a4df523b3ef910160405180910390a35050565b828054620001569062000377565b90600052602060002090601f0160209004810192826200017a5760008555620001c5565b82601f106200019557805160ff1916838001178555620001c5565b82800160010185558215620001c5579182015b82811115620001c5578251825591602001919060010190620001a8565b50620001d3929150620001d7565b5090565b5b80821115620001d35760008155600101620001d8565b634e487b7160e01b600052604160045260246000fd5b600082601f8301126200021657600080fd5b81516001600160401b0380821115620002335762000233620001ee565b604051601f8301601f19908116603f011681019082821181831017156200025e576200025e620001ee565b816040528381526020925086838588010111156200027b57600080fd5b600091505b838210156200029f578582018301518183018401529082019062000280565b83821115620002b15760008385830101525b9695505050505050565b60008060008060808587031215620002d257600080fd5b84516001600160401b0380821115620002ea57600080fd5b620002f88883890162000204565b955060208701519150808211156200030f57600080fd5b506200031e8782880162000204565b60408701516060880151919550935090506001600160a01b03811681146200034557600080fd5b939692955090935050565b600082198211156200037257634e487b7160e01b600052601160045260246000fd5b500190565b600181811c908216806200038c57607f821691505b602082108103620003ad57634e487b7160e01b600052602260045260246000fd5b50919050565b61085c80620003c36000396000f3fe608060405234801561001057600080fd5b50600436106100a95760003560e01c80633950935111610071578063395093511461012357806370a082311461013657806395d89b411461015f578063a457c2d714610167578063a9059cbb1461017a578063dd62ed3e1461018d57600080fd5b806306fdde03146100ae578063095ea7b3146100cc57806318160ddd146100ef57806323b872dd14610101578063313ce56714610114575b600080fd5b6100b66101a0565b6040516100c3919061069a565b60405180910390f35b6100df6100da36600461070b565b610232565b60405190151581526020016100c3565b6002545b6040519081526020016100c3565b6100df61010f366004610735565b61024a565b604051601281526020016100c3565b6100df61013136600461070b565b61026e565b6100f3610144366004610771565b6001600160a01b031660009081526020819052604090205490565b6100b6610290565b6100df61017536600461070b565b61029f565b6100df61018836600461070b565b61031f565b6100f361019b366004610793565b61032d565b6060600380546101af906107c6565b80601f01602080910402602001604051908101604052809291908181526020018280546101db906107c6565b80156102285780601f106101fd57610100808354040283529160200191610228565b820191906000526020600020905b81548152906001019060200180831161020b57829003601f168201915b5050505050905090565b600033610240818585610358565b5060019392505050565b60003361025885828561047c565b6102638585856104f6565b506001949350505050565b600033610240818585610281838361032d565b61028b9190610800565b610358565b6060600480546101af906107c6565b600033816102ad828661032d565b9050838110156103125760405162461bcd60e51b815260206004820152602560248201527f45524332303a2064656372656173656420616c6c6f77616e63652062656c6f77604482015264207a65726f60d81b60648201526084015b60405180910390fd5b6102638286868403610358565b6000336102408185856104f6565b6001600160a01b03918216600090815260016020908152604080832093909416825291909152205490565b6001600160a01b0383166103ba5760405162461bcd60e51b8152602060048201526024808201527f45524332303a20617070726f76652066726f6d20746865207a65726f206164646044820152637265737360e01b6064820152608401610309565b6001600160a01b03821661041b5760405162461bcd60e51b815260206004820152602260248201527f45524332303a20617070726f766520746f20746865207a65726f206164647265604482015261737360f01b6064820152608401610309565b6001600160a01b0383811660008181526001602090815260408083209487168084529482529182902085905590518481527f8c5be1e5ebec7d5bd14f71427d1e84f3dd0314c0f7b2291e5b200ac8c7c3b925910160405180910390a3505050565b6000610488848461032d565b905060001981146104f057818110156104e35760405162461bcd60e51b815260206004820152601d60248201527f45524332303a20696e73756666696369656e7420616c6c6f77616e63650000006044820152606401610309565b6104f08484848403610358565b50505050565b6001600160a01b03831661055a5760405162461bcd60e51b815260206004820152602560248201527f45524332303a207472616e736665722066726f6d20746865207a65726f206164604482015264647265737360d81b6064820152608401610309565b6001600160a01b0382166105bc5760405162461bcd60e51b815260206004820152602360248201527f45524332303a207472616e7366657220746f20746865207a65726f206164647260448201526265737360e81b6064820152608401610309565b6001600160a01b038316600090815260208190526040902054818110156106345760405162461bcd60e51b815260206004820152602660248201527f45524332303a207472616e7366657220616d6f756e7420657863656564732062604482015265616c616e636560d01b6064820152608401610309565b6001600160a01b03848116600081815260208181526040808320878703905593871680835291849020805487019055925185815290927fddf252ad1be2c89b69c2b068fc378daa952ba7f163c4a11628f55a4df523b3ef910160405180910390a36104f0565b600060208083528351808285015260005b818110156106c7578581018301518582016040015282016106ab565b818111156106d9576000604083870101525b50601f01601f1916929092016040019392505050565b80356001600160a01b038116811461070657600080fd5b919050565b6000806040838503121561071e57600080fd5b610727836106ef565b946020939093013593505050565b60008060006060848603121561074a57600080fd5b610753846106ef565b9250610761602085016106ef565b9150604084013590509250925092565b60006020828403121561078357600080fd5b61078c826106ef565b9392505050565b600080604083850312156107a657600080fd5b6107af836106ef565b91506107bd602084016106ef565b90509250929050565b600181811c908216806107da57607f821691505b6020821081036107fa57634e487b7160e01b600052602260045260246000fd5b50919050565b6000821982111561082157634e487b7160e01b600052601160045260246000fd5b50019056fea2646970667358221220bbb74525e4fe3ef25576416a0ea21675fcdb40b71ff22903ea686189dbac4c9064736f6c634300080d0033608060405234801561001057600080fd5b5060006020819052600181527fad3228b676f7d3cd4284a5443f17f1962b36e491b30a40b2405849e597ba5fb78190557fad3228b676f7d3cd4284a5443f17f1962b36e491b30a40b2405849e597ba5fb58190557fada5013122d395ba3c54772283fb069b10426056ef8ca54750cb9bb552a59e7f8190557fada5013122d395ba3c54772283fb069b10426056ef8ca54750cb9bb552a59e7d55611648806100b96000396000f3fe608060405234801561001057600080fd5b50600436106100625760003560e01c8063107bd35d1461006757806324e074de1461009457806367f705e1146100a9578063817aade2146100bc578063936c7cc1146100dd578063ec32ee72146100f0575b600080fd5b61007a61007536600461131e565b610113565b60405161008b9594939291906113d4565b60405180910390f35b6100a76100a2366004611433565b610927565b005b6100a76100b736600461146e565b610a15565b6100cf6100ca36600461149e565b610c34565b60405190815260200161008b565b6100cf6100eb3660046114bb565b610c75565b6101036100fe36600461146e565b610e09565b604051901515815260200161008b565b60006060808080848088600181111561012e5761012e61153c565b1461013a57600061013d565b60015b905060008060008360018111156101565761015661153c565b60018111156101675761016761153c565b8152602001908152602001600020905060008160010160008c81526020019081526020016000209050600080836002015467ffffffffffffffff8111156101b0576101b0611552565b6040519080825280602002602001820160405280156101d9578160200160208202803683370190505b509850836002015467ffffffffffffffff8111156101f9576101f9611552565b604051908082528060200260200182016040528015610222578160200160208202803683370190505b509750836002015467ffffffffffffffff81111561024257610242611552565b60405190808252806020026020018201604052801561026b578160200160208202803683370190505b509650836002015467ffffffffffffffff81111561028b5761028b611552565b6040519080825280602002602001820160405280156102b4578160200160208202803683370190505b50955060008c60018111156102cb576102cb61153c565b0361060c5760005b8460020154811015610606576001840154156106065760018c60018111156102fd576102fd61153c565b148015610344575084600101600086600301838154811061032057610320611568565b90600052602060002001548152602001908152602001600020600201548460020154105b61060657600061038f856001015487600101600089600301868154811061036d5761036d611568565b9060005260206000200154815260200190815260200160002060010154611177565b9050808560010160008282546103a59190611594565b92505081905550808660010160008860030185815481106103c8576103c8611568565b9060005260206000200154815260200190815260200160002060010160008282546103f39190611594565b909155505060048501548b516001600160a01b03909116908c908590811061041d5761041d611568565b60200260200101906001600160a01b031690816001600160a01b03168152505085600101600087600301848154811061045857610458611568565b9060005260206000200154815260200190815260200160002060040160009054906101000a90046001600160a01b03168a848151811061049a5761049a611568565b60200260200101906001600160a01b031690816001600160a01b031681525050808984815181106104cd576104cd611568565b6020026020010181815250508560010160008760030184815481106104f4576104f4611568565b90600052602060002001548152602001908152602001600020600201548161051c91906115ab565b88848151811061052e5761052e611568565b602090810291909101015282610543816115ca565b93505085600101600087600301848154811061056157610561611568565b90600052602060002001548152602001908152602001600020600101546000036105f35760028660010160008860030185815481106105a2576105a2611568565b600091825260208083209091015483528201929092526040019020600401805460ff60a01b1916600160a01b8360038111156105e0576105e061153c565b0217905550836105ef816115ca565b9450505b50806105fe816115ca565b9150506102d3565b50610908565b60028401545b6001840154156109065760018c60018111156106305761063061153c565b148015610677575084600101600086600301838154811061065357610653611568565b90600052602060002001548152602001908152602001600020600201548460020154115b6109065760006106a0856001015487600101600089600301868154811061036d5761036d611568565b9050808560010160008282546106b69190611594565b92505081905550808660010160008860030185815481106106d9576106d9611568565b9060005260206000200154815260200190815260200160002060010160008282546107049190611594565b9250508190555085600101600087600301848154811061072657610726611568565b9060005260206000200154815260200190815260200160002060040160009054906101000a90046001600160a01b03168b848151811061076857610768611568565b6001600160a01b03928316602091820292909201015260048601548b519116908b908590811061079a5761079a611568565b60200260200101906001600160a01b031690816001600160a01b031681525050808984815181106107cd576107cd611568565b6020026020010181815250508560010160008760030184815481106107f4576107f4611568565b90600052602060002001548152602001908152602001600020600201548161081c91906115ab565b88848151811061082e5761082e611568565b602090810291909101015282610843816115ca565b93505085600101600087600301848154811061086157610861611568565b90600052602060002001548152602001908152602001600020600101546000036108f35760028660010160008860030185815481106108a2576108a2611568565b600091825260208083209091015483528201929092526040019020600401805460ff60a01b1916600160a01b8360038111156108e0576108e061153c565b0217905550836108ef816115ca565b9450505b50806108fe816115e3565b915050610612565b505b610912858361118f565b50506001015496505050939792965093509350565b600080600084600181111561093e5761093e61153c565b600181111561094f5761094f61153c565b81526020808201929092526040908101600090812087825260019081019093522091508260038111156109845761098461153c565b14806109a15750600282600381111561099f5761099f61153c565b145b6109e35760405162461bcd60e51b815260206004820152600e60248201526d496e76616c69642073746174757360901b60448201526064015b60405180910390fd5b60048101805483919060ff60a01b1916600160a01b836003811115610a0a57610a0a61153c565b021790555050505050565b6000806000836001811115610a2c57610a2c61153c565b6001811115610a3d57610a3d61153c565b815260200190815260200160002090506000808260020160008154610a61906115ca565b9182905550905060008167ffffffffffffffff811115610a8357610a83611552565b604051908082528060200260200182016040528015610aac578160200160208202803683370190505b50905081600103610ae0578581600081518110610acb57610acb611568565b60200260200101818152505060019250610bff565b6000805b610aef600185611594565b811015610bd357856001016000876003018381548110610b1157610b11611568565b90600052602060002001548152602001908152602001600020600201548660010160008a8152602001908152602001600020600201541015610b7857878383610b59816115ca565b945081518110610b6b57610b6b611568565b6020026020010181815250505b856003018181548110610b8d57610b8d611568565b9060005260206000200154838380610ba4906115ca565b945081518110610bb657610bb6611568565b602090810291909101015280610bcb816115ca565b915050610ae4565b5083610bfd5786828281518110610bec57610bec611568565b602002602001018181525050600193505b505b600284018054906000610c11836115ca565b90915550508051610c2b90600386019060208401906112ae565b50505050505050565b6000806000836001811115610c4b57610c4b61153c565b6001811115610c5c57610c5c61153c565b8152602001908152602001600020600201549050919050565b600080600080866001811115610c8d57610c8d61153c565b6001811115610c9e57610c9e61153c565b81526020019081526020016000209050806000016000815480929190610cc3906115ca565b9190505591506040518060e00160405280898152602001898152602001888152602001428152602001876001600160a01b0316815260200160006003811115610d0e57610d0e61153c565b8152602001856001811115610d2557610d2561153c565b9052600083815260018084016020908152604092839020845181559084015191810191909155908201516002820155606082015160038083019190915560808301516004830180546001600160a01b039092166001600160a01b031983168117825560a08601519391926001600160a81b0319161790600160a01b908490811115610db257610db261153c565b021790555060c082015160048201805460ff60a81b1916600160a81b836001811115610de057610de061153c565b021790555090505082610df35750610dff565b610dfd8286610a15565b505b9695505050505050565b600080600080846001811115610e2157610e2161153c565b6001811115610e3257610e3261153c565b815260208082019290925260409081016000908120878252600101909252902060048101549091506001600160a01b03163314610ea35760405162461bcd60e51b815260206004820152600f60248201526e2737ba1037b93232b91037bbb732b960891b60448201526064016109da565b60006004820154600160a01b900460ff166003811115610ec557610ec561153c565b14610f055760405162461bcd60e51b815260206004820152601060248201526f4f72646572206e6f742061637469766560801b60448201526064016109da565b6000806001600080876001811115610f1f57610f1f61153c565b6001811115610f3057610f3061153c565b815260200190815260200160002060020154610f4c9190611594565b67ffffffffffffffff811115610f6457610f64611552565b604051908082528060200260200182016040528015610f8d578160200160208202803683370190505b50905060005b600080876001811115610fa857610fa861153c565b6001811115610fb957610fb961153c565b8152602001908152602001600020600201548110156110bc5786600080886001811115610fe857610fe861153c565b6001811115610ff957610ff961153c565b8152602001908152602001600020600301828154811061101b5761101b611568565b906000526020600020015403156110aa576000808760018111156110415761104161153c565b60018111156110525761105261153c565b8152602001908152602001600020600301818154811061107457611074611568565b906000526020600020015482848061108b906115ca565b95508151811061109d5761109d611568565b6020026020010181815250505b806110b4816115ca565b915050610f93565b5060048301805460ff60a01b1916600360a01b179055806000808760018111156110e8576110e861153c565b60018111156110f9576110f961153c565b8152602001908152602001600020600301908051906020019061111d9291906112ae565b506000808660018111156111335761113361153c565b60018111156111445761114461153c565b81526020019081526020016000206002016000815480929190611166906115e3565b909155506001979650505050505050565b60008183106111865781611188565b825b9392505050565b60008060008460018111156111a6576111a661153c565b60018111156111b7576111b761153c565b8152602001908152602001600020905060008282600201546111d99190611594565b905060008167ffffffffffffffff8111156111f6576111f6611552565b60405190808252806020026020018201604052801561121f578160200160208202803683370190505b50905060005b8360020154811015611289576003840161123f86836115fa565b8154811061124f5761124f611568565b906000526020600020015482828151811061126c5761126c611568565b602090810291909101015280611281816115ca565b915050611225565b506002830182905580516112a690600385019060208401906112ae565b505050505050565b8280548282559060005260206000209081019282156112e9579160200282015b828111156112e95782518255916020019190600101906112ce565b506112f59291506112f9565b5090565b5b808211156112f557600081556001016112fa565b6002811061131b57600080fd5b50565b60008060006060848603121561133357600080fd5b8335925060208401356113458161130e565b915060408401356113558161130e565b809150509250925092565b600081518084526020808501945080840160005b838110156113995781516001600160a01b031687529582019590820190600101611374565b509495945050505050565b600081518084526020808501945080840160005b83811015611399578151875295820195908201906001016113b8565b85815260a0602082015260006113ed60a0830187611360565b82810360408401526113ff8187611360565b9050828103606084015261141381866113a4565b9050828103608084015261142781856113a4565b98975050505050505050565b60008060006060848603121561144857600080fd5b83359250602084013561145a8161130e565b915060408401356004811061135557600080fd5b6000806040838503121561148157600080fd5b8235915060208301356114938161130e565b809150509250929050565b6000602082840312156114b057600080fd5b81356111888161130e565b60008060008060008060c087890312156114d457600080fd5b863595506020870135945060408701356001600160a01b03811681146114f957600080fd5b935060608701356115098161130e565b925060808701356115198161130e565b915060a0870135801515811461152e57600080fd5b809150509295509295509295565b634e487b7160e01b600052602160045260246000fd5b634e487b7160e01b600052604160045260246000fd5b634e487b7160e01b600052603260045260246000fd5b634e487b7160e01b600052601160045260246000fd5b6000828210156115a6576115a661157e565b500390565b60008160001904831182151516156115c5576115c561157e565b500290565b6000600182016115dc576115dc61157e565b5060010190565b6000816115f2576115f261157e565b506000190190565b6000821982111561160d5761160d61157e565b50019056fea2646970667358221220df8faa3a07710cbba828a2152c40011039de0d922be49e8be222b6917e47853464736f6c634300080d0033a26469706673582212200b75e76c4f1eb4acb659aceee7b0c77b8185aad451751f89112366fce66c1ea164736f6c634300080d0033",
  "immutableReferences": {},
  "source": "// SPDX-License-Identifier: MIT\r\npragma solidity ^0.8.0;\r\n\r\nimport \"./Order.sol\";\r\nimport \"./TokenHandler.sol\";\r\nimport \"./MarketManager.sol\";\r\n\r\ncontract Exchange is TokenHandler, MarketManager {\r\n    function depositTokens(\r\n        string memory symbol,\r\n        uint256 amount\r\n    ) external returns (uint256 tokenBalance) {\r\n        return deposit(symbol, amount);\r\n    }\r\n\r\n    function withdrawTokens(\r\n        string memory symbol,\r\n        uint256 amount\r\n    ) external returns (uint256 tokenBalance) {\r\n        return withdraw(symbol, amount);\r\n    }\r\n\r\n    function issueToken(\r\n        string memory name,\r\n        string memory symbol,\r\n        uint256 initialSupply\r\n    ) external onlyOwner {\r\n        uint8 createdTokenId = issue(name, symbol, initialSupply);\r\n\r\n        if (createdTokenId > 1) {\r\n            addMarket(createdTokenId);\r\n        }\r\n    }\r\n\r\n    function placeOrder(\r\n        string memory symbol1,\r\n        string memory symbol2,\r\n        uint256 price,\r\n        uint256 amount,\r\n        OrderLibrary.OrderType orderType,\r\n        OrderLibrary.OrderNature orderNature\r\n    ) external returns (uint256 orderId) {\r\n        require(hasToken(symbol1), \"Token does not exist\");\r\n        require(hasToken(symbol2), \"Token does not exist\");\r\n\r\n        uint8 tokenIndex1 = getTokenId(symbol1);\r\n        uint8 tokenIndex2 = getTokenId(symbol2);\r\n\r\n        // TODO: check logic on market vs limit order\r\n        if (orderType == OrderLibrary.OrderType.Buy) {\r\n            require(\r\n                orderNature == OrderLibrary.OrderNature.Market ||\r\n                    (orderNature == OrderLibrary.OrderNature.Limit &&\r\n                        userBalances[msg.sender][tokenIndex1] >=\r\n                        price * amount),\r\n                \"Insufficient balance\"\r\n            );\r\n        } else {\r\n            require(\r\n                orderNature == OrderLibrary.OrderNature.Market ||\r\n                    (orderNature == OrderLibrary.OrderNature.Limit &&\r\n                        userBalances[msg.sender][tokenIndex2] >=\r\n                        price * amount),\r\n                \"Insufficient balance\"\r\n            );\r\n        }\r\n\r\n        OrderLibrary.PlaceOrderParams memory params = OrderLibrary\r\n            .PlaceOrderParams({\r\n                tokenIndex1: tokenIndex1,\r\n                tokenIndex2: tokenIndex2,\r\n                price: price,\r\n                amount: amount,\r\n                userAddress: msg.sender,\r\n                orderType: orderType,\r\n                orderNature: orderNature\r\n            });\r\n        OrderLibrary.PlaceOrderResults memory result = _placeOrder(params);\r\n        orderId = result.orderId;\r\n\r\n        // Execute the transfers from the matched orders\r\n        executeTransfers(tokenIndex1, tokenIndex2, result);\r\n    }\r\n\r\n    function cancelOrder(\r\n        uint8 marketID,\r\n        OrderLibrary.OrderType orderType,\r\n        uint256 orderId\r\n    ) external {\r\n        require(\r\n            exchangeMarkets[marketID].orderBookManager.getActiveOrderCount(\r\n                orderType\r\n            ) > 0,\r\n            \"Invalid market or order type\"\r\n        );\r\n\r\n        _cancelOrder(marketID, orderId, msg.sender, orderType);\r\n    }\r\n}\r\n",
  "sourcePath": "C:\\Users\\kaise\\OneDrive\\Desktop\\Codebase\\NTU\\sc4053-blockchain-technology\\contracts\\Exchange.sol",
  "compiler": {
    "name": "solc",
    "version": "0.8.13+commit.abaa5c0e.Emscripten.clang"
  },
  "schemaVersion": "3.4.16",
  "updatedAt": "2024-10-03T09:35:52.669Z",
  "networkType": "ethereum",
  "devdoc": {
    "kind": "dev",
    "methods": {
      "owner()": {
        "details": "Returns the address of the current owner."
      },
      "renounceOwnership()": {
        "details": "Leaves the contract without owner. It will not be possible to call `onlyOwner` functions. Can only be called by the current owner. NOTE: Renouncing ownership will leave the contract without an owner, thereby disabling any functionality that is only available to the owner."
      },
      "transferOwnership(address)": {
        "details": "Transfers ownership of the contract to a new account (`newOwner`). Can only be called by the current owner."
      }
    },
    "version": 1
  },
  "userdoc": {
    "kind": "user",
    "methods": {},
    "version": 1
  }
}